{
  "contractName": "Bag",
  "abi": [
    {
      "inputs": [
        {
          "internalType": "address",
          "name": "creator_",
          "type": "address"
        },
        {
          "internalType": "address",
          "name": "bridge_",
          "type": "address"
        },
        {
          "internalType": "uint256",
          "name": "nftea_",
          "type": "uint256"
        }
      ],
      "stateMutability": "nonpayable",
      "type": "constructor"
    },
    {
      "inputs": [],
      "name": "_creator",
      "outputs": [
        {
          "internalType": "address",
          "name": "",
          "type": "address"
        }
      ],
      "stateMutability": "view",
      "type": "function"
    },
    {
      "inputs": [],
      "name": "_nftea",
      "outputs": [
        {
          "internalType": "uint256",
          "name": "",
          "type": "uint256"
        }
      ],
      "stateMutability": "view",
      "type": "function"
    },
    {
      "inputs": [],
      "name": "name",
      "outputs": [
        {
          "internalType": "string",
          "name": "",
          "type": "string"
        }
      ],
      "stateMutability": "view",
      "type": "function"
    },
    {
      "stateMutability": "payable",
      "type": "receive"
    },
    {
      "inputs": [
        {
          "internalType": "address",
          "name": "",
          "type": "address"
        },
        {
          "internalType": "address",
          "name": "",
          "type": "address"
        },
        {
          "internalType": "uint256",
          "name": "",
          "type": "uint256"
        },
        {
          "internalType": "uint256",
          "name": "",
          "type": "uint256"
        },
        {
          "internalType": "bytes",
          "name": "",
          "type": "bytes"
        }
      ],
      "name": "onERC1155Received",
      "outputs": [
        {
          "internalType": "bytes4",
          "name": "",
          "type": "bytes4"
        }
      ],
      "stateMutability": "nonpayable",
      "type": "function"
    },
    {
      "inputs": [
        {
          "internalType": "address",
          "name": "",
          "type": "address"
        },
        {
          "internalType": "address",
          "name": "",
          "type": "address"
        },
        {
          "internalType": "uint256",
          "name": "",
          "type": "uint256"
        },
        {
          "internalType": "bytes",
          "name": "",
          "type": "bytes"
        }
      ],
      "name": "onERC721Received",
      "outputs": [
        {
          "internalType": "bytes4",
          "name": "",
          "type": "bytes4"
        }
      ],
      "stateMutability": "nonpayable",
      "type": "function"
    },
    {
      "inputs": [
        {
          "internalType": "address",
          "name": "nftoutcontract_",
          "type": "address"
        },
        {
          "internalType": "uint256",
          "name": "nftouttokenid_",
          "type": "uint256"
        },
        {
          "internalType": "uint256",
          "name": "nftoutquantity_",
          "type": "uint256"
        },
        {
          "internalType": "address",
          "name": "payto_",
          "type": "address"
        }
      ],
      "name": "WITHDRAWNFT",
      "outputs": [
        {
          "internalType": "bool",
          "name": "",
          "type": "bool"
        }
      ],
      "stateMutability": "nonpayable",
      "type": "function"
    },
    {
      "inputs": [
        {
          "internalType": "address",
          "name": "payto_",
          "type": "address"
        },
        {
          "internalType": "address",
          "name": "token_",
          "type": "address"
        },
        {
          "internalType": "uint256",
          "name": "value_",
          "type": "uint256"
        }
      ],
      "name": "WITHDRAWTOKEN",
      "outputs": [
        {
          "internalType": "bool",
          "name": "",
          "type": "bool"
        }
      ],
      "stateMutability": "nonpayable",
      "type": "function"
    },
    {
      "inputs": [
        {
          "internalType": "address payable",
          "name": "payto_",
          "type": "address"
        },
        {
          "internalType": "uint256",
          "name": "value_",
          "type": "uint256"
        }
      ],
      "name": "WITHDRAWBNB",
      "outputs": [
        {
          "internalType": "bool",
          "name": "",
          "type": "bool"
        }
      ],
      "stateMutability": "nonpayable",
      "type": "function"
    }
  ],
  "bytecode": "0x60c0604052600960809081526804e465465612e6170760bc1b60a0526004906200002a90826200013c565b503480156200003857600080fd5b5060405162000f3038038062000f308339810160408190526200005b9162000225565b60016000819055600380546001600160a01b03199081166001600160a01b03958616179091558154169390921692909217905560025562000266565b634e487b7160e01b600052604160045260246000fd5b600181811c90821680620000c257607f821691505b602082108103620000e357634e487b7160e01b600052602260045260246000fd5b50919050565b601f8211156200013757600081815260208120601f850160051c81016020861015620001125750805b601f850160051c820191505b8181101562000133578281556001016200011e565b5050505b505050565b81516001600160401b0381111562000158576200015862000097565b6200017081620001698454620000ad565b84620000e9565b602080601f831160018114620001a857600084156200018f5750858301515b600019600386901b1c1916600185901b17855562000133565b600085815260208120601f198616915b82811015620001d957888601518255948401946001909101908401620001b8565b5085821015620001f85787850151600019600388901b60f8161c191681555b5050505050600190811b01905550565b80516001600160a01b03811681146200022057600080fd5b919050565b6000806000606084860312156200023b57600080fd5b620002468462000208565b9250620002566020850162000208565b9150604084015190509250925092565b610cba80620002766000396000f3fe60806040526004361061007f5760003560e01c80639177662b1161004e5780639177662b14610143578063b1c6742514610163578063bc8bde6414610183578063f23a6e61146101bb57600080fd5b806306fdde031461008b578063150b7a02146100b65780633e14cdb4146100ef57806343b4cf431461011357600080fd5b3661008657005b600080fd5b34801561009757600080fd5b506100a06101e7565b6040516100ad919061092a565b60405180910390f35b3480156100c257600080fd5b506100d66100d1366004610a33565b610275565b6040516001600160e01b031990911681526020016100ad565b3480156100fb57600080fd5b5061010560025481565b6040519081526020016100ad565b34801561011f57600080fd5b5061013361012e366004610a9f565b610286565b60405190151581526020016100ad565b34801561014f57600080fd5b5061013361015e366004610ae0565b61045f565b34801561016f57600080fd5b5061013361017e366004610b2a565b6107f0565b34801561018f57600080fd5b506001546101a3906001600160a01b031681565b6040516001600160a01b0390911681526020016100ad565b3480156101c757600080fd5b506100d66101d6366004610b56565b63f23a6e6160e01b95945050505050565b600480546101f490610bcc565b80601f016020809104026020016040519081016040528092919081815260200182805461022090610bcc565b801561026d5780601f106102425761010080835404028352916020019161026d565b820191906000526020600020905b81548152906001019060200180831161025057829003601f168201915b505050505081565b630a85bd0160e11b5b949350505050565b60006102906108d1565b6003546001600160a01b031633146102c35760405162461bcd60e51b81526004016102ba90610c06565b60405180910390fd5b6040516370a0823160e01b815230600482015282906001600160a01b038516906370a0823190602401602060405180830381865afa158015610309573d6000803e3d6000fd5b505050506040513d601f19601f8201168201806040525081019061032d9190610c2c565b101561037b5760405162461bcd60e51b815260206004820152601a60248201527f62616c616e6365206e6f7420657175616c20746f2076616c756500000000000060448201526064016102ba565b60405163a9059cbb60e01b81526001600160a01b038581166004830152602482018490526000919085169063a9059cbb906044016020604051808303816000875af11580156103ce573d6000803e3d6000fd5b505050506040513d601f19601f820116820180604052508101906103f29190610c45565b90508061044c5760405162461bcd60e51b815260206004820152602260248201527f6572726f7220706179696e6720746f6b656e20746f207661756c7420686f6c6460448201526132b960f11b60648201526084016102ba565b90506104586001600055565b9392505050565b60006104696108d1565b6003546001600160a01b031633146104935760405162461bcd60e51b81526004016102ba90610c06565b6040516301ffc9a760e01b81526380ac58cd60e01b60048201526001600160a01b038616906301ffc9a790602401602060405180830381865afa1580156104de573d6000803e3d6000fd5b505050506040513d601f19601f820116820180604052508101906105029190610c45565b15610631576040516331a9108f60e11b815260048101859052859030906001600160a01b03831690636352211e90602401602060405180830381865afa158015610550573d6000803e3d6000fd5b505050506040513d601f19601f820116820180604052508101906105749190610c67565b6001600160a01b0316146105c35760405162461bcd60e51b81526020600482015260166024820152751b999d081b9bdd081a5b881d1a1a5cc81dd85b1b195d60521b60448201526064016102ba565b604051632142170760e11b81523060048201526001600160a01b038481166024830152604482018790528216906342842e0e90606401600060405180830381600087803b15801561061357600080fd5b505af1158015610627573d6000803e3d6000fd5b50505050506107e3565b6040516301ffc9a760e01b8152636cdb3d1360e11b60048201526001600160a01b038616906301ffc9a790602401602060405180830381865afa15801561067c573d6000803e3d6000fd5b505050506040513d601f19601f820116820180604052508101906106a09190610c45565b156107e357604051627eeac760e11b815230600482015260248101859052859084906001600160a01b0383169062fdd58e90604401602060405180830381865afa1580156106f2573d6000803e3d6000fd5b505050506040513d601f19601f820116820180604052508101906107169190610c2c565b10156107645760405162461bcd60e51b815260206004820152601e60248201527f6e6f7420656e6f756768206e66747320696e20746869732077616c6c6574000060448201526064016102ba565b604051637921219560e11b81523060048201526001600160a01b038481166024830152604482018790526064820186905260a06084830152600060a483015282169063f242432a9060c401600060405180830381600087803b1580156107c957600080fd5b505af11580156107dd573d6000803e3d6000fd5b50505050505b50600161027e6001600055565b60006107fa6108d1565b6003546001600160a01b031633146108245760405162461bcd60e51b81526004016102ba90610c06565b6000836001600160a01b03168360405160006040518083038185875af1925050503d8060008114610871576040519150601f19603f3d011682016040523d82523d6000602084013e610876565b606091505b50509050806108bf5760405162461bcd60e51b815260206004820152601560248201527432b93937b9103bb4ba34323930bbb4b7339031373160591b60448201526064016102ba565b90506108cb6001600055565b92915050565b6002600054036109235760405162461bcd60e51b815260206004820152601f60248201527f5265656e7472616e637947756172643a207265656e7472616e742063616c6c0060448201526064016102ba565b6002600055565b600060208083528351808285015260005b818110156109575785810183015185820160400152820161093b565b506000604082860101526040601f19601f8301168501019250505092915050565b6001600160a01b038116811461098d57600080fd5b50565b634e487b7160e01b600052604160045260246000fd5b600082601f8301126109b757600080fd5b813567ffffffffffffffff808211156109d2576109d2610990565b604051601f8301601f19908116603f011681019082821181831017156109fa576109fa610990565b81604052838152866020858801011115610a1357600080fd5b836020870160208301376000602085830101528094505050505092915050565b60008060008060808587031215610a4957600080fd5b8435610a5481610978565b93506020850135610a6481610978565b925060408501359150606085013567ffffffffffffffff811115610a8757600080fd5b610a93878288016109a6565b91505092959194509250565b600080600060608486031215610ab457600080fd5b8335610abf81610978565b92506020840135610acf81610978565b929592945050506040919091013590565b60008060008060808587031215610af657600080fd5b8435610b0181610978565b935060208501359250604085013591506060850135610b1f81610978565b939692955090935050565b60008060408385031215610b3d57600080fd5b8235610b4881610978565b946020939093013593505050565b600080600080600060a08688031215610b6e57600080fd5b8535610b7981610978565b94506020860135610b8981610978565b93506040860135925060608601359150608086013567ffffffffffffffff811115610bb357600080fd5b610bbf888289016109a6565b9150509295509295909350565b600181811c90821680610be057607f821691505b602082108103610c0057634e487b7160e01b600052602260045260246000fd5b50919050565b6020808252600c908201526b1b9bdd08185c1c1c9bdd995960a21b604082015260600190565b600060208284031215610c3e57600080fd5b5051919050565b600060208284031215610c5757600080fd5b8151801515811461045857600080fd5b600060208284031215610c7957600080fd5b81516104588161097856fea2646970667358221220352e8875c61a61c8baa9203043adcb9ace34e576aac377b58d3b46237e94842064736f6c63430008110033",
  "immutableReferences": {},
  "source": "// SPDX-License-Identifier: MIT\n\npragma solidity ^0.8.0;\n\n\ninterface IERC165 {\n\n    function supportsInterface(bytes4 interfaceId) external view returns (bool);\n}\n\n\npragma solidity ^0.8.0;\ninterface IERC1155Receiver is IERC165 {\n\n    function onERC1155Received(\n        address operator,\n        address from,\n        uint256 id,\n        uint256 value,\n        bytes calldata data\n    ) external returns (bytes4);\n\n\n    function onERC1155BatchReceived(\n        address operator,\n        address from,\n        uint256[] calldata ids,\n        uint256[] calldata values,\n        bytes calldata data\n    ) external returns (bytes4);\n}\n\n\npragma solidity ^0.8.0;\ninterface IERC721Receiver {\n\n    function onERC721Received(\n        address operator,\n        address from,\n        uint256 tokenId,\n        bytes calldata data\n    ) external returns (bytes4);\n}\n\npragma solidity ^0.8.0;\n\nlibrary SafeMath {\n\n    function tryAdd(uint256 a, uint256 b) internal pure returns (bool, uint256) {\n        unchecked {\n            uint256 c = a + b;\n            if (c < a) return (false, 0);\n            return (true, c);\n        }\n    }\n\n\n    function trySub(uint256 a, uint256 b) internal pure returns (bool, uint256) {\n        unchecked {\n            if (b > a) return (false, 0);\n            return (true, a - b);\n        }\n    }\n\n\n    function tryMul(uint256 a, uint256 b) internal pure returns (bool, uint256) {\n        unchecked {\n            if (a == 0) return (true, 0);\n            uint256 c = a * b;\n            if (c / a != b) return (false, 0);\n            return (true, c);\n        }\n    }\n\n\n    function tryDiv(uint256 a, uint256 b) internal pure returns (bool, uint256) {\n        unchecked {\n            if (b == 0) return (false, 0);\n            return (true, a / b);\n        }\n    }\n\n\n    function tryMod(uint256 a, uint256 b) internal pure returns (bool, uint256) {\n        unchecked {\n            if (b == 0) return (false, 0);\n            return (true, a % b);\n        }\n    }\n\n\n    function add(uint256 a, uint256 b) internal pure returns (uint256) {\n        return a + b;\n    }\n\n\n    function sub(uint256 a, uint256 b) internal pure returns (uint256) {\n        return a - b;\n    }\n\n\n    function mul(uint256 a, uint256 b) internal pure returns (uint256) {\n        return a * b;\n    }\n\n\n    function div(uint256 a, uint256 b) internal pure returns (uint256) {\n        return a / b;\n    }\n\n\n    function mod(uint256 a, uint256 b) internal pure returns (uint256) {\n        return a % b;\n    }\n\n\n    function sub(\n        uint256 a,\n        uint256 b,\n        string memory errorMessage\n    ) internal pure returns (uint256) {\n        unchecked {\n            require(b <= a, errorMessage);\n            return a - b;\n        }\n    }\n\n\n    function div(\n        uint256 a,\n        uint256 b,\n        string memory errorMessage\n    ) internal pure returns (uint256) {\n        unchecked {\n            require(b > 0, errorMessage);\n            return a / b;\n        }\n    }\n\n\n    function mod(\n        uint256 a,\n        uint256 b,\n        string memory errorMessage\n    ) internal pure returns (uint256) {\n        unchecked {\n            require(b > 0, errorMessage);\n            return a % b;\n        }\n    }\n}\n\npragma solidity ^0.8.0;\ninterface IERC1155 is IERC165 {\n\n    event TransferSingle(address indexed operator, address indexed from, address indexed to, uint256 id, uint256 value);\n\n\n    event TransferBatch(\n        address indexed operator,\n        address indexed from,\n        address indexed to,\n        uint256[] ids,\n        uint256[] values\n    );\n\n\n    event ApprovalForAll(address indexed account, address indexed operator, bool approved);\n\n\n    event URI(string value, uint256 indexed id);\n\n\n    function balanceOf(address account, uint256 id) external view returns (uint256);\n\n\n    function balanceOfBatch(address[] calldata accounts, uint256[] calldata ids)\n        external\n        view\n        returns (uint256[] memory);\n\n\n    function setApprovalForAll(address operator, bool approved) external;\n\n\n    function isApprovedForAll(address account, address operator) external view returns (bool);\n\n\n    function safeTransferFrom(\n        address from,\n        address to,\n        uint256 id,\n        uint256 amount,\n        bytes calldata data\n    ) external;\n\n\n    function safeBatchTransferFrom(\n        address from,\n        address to,\n        uint256[] calldata ids,\n        uint256[] calldata amounts,\n        bytes calldata data\n    ) external;\n}\n\npragma solidity ^0.8.0;\ninterface IERC1155MetadataURI is IERC1155 {\n\n    function uri(uint256 id) external view returns (string memory);\n}\n\npragma solidity ^0.8.1;\n\n\nlibrary Address {\n\n    function isContract(address account) internal view returns (bool) {\n        // This method relies on extcodesize/address.code.length, which returns 0\n        // for contracts in construction, since the code is only stored at the end\n        // of the constructor execution.\n\n        return account.code.length > 0;\n    }\n\n\n    function sendValue(address payable recipient, uint256 amount) internal {\n        require(address(this).balance >= amount, \"Address: insufficient balance\");\n\n        (bool success, ) = recipient.call{value: amount}(\"\");\n        require(success, \"Address: unable to send value, recipient may have reverted\");\n    }\n\n\n    function functionCall(address target, bytes memory data) internal returns (bytes memory) {\n        return functionCallWithValue(target, data, 0, \"Address: low-level call failed\");\n    }\n\n\n    function functionCall(\n        address target,\n        bytes memory data,\n        string memory errorMessage\n    ) internal returns (bytes memory) {\n        return functionCallWithValue(target, data, 0, errorMessage);\n    }\n\n\n    function functionCallWithValue(\n        address target,\n        bytes memory data,\n        uint256 value\n    ) internal returns (bytes memory) {\n        return functionCallWithValue(target, data, value, \"Address: low-level call with value failed\");\n    }\n\n\n    function functionCallWithValue(\n        address target,\n        bytes memory data,\n        uint256 value,\n        string memory errorMessage\n    ) internal returns (bytes memory) {\n        require(address(this).balance >= value, \"Address: insufficient balance for call\");\n        (bool success, bytes memory returndata) = target.call{value: value}(data);\n        return verifyCallResultFromTarget(target, success, returndata, errorMessage);\n    }\n\n\n    function functionStaticCall(address target, bytes memory data) internal view returns (bytes memory) {\n        return functionStaticCall(target, data, \"Address: low-level static call failed\");\n    }\n\n\n    function functionStaticCall(\n        address target,\n        bytes memory data,\n        string memory errorMessage\n    ) internal view returns (bytes memory) {\n        (bool success, bytes memory returndata) = target.staticcall(data);\n        return verifyCallResultFromTarget(target, success, returndata, errorMessage);\n    }\n\n\n    function functionDelegateCall(address target, bytes memory data) internal returns (bytes memory) {\n        return functionDelegateCall(target, data, \"Address: low-level delegate call failed\");\n    }\n\n\n    function functionDelegateCall(\n        address target,\n        bytes memory data,\n        string memory errorMessage\n    ) internal returns (bytes memory) {\n        (bool success, bytes memory returndata) = target.delegatecall(data);\n        return verifyCallResultFromTarget(target, success, returndata, errorMessage);\n    }\n\n\n    function verifyCallResultFromTarget(\n        address target,\n        bool success,\n        bytes memory returndata,\n        string memory errorMessage\n    ) internal view returns (bytes memory) {\n        if (success) {\n            if (returndata.length == 0) {\n                // only check isContract if the call was successful and the return data is empty\n                // otherwise we already know that it was a contract\n                require(isContract(target), \"Address: call to non-contract\");\n            }\n            return returndata;\n        } else {\n            _revert(returndata, errorMessage);\n        }\n    }\n\n\n    function verifyCallResult(\n        bool success,\n        bytes memory returndata,\n        string memory errorMessage\n    ) internal pure returns (bytes memory) {\n        if (success) {\n            return returndata;\n        } else {\n            _revert(returndata, errorMessage);\n        }\n    }\n\n    function _revert(bytes memory returndata, string memory errorMessage) private pure {\n        // Look for revert reason and bubble it up if present\n        if (returndata.length > 0) {\n            // The easiest way to bubble the revert reason is using memory via assembly\n            /// @solidity memory-safe-assembly\n            assembly {\n                let returndata_size := mload(returndata)\n                revert(add(32, returndata), returndata_size)\n            }\n        } else {\n            revert(errorMessage);\n        }\n    }\n}\n\npragma solidity ^0.8.0;\n\n\nabstract contract Context {\n    function _msgSender() internal view virtual returns (address) {\n        return msg.sender;\n    }\n\n    function _msgData() internal view virtual returns (bytes calldata) {\n        return msg.data;\n    }\n}\n\n// File: @openzeppelin/contracts/utils/introspection/ERC165.sol\n// OpenZeppelin Contracts v4.4.1 (utils/introspection/ERC165.sol)\n\npragma solidity ^0.8.0;\n\n\nabstract contract ERC165 is IERC165 {\n\n    function supportsInterface(bytes4 interfaceId) public view virtual override returns (bool) {\n        return interfaceId == type(IERC165).interfaceId;\n    }\n}\n\n\npragma solidity ^0.8.0;\n\ninterface IERC721 is IERC165 {\n\n    event Transfer(address indexed from, address indexed to, uint256 indexed tokenId);\n\n\n    event Approval(address indexed owner, address indexed approved, uint256 indexed tokenId);\n\n\n    event ApprovalForAll(address indexed owner, address indexed operator, bool approved);\n\n\n    function balanceOf(address owner) external view returns (uint256 balance);\n\n\n    function ownerOf(uint256 tokenId) external view returns (address owner);\n\n\n    function safeTransferFrom(\n        address from,\n        address to,\n        uint256 tokenId,\n        bytes calldata data\n    ) external;\n\n\n    function safeTransferFrom(\n        address from,\n        address to,\n        uint256 tokenId\n    ) external;\n\n\n    function transferFrom(\n        address from,\n        address to,\n        uint256 tokenId\n    ) external;\n\n\n    function approve(address to, uint256 tokenId) external;\n\n\n    function setApprovalForAll(address operator, bool _approved) external;\n\n\n    function getApproved(uint256 tokenId) external view returns (address operator);\n\n\n    function isApprovedForAll(address owner, address operator) external view returns (bool);\n}\n\npragma solidity ^0.8.0;\n\nabstract contract ReentrancyGuard {\n    // Booleans are more expensive than uint256 or any type that takes up a full\n    // word because each write operation emits an extra SLOAD to first read the\n    // slot's contents, replace the bits taken up by the boolean, and then write\n    // back. This is the compiler's defense against contract upgrades and\n    // pointer aliasing, and it cannot be disabled.\n\n    // The values being non-zero value makes deployment a bit more expensive,\n    // but in exchange the refund on every call to nonReentrant will be lower in\n    // amount. Since refunds are capped to a percentage of the total\n    // transaction's gas, it is best to keep them low in cases like this one, to\n    // increase the likelihood of the full refund coming into effect.\n    uint256 private constant _NOT_ENTERED = 1;\n    uint256 private constant _ENTERED = 2;\n\n    uint256 private _status;\n\n    constructor() {\n        _status = _NOT_ENTERED;\n    }\n\n\n    modifier nonReentrant() {\n        _nonReentrantBefore();\n        _;\n        _nonReentrantAfter();\n    }\n\n    function _nonReentrantBefore() private {\n        // On the first call to nonReentrant, _status will be _NOT_ENTERED\n        require(_status != _ENTERED, \"ReentrancyGuard: reentrant call\");\n\n        // Any calls to nonReentrant after this point will fail\n        _status = _ENTERED;\n    }\n\n    function _nonReentrantAfter() private {\n        // By storing the original value once again, a refund is triggered (see\n        // https://eips.ethereum.org/EIPS/eip-2200)\n        _status = _NOT_ENTERED;\n    }\n\n\n    function _reentrancyGuardEntered() internal view returns (bool) {\n        return _status == _ENTERED;\n    }\n}\ninterface IERC20Permit {\n    function permit(\n        address owner,\n        address spender,\n        uint256 value,\n        uint256 deadline,\n        uint8 v,\n        bytes32 r,\n        bytes32 s\n    ) external;\n\n    function nonces(address owner) external view returns (uint256);\n    function DOMAIN_SEPARATOR() external view returns (bytes32);\n}\ninterface IERC20 {\n    event Transfer(address indexed from, address indexed to, uint256 value);\n    event Approval(address indexed owner, address indexed spender, uint256 value);\n    function totalSupply() external view returns (uint256);\n    function balanceOf(address account) external view returns (uint256);\n    function transfer(address to, uint256 amount) external returns (bool);\n    function allowance(address owner, address spender) external view returns (uint256);\n    function approve(address spender, uint256 amount) external returns (bool);\n    function transferFrom(\n        address from,\n        address to,\n        uint256 amount\n    ) external returns (bool);\n}\ninterface i1155{\n\n    function fire(address caller_) external pure returns(uint256[] memory,uint256[] memory,uint256,bool,bool,uint256);\n    function getContract(address contract_) external returns(bool);\n    function gflame(string memory flame_) external pure returns(address);\n    // function getprofile(address profile_) external returns(address);\n    function WITHDRAWTOKEN(address payto_, address token_, uint256 value_) external returns(bool);\n    function WITHDRAWNFT(address nftoutcontract_, uint256 nftouttokenid_, uint256 nftoutquantity_, address payto_) external returns(bool);\n    function WITHDRAWBNB(address payable payto_,  uint256 value_) external returns(bool);\n    function setwallet(address wallet_) external returns(bool);\n    function setoperator(uint256 labelnftea_,address operator_, address wallet_, uint256 license_, uint256 expire_, uint256 role_) external returns(bool);\n\n    // function setprofile(address profile_, address wallet_) external returns(bool);\n\n    }\ncontract Bag is ReentrancyGuard {\n    using SafeMath for uint256;\n\n    address public _creator;\n    uint256 public _nftea;\n    address private _bridge;\n    string public name = \"NFTea.app\";\n    bytes4 private constant INTERFACE_ID_ERC721 = 0x80ac58cd;\n    bytes4 private constant INTERFACE_ID_ERC1155 = 0xd9b67a26;\n\n    constructor(address creator_, address bridge_, uint256 nftea_) {\n        _bridge = bridge_;\n        _creator = creator_;\n        _nftea = nftea_;\n    }\n    receive () external payable {\n        //  i1155(_bridge).emitdeposit(msg.sender,msg.value, address(this));\n    }\n    function onERC1155Received(\n        address,\n        address,\n        uint256,\n        uint256,\n        bytes memory\n    ) public virtual returns (bytes4) {\n        return this.onERC1155Received.selector;\n    }\n    function onERC721Received(\n        address,\n        address,\n        uint256,\n        bytes memory\n    ) public virtual returns (bytes4) {\n        return this.onERC721Received.selector;\n    }\n    function WITHDRAWNFT(address nftoutcontract_, uint256 nftouttokenid_, uint256 nftoutquantity_, address payto_) public nonReentrant returns(bool){\n\n        require(msg.sender == _bridge, 'not approved');\n\n        if (IERC165(nftoutcontract_).supportsInterface(INTERFACE_ID_ERC721)) {\n\n            IERC721 nft = IERC721(nftoutcontract_);\n            require(nft.ownerOf(nftouttokenid_) == address(this), \"nft not in this wallet\");\n            nft.safeTransferFrom(address(this), payto_, nftouttokenid_);\n\n        } else if (IERC165(nftoutcontract_).supportsInterface(INTERFACE_ID_ERC1155)) {\n\n            IERC1155 nft = IERC1155(nftoutcontract_);\n            require(nft.balanceOf(address(this), nftouttokenid_) >= nftoutquantity_, \"not enough nfts in this wallet\");\n            nft.safeTransferFrom(address(this), payto_, nftouttokenid_, nftoutquantity_, '');\n\n        }\n        return true;\n    }\n    function WITHDRAWTOKEN(address payto_, address token_, uint256 value_) public nonReentrant returns(bool){\n\n        require(msg.sender == _bridge, 'not approved');\n        require(IERC20(token_).balanceOf(address(this))>= value_ , 'balance not equal to value');\n        (bool success) = IERC20(token_).transfer(payto_,value_);\n        require(success, 'error paying token to vault holder');\n        return success;\n    }\n\n    function WITHDRAWBNB(address payable payto_,  uint256 value_) public nonReentrant returns(bool){\n\n        require(msg.sender == _bridge, 'not approved');\n        (bool success,) = payto_.call{value: value_}(\"\");\n        require(success, 'error withdrawing bnb');\n        return success;\n    }\n\n}\n\ncontract bagstorage{\n\n    using SafeMath for uint256;\n\n    event _newwallet(\n        address creator,\n        address wallet,\n        uint256 nft,\n        address nftcontract,\n        uint256 unlockdate\n    );\n    event _withdraw(\n        address payto,\n        address requestor,\n        address token,\n        uint256 nft,\n        uint256 amount,\n        address wallet,\n        bool pending\n    );\n    event _walletlocked(\n        address wallet,\n        uint256 nft,\n        uint256 unlockdate\n\n    );\n    event _deposit(\n        address from,\n        address wallet,\n        uint256 value\n    );\n    struct BAG{\n        address wallet;\n        uint256 nftea;\n        uint256 brewdate;\n    }\n    mapping(uint256=>BAG) public _bag;\n    mapping(address=>bool) public _iswallet;\n    mapping(uint256=>uint256) public _nftea2bag;\n    mapping(address=>uint256) public _wallet2bag;\n    mapping(address=>bool) public _walletpaused;\n    mapping(uint256=>uint256) public nftea2license;\n    mapping(address=>mapping(address=>mapping(address=>uint256))) public wallet2operator2token2withdrawlimit;\n    mapping(address=>mapping(address=>mapping(address=>mapping(uint256=>uint256)))) public wallet2operator2nftcontract2nft2withdrawlimit;\n    mapping(uint256=>bool) public burnedWalletClaimed;\n    mapping(address=>mapping(uint256=>bool)) public claimedBurnedWallet;\n    mapping(uint256=>uint256) private _label2maxwithdrawTea;\n    mapping(uint256=>uint256) private _label2maxwithdrawBNB;\n    address public _burn = 0x000000000000000000000000000000000000dEaD;\n\n    uint256 public _bagid;\n    address public _fire;\n    bytes4 private constant INTERFACE_ID_ERC721 = 0x80ac58cd;\n    bytes4 private constant INTERFACE_ID_ERC1155 = 0xd9b67a26;\n    constructor(address fire_) {\n        _fire = fire_;\n        _bagid = 0;\n    }\n    function iownone(address holder_, address contract_, uint256 nftid_) public view returns(bool){\n\n        bool success = false;\n        uint256 balance = 0;\n\n          if (IERC165(contract_).supportsInterface(INTERFACE_ID_ERC721)) {\n              balance = IERC721(contract_).balanceOf(holder_);\n              require(balance>0, 'you do not own this nft');\n              success = true;\n          } else if (IERC165(contract_).supportsInterface(INTERFACE_ID_ERC1155)) {\n              balance = IERC1155(contract_).balanceOf(holder_, nftid_);\n              require(balance > 0, \"you do not own the nft to access this wallet\");\n              success = true;\n          }\n\n        return success;\n    }\n    function createwallet(address[] memory addresses_, uint256 nftea_, uint256 label_) public returns(address) {\n\n        (bool success) = i1155(_fire).getContract(msg.sender);\n        require(success, 'not an admin bagstorage 1');\n\n        address operator_ = addresses_[0];\n        // BagFactory bagFactory = new BagFactory();\n        // address wallet_ = bagFactory.createBag(operator_,address(this),nftea_);\n        address wallet_ = address(new Bag(operator_,address(this), nftea_));\n        require(wallet_!=address(0), 'error creating wallet');\n\n        _bagid += 1;\n        BAG memory  save_ = BAG({\n            wallet: wallet_,\n            brewdate: 0,\n            nftea: nftea_\n        });\n        _bag[_bagid] = save_;\n        _iswallet[wallet_] = true;\n        _nftea2bag[nftea_] = _bagid;\n        _wallet2bag[wallet_] = _bagid;\n        nftea2license[nftea_] = label_;\n\n        (address flame_) = i1155(_fire).gflame('operatorstorage');\n        (success) = i1155(flame_).setoperator(nftea_,operator_, wallet_, label_, 0,1);\n        require(success,'error setting operator');\n\n         (flame_) = i1155(_fire).gflame('mintcontract');\n         (success) = i1155(flame_).setwallet(wallet_);\n         require(success, 'error setting wallet');\n\n        return (wallet_);\n\n    }\n\n    function withdrawtoken(uint256 license_, uint256 amount_, address requester_, address token_,  address fromwallet_) external returns(bool){\n          bool success;\n\n        if(claimedBurnedWallet[msg.sender][_bag[_wallet2bag[fromwallet_]].nftea]){\n\n          (success) =  i1155(fromwallet_).WITHDRAWTOKEN(msg.sender, token_, amount_);\n\n        }else{\n\n            (success) = i1155(_fire).getContract(msg.sender);\n            require(success, 'not an admin bagstorage 2');\n\n            if(license_>0){\n\n              (address flame_) = i1155(_fire).gflame('mintcontract');\n              (success) = iownone(requester_,flame_,license_);\n              require(success, 'error ownership of license?');\n              require(amount_<=wallet2operator2token2withdrawlimit[fromwallet_][requester_][token_], 'token withdraw limit exceeded');\n\n            }else{\n\n              uint256 nftea_ = _bag[_wallet2bag[fromwallet_]].nftea;\n              (address flame_) = i1155(_fire).gflame('mintcontract');\n              IERC1155 nft = IERC1155(flame_);\n              uint256 balance = nft.balanceOf(requester_, nftea_);\n              require(balance==1,'you do not own this nftea');\n\n            }\n            (success) =  i1155(fromwallet_).WITHDRAWTOKEN(requester_, token_, amount_);\n            require(success, 'error withdrawing token');\n\n          }\n        return true;\n    }\n    function setWithdrawTokenLimit(address wallet_, address operator_, address token_, uint256 limit_) external returns(bool){\n      (bool success) = i1155(_fire).getContract(msg.sender);\n      require(success, 'not an admin bagstorage 3');\n      wallet2operator2token2withdrawlimit[wallet_][operator_][token_] = limit_;\n      return true;\n    }\n    function setWithdrawNFTLimit(address wallet_, address operator_, address nftcontract_, uint256 nftid_, uint256 limit_) external returns(bool){\n      (bool success) = i1155(_fire).getContract(msg.sender);\n      require(success, 'not an admin bagstorage 4');\n\n      wallet2operator2nftcontract2nft2withdrawlimit[wallet_][operator_][nftcontract_][nftid_] = limit_;\n      return true;\n    }\n    function withdrawbnb(uint256 license_, uint256 amount_, address requester_,  address fromwallet_) external returns(bool){\n\n        bool success;\n\n      if(claimedBurnedWallet[msg.sender][_bag[_wallet2bag[fromwallet_]].nftea]){\n\n        (success) =  i1155(fromwallet_).WITHDRAWBNB(payable(msg.sender), amount_);\n\n      }else{\n\n        (success) = i1155(_fire).getContract(msg.sender);\n        require(success, 'not an admin bagstorage 5');\n        if(license_>0){\n\n          (address flame_) = i1155(_fire).gflame('mintcontract');\n          (success) = iownone(requester_,flame_,license_);\n          require(success, 'error ownership of license?');\n\n        }else{\n\n          uint256 nftea_ = _bag[_wallet2bag[fromwallet_]].nftea;\n          (address flame_) = i1155(_fire).gflame('mintcontract');\n          IERC1155 nft = IERC1155(flame_);\n          uint256 balance = nft.balanceOf(requester_, nftea_);\n          require(balance==1,'you do not own this nftea');\n\n        }\n        (success) =  i1155(fromwallet_).WITHDRAWBNB(payable(requester_), amount_);\n        require(success, 'error withdrawing bnb');\n      }\n\n        return true;\n    }\n\n    function withdrawnftea(address requester_, address payto_, uint256 license_, address fromwallet_, address nftoutcontract_, uint256 nftouttokenid_, uint256 nftoutquantity_) external returns(bool){\n\n        bool success;\n\n        if(claimedBurnedWallet[msg.sender][_bag[_wallet2bag[fromwallet_]].nftea]){\n\n          (success) = i1155(fromwallet_).WITHDRAWNFT(nftoutcontract_, nftouttokenid_, nftoutquantity_, msg.sender);\n\n        }else{\n\n          (success) = i1155(_fire).getContract(msg.sender);\n          require(success, 'not an admin bagstorage 6');\n          if(license_>0){\n\n            (address flame_) = i1155(_fire).gflame('mintcontract');\n            (success) = iownone(requester_,flame_,license_);\n            require(success, 'error ownership of license?');\n\n          }else{\n\n            uint256 nftea_ = _bag[_wallet2bag[fromwallet_]].nftea;\n            (address flame_) = i1155(_fire).gflame('mintcontract');\n            IERC1155 nft = IERC1155(flame_);\n            require(nft.balanceOf(requester_, nftea_)==1,'you do not own this nftea');\n\n          }\n          require(nftoutquantity_<=wallet2operator2nftcontract2nft2withdrawlimit[fromwallet_][requester_][nftoutcontract_][nftouttokenid_] || (wallet2operator2nftcontract2nft2withdrawlimit[fromwallet_][requester_][nftoutcontract_][nftouttokenid_]==0 && nftoutquantity_ == 1), 'nft withdraw limit exceeded');\n\n          (success) = i1155(fromwallet_).WITHDRAWNFT(nftoutcontract_, nftouttokenid_, nftoutquantity_, payto_);\n          require(success, 'error withdrawing');\n        }\n        return true;\n\n    }\n    function lockbag(address wallet_, uint256 brewdate) external returns(bool){\n      (bool success) = i1155(_fire).getContract(msg.sender);\n      require(success, 'not an admin bagstorage 7');\n      _bag[_wallet2bag[wallet_]].brewdate = brewdate;\n      return true;\n    }\n    function getbag(uint256 nftea_, address wallet_) public view returns(address, uint256, uint256) {\n\n        uint256 brewdate_ = 0;\n        if(nftea_<1 && wallet_!=address(0)){\n            nftea_ = _bag[_wallet2bag[wallet_]].nftea;\n        }\n        if(nftea_>0){\n            wallet_ = _bag[_nftea2bag[nftea_]].wallet;\n            brewdate_ = _bag[_nftea2bag[nftea_]].brewdate;\n        }\n        return (wallet_, nftea_, brewdate_);\n    }\n    function claimBurnedWallet(uint256 nftea_) public {\n\n      (address flame_) = i1155(_fire).gflame('mintcontract');\n      IERC1155 nft = IERC1155(flame_);\n      require(nft.balanceOf(_burn, nftea_)==1,'nftea not burned');\n      require(!burnedWalletClaimed[nftea_], 'wallet already claimed');\n      burnedWalletClaimed[nftea_] = true;\n      claimedBurnedWallet[msg.sender][nftea_] = true;\n\n    }\n\n    function checksuccess()\n    private pure\n    returns (bool)\n    {\n        uint256 returnValue = 0;\n        /* solium-disable-next-line security/no-inline-assembly */\n        assembly {\n        // check number of bytes returned from last function call\n            switch returndatasize()\n            // no bytes returned: assume success\n            case 0x0 {\n                returnValue := 1\n            }\n            // 32 bytes returned: check if non-zero\n            case 0x20 {\n            // copy 32 bytes into scratch space\n                returndatacopy(0x0, 0x0, 0x20)\n\n            // load those bytes into returnValue\n                returnValue := mload(0x0)\n            }\n            // not sure what was returned: dont mark as success\n            default { }\n        }\n        return returnValue != 0;\n    }\n}\n",
  "sourcePath": "/Users/jl1013/Documents/FUTURO/nftea/contracts/bagstorage.sol",
  "compiler": {
    "name": "solc",
    "version": "0.8.17+commit.8df45f5f.Emscripten.clang"
  },
  "schemaVersion": "3.4.13",
  "updatedAt": "2023-06-30T05:05:47.006Z",
  "devdoc": {
    "kind": "dev",
    "methods": {},
    "version": 1
  },
  "userdoc": {
    "kind": "user",
    "methods": {},
    "version": 1
  }
}