{
  "contractName": "ERC1155Holder",
  "abi": [
    {
      "inputs": [
        {
          "internalType": "bytes4",
          "name": "interfaceId",
          "type": "bytes4"
        }
      ],
      "name": "supportsInterface",
      "outputs": [
        {
          "internalType": "bool",
          "name": "",
          "type": "bool"
        }
      ],
      "stateMutability": "view",
      "type": "function"
    },
    {
      "inputs": [
        {
          "internalType": "address",
          "name": "",
          "type": "address"
        },
        {
          "internalType": "address",
          "name": "",
          "type": "address"
        },
        {
          "internalType": "uint256",
          "name": "",
          "type": "uint256"
        },
        {
          "internalType": "uint256",
          "name": "",
          "type": "uint256"
        },
        {
          "internalType": "bytes",
          "name": "",
          "type": "bytes"
        }
      ],
      "name": "onERC1155Received",
      "outputs": [
        {
          "internalType": "bytes4",
          "name": "",
          "type": "bytes4"
        }
      ],
      "stateMutability": "nonpayable",
      "type": "function"
    },
    {
      "inputs": [
        {
          "internalType": "address",
          "name": "",
          "type": "address"
        },
        {
          "internalType": "address",
          "name": "",
          "type": "address"
        },
        {
          "internalType": "uint256[]",
          "name": "",
          "type": "uint256[]"
        },
        {
          "internalType": "uint256[]",
          "name": "",
          "type": "uint256[]"
        },
        {
          "internalType": "bytes",
          "name": "",
          "type": "bytes"
        }
      ],
      "name": "onERC1155BatchReceived",
      "outputs": [
        {
          "internalType": "bytes4",
          "name": "",
          "type": "bytes4"
        }
      ],
      "stateMutability": "nonpayable",
      "type": "function"
    }
  ],
  "bytecode": "0x608060405234801561001057600080fd5b506103c5806100206000396000f3fe608060405234801561001057600080fd5b50600436106100415760003560e01c806301ffc9a714610046578063bc197c811461006e578063f23a6e61146100a6575b600080fd5b6100596100543660046100fc565b6100c5565b60405190151581526020015b60405180910390f35b61008d61007c366004610280565b63bc197c8160e01b95945050505050565b6040516001600160e01b03199091168152602001610065565b61008d6100b436600461032a565b63f23a6e6160e01b95945050505050565b60006001600160e01b03198216630271189760e51b14806100f657506301ffc9a760e01b6001600160e01b03198316145b92915050565b60006020828403121561010e57600080fd5b81356001600160e01b03198116811461012657600080fd5b9392505050565b80356001600160a01b038116811461014457600080fd5b919050565b634e487b7160e01b600052604160045260246000fd5b604051601f8201601f1916810167ffffffffffffffff8111828210171561018857610188610149565b604052919050565b600082601f8301126101a157600080fd5b8135602067ffffffffffffffff8211156101bd576101bd610149565b8160051b6101cc82820161015f565b92835284810182019282810190878511156101e657600080fd5b83870192505b84831015610205578235825291830191908301906101ec565b979650505050505050565b600082601f83011261022157600080fd5b813567ffffffffffffffff81111561023b5761023b610149565b61024e601f8201601f191660200161015f565b81815284602083860101111561026357600080fd5b816020850160208301376000918101602001919091529392505050565b600080600080600060a0868803121561029857600080fd5b6102a18661012d565b94506102af6020870161012d565b9350604086013567ffffffffffffffff808211156102cc57600080fd5b6102d889838a01610190565b945060608801359150808211156102ee57600080fd5b6102fa89838a01610190565b9350608088013591508082111561031057600080fd5b5061031d88828901610210565b9150509295509295909350565b600080600080600060a0868803121561034257600080fd5b61034b8661012d565b94506103596020870161012d565b93506040860135925060608601359150608086013567ffffffffffffffff81111561038357600080fd5b61031d8882890161021056fea264697066735822122019be33435e08acaae79183d08e21e6fba1426fc9512dd398e029c59d92e4ba6d64736f6c63430008110033",
  "immutableReferences": {},
  "source": "// SPDX-License-Identifier: MIT\npragma solidity ^0.8.0;\ninterface IERC165 {\n\n    function supportsInterface(bytes4 interfaceId) external view returns (bool);\n}\n\npragma solidity ^0.8.0;\n\n\ninterface IERC1155 is IERC165 {\n\n    event TransferSingle(address indexed operator, address indexed from, address indexed to, uint256 id, uint256 value);\n\n\n    event TransferBatch(\n        address indexed operator,\n        address indexed from,\n        address indexed to,\n        uint256[] ids,\n        uint256[] values\n    );\n\n\n    event ApprovalForAll(address indexed account, address indexed operator, bool approved);\n\n\n    event URI(string value, uint256 indexed id);\n\n\n    function balanceOf(address account, uint256 id) external view returns (uint256);\n\n\n    function balanceOfBatch(address[] calldata accounts, uint256[] calldata ids)\n        external\n        view\n        returns (uint256[] memory);\n\n\n    function setApprovalForAll(address operator, bool approved) external;\n\n\n    function isApprovedForAll(address account, address operator) external view returns (bool);\n\n\n    function safeTransferFrom(\n        address from,\n        address to,\n        uint256 id,\n        uint256 amount,\n        bytes calldata data\n    ) external;\n\n\n    function safeBatchTransferFrom(\n        address from,\n        address to,\n        uint256[] calldata ids,\n        uint256[] calldata amounts,\n        bytes calldata data\n    ) external;\n}\n\npragma solidity ^0.8.0;\n\n\ninterface IERC1155Receiver is IERC165 {\n\n    function onERC1155Received(\n        address operator,\n        address from,\n        uint256 id,\n        uint256 value,\n        bytes calldata data\n    ) external returns (bytes4);\n\n\n    function onERC1155BatchReceived(\n        address operator,\n        address from,\n        uint256[] calldata ids,\n        uint256[] calldata values,\n        bytes calldata data\n    ) external returns (bytes4);\n}\n\npragma solidity ^0.8.0;\n\n\ninterface IERC1155MetadataURI is IERC1155 {\n\n    function uri(uint256 id) external view returns (string memory);\n}\n\n\npragma solidity ^0.8.0;\n\nabstract contract ERC165 is IERC165 {\n\n    function supportsInterface(bytes4 interfaceId) public view virtual override returns (bool) {\n        return interfaceId == type(IERC165).interfaceId;\n    }\n}\n\npragma solidity ^0.8.0;\npragma experimental ABIEncoderV2;\n\ninterface IERC20Permit {\n    function permit(\n        address owner,\n        address spender,\n        uint256 value,\n        uint256 deadline,\n        uint8 v,\n        bytes32 r,\n        bytes32 s\n    ) external;\n\n    function nonces(address owner) external view returns (uint256);\n    function DOMAIN_SEPARATOR() external view returns (bytes32);\n}\ninterface IERC20 {\n    event Transfer(address indexed from, address indexed to, uint256 value);\n    event Approval(address indexed owner, address indexed spender, uint256 value);\n    function totalSupply() external view returns (uint256);\n    function balanceOf(address account) external view returns (uint256);\n    function transfer(address to, uint256 amount) external returns (bool);\n    function allowance(address owner, address spender) external view returns (uint256);\n    function approve(address spender, uint256 amount) external returns (bool);\n    function transferFrom(\n        address from,\n        address to,\n        uint256 amount\n    ) external returns (bool);\n}\n\nabstract contract ERC1155Receiver is ERC165, IERC1155Receiver {\n\n    function supportsInterface(bytes4 interfaceId) public view virtual override(ERC165, IERC165) returns (bool) {\n        return interfaceId == type(IERC1155Receiver).interfaceId || super.supportsInterface(interfaceId);\n    }\n}\n\ncontract ERC1155Holder is ERC1155Receiver {\n    function onERC1155Received(\n        address,\n        address,\n        uint256,\n        uint256,\n        bytes memory\n    ) public virtual override returns (bytes4) {\n        return this.onERC1155Received.selector;\n    }\n\n    function onERC1155BatchReceived(\n        address,\n        address,\n        uint256[] memory,\n        uint256[] memory,\n        bytes memory\n    ) public virtual override returns (bytes4) {\n        return this.onERC1155BatchReceived.selector;\n    }\n}\n\ninterface IERC721Receiver {\n    //uncover\n    function onERC721Received(\n        address operator,\n        address from,\n        uint256 tokenId,\n        bytes calldata data\n    ) external returns (bytes4);\n}\n\ncontract ERC721Holder is IERC721Receiver {\n\n    function onERC721Received(\n        address,\n        address,\n        uint256,\n        bytes memory\n    ) public virtual override returns (bytes4) {\n        return this.onERC721Received.selector;\n    }\n}\ninterface IERC721 is IERC165 {\n\n    event Transfer(address indexed from, address indexed to, uint256 indexed tokenId);\n    event Approval(address indexed owner, address indexed approved, uint256 indexed tokenId);\n    event ApprovalForAll(address indexed owner, address indexed operator, bool approved);\n    function balanceOf(address owner) external view returns (uint256 balance);\n    function ownerOf(uint256 tokenId) external view returns (address owner);\n    function safeTransferFrom(\n        address from,\n        address to,\n        uint256 tokenId,\n        bytes calldata data\n    ) external;\n\n    function safeTransferFrom(\n        address from,\n        address to,\n        uint256 tokenId\n    ) external;\n    function transferFrom(\n        address from,\n        address to,\n        uint256 tokenId\n    ) external;\n    function approve(address to, uint256 tokenId) external;\n    function setApprovalForAll(address operator, bool _approved) external;\n    function getApproved(uint256 tokenId) external view returns (address operator);\n    function isApprovedForAll(address owner, address operator) external view returns (bool);\n}\n\nlibrary SafeMath {\n\n    uint constant TEN9 = 10**9;\n    function mul(uint256 a, uint256 b) internal pure returns (uint256) {\n\n        if (a == 0) {\n            return 0;\n        }\n\n        uint256 c = a * b;\n        require(c / a == b, \"SafeMath#mul: OVERFLOW\");\n        return c;\n    }\n    function div(uint256 a, uint256 b) internal pure returns (uint256) {\n        // Solidity only automatically asserts when dividing by 0\n        require(b > 0, \"SafeMath#div: DIVISION_BY_ZERO\");\n        uint256 c = a / b;\n        // assert(a == b * c + a % b); // There is no case in which this doesn't hold\n        return c;\n    }\n    function sub(uint256 a, uint256 b) internal pure returns (uint256) {\n        require(b <= a, \"SafeMath#sub: UNDERFLOW\");\n        uint256 c = a - b;\n        return c;\n    }\n    function add(uint256 a, uint256 b) internal pure returns (uint256) {\n        uint256 c = a + b;\n        require(c >= a, \"SafeMath#add: OVERFLOW 8\");\n        return c;\n    }\n}\ninterface i1155 {\n    struct NFTEA {\n        uint256 nftea;\n        address[] addresses;\n        uint256[] settings;\n    }\n    struct OP{\n        address operator;\n        address wallet;\n        uint256 label;\n        uint256 license;\n        uint256 expire;\n        uint256 wdays;\n        uint256 wdelay;\n        uint256 wamount1;\n        uint256 wamount2;\n        uint256 role;\n    }\n    function fire(address caller_) external pure returns(uint256[] memory,uint256[] memory,uint256,bool,bool,uint256);\n    function createwallet(address[] memory addresses_, uint256 nftea_, uint256 label_) external returns(address);\n    function getbag(uint256 nftea_, address wallet_) external pure returns(address, uint256, uint256);\n    function getContract(address contract_) external returns(bool);\n    function gflame(string memory flame_) external pure returns(address);\n    function getoperator(address operator_, uint256 license_) external pure returns(uint256[4] memory,uint256[] memory,uint256,uint256,uint256,uint256,address);\n    function getwithdrawsetting(uint256 opid_) external returns(uint256,uint256,uint256,uint256,uint256);\n    // function getlicense2nftea2operate(uint256 license_) external pure returns(uint256, address);\n    // function setbag(address holder_, address wallet_) external returns(bool);\n    function withdrawtoken(uint256 license_, uint256 amount_,address requester_, address token,  address fromwallet) external returns(bool);\n    function withdrawnftea(address requester_, address payto_,uint256 license_, address fromwallet_, address nftoutcontract_, uint256 nftouttokenid_, uint256 nftoutquantity_) external returns(bool);\n    function withdrawbnb(uint256 license_, uint256 amount_, address requester_,  address fromwallet_) external returns(bool);\n    function getoperatorrole(uint256 opid_) external pure returns(uint256);\n    // function getop(uint256 opid_) external pure returns(OP memory _ops);\n    function getnftea(uint256 nftea_) external pure returns(NFTEA memory _nfteas,string[] memory, string memory);\n    function getlabelbuyers(uint256 label_, address buyer_) external pure returns(uint256, bool);\n    function lockbag(address wallet_, uint256 unlockdate) external returns(bool);\n    function setnW(uint256 opid_, uint256 nw) external returns(bool);\n    function balanceOf(address holder_, uint256 nftea_) external pure returns(uint256);\n}\ncontract baglogic{\n\n    using SafeMath for uint256;\n    event _deposit(\n        address from,\n        address wallet,\n        uint256 value\n    );\n    event _withdrawrequest(\n        address requester,\n        uint256 license,\n        address wallet,\n        address token,\n        uint256 nftea,\n        uint256 value,\n        uint256 nftid\n    );\n    event vote2lockwallet(\n        uint256 label,\n        address voter\n    );\n    event vote2unlockwallet(\n        uint256 label,\n        address voter\n    );\n    bytes4 private constant INTERFACE_ID_ERC721 = 0x80ac58cd;\n    bytes4 private constant INTERFACE_ID_ERC1155 = 0xd9b67a26;\n    mapping(uint256=>uint256[]) private _nftea2settings;\n    mapping(address=>mapping(uint256=>bool)) public _wallet2license2approvedwithdraw;\n    mapping(address=>mapping(address=>mapping(uint256=>bool))) public _wallet2operator2license2withdrawapproved;\n    mapping(address=>mapping(address=>mapping(uint256=>uint256))) public _wallet2operator2license2withdrawexpire;\n    mapping(address=>mapping(address=>mapping(uint256=>uint256))) public _wallet2operator2license2withdrawamount;\n    mapping(address=>mapping(address=>mapping(uint256=>uint256))) public _wallet2operator2license2withdrawnftea;\n    mapping(address=>mapping(address=>mapping(uint256=>uint256))) public _wallet2operator2license2withdrawnfteaquantity;\n    mapping(address=>mapping(address=>mapping(uint256=>address))) public _wallet2operator2license2withdrawtoken;\n    mapping(address=>bool) private _isW;\n    // mapping(address=>uint256) private _token2Decimal;\n    address public _bnb = 0x242a1fF6eE06f2131B7924Cacb74c7F9E3a5edc9;\n    i1155.NFTEA _nfteas;\n    i1155.OP _ops;\n    address public _fire;\n    constructor(address fire_){\n        _fire = fire_;\n    }\n    function emitdeposit(address from_, uint256 value_, address wallet_) external {\n        require(_isW[msg.sender], 'not approved');\n        emit _deposit(from_, wallet_,value_);\n    }\n    function createwallet(address[] memory addresses_, uint256 nftea_, uint256 label_) external returns(address){\n        //called from mint contract\n        (bool success) = i1155(_fire).getContract(msg.sender);\n        require(success, 'not an admin baglogic 1');\n\n        (address flame_) = i1155(_fire).gflame('bagstorage');\n        (address wallet_) = i1155(flame_).createwallet(addresses_,nftea_, label_);\n        return (wallet_);\n    }\n    function getbag(uint256 nftea_, address wallet_) public view returns(address,uint256,uint256) {\n\n        (address flame_) = i1155(_fire).gflame('bagstorage');\n        (address walletx_,uint256 nfteax_, uint256 brewdate_) = i1155(flame_).getbag(nftea_, wallet_);\n        return (walletx_,nfteax_,brewdate_);\n\n    }\n    function withdrawbnb(uint256 license_, uint256 nftea_, uint256 amount_) public {\n\n        address wallet_ = address(0);\n        uint256 label_ = 0;\n        uint256 conversionFactor = 10**9;\n        amount_ = amount_*conversionFactor;\n\n        if(license_>0){\n\n            ///operator withdraw request\n            (address flame_) = i1155(_fire).gflame('operatorstorage');\n            (uint256[4] memory settings_,,uint256 opid_,uint256 expire_,uint256 labelx_,,address walletx_) = i1155(flame_).getoperator(msg.sender,license_);\n            require(opid_>0, 'invalid operator');\n            require(block.timestamp<expire_ || expire_==0,'license expired');\n            require(settings_[0]==0 || block.timestamp>settings_[1], 'not time to withdraw');\n            require(amount_>settings_[1], 'exceeds withdraw amount');\n            wallet_ = walletx_;\n            label_ = labelx_;\n            if(settings_[0]>0){\n              uint256 nW = block.timestamp + (settings_[0]  * 1 days);\n              (bool okay) = i1155(flame_).setnW(opid_, nW);\n              require(okay, 'error setting nextwithdraw');\n            }\n\n        }else{\n\n            ///make sure this isn't a label\n            (address flame_) = i1155(_fire).gflame('mintstorage');\n            (_nfteas,,) = i1155(flame_).getnftea(nftea_);\n            require(_nfteas.settings[3]>6 , 'nftea is a label, use your label license');\n            wallet_ = _nfteas.addresses[2];\n        }\n        (,,uint256 brewdate) = getbag(nftea_,wallet_);\n        require(block.timestamp>brewdate || brewdate==0, 'wallet locked');\n\n        //process withdraw\n        (bool success) = withdrawbnbcomplete(license_,amount_, wallet_);\n        require(success, 'error withdrawing token');\n    }\n    function withdrawbnbcomplete(uint256 license_, uint256 amount_, address wallet_) internal returns(bool){\n\n        bool success = false;\n        (address flame_) = i1155(_fire).gflame('bagstorage');\n        (success) = i1155(flame_).withdrawbnb(license_, amount_, msg.sender, wallet_);\n        require(success,'error withdrawing token complete');\n        _wallet2operator2license2withdrawexpire[wallet_][msg.sender][license_] = 0;\n        _wallet2operator2license2withdrawtoken[wallet_][msg.sender][license_] = address(0);\n        _wallet2license2approvedwithdraw[wallet_][license_] = false;\n\n        return success;\n    }\n    function withdrawtoken(uint256 license_, uint256 nftea_, uint256 amount_, address tokenaddress_) public {\n\n        address wallet_ = address(0);\n        uint256 label_ = 0;\n        if(license_>0){\n\n            ///operator withdraw request\n            (address flame_) = i1155(_fire).gflame('operatorstorage');\n            (uint256[4] memory settings_,,uint256 opid_,uint256 expire_,uint256 labelx_,,address walletx_) = i1155(flame_).getoperator(msg.sender,license_);\n            require(opid_>0, 'invalid operator');\n            require(block.timestamp<expire_ || expire_==0,'license expired');\n            require(settings_[0]==0 || block.timestamp>settings_[1], 'not time to withdraw');\n            require(amount_>settings_[0], 'exceeds withdraw amount');\n            wallet_ = walletx_;\n            label_ = labelx_;\n            if(settings_[0]>0){\n              uint256 nW = block.timestamp + (settings_[0]  * 1 days);\n              (bool okay) = i1155(flame_).setnW(opid_,nW);\n              require(okay, 'error setting nextwithdraw');\n            }\n        }else{\n\n            ///make sure this isn't a label\n            (address flame_) = i1155(_fire).gflame('mintstorage');\n            (_nfteas,,) = i1155(flame_).getnftea(nftea_);\n            require(_nfteas.settings[3]>6 , 'nftea is a label, use your label license');\n            wallet_ = _nfteas.addresses[2];\n        }\n        (,,uint256 brewdate) = getbag(nftea_,wallet_);\n        require(block.timestamp>brewdate || brewdate==0, 'wallet locked');\n\n        ///process withdraw\n        (bool success) = withdrawtokencomplete(license_,amount_, tokenaddress_, wallet_);\n        require(success, 'error withdrawing token');\n    }\n    function withdrawtokencomplete(uint256 license_, uint256 amount_, address tokenaddress_,address wallet_) internal returns(bool){\n\n        bool success = false;\n            (address flame_) = i1155(_fire).gflame('bagstorage');\n            (success) = i1155(flame_).withdrawtoken(license_, amount_, msg.sender,tokenaddress_, wallet_);\n            require(success,'error withdrawing token complete');\n            _wallet2operator2license2withdrawexpire[wallet_][msg.sender][license_] = 0;\n            _wallet2operator2license2withdrawtoken[wallet_][msg.sender][license_] = address(0);\n            _wallet2license2approvedwithdraw[wallet_][license_] = false;\n        return success;\n    }\n    function withdrawnftea(uint256 license_, uint256 nftea_, address nftoutcontract_, uint256 nftoutid_, uint256 nftoutquantity_, address payto_) public {\n\n        address wallet_ = address(0);\n\n        if(license_>0){\n\n            ///operator withdraw request\n            (address flame_) = i1155(_fire).gflame('operatorstorage');\n            (uint256[4] memory settings_,,uint256 opid_,uint256 expire_,,,address walletx_) = i1155(flame_).getoperator(msg.sender,license_);\n            require(opid_>0, 'invalid operator');\n            require(block.timestamp<expire_ || expire_==0,'license expired');\n            require(settings_[0]==0 || block.timestamp>settings_[1], 'not time to withdraw');\n            wallet_ = walletx_;\n            if(settings_[0]>0){\n              uint256 nW = block.timestamp + (settings_[0]  * 1 days);\n              (bool okay) = i1155(flame_).setnW(opid_, nW);\n              require(okay, 'error setting nextwithdraw');\n            }\n\n        }else{\n\n            ///make sure this isn't a label\n            (address flame_) = i1155(_fire).gflame('mintstorage');\n            (_nfteas,,) = i1155(flame_).getnftea(nftea_);\n            require(_nfteas.settings[3]>6 , 'nftea is a label, use your label license');\n            wallet_ = _nfteas.addresses[2];\n\n        }\n        (,,uint256 brewdate) = getbag(nftea_,wallet_);\n        require(block.timestamp>brewdate || brewdate==0, 'wallet locked');\n        ///process withdraw\n        (bool success) = withdrawnfteacomplete(nftoutcontract_,nftoutid_,nftoutquantity_,license_,wallet_, payto_);\n        require(success, 'error withdrawing nftea');\n\n    }\n    function withdrawnfteacomplete(address nftoutcontract_,uint256 nftoutid_,uint256 nftoutquantity_, uint256 license_,address wallet_, address payto_) public returns(bool){\n\n        /// get wallet to withdraw from\n        bool success = false;\n        (address flame_) = i1155(_fire).gflame('bagstorage');\n        (success) = i1155(flame_).withdrawnftea(msg.sender,payto_, license_, wallet_, nftoutcontract_, nftoutid_, nftoutquantity_);\n        require(success,'error withdrawing nftea complete');\n        _wallet2operator2license2withdrawexpire[wallet_][msg.sender][license_] = 0;\n        _wallet2operator2license2withdrawtoken[wallet_][msg.sender][license_] = address(0);\n        _wallet2license2approvedwithdraw[wallet_][license_] = false;\n        return success;\n    }\n    function lockwallet(uint256 nftea_, uint256 unlockdate_) public {\n\n        (address flame_) = i1155(_fire).gflame('mintcontract');\n        (uint256 balance) = i1155(flame_).balanceOf(msg.sender,nftea_);\n        require(balance==1, 'you do not own this nftea');\n        (flame_) = i1155(_fire).gflame('bagstorage');\n        (address wallet_,,uint256 brewdate) = i1155(flame_).getbag(nftea_,address(0));\n        require(block.timestamp>brewdate || brewdate==0 || unlockdate_>brewdate, 'wallet already locked');\n\n        (bool success) = i1155(flame_).lockbag(wallet_,unlockdate_);\n        require(success, 'error locking wallet');\n    }\n    function loveLock(address wallet_) public returns(bool){\n      (address flame_) = i1155(_fire).gflame('teapot');\n      require(msg.sender == flame_, 'not appoved');\n      (flame_) = i1155(_fire).gflame('bagstorage');\n      uint256 brewdate = block.timestamp + 90 days;\n      (bool success) = i1155(flame_).lockbag(wallet_,brewdate);\n      require(success, 'error locking wallet');\n      return true;\n    }\n\n    function checksuccess()\n    private pure\n    returns (bool)\n    {\n        uint256 returnValue = 0;\n        /* solium-disable-next-line security/no-inline-assembly */\n        assembly {\n        // check number of bytes returned from last function call\n            switch returndatasize()\n            // no bytes returned: assume success\n            case 0x0 {\n                returnValue := 1\n            }\n            // 32 bytes returned: check if non-zero\n            case 0x20 {\n            // copy 32 bytes into scratch space\n                returndatacopy(0x0, 0x0, 0x20)\n\n            // load those bytes into returnValue\n                returnValue := mload(0x0)\n            }\n            // not sure what was returned: dont mark as success\n            default { }\n        }\n        return returnValue != 0;\n    }\n}\n",
  "sourcePath": "/Users/jl1013/Documents/FUTURO/nftea/contracts/baglogic.sol",
  "compiler": {
    "name": "solc",
    "version": "0.8.17+commit.8df45f5f.Emscripten.clang"
  },
  "schemaVersion": "3.4.13",
  "updatedAt": "2023-06-30T05:05:46.640Z",
  "devdoc": {
    "kind": "dev",
    "methods": {},
    "version": 1
  },
  "userdoc": {
    "kind": "user",
    "methods": {},
    "version": 1
  }
}