{
  "contractName": "fire",
  "abi": [
    {
      "inputs": [],
      "stateMutability": "nonpayable",
      "type": "constructor"
    },
    {
      "inputs": [
        {
          "internalType": "string",
          "name": "",
          "type": "string"
        }
      ],
      "name": "_fee",
      "outputs": [
        {
          "internalType": "uint256",
          "name": "",
          "type": "uint256"
        }
      ],
      "stateMutability": "view",
      "type": "function",
      "constant": true
    },
    {
      "inputs": [
        {
          "internalType": "uint256",
          "name": "",
          "type": "uint256"
        }
      ],
      "name": "_fees",
      "outputs": [
        {
          "internalType": "string",
          "name": "",
          "type": "string"
        }
      ],
      "stateMutability": "view",
      "type": "function",
      "constant": true
    },
    {
      "inputs": [
        {
          "internalType": "uint256",
          "name": "",
          "type": "uint256"
        }
      ],
      "name": "_fees2",
      "outputs": [
        {
          "internalType": "uint256",
          "name": "",
          "type": "uint256"
        }
      ],
      "stateMutability": "view",
      "type": "function",
      "constant": true
    },
    {
      "inputs": [
        {
          "internalType": "string",
          "name": "",
          "type": "string"
        }
      ],
      "name": "_flame",
      "outputs": [
        {
          "internalType": "address",
          "name": "",
          "type": "address"
        }
      ],
      "stateMutability": "view",
      "type": "function",
      "constant": true
    },
    {
      "inputs": [
        {
          "internalType": "uint256",
          "name": "",
          "type": "uint256"
        }
      ],
      "name": "_flames",
      "outputs": [
        {
          "internalType": "string",
          "name": "",
          "type": "string"
        }
      ],
      "stateMutability": "view",
      "type": "function",
      "constant": true
    },
    {
      "inputs": [
        {
          "internalType": "uint256",
          "name": "",
          "type": "uint256"
        }
      ],
      "name": "_flames2",
      "outputs": [
        {
          "internalType": "address",
          "name": "",
          "type": "address"
        }
      ],
      "stateMutability": "view",
      "type": "function",
      "constant": true
    },
    {
      "inputs": [
        {
          "internalType": "address",
          "name": "",
          "type": "address"
        }
      ],
      "name": "_isContract",
      "outputs": [
        {
          "internalType": "bool",
          "name": "",
          "type": "bool"
        }
      ],
      "stateMutability": "view",
      "type": "function",
      "constant": true
    },
    {
      "inputs": [
        {
          "internalType": "address",
          "name": "",
          "type": "address"
        }
      ],
      "name": "_isadmin",
      "outputs": [
        {
          "internalType": "bool",
          "name": "",
          "type": "bool"
        }
      ],
      "stateMutability": "view",
      "type": "function",
      "constant": true
    },
    {
      "inputs": [
        {
          "internalType": "string",
          "name": "",
          "type": "string"
        }
      ],
      "name": "_istag",
      "outputs": [
        {
          "internalType": "bool",
          "name": "",
          "type": "bool"
        }
      ],
      "stateMutability": "view",
      "type": "function",
      "constant": true
    },
    {
      "inputs": [
        {
          "internalType": "address",
          "name": "",
          "type": "address"
        }
      ],
      "name": "_operator2flame",
      "outputs": [
        {
          "internalType": "string",
          "name": "",
          "type": "string"
        }
      ],
      "stateMutability": "view",
      "type": "function",
      "constant": true
    },
    {
      "inputs": [],
      "name": "name",
      "outputs": [
        {
          "internalType": "string",
          "name": "",
          "type": "string"
        }
      ],
      "stateMutability": "view",
      "type": "function",
      "constant": true
    },
    {
      "inputs": [
        {
          "internalType": "string[]",
          "name": "flame_",
          "type": "string[]"
        },
        {
          "internalType": "address[]",
          "name": "contract_",
          "type": "address[]"
        },
        {
          "internalType": "bool[]",
          "name": "isCon_",
          "type": "bool[]"
        }
      ],
      "name": "setflames",
      "outputs": [],
      "stateMutability": "nonpayable",
      "type": "function"
    },
    {
      "inputs": [
        {
          "internalType": "string",
          "name": "flame_",
          "type": "string"
        },
        {
          "internalType": "address",
          "name": "contract_",
          "type": "address"
        },
        {
          "internalType": "bool",
          "name": "isCon_",
          "type": "bool"
        }
      ],
      "name": "setflame",
      "outputs": [],
      "stateMutability": "nonpayable",
      "type": "function"
    },
    {
      "inputs": [
        {
          "internalType": "string[]",
          "name": "tag_",
          "type": "string[]"
        }
      ],
      "name": "settag",
      "outputs": [],
      "stateMutability": "nonpayable",
      "type": "function"
    },
    {
      "inputs": [
        {
          "internalType": "string",
          "name": "tag_",
          "type": "string"
        },
        {
          "internalType": "bool",
          "name": "value_",
          "type": "bool"
        }
      ],
      "name": "stag",
      "outputs": [],
      "stateMutability": "nonpayable",
      "type": "function"
    },
    {
      "inputs": [
        {
          "internalType": "string",
          "name": "tag_",
          "type": "string"
        }
      ],
      "name": "gtag",
      "outputs": [
        {
          "internalType": "bool",
          "name": "",
          "type": "bool"
        }
      ],
      "stateMutability": "view",
      "type": "function",
      "constant": true
    },
    {
      "inputs": [
        {
          "internalType": "string[]",
          "name": "fee_",
          "type": "string[]"
        },
        {
          "internalType": "uint256[]",
          "name": "value_",
          "type": "uint256[]"
        }
      ],
      "name": "setfee",
      "outputs": [],
      "stateMutability": "nonpayable",
      "type": "function"
    },
    {
      "inputs": [
        {
          "internalType": "string",
          "name": "fee_",
          "type": "string"
        }
      ],
      "name": "getfee",
      "outputs": [
        {
          "internalType": "uint256",
          "name": "",
          "type": "uint256"
        }
      ],
      "stateMutability": "view",
      "type": "function",
      "constant": true
    },
    {
      "inputs": [
        {
          "internalType": "string",
          "name": "flame_",
          "type": "string"
        }
      ],
      "name": "gflame",
      "outputs": [
        {
          "internalType": "address",
          "name": "",
          "type": "address"
        }
      ],
      "stateMutability": "view",
      "type": "function",
      "constant": true
    },
    {
      "inputs": [
        {
          "internalType": "address",
          "name": "caller_",
          "type": "address"
        }
      ],
      "name": "getContract",
      "outputs": [
        {
          "internalType": "bool",
          "name": "",
          "type": "bool"
        }
      ],
      "stateMutability": "view",
      "type": "function",
      "constant": true
    },
    {
      "inputs": [
        {
          "internalType": "address",
          "name": "admin_",
          "type": "address"
        },
        {
          "internalType": "bool",
          "name": "value_",
          "type": "bool"
        }
      ],
      "name": "setadmin",
      "outputs": [],
      "stateMutability": "nonpayable",
      "type": "function"
    },
    {
      "inputs": [
        {
          "internalType": "address",
          "name": "contract_",
          "type": "address"
        },
        {
          "internalType": "bool",
          "name": "value_",
          "type": "bool"
        }
      ],
      "name": "setcontract",
      "outputs": [],
      "stateMutability": "nonpayable",
      "type": "function"
    },
    {
      "inputs": [
        {
          "internalType": "address",
          "name": "admin_",
          "type": "address"
        }
      ],
      "name": "getadmin",
      "outputs": [
        {
          "internalType": "bool",
          "name": "",
          "type": "bool"
        }
      ],
      "stateMutability": "view",
      "type": "function",
      "constant": true
    }
  ],
  "bytecode": "0x60c060405260076080908152664669726520563160c81b60a052600090620000289082620000fc565b503480156200003657600080fd5b50336000908152600860205260409020805460ff19166001179055620001c8565b634e487b7160e01b600052604160045260246000fd5b600181811c908216806200008257607f821691505b602082108103620000a357634e487b7160e01b600052602260045260246000fd5b50919050565b601f821115620000f757600081815260208120601f850160051c81016020861015620000d25750805b601f850160051c820191505b81811015620000f357828155600101620000de565b5050505b505050565b81516001600160401b0381111562000118576200011862000057565b62000130816200012984546200006d565b84620000a9565b602080601f8311600181146200016857600084156200014f5750858301515b600019600386901b1c1916600185901b178555620000f3565b600085815260208120601f198616915b82811015620001995788860151825594840194600190910190840162000178565b5085821015620001b85787850151600019600388901b60f8161c191681555b5050505050600190811b01905550565b61105d80620001d86000396000f3fe608060405234801561001057600080fd5b506004361061014d5760003560e01c806390fb5194116100c3578063d49781d31161007c578063d49781d31461034d578063da11bf9c14610360578063f333c38314610383578063f5eeed7a14610396578063f5f7eb67146103a9578063f84766cd146103dd57600080fd5b806390fb5194146102c0578063a25a3034146102d3578063a4ad3f5e146102e6578063aeb4f9e4146102f9578063b06cd5321461030c578063b357081c1461033a57600080fd5b80635a7b65fd116101155780635a7b65fd146102265780635a88ae00146102515780636881aedd14610264578063732f938414610277578063768a61001461028a5780637d48441f1461029d57600080fd5b806306fdde03146101525780630ad1c2fa1461017057806313e35cec146101ac5780632cd4d40e146101e55780634d20286d146101fa575b600080fd5b61015a6103f0565b6040516101679190610a21565b60405180910390f35b61019c61017e366004610a70565b6001600160a01b031660009081526009602052604090205460ff1690565b6040519015158152602001610167565b6101d76101ba366004610b49565b805160208183018101805160078252928201919093012091525481565b604051908152602001610167565b6101f86101f3366004610b96565b61047e565b005b61019c610208366004610a70565b6001600160a01b031660009081526008602052604090205460ff1690565b610239610234366004610be4565b6104eb565b6040516001600160a01b039091168152602001610167565b61015a61025f366004610a70565b610515565b610239610272366004610b49565b61052e565b6101f8610285366004610bfd565b61055f565b6101f8610298366004610d0f565b6105fd565b61019c6102ab366004610a70565b60096020526000908152604090205460ff1681565b6101d76102ce366004610be4565b61069b565b61019c6102e1366004610b49565b6106bc565b61015a6102f4366004610be4565b6106e7565b6101f8610307366004610e2c565b610712565b61019c61031a366004610b49565b8051602081830181018051600a8252928201919093012091525460ff1681565b61015a610348366004610be4565b61084f565b6101f861035b366004610f0f565b61085f565b61019c61036e366004610a70565b60086020526000908152604090205460ff1681565b6101f8610391366004610f0f565b6108b9565b6101f86103a4366004610f39565b61093b565b6102396103b7366004610b49565b80516020818301810180516005825292820191909301209152546001600160a01b031681565b6101d76103eb366004610b49565b6109d5565b600080546103fd90610f6e565b80601f016020809104026020016040519081016040528092919081815260200182805461042990610f6e565b80156104765780601f1061044b57610100808354040283529160200191610476565b820191906000526020600020905b81548152906001019060200180831161045957829003601f168201915b505050505081565b3360009081526008602052604090205460ff166104b65760405162461bcd60e51b81526004016104ad90610fa8565b60405180910390fd5b80600a836040516104c79190610fce565b908152604051908190036020019020805491151560ff199092169190911790555050565b600481815481106104fb57600080fd5b6000918252602090912001546001600160a01b0316905081565b600660205260009081526040902080546103fd90610f6e565b60006005826040516105409190610fce565b908152604051908190036020019020546001600160a01b031692915050565b3360009081526008602052604090205460ff1661058e5760405162461bcd60e51b81526004016104ad90610fa8565b8160058460405161059f9190610fce565b90815260405190819003602001902080546001600160a01b03929092166001600160a01b031990921691909117905580156105f8576001600160a01b0382166000908152600960205260409020805460ff191660011790555b505050565b3360009081526008602052604090205460ff1661062c5760405162461bcd60e51b81526004016104ad90610fa8565b60005b82518110156105f85781818151811061064a5761064a610fea565b6020026020010151600784838151811061066657610666610fea565b602002602001015160405161067b9190610fce565b9081526040519081900360200190205561069481611000565b905061062f565b600381815481106106ab57600080fd5b600091825260209091200154905081565b6000600a826040516106ce9190610fce565b9081526040519081900360200190205460ff1692915050565b600181815481106106f757600080fd5b9060005260206000200160009150905080546103fd90610f6e565b3360009081526008602052604090205460ff166107415760405162461bcd60e51b81526004016104ad90610fa8565b60005b83518110156108495782818151811061075f5761075f610fea565b6020026020010151600585838151811061077b5761077b610fea565b60200260200101516040516107909190610fce565b908152602001604051809103902060006101000a8154816001600160a01b0302191690836001600160a01b031602179055508181815181106107d4576107d4610fea565b602002602001015115610839576001600960008584815181106107f9576107f9610fea565b60200260200101516001600160a01b03166001600160a01b0316815260200190815260200160002060006101000a81548160ff0219169083151502179055505b61084281611000565b9050610744565b50505050565b600281815481106106f757600080fd5b3360009081526008602052604090205460ff1661088e5760405162461bcd60e51b81526004016104ad90610fa8565b6001600160a01b03919091166000908152600860205260409020805460ff1916911515919091179055565b3360009081526008602052604090205460ff166109105760405162461bcd60e51b81526020600482015260156024820152743737ba1030b8383937bb32b2103330ba3432b9189960591b60448201526064016104ad565b6001600160a01b03919091166000908152600960205260409020805460ff1916911515919091179055565b3360009081526008602052604090205460ff1661096a5760405162461bcd60e51b81526004016104ad90610fa8565b60005b81518110156109d1576001600a83838151811061098c5761098c610fea565b60200260200101516040516109a19190610fce565b908152604051908190036020019020805491151560ff199092169190911790556109ca81611000565b905061096d565b5050565b60006007826040516109e79190610fce565b9081526020016040518091039020549050919050565b60005b83811015610a18578181015183820152602001610a00565b50506000910152565b6020815260008251806020840152610a408160408501602087016109fd565b601f01601f19169190910160400192915050565b80356001600160a01b0381168114610a6b57600080fd5b919050565b600060208284031215610a8257600080fd5b610a8b82610a54565b9392505050565b634e487b7160e01b600052604160045260246000fd5b604051601f8201601f1916810167ffffffffffffffff81118282101715610ad157610ad1610a92565b604052919050565b600082601f830112610aea57600080fd5b813567ffffffffffffffff811115610b0457610b04610a92565b610b17601f8201601f1916602001610aa8565b818152846020838601011115610b2c57600080fd5b816020850160208301376000918101602001919091529392505050565b600060208284031215610b5b57600080fd5b813567ffffffffffffffff811115610b7257600080fd5b610b7e84828501610ad9565b949350505050565b80358015158114610a6b57600080fd5b60008060408385031215610ba957600080fd5b823567ffffffffffffffff811115610bc057600080fd5b610bcc85828601610ad9565b925050610bdb60208401610b86565b90509250929050565b600060208284031215610bf657600080fd5b5035919050565b600080600060608486031215610c1257600080fd5b833567ffffffffffffffff811115610c2957600080fd5b610c3586828701610ad9565b935050610c4460208501610a54565b9150610c5260408501610b86565b90509250925092565b600067ffffffffffffffff821115610c7557610c75610a92565b5060051b60200190565b600082601f830112610c9057600080fd5b81356020610ca5610ca083610c5b565b610aa8565b82815260059290921b84018101918181019086841115610cc457600080fd5b8286015b84811015610d0457803567ffffffffffffffff811115610ce85760008081fd5b610cf68986838b0101610ad9565b845250918301918301610cc8565b509695505050505050565b60008060408385031215610d2257600080fd5b823567ffffffffffffffff80821115610d3a57600080fd5b610d4686838701610c7f565b9350602091508185013581811115610d5d57600080fd5b85019050601f81018613610d7057600080fd5b8035610d7e610ca082610c5b565b81815260059190911b82018301908381019088831115610d9d57600080fd5b928401925b82841015610dbb57833582529284019290840190610da2565b80955050505050509250929050565b600082601f830112610ddb57600080fd5b81356020610deb610ca083610c5b565b82815260059290921b84018101918181019086841115610e0a57600080fd5b8286015b84811015610d0457610e1f81610b86565b8352918301918301610e0e565b600080600060608486031215610e4157600080fd5b833567ffffffffffffffff80821115610e5957600080fd5b610e6587838801610c7f565b9450602091508186013581811115610e7c57600080fd5b8601601f81018813610e8d57600080fd5b8035610e9b610ca082610c5b565b81815260059190911b8201840190848101908a831115610eba57600080fd5b928501925b82841015610edf57610ed084610a54565b82529285019290850190610ebf565b96505050506040860135915080821115610ef857600080fd5b50610f0586828701610dca565b9150509250925092565b60008060408385031215610f2257600080fd5b610f2b83610a54565b9150610bdb60208401610b86565b600060208284031215610f4b57600080fd5b813567ffffffffffffffff811115610f6257600080fd5b610b7e84828501610c7f565b600181811c90821680610f8257607f821691505b602082108103610fa257634e487b7160e01b600052602260045260246000fd5b50919050565b6020808252600c908201526b1b9bdd08185c1c1c9bdd995960a21b604082015260600190565b60008251610fe08184602087016109fd565b9190910192915050565b634e487b7160e01b600052603260045260246000fd5b60006001820161102057634e487b7160e01b600052601160045260246000fd5b506001019056fea26469706673582212202cc04b1e353e8bb9adb714fb304f1011c1f8c883cd9910690c6172094f894ac564736f6c63430008110033",
  "immutableReferences": {},
  "source": "// SPDX-License-Identifier: MIT\npragma solidity ^0.8.4;\n\ncontract fire {\n\n    string public name = \"Fire V1\";\n    string[]  public _flames;\n    string[]  public _fees;\n    uint256[]  public _fees2;\n    address[]  public _flames2;\n\n    mapping(string=>address) public _flame;\n    mapping(address=>string) public _operator2flame;\n    mapping(string=>uint256) public _fee;\n    mapping(address=>bool) public _isadmin;\n    mapping(address=>bool) public _isContract;\n    mapping(string=>bool) public _istag;\n\n    constructor(){\n        _isadmin[msg.sender] = true;\n    }\n    function setflames(string[] memory flame_, address[] memory contract_, bool[] memory isCon_) public {\n\n        require(_isadmin[msg.sender], 'not approved');\n        for (uint256 i = 0; i < flame_.length; ++i) {\n            _flame[flame_[i]] = contract_[i];\n            if(isCon_[i]){\n                _isContract[contract_[i]] = true;\n            }\n        }\n    }\n    function setflame(string memory flame_, address contract_, bool isCon_) public {\n      require(_isadmin[msg.sender], 'not approved');\n      _flame[flame_] = contract_;\n      if(isCon_){\n        _isContract[contract_] = true;\n      }\n    }\n    function settag(string[] memory tag_) public{\n        require(_isadmin[msg.sender], 'not approved');\n        for (uint256 i = 0; i < tag_.length; ++i) {\n            _istag[tag_[i]] = true;\n        }\n    }\n    function stag(string memory tag_, bool value_) public {\n        require(_isadmin[msg.sender], 'not approved');\n        _istag[tag_] = value_;\n\n    }\n    function gtag(string memory tag_) public view returns(bool){\n        return _istag[tag_];\n    }\n    function setfee(string[] memory fee_, uint256[] memory value_) public {\n        require(_isadmin[msg.sender], 'not approved');\n        for (uint256 i = 0; i < fee_.length; ++i) {\n            _fee[fee_[i]] = value_[i];\n        }\n    }\n    function getfee(string memory fee_) public view returns(uint256){\n        return(_fee[fee_]);\n    }\n    function gflame(string memory flame_) public view returns(address){\n        return _flame[flame_];\n    }\n    function getContract(address caller_) public view returns(bool){\n        return _isContract[caller_];\n    }\n\n    function setadmin(address admin_, bool value_) public {\n        require(_isadmin[msg.sender], 'not approved');\n        _isadmin[admin_] = value_;\n    }\n    function setcontract(address contract_, bool value_) public {\n        require(_isadmin[msg.sender], 'not approved father12');\n        _isContract[contract_] = value_;\n    }\n    function getadmin(address admin_) public view returns(bool){\n        return _isadmin[admin_];\n    }\n}\n",
  "sourcePath": "/Users/jl1013/Documents/FUTURO/nftea/contracts/fire.sol",
  "compiler": {
    "name": "solc",
    "version": "0.8.17+commit.8df45f5f.Emscripten.clang"
  },
  "schemaVersion": "3.4.13",
  "updatedAt": "2023-06-30T06:03:30.200Z",
  "networkType": "ethereum",
  "devdoc": {
    "kind": "dev",
    "methods": {},
    "version": 1
  },
  "userdoc": {
    "kind": "user",
    "methods": {},
    "version": 1
  }
}