{
  "contractName": "kettle",
  "abi": [
    {
      "inputs": [
        {
          "internalType": "address",
          "name": "fire_",
          "type": "address"
        }
      ],
      "stateMutability": "nonpayable",
      "type": "constructor"
    },
    {
      "anonymous": false,
      "inputs": [
        {
          "indexed": false,
          "internalType": "address",
          "name": "spender",
          "type": "address"
        },
        {
          "indexed": false,
          "internalType": "address",
          "name": "token",
          "type": "address"
        },
        {
          "indexed": false,
          "internalType": "uint256",
          "name": "value",
          "type": "uint256"
        },
        {
          "indexed": false,
          "internalType": "uint256",
          "name": "type_",
          "type": "uint256"
        },
        {
          "indexed": false,
          "internalType": "uint256",
          "name": "label_",
          "type": "uint256"
        }
      ],
      "name": "paid",
      "type": "event"
    },
    {
      "anonymous": false,
      "inputs": [
        {
          "indexed": false,
          "internalType": "address",
          "name": "holder",
          "type": "address"
        },
        {
          "indexed": false,
          "internalType": "uint256",
          "name": "amount",
          "type": "uint256"
        },
        {
          "indexed": false,
          "internalType": "uint256",
          "name": "label",
          "type": "uint256"
        }
      ],
      "name": "royalteaclaimed",
      "type": "event"
    },
    {
      "inputs": [],
      "name": "WBNB",
      "outputs": [
        {
          "internalType": "address",
          "name": "",
          "type": "address"
        }
      ],
      "stateMutability": "view",
      "type": "function",
      "constant": true
    },
    {
      "inputs": [],
      "name": "_fire",
      "outputs": [
        {
          "internalType": "address",
          "name": "",
          "type": "address"
        }
      ],
      "stateMutability": "view",
      "type": "function",
      "constant": true
    },
    {
      "inputs": [
        {
          "internalType": "address",
          "name": "",
          "type": "address"
        },
        {
          "internalType": "uint256",
          "name": "",
          "type": "uint256"
        },
        {
          "internalType": "address",
          "name": "",
          "type": "address"
        }
      ],
      "name": "buyer2label2token2royaltystart",
      "outputs": [
        {
          "internalType": "uint256",
          "name": "",
          "type": "uint256"
        }
      ],
      "stateMutability": "view",
      "type": "function",
      "constant": true
    },
    {
      "inputs": [
        {
          "internalType": "address",
          "name": "",
          "type": "address"
        },
        {
          "internalType": "uint256",
          "name": "",
          "type": "uint256"
        }
      ],
      "name": "buyerToCollectionToRoyalty",
      "outputs": [
        {
          "internalType": "uint256",
          "name": "",
          "type": "uint256"
        }
      ],
      "stateMutability": "view",
      "type": "function",
      "constant": true
    },
    {
      "inputs": [
        {
          "internalType": "uint256",
          "name": "",
          "type": "uint256"
        }
      ],
      "name": "label2royalteaspaid",
      "outputs": [
        {
          "internalType": "uint256",
          "name": "",
          "type": "uint256"
        }
      ],
      "stateMutability": "view",
      "type": "function",
      "constant": true
    },
    {
      "inputs": [
        {
          "internalType": "uint256",
          "name": "",
          "type": "uint256"
        },
        {
          "internalType": "address",
          "name": "",
          "type": "address"
        }
      ],
      "name": "label2token2buyers",
      "outputs": [
        {
          "internalType": "uint256",
          "name": "",
          "type": "uint256"
        }
      ],
      "stateMutability": "view",
      "type": "function",
      "constant": true
    },
    {
      "inputs": [
        {
          "internalType": "uint256",
          "name": "",
          "type": "uint256"
        },
        {
          "internalType": "address",
          "name": "",
          "type": "address"
        }
      ],
      "name": "label2token2royalteacollected",
      "outputs": [
        {
          "internalType": "uint256",
          "name": "",
          "type": "uint256"
        }
      ],
      "stateMutability": "view",
      "type": "function",
      "constant": true
    },
    {
      "inputs": [
        {
          "internalType": "uint256",
          "name": "",
          "type": "uint256"
        },
        {
          "internalType": "address",
          "name": "",
          "type": "address"
        }
      ],
      "name": "label2token2royalteaspaid",
      "outputs": [
        {
          "internalType": "uint256",
          "name": "",
          "type": "uint256"
        }
      ],
      "stateMutability": "view",
      "type": "function",
      "constant": true
    },
    {
      "inputs": [],
      "name": "name",
      "outputs": [
        {
          "internalType": "string",
          "name": "",
          "type": "string"
        }
      ],
      "stateMutability": "view",
      "type": "function",
      "constant": true
    },
    {
      "inputs": [
        {
          "internalType": "address",
          "name": "",
          "type": "address"
        }
      ],
      "name": "royalteaspaid",
      "outputs": [
        {
          "internalType": "uint256",
          "name": "",
          "type": "uint256"
        }
      ],
      "stateMutability": "view",
      "type": "function",
      "constant": true
    },
    {
      "stateMutability": "payable",
      "type": "receive",
      "payable": true
    },
    {
      "inputs": [
        {
          "internalType": "address",
          "name": "fire_",
          "type": "address"
        }
      ],
      "name": "setfire",
      "outputs": [
        {
          "internalType": "bool",
          "name": "",
          "type": "bool"
        }
      ],
      "stateMutability": "nonpayable",
      "type": "function"
    },
    {
      "inputs": [
        {
          "internalType": "address",
          "name": "token_",
          "type": "address"
        },
        {
          "internalType": "address",
          "name": "payee_",
          "type": "address"
        },
        {
          "internalType": "uint256",
          "name": "value_",
          "type": "uint256"
        },
        {
          "internalType": "uint256",
          "name": "type_",
          "type": "uint256"
        },
        {
          "internalType": "uint256",
          "name": "label_",
          "type": "uint256"
        }
      ],
      "name": "pay",
      "outputs": [
        {
          "internalType": "bool",
          "name": "",
          "type": "bool"
        }
      ],
      "stateMutability": "nonpayable",
      "type": "function"
    },
    {
      "inputs": [
        {
          "internalType": "uint256",
          "name": "label_",
          "type": "uint256"
        },
        {
          "internalType": "address",
          "name": "token_",
          "type": "address"
        },
        {
          "internalType": "uint256",
          "name": "amount_",
          "type": "uint256"
        },
        {
          "internalType": "address",
          "name": "buyer_",
          "type": "address"
        }
      ],
      "name": "setroyaltea",
      "outputs": [
        {
          "internalType": "bool",
          "name": "",
          "type": "bool"
        }
      ],
      "stateMutability": "nonpayable",
      "type": "function"
    },
    {
      "inputs": [
        {
          "internalType": "uint256",
          "name": "label_",
          "type": "uint256"
        },
        {
          "internalType": "address",
          "name": "token_",
          "type": "address"
        },
        {
          "internalType": "address",
          "name": "buyer_",
          "type": "address"
        }
      ],
      "name": "getbuyerroyaltes",
      "outputs": [
        {
          "internalType": "uint256",
          "name": "",
          "type": "uint256"
        }
      ],
      "stateMutability": "view",
      "type": "function",
      "constant": true
    },
    {
      "inputs": [
        {
          "internalType": "uint256",
          "name": "label_",
          "type": "uint256"
        },
        {
          "internalType": "address",
          "name": "token_",
          "type": "address"
        },
        {
          "internalType": "address",
          "name": "buyer_",
          "type": "address"
        }
      ],
      "name": "getroyatea",
      "outputs": [
        {
          "internalType": "uint256[]",
          "name": "",
          "type": "uint256[]"
        },
        {
          "internalType": "address[]",
          "name": "",
          "type": "address[]"
        }
      ],
      "stateMutability": "view",
      "type": "function",
      "constant": true
    },
    {
      "inputs": [
        {
          "internalType": "uint256",
          "name": "label_",
          "type": "uint256"
        },
        {
          "internalType": "address",
          "name": "token_",
          "type": "address"
        }
      ],
      "name": "claimroyaltea",
      "outputs": [],
      "stateMutability": "nonpayable",
      "type": "function"
    },
    {
      "inputs": [
        {
          "internalType": "address payable",
          "name": "payto_",
          "type": "address"
        },
        {
          "internalType": "uint256",
          "name": "value_",
          "type": "uint256"
        }
      ],
      "name": "WITHDRAWBNB",
      "outputs": [
        {
          "internalType": "bool",
          "name": "",
          "type": "bool"
        }
      ],
      "stateMutability": "nonpayable",
      "type": "function"
    },
    {
      "inputs": [
        {
          "internalType": "address",
          "name": "payto_",
          "type": "address"
        },
        {
          "internalType": "address",
          "name": "token_",
          "type": "address"
        },
        {
          "internalType": "uint256",
          "name": "value_",
          "type": "uint256"
        }
      ],
      "name": "WITHDRAWTOKEN",
      "outputs": [
        {
          "internalType": "bool",
          "name": "",
          "type": "bool"
        }
      ],
      "stateMutability": "nonpayable",
      "type": "function"
    }
  ],
  "bytecode": "0x600080546001600160a01b03191673bb4cdb9cbd36b01bd1cbaebf2de08d9173bc095c17905560c060405260096080908152684b4554544c4520563160b81b60a0526008906200005090826200014c565b503480156200005e57600080fd5b5060405162001bbe38038062001bbe833981016040819052620000819162000218565b600980546001600160a01b0319166001600160a01b03929092169190911790556200024a565b634e487b7160e01b600052604160045260246000fd5b600181811c90821680620000d257607f821691505b602082108103620000f357634e487b7160e01b600052602260045260246000fd5b50919050565b601f8211156200014757600081815260208120601f850160051c81016020861015620001225750805b601f850160051c820191505b8181101562000143578281556001016200012e565b5050505b505050565b81516001600160401b03811115620001685762000168620000a7565b6200018081620001798454620000bd565b84620000f9565b602080601f831160018114620001b857600084156200019f5750858301515b600019600386901b1c1916600185901b17855562000143565b600085815260208120601f198616915b82811015620001e957888601518255948401946001909101908401620001c8565b5085821015620002085787850151600019600388901b60f8161c191681555b5050505050600190811b01905550565b6000602082840312156200022b57600080fd5b81516001600160a01b03811681146200024357600080fd5b9392505050565b611964806200025a6000396000f3fe60806040526004361061010d5760003560e01c80636e74722f11610095578063b1c6742511610064578063b1c674251461037b578063c0d58f3c1461039b578063d4a7af5e146103c8578063eb4f5e0014610400578063f3ca9cae1461042257600080fd5b80636e74722f146102ad5780638dd95002146102e5578063a4b072d01461031d578063a93fce221461033d57600080fd5b806342ee35eb116100dc57806342ee35eb146101c257806343b4cf43146101fa5780634bd27cde1461021a5780635de1fe75146102475780636081c0181461027557600080fd5b806306fdde03146101195780631a590ffa146101445780631ab728521461017257806339b962cc146101a257600080fd5b3661011457005b600080fd5b34801561012557600080fd5b5061012e610442565b60405161013b919061141f565b60405180910390f35b34801561015057600080fd5b5061016461015f366004611485565b6104d0565b60405190815260200161013b565b34801561017e57600080fd5b5061019261018d3660046114c7565b610643565b604051901515815260200161013b565b3480156101ae57600080fd5b506101926101bd366004611511565b610799565b3480156101ce57600080fd5b506101646101dd36600461152e565b600460209081526000928352604080842090915290825290205481565b34801561020657600080fd5b5061019261021536600461155e565b610850565b34801561022657600080fd5b5061016461023536600461159f565b60036020526000908152604090205481565b34801561025357600080fd5b50610267610262366004611485565b610a95565b60405161013b9291906115b8565b34801561028157600080fd5b5061016461029036600461152e565b600160209081526000928352604080842090915290825290205481565b3480156102b957600080fd5b506101646102c836600461163c565b600760209081526000928352604080842090915290825290205481565b3480156102f157600080fd5b50600054610305906001600160a01b031681565b6040516001600160a01b03909116815260200161013b565b34801561032957600080fd5b50610192610338366004611668565b610df8565b34801561034957600080fd5b506101646103583660046116b9565b600560209081526000938452604080852082529284528284209052825290205481565b34801561038757600080fd5b5061019261039636600461163c565b6110ec565b3480156103a757600080fd5b506101646103b6366004611511565b60026020526000908152604090205481565b3480156103d457600080fd5b506101646103e336600461152e565b600660209081526000928352604080842090915290825290205481565b34801561040c57600080fd5b5061042061041b36600461152e565b611246565b005b34801561042e57600080fd5b50600954610305906001600160a01b031681565b6008805461044f906116f0565b80601f016020809104026020016040519081016040528092919081815260200182805461047b906116f0565b80156104c85780601f1061049d576101008083540402835291602001916104c8565b820191906000526020600020905b8154815290600101906020018083116104ab57829003601f168201915b505050505081565b60008381526001602090815260408083206001600160a01b03868116808652918452828520548682168652600585528386208987528552838620928652918452828520546009549351636881aedd60e01b81526004810195909552600b60248601526a73686f7073746f7261676560a81b6044860152919391928592911690636881aedd90606401602060405180830381865afa158015610575573d6000803e3d6000fd5b505050506040513d601f19601f82011682018060405250810190610599919061173a565b604051633a3fc00f60e11b8152600481018990529091506000906001600160a01b0383169063747f801e90602401600060405180830381865afa1580156105e4573d6000803e3d6000fd5b505050506040513d6000823e601f3d908101601f1916820160405261060c919081019061176d565b915050821561063257805161062b9061062586866113c7565b906113d3565b9350610637565b600093505b50919695505050505050565b600954604051630568e17d60e11b815233600482015260009182916001600160a01b0390911690630ad1c2fa90602401602060405180830381865afa158015610690573d6000803e3d6000fd5b505050506040513d601f19601f820116820180604052508101906106b4919061183e565b9050806106dc5760405162461bcd60e51b81526004016106d390611860565b60405180910390fd5b60008681526001602090815260408083206001600160a01b03891684529091528120805486929061070e9084906118a0565b90915550506001600160a01b0380841660009081526005602090815260408083208a84528252808320938916835292905290812054900361078d5760008681526001602090815260408083206001600160a01b03808a16808652918452828520549088168552600584528285208b865284528285209185529252909120555b50600195945050505050565b600954604051630568e17d60e11b815233600482015260009182916001600160a01b0390911690630ad1c2fa90602401602060405180830381865afa1580156107e6573d6000803e3d6000fd5b505050506040513d601f19601f8201168201806040525081019061080a919061183e565b9050806108295760405162461bcd60e51b81526004016106d390611860565b5050600980546001600160a01b0319166001600160a01b0392909216919091179055600190565b600954604051634d20286d60e01b815233600482015260009182916001600160a01b0390911690634d20286d90602401602060405180830381865afa15801561089d573d6000803e3d6000fd5b505050506040513d601f19601f820116820180604052508101906108c1919061183e565b9050806109085760405162461bcd60e51b81526020600482015260156024820152743737ba1030b71030b236b4b71035b2ba3a3632901960591b60448201526064016106d3565b6040516370a0823160e01b815230600482015283906001600160a01b038616906370a0823190602401602060405180830381865afa15801561094e573d6000803e3d6000fd5b505050506040513d601f19601f8201168201806040525081019061097291906118b3565b10156109c05760405162461bcd60e51b815260206004820152601a60248201527f62616c616e6365206e6f7420657175616c20746f2076616c756500000000000060448201526064016106d3565b60405163a9059cbb60e01b81526001600160a01b0386811660048301526024820185905285169063a9059cbb906044016020604051808303816000875af1158015610a0f573d6000803e3d6000fd5b505050506040513d601f19601f82011682018060405250810190610a33919061183e565b905080610a8d5760405162461bcd60e51b815260206004820152602260248201527f6572726f7220706179696e6720746f6b656e20746f207661756c7420686f6c6460448201526132b960f11b60648201526084016106d3565b949350505050565b6040516370a0823160e01b815230600482015260609081906000906001600160a01b038616906370a0823190602401602060405180830381865afa158015610ae1573d6000803e3d6000fd5b505050506040513d601f19601f82011682018060405250810190610b0591906118b3565b90506000610b148787876104d0565b600954604051636881aedd60e01b815260206004820152600b60248201526a73686f7073746f7261676560a81b60448201529192506000916001600160a01b0390911690636881aedd90606401602060405180830381865afa158015610b7e573d6000803e3d6000fd5b505050506040513d601f19601f82011682018060405250810190610ba2919061173a565b9050600080826001600160a01b031663747f801e8b6040518263ffffffff1660e01b8152600401610bd591815260200190565b600060405180830381865afa158015610bf2573d6000803e3d6000fd5b505050506040513d6000823e601f3d908101601f19168201604052610c1a919081019061176d565b6040805160078082526101008201909252929450909250600091906020820160e080368337019050509050610cc4600460008d815260200190815260200160002060008c6001600160a01b03166001600160a01b0316815260200190815260200160002054600160008e815260200190815260200160002060008d6001600160a01b03166001600160a01b03168152602001908152602001600020546113c790919063ffffffff16565b81600081518110610cd757610cd76118cc565b60209081029190910181019190915260008c81526004825260408082206001600160a01b038e1683529092522054815182906001908110610d1a57610d1a6118cc565b60209081029190910181019190915260008c81526001825260408082206001600160a01b038e1683529092522054815182906002908110610d5d57610d5d6118cc565b6020026020010181815250508481600381518110610d7d57610d7d6118cc565b602002602001018181525050815181600481518110610d9e57610d9e6118cc565b6020026020010181815250508281600581518110610dbe57610dbe6118cc565b6020026020010181815250508581600681518110610dde57610dde6118cc565b60209081029190910101529a909950975050505050505050565b600954604051630568e17d60e11b815233600482015260009182916001600160a01b0390911690630ad1c2fa90602401602060405180830381865afa158015610e45573d6000803e3d6000fd5b505050506040513d601f19601f82011682018060405250810190610e69919061183e565b905080610e885760405162461bcd60e51b81526004016106d390611860565b6040516370a0823160e01b8152306004820152600090610f079060649061062590600a906001600160a01b038d16906370a0823190602401602060405180830381865afa158015610edd573d6000803e3d6000fd5b505050506040513d601f19601f82011682018060405250810190610f0191906118b3565b906113df565b905080861115610f475760405162461bcd60e51b815260206004820152600b60248201526a6c6f772062616c616e636560a81b60448201526064016106d3565b60405163a9059cbb60e01b81526001600160a01b0388811660048301526024820188905289169063a9059cbb906044016020604051808303816000875af1158015610f96573d6000803e3d6000fd5b505050506040513d601f19601f82011682018060405250810190610fba919061183e565b915081610ff85760405162461bcd60e51b815260206004820152600c60248201526b6572726f7220706179696e6760a01b60448201526064016106d3565b84600103611088576001600160a01b038816600090815260026020526040812080548892906110289084906118a0565b90915550506000848152600360205260408120805488929061104b9084906118a0565b909155505060008481526004602090815260408083206001600160a01b038c168452909152812080548892906110829084906118a0565b90915550505b604080516001600160a01b03808a1682528a16602082015290810187905260608101869052608081018590527f994e54ec91b40c7b9f621e737310543584ec884d041a929c7d10bd2e6438472e9060a00160405180910390a1509695505050505050565b600954604051634d20286d60e01b815233600482015260009182916001600160a01b0390911690634d20286d90602401602060405180830381865afa158015611139573d6000803e3d6000fd5b505050506040513d601f19601f8201168201806040525081019061115d919061183e565b9050806111a45760405162461bcd60e51b81526020600482015260156024820152746e6f7420616e2061646d696e206b6574746c65203160581b60448201526064016106d3565b6040516001600160a01b038516908490600081818185875af1925050503d80600081146111ed576040519150601f19603f3d011682016040523d82523d6000602084013e6111f2565b606091505b5050809150508061123d5760405162461bcd60e51b815260206004820152601560248201527432b93937b9103bb4ba34323930bbb4b7339031373160591b60448201526064016106d3565b90505b92915050565b60006112538383336104d0565b905080156113c25760405163a9059cbb60e01b8152336004820152602481018290526001600160a01b0383169063a9059cbb906044016020604051808303816000875af11580156112a8573d6000803e3d6000fd5b505050506040513d601f19601f820116820180604052508101906112cc919061183e565b506112d56113eb565b6113195760405162461bcd60e51b81526020600482015260156024820152746572726f7220706179696e6720726f79617465617360581b60448201526064016106d3565b60008381526001602090815260408083206001600160a01b03861680855290835281842054338552600584528285208886528452828520828652845282852055868452600483528184209084529091528120805483929061137b9084906118a0565b909155505060408051338152602081018390529081018490527f0def1faf47b871df85b062a0a45580633696860b7377c4b5905eaac47ab42a129060600160405180910390a15b505050565b600061123d82846118e2565b600061123d82846118f5565b600061123d8284611917565b6000803d8015611402576020811461140b57611417565b60019150611417565b60206000803e60005191505b501515919050565b600060208083528351808285015260005b8181101561144c57858101830151858201604001528201611430565b506000604082860101526040601f19601f8301168501019250505092915050565b6001600160a01b038116811461148257600080fd5b50565b60008060006060848603121561149a57600080fd5b8335925060208401356114ac8161146d565b915060408401356114bc8161146d565b809150509250925092565b600080600080608085870312156114dd57600080fd5b8435935060208501356114ef8161146d565b92506040850135915060608501356115068161146d565b939692955090935050565b60006020828403121561152357600080fd5b813561123d8161146d565b6000806040838503121561154157600080fd5b8235915060208301356115538161146d565b809150509250929050565b60008060006060848603121561157357600080fd5b833561157e8161146d565b9250602084013561158e8161146d565b929592945050506040919091013590565b6000602082840312156115b157600080fd5b5035919050565b604080825283519082018190526000906020906060840190828701845b828110156115f1578151845292840192908401906001016115d5565b5050508381038285015284518082528583019183019060005b8181101561162f5783516001600160a01b03168352928401929184019160010161160a565b5090979650505050505050565b6000806040838503121561164f57600080fd5b823561165a8161146d565b946020939093013593505050565b600080600080600060a0868803121561168057600080fd5b853561168b8161146d565b9450602086013561169b8161146d565b94979496505050506040830135926060810135926080909101359150565b6000806000606084860312156116ce57600080fd5b83356116d98161146d565b92506020840135915060408401356114bc8161146d565b600181811c9082168061170457607f821691505b60208210810361172457634e487b7160e01b600052602260045260246000fd5b50919050565b80516117358161146d565b919050565b60006020828403121561174c57600080fd5b815161123d8161146d565b634e487b7160e01b600052604160045260246000fd5b6000806040838503121561178057600080fd5b8251915060208084015167ffffffffffffffff808211156117a057600080fd5b818601915086601f8301126117b457600080fd5b8151818111156117c6576117c6611757565b8060051b604051601f19603f830116810181811085821117156117eb576117eb611757565b60405291825284820192508381018501918983111561180957600080fd5b938501935b8285101561182e5761181f8561172a565b8452938501939285019261180e565b8096505050505050509250929050565b60006020828403121561185057600080fd5b8151801515811461123d57600080fd5b60208082526010908201526f3737ba103b30b634b21031b0b63632b960811b604082015260600190565b634e487b7160e01b600052601160045260246000fd5b808201808211156112405761124061188a565b6000602082840312156118c557600080fd5b5051919050565b634e487b7160e01b600052603260045260246000fd5b818103818111156112405761124061188a565b60008261191257634e487b7160e01b600052601260045260246000fd5b500490565b80820281158282048414176112405761124061188a56fea26469706673582212205875f0ca796b96be1bc304bf4061a3d50cd0de971dcc2f44f7839cb7603dcebf64736f6c63430008110033",
  "immutableReferences": {},
  "source": "// SPDX-License-Identifier: MIT\npragma solidity ^0.8.0;\n\n\ninterface IERC20 {\n\n    event Transfer(address indexed from, address indexed to, uint256 value);\n\n\n    event Approval(address indexed owner, address indexed spender, uint256 value);\n\n\n    function totalSupply() external view returns (uint256);\n\n\n    function balanceOf(address account) external view returns (uint256);\n\n\n    function transfer(address to, uint256 amount) external returns (bool);\n\n\n    function allowance(address owner, address spender) external view returns (uint256);\n\n\n    function approve(address spender, uint256 amount) external returns (bool);\n\n\n    function transferFrom(\n        address from,\n        address to,\n        uint256 amount\n    ) external returns (bool);\n}\n\npragma solidity ^0.8.0;\n\nlibrary SafeMath {\n\n    function tryAdd(uint256 a, uint256 b) internal pure returns (bool, uint256) {\n        unchecked {\n            uint256 c = a + b;\n            if (c < a) return (false, 0);\n            return (true, c);\n        }\n    }\n\n\n    function trySub(uint256 a, uint256 b) internal pure returns (bool, uint256) {\n        unchecked {\n            if (b > a) return (false, 0);\n            return (true, a - b);\n        }\n    }\n\n\n    function tryMul(uint256 a, uint256 b) internal pure returns (bool, uint256) {\n        unchecked {\n            // Gas optimization: this is cheaper than requiring 'a' not being zero, but the\n            // benefit is lost if 'b' is also tested.\n            // See: https://github.com/OpenZeppelin/openzeppelin-contracts/pull/522\n            if (a == 0) return (true, 0);\n            uint256 c = a * b;\n            if (c / a != b) return (false, 0);\n            return (true, c);\n        }\n    }\n\n\n    function tryDiv(uint256 a, uint256 b) internal pure returns (bool, uint256) {\n        unchecked {\n            if (b == 0) return (false, 0);\n            return (true, a / b);\n        }\n    }\n\n\n    function tryMod(uint256 a, uint256 b) internal pure returns (bool, uint256) {\n        unchecked {\n            if (b == 0) return (false, 0);\n            return (true, a % b);\n        }\n    }\n\n\n    function add(uint256 a, uint256 b) internal pure returns (uint256) {\n        return a + b;\n    }\n\n\n    function sub(uint256 a, uint256 b) internal pure returns (uint256) {\n        return a - b;\n    }\n\n\n    function mul(uint256 a, uint256 b) internal pure returns (uint256) {\n        return a * b;\n    }\n\n\n    function div(uint256 a, uint256 b) internal pure returns (uint256) {\n        return a / b;\n    }\n\n\n    function mod(uint256 a, uint256 b) internal pure returns (uint256) {\n        return a % b;\n    }\n\n\n    function sub(\n        uint256 a,\n        uint256 b,\n        string memory errorMessage\n    ) internal pure returns (uint256) {\n        unchecked {\n            require(b <= a, errorMessage);\n            return a - b;\n        }\n    }\n\n\n    function div(\n        uint256 a,\n        uint256 b,\n        string memory errorMessage\n    ) internal pure returns (uint256) {\n        unchecked {\n            require(b > 0, errorMessage);\n            return a / b;\n        }\n    }\n\n\n    function mod(\n        uint256 a,\n        uint256 b,\n        string memory errorMessage\n    ) internal pure returns (uint256) {\n        unchecked {\n            require(b > 0, errorMessage);\n            return a % b;\n        }\n    }\n}\n\npragma solidity ^0.8.4;\n\n\ninterface i1155 {\n    function getContract(address caller_) external pure returns(bool);\n    function getvolume(uint256 label_) external pure returns(uint256, address[] memory);\n    function gflame(string memory flame_) external pure returns(address);\n    function getadmin(address admin_) external pure returns(bool);\n    }\n\ncontract kettle {\n\n    using SafeMath for uint256;\n    address public WBNB = 0xbb4CdB9CBd36B01bD1cBaEBF2De08d9173bc095c;\n    mapping(uint256=>mapping(address=>uint256)) public label2token2royalteacollected;\n    mapping(address=>uint256) public royalteaspaid;\n    mapping(uint256=>uint256) public label2royalteaspaid;\n    mapping(uint256=>mapping(address=>uint256)) public label2token2royalteaspaid;\n    mapping(address=>mapping(uint256=>mapping(address=>uint256))) public buyer2label2token2royaltystart;\n    mapping(uint256=>mapping(address=>uint256)) public label2token2buyers;\n\n    mapping(address=>mapping(uint256=>uint256)) public buyerToCollectionToRoyalty;\n\n    event paid(\n        address spender,\n        address token,\n        uint256 value,\n        uint256 type_,\n        uint256 label_\n    );\n    event royalteaclaimed(\n        address holder,\n        uint256 amount,\n        uint256 label\n    );\n    string public name = \"KETTLE V1\";\n    address public _fire;\n    constructor(address fire_){\n        _fire = fire_;\n    }\n\n    receive () external payable {}\n    function setfire(address fire_) external returns(bool){\n\n        (bool success) = i1155(_fire).getContract(msg.sender);\n        require(success, 'not valid caller');\n        _fire = fire_;\n        return true;\n    }\n    function pay(address token_, address payee_, uint256 value_,uint256 type_,uint256 label_) external returns(bool){\n\n        (bool success) = i1155(_fire).getContract(msg.sender);\n        require(success, 'not valid caller');\n        uint256 pot_ = IERC20(token_).balanceOf(address(this)).mul(10).div(100);\n        require(value_ <= pot_, 'low balance');\n        (success) = IERC20(token_).transfer(payee_, value_);\n        require(success, 'error paying');\n        if(type_==1){\n            royalteaspaid[token_] += value_;\n            label2royalteaspaid[label_] += value_;\n            label2token2royalteaspaid[label_][token_] += value_;\n        }\n        emit paid(payee_, token_, value_, type_, label_);\n        return success;\n    }\n\n    function setroyaltea(uint256 label_, address token_, uint256 amount_, address buyer_) external returns(bool){\n        (bool success) = i1155(_fire).getContract(msg.sender);\n        require(success, 'not valid caller');\n\n        label2token2royalteacollected[label_][token_] += amount_;\n        if(buyer2label2token2royaltystart[buyer_][label_][token_]==0){\n            buyer2label2token2royaltystart[buyer_][label_][token_] = label2token2royalteacollected[label_][token_];\n        }\n        return true;\n    }\n    function getbuyerroyaltes(uint256 label_, address token_, address buyer_) public view returns(uint256){\n\n        uint256 royalteas = label2token2royalteacollected[label_][token_];\n        uint256 royalteastart = buyer2label2token2royaltystart[buyer_][label_][token_];\n        (address flame_) = i1155(_fire).gflame('shopstorage');\n        (,address[] memory buyers_) = i1155(flame_).getvolume(label_);\n\n        if(royalteastart>0){\n            royalteas = royalteas.sub(royalteastart).div(buyers_.length);\n        }else{\n            royalteas = 0;\n        }\n        return royalteas;\n    }\n    function getroyatea(uint256 label_, address token_, address buyer_) public view returns(uint256[] memory, address[] memory){\n\n        uint256 walletbalance = IERC20(token_).balanceOf(address(this));\n        uint256 br = getbuyerroyaltes(label_,token_,buyer_);\n        (address flame_) = i1155(_fire).gflame('shopstorage');\n        (uint256 volume_,address[] memory buyers_) = i1155(flame_).getvolume(label_);\n\n        uint256[] memory numbers_ = new uint256[](7);\n        numbers_[0] = label2token2royalteacollected[label_][token_].sub(label2token2royalteaspaid[label_][token_]);\n        numbers_[1] = label2token2royalteaspaid[label_][token_];\n        numbers_[2] = label2token2royalteacollected[label_][token_];\n        numbers_[3] = br;\n        numbers_[4] = buyers_.length;\n        numbers_[5] = volume_;\n        numbers_[6] = walletbalance;\n        return(numbers_, buyers_);\n    }\n    function claimroyaltea(uint256 label_, address token_) public {\n\n        uint256 royalteas = getbuyerroyaltes(label_,token_,msg.sender);\n        if(royalteas>0){\n            IERC20(token_).transfer(msg.sender,royalteas);\n            require(checkSuccess(), 'error paying royateas');\n            buyer2label2token2royaltystart[msg.sender][label_][token_] = label2token2royalteacollected[label_][token_];\n            label2token2royalteaspaid[label_][token_] += royalteas;\n            emit royalteaclaimed(msg.sender,royalteas,label_);\n        }\n    }\n    function WITHDRAWBNB(address payable payto_,  uint256 value_) public returns(bool){\n\n        (bool success) = i1155(_fire).getadmin(msg.sender);\n        require(success, 'not an admin kettle 1');\n        (success,) = payto_.call{value: value_}(\"\");\n        require(success, 'error withdrawing bnb');\n        return success;\n\n    }\n    function WITHDRAWTOKEN(address payto_, address token_, uint256 value_) public returns(bool){\n\n        (bool success) = i1155(_fire).getadmin(msg.sender);\n        require(success, 'not an admin kettle 2');\n        require(IERC20(token_).balanceOf(address(this))>= value_ , 'balance not equal to value');\n        (success) = IERC20(token_).transfer(payto_,value_);\n        require(success, 'error paying token to vault holder');\n        return success;\n    }\n\n    function checkSuccess()\n    private pure\n    returns (bool)\n    {\n        uint256 returnValue = 0;\n\n        /* solium-disable-next-line security/no-inline-assembly */\n        assembly {\n        // check number of bytes returned from last function call\n            switch returndatasize()\n\n            // no bytes returned: assume success\n            case 0x0 {\n                returnValue := 1\n            }\n\n            // 32 bytes returned: check if non-zero\n            case 0x20 {\n            // copy 32 bytes into scratch space\n                returndatacopy(0x0, 0x0, 0x20)\n\n            // load those bytes into returnValue\n                returnValue := mload(0x0)\n            }\n\n            // not sure what was returned: dont mark as success\n            default { }\n\n        }\n\n        return returnValue != 0;\n    }\n}\n",
  "sourcePath": "/Users/jl1013/Documents/FUTURO/nftea/contracts/kettle.sol",
  "compiler": {
    "name": "solc",
    "version": "0.8.17+commit.8df45f5f.Emscripten.clang"
  },
  "schemaVersion": "3.4.13",
  "updatedAt": "2023-06-30T06:03:30.207Z",
  "networkType": "ethereum",
  "devdoc": {
    "kind": "dev",
    "methods": {},
    "version": 1
  },
  "userdoc": {
    "kind": "user",
    "methods": {},
    "version": 1
  }
}