{
  "contractName": "minter",
  "abi": [
    {
      "inputs": [
        {
          "internalType": "address",
          "name": "fire_",
          "type": "address"
        }
      ],
      "stateMutability": "nonpayable",
      "type": "constructor"
    },
    {
      "anonymous": false,
      "inputs": [
        {
          "indexed": true,
          "internalType": "address",
          "name": "account",
          "type": "address"
        },
        {
          "indexed": true,
          "internalType": "address",
          "name": "operator",
          "type": "address"
        },
        {
          "indexed": false,
          "internalType": "bool",
          "name": "approved",
          "type": "bool"
        }
      ],
      "name": "ApprovalForAll",
      "type": "event"
    },
    {
      "anonymous": false,
      "inputs": [
        {
          "indexed": false,
          "internalType": "uint256",
          "name": "nftea",
          "type": "uint256"
        },
        {
          "indexed": false,
          "internalType": "bool",
          "name": "status",
          "type": "bool"
        }
      ],
      "name": "Display",
      "type": "event"
    },
    {
      "anonymous": false,
      "inputs": [
        {
          "indexed": true,
          "internalType": "address",
          "name": "previousOwner",
          "type": "address"
        },
        {
          "indexed": true,
          "internalType": "address",
          "name": "newOwner",
          "type": "address"
        }
      ],
      "name": "OwnershipTransferred",
      "type": "event"
    },
    {
      "anonymous": false,
      "inputs": [
        {
          "indexed": true,
          "internalType": "address",
          "name": "operator",
          "type": "address"
        },
        {
          "indexed": true,
          "internalType": "address",
          "name": "from",
          "type": "address"
        },
        {
          "indexed": true,
          "internalType": "address",
          "name": "to",
          "type": "address"
        },
        {
          "indexed": false,
          "internalType": "uint256[]",
          "name": "ids",
          "type": "uint256[]"
        },
        {
          "indexed": false,
          "internalType": "uint256[]",
          "name": "values",
          "type": "uint256[]"
        }
      ],
      "name": "TransferBatch",
      "type": "event"
    },
    {
      "anonymous": false,
      "inputs": [
        {
          "indexed": true,
          "internalType": "address",
          "name": "operator",
          "type": "address"
        },
        {
          "indexed": true,
          "internalType": "address",
          "name": "from",
          "type": "address"
        },
        {
          "indexed": true,
          "internalType": "address",
          "name": "to",
          "type": "address"
        },
        {
          "indexed": false,
          "internalType": "uint256",
          "name": "id",
          "type": "uint256"
        },
        {
          "indexed": false,
          "internalType": "uint256",
          "name": "value",
          "type": "uint256"
        }
      ],
      "name": "TransferSingle",
      "type": "event"
    },
    {
      "anonymous": false,
      "inputs": [
        {
          "indexed": false,
          "internalType": "string",
          "name": "value",
          "type": "string"
        },
        {
          "indexed": true,
          "internalType": "uint256",
          "name": "id",
          "type": "uint256"
        }
      ],
      "name": "URI",
      "type": "event"
    },
    {
      "anonymous": false,
      "inputs": [
        {
          "indexed": false,
          "internalType": "address",
          "name": "minter",
          "type": "address"
        },
        {
          "indexed": false,
          "internalType": "uint256",
          "name": "nftea",
          "type": "uint256"
        },
        {
          "indexed": false,
          "internalType": "string",
          "name": "ipfs",
          "type": "string"
        },
        {
          "indexed": false,
          "internalType": "string",
          "name": "label",
          "type": "string"
        }
      ],
      "name": "new_mint",
      "type": "event"
    },
    {
      "inputs": [
        {
          "internalType": "uint256",
          "name": "",
          "type": "uint256"
        }
      ],
      "name": "_allowTransfer",
      "outputs": [
        {
          "internalType": "bool",
          "name": "",
          "type": "bool"
        }
      ],
      "stateMutability": "view",
      "type": "function",
      "constant": true
    },
    {
      "inputs": [],
      "name": "_burn",
      "outputs": [
        {
          "internalType": "address",
          "name": "",
          "type": "address"
        }
      ],
      "stateMutability": "view",
      "type": "function",
      "constant": true
    },
    {
      "inputs": [
        {
          "internalType": "address",
          "name": "",
          "type": "address"
        }
      ],
      "name": "_displayBann",
      "outputs": [
        {
          "internalType": "bool",
          "name": "",
          "type": "bool"
        }
      ],
      "stateMutability": "view",
      "type": "function",
      "constant": true
    },
    {
      "inputs": [
        {
          "internalType": "uint256",
          "name": "",
          "type": "uint256"
        }
      ],
      "name": "_displayexpire",
      "outputs": [
        {
          "internalType": "uint256",
          "name": "",
          "type": "uint256"
        }
      ],
      "stateMutability": "view",
      "type": "function",
      "constant": true
    },
    {
      "inputs": [
        {
          "internalType": "uint256",
          "name": "",
          "type": "uint256"
        }
      ],
      "name": "_displays",
      "outputs": [
        {
          "internalType": "uint256",
          "name": "",
          "type": "uint256"
        }
      ],
      "stateMutability": "view",
      "type": "function",
      "constant": true
    },
    {
      "inputs": [
        {
          "internalType": "uint256",
          "name": "",
          "type": "uint256"
        }
      ],
      "name": "_displaysx",
      "outputs": [
        {
          "internalType": "uint256",
          "name": "",
          "type": "uint256"
        }
      ],
      "stateMutability": "view",
      "type": "function",
      "constant": true
    },
    {
      "inputs": [],
      "name": "_fire",
      "outputs": [
        {
          "internalType": "address",
          "name": "",
          "type": "address"
        }
      ],
      "stateMutability": "view",
      "type": "function",
      "constant": true
    },
    {
      "inputs": [
        {
          "internalType": "address",
          "name": "",
          "type": "address"
        }
      ],
      "name": "_flagged",
      "outputs": [
        {
          "internalType": "bool",
          "name": "",
          "type": "bool"
        }
      ],
      "stateMutability": "view",
      "type": "function",
      "constant": true
    },
    {
      "inputs": [
        {
          "internalType": "uint256",
          "name": "",
          "type": "uint256"
        },
        {
          "internalType": "uint256",
          "name": "",
          "type": "uint256"
        }
      ],
      "name": "_holders",
      "outputs": [
        {
          "internalType": "address",
          "name": "",
          "type": "address"
        }
      ],
      "stateMutability": "view",
      "type": "function",
      "constant": true
    },
    {
      "inputs": [
        {
          "internalType": "uint256",
          "name": "",
          "type": "uint256"
        },
        {
          "internalType": "address",
          "name": "",
          "type": "address"
        }
      ],
      "name": "_holdersx",
      "outputs": [
        {
          "internalType": "uint256",
          "name": "",
          "type": "uint256"
        }
      ],
      "stateMutability": "view",
      "type": "function",
      "constant": true
    },
    {
      "inputs": [
        {
          "internalType": "uint256",
          "name": "",
          "type": "uint256"
        }
      ],
      "name": "_ipfs",
      "outputs": [
        {
          "internalType": "string",
          "name": "",
          "type": "string"
        }
      ],
      "stateMutability": "view",
      "type": "function",
      "constant": true
    },
    {
      "inputs": [
        {
          "internalType": "string",
          "name": "",
          "type": "string"
        }
      ],
      "name": "_ipfs2nftea",
      "outputs": [
        {
          "internalType": "uint256",
          "name": "",
          "type": "uint256"
        }
      ],
      "stateMutability": "view",
      "type": "function",
      "constant": true
    },
    {
      "inputs": [],
      "name": "_minTea2Display",
      "outputs": [
        {
          "internalType": "uint256",
          "name": "",
          "type": "uint256"
        }
      ],
      "stateMutability": "view",
      "type": "function",
      "constant": true
    },
    {
      "inputs": [
        {
          "internalType": "address",
          "name": "",
          "type": "address"
        },
        {
          "internalType": "uint256",
          "name": "",
          "type": "uint256"
        }
      ],
      "name": "_mynfteas",
      "outputs": [
        {
          "internalType": "uint256",
          "name": "",
          "type": "uint256"
        }
      ],
      "stateMutability": "view",
      "type": "function",
      "constant": true
    },
    {
      "inputs": [
        {
          "internalType": "address",
          "name": "",
          "type": "address"
        },
        {
          "internalType": "uint256",
          "name": "",
          "type": "uint256"
        }
      ],
      "name": "_mynfteasx",
      "outputs": [
        {
          "internalType": "uint256",
          "name": "",
          "type": "uint256"
        }
      ],
      "stateMutability": "view",
      "type": "function",
      "constant": true
    },
    {
      "inputs": [],
      "name": "_nftea",
      "outputs": [
        {
          "internalType": "uint256",
          "name": "",
          "type": "uint256"
        }
      ],
      "stateMutability": "view",
      "type": "function",
      "constant": true
    },
    {
      "inputs": [
        {
          "internalType": "uint256",
          "name": "",
          "type": "uint256"
        },
        {
          "internalType": "address",
          "name": "",
          "type": "address"
        }
      ],
      "name": "_nftea2flag",
      "outputs": [
        {
          "internalType": "bool",
          "name": "",
          "type": "bool"
        }
      ],
      "stateMutability": "view",
      "type": "function",
      "constant": true
    },
    {
      "inputs": [
        {
          "internalType": "uint256",
          "name": "",
          "type": "uint256"
        }
      ],
      "name": "_nftea2wallet",
      "outputs": [
        {
          "internalType": "address",
          "name": "",
          "type": "address"
        }
      ],
      "stateMutability": "view",
      "type": "function",
      "constant": true
    },
    {
      "inputs": [
        {
          "internalType": "uint256",
          "name": "",
          "type": "uint256"
        }
      ],
      "name": "_onDisplay",
      "outputs": [
        {
          "internalType": "bool",
          "name": "",
          "type": "bool"
        }
      ],
      "stateMutability": "view",
      "type": "function",
      "constant": true
    },
    {
      "inputs": [
        {
          "internalType": "uint256",
          "name": "",
          "type": "uint256"
        }
      ],
      "name": "_transferable",
      "outputs": [
        {
          "internalType": "uint256",
          "name": "",
          "type": "uint256"
        }
      ],
      "stateMutability": "view",
      "type": "function",
      "constant": true
    },
    {
      "inputs": [
        {
          "internalType": "address",
          "name": "account",
          "type": "address"
        },
        {
          "internalType": "uint256",
          "name": "id",
          "type": "uint256"
        }
      ],
      "name": "balanceOf",
      "outputs": [
        {
          "internalType": "uint256",
          "name": "",
          "type": "uint256"
        }
      ],
      "stateMutability": "view",
      "type": "function",
      "constant": true
    },
    {
      "inputs": [
        {
          "internalType": "address[]",
          "name": "accounts",
          "type": "address[]"
        },
        {
          "internalType": "uint256[]",
          "name": "ids",
          "type": "uint256[]"
        }
      ],
      "name": "balanceOfBatch",
      "outputs": [
        {
          "internalType": "uint256[]",
          "name": "",
          "type": "uint256[]"
        }
      ],
      "stateMutability": "view",
      "type": "function",
      "constant": true
    },
    {
      "inputs": [
        {
          "internalType": "uint256",
          "name": "id",
          "type": "uint256"
        }
      ],
      "name": "exists",
      "outputs": [
        {
          "internalType": "bool",
          "name": "",
          "type": "bool"
        }
      ],
      "stateMutability": "view",
      "type": "function",
      "constant": true
    },
    {
      "inputs": [
        {
          "internalType": "address",
          "name": "account",
          "type": "address"
        },
        {
          "internalType": "address",
          "name": "operator",
          "type": "address"
        }
      ],
      "name": "isApprovedForAll",
      "outputs": [
        {
          "internalType": "bool",
          "name": "",
          "type": "bool"
        }
      ],
      "stateMutability": "view",
      "type": "function",
      "constant": true
    },
    {
      "inputs": [],
      "name": "name",
      "outputs": [
        {
          "internalType": "string",
          "name": "",
          "type": "string"
        }
      ],
      "stateMutability": "view",
      "type": "function",
      "constant": true
    },
    {
      "inputs": [],
      "name": "owner",
      "outputs": [
        {
          "internalType": "address",
          "name": "",
          "type": "address"
        }
      ],
      "stateMutability": "view",
      "type": "function",
      "constant": true
    },
    {
      "inputs": [],
      "name": "renounceOwnership",
      "outputs": [],
      "stateMutability": "nonpayable",
      "type": "function"
    },
    {
      "inputs": [
        {
          "internalType": "address",
          "name": "from",
          "type": "address"
        },
        {
          "internalType": "address",
          "name": "to",
          "type": "address"
        },
        {
          "internalType": "uint256[]",
          "name": "ids",
          "type": "uint256[]"
        },
        {
          "internalType": "uint256[]",
          "name": "amounts",
          "type": "uint256[]"
        },
        {
          "internalType": "bytes",
          "name": "data",
          "type": "bytes"
        }
      ],
      "name": "safeBatchTransferFrom",
      "outputs": [],
      "stateMutability": "nonpayable",
      "type": "function"
    },
    {
      "inputs": [
        {
          "internalType": "address",
          "name": "from",
          "type": "address"
        },
        {
          "internalType": "address",
          "name": "to",
          "type": "address"
        },
        {
          "internalType": "uint256",
          "name": "id",
          "type": "uint256"
        },
        {
          "internalType": "uint256",
          "name": "amount",
          "type": "uint256"
        },
        {
          "internalType": "bytes",
          "name": "data",
          "type": "bytes"
        }
      ],
      "name": "safeTransferFrom",
      "outputs": [],
      "stateMutability": "nonpayable",
      "type": "function"
    },
    {
      "inputs": [
        {
          "internalType": "address",
          "name": "operator",
          "type": "address"
        },
        {
          "internalType": "bool",
          "name": "approved",
          "type": "bool"
        }
      ],
      "name": "setApprovalForAll",
      "outputs": [],
      "stateMutability": "nonpayable",
      "type": "function"
    },
    {
      "inputs": [
        {
          "internalType": "bytes4",
          "name": "interfaceId",
          "type": "bytes4"
        }
      ],
      "name": "supportsInterface",
      "outputs": [
        {
          "internalType": "bool",
          "name": "",
          "type": "bool"
        }
      ],
      "stateMutability": "view",
      "type": "function",
      "constant": true
    },
    {
      "inputs": [],
      "name": "symbol",
      "outputs": [
        {
          "internalType": "string",
          "name": "",
          "type": "string"
        }
      ],
      "stateMutability": "view",
      "type": "function",
      "constant": true
    },
    {
      "inputs": [
        {
          "internalType": "uint256",
          "name": "id",
          "type": "uint256"
        }
      ],
      "name": "totalSupply",
      "outputs": [
        {
          "internalType": "uint256",
          "name": "",
          "type": "uint256"
        }
      ],
      "stateMutability": "view",
      "type": "function",
      "constant": true
    },
    {
      "inputs": [
        {
          "internalType": "address",
          "name": "newOwner",
          "type": "address"
        }
      ],
      "name": "transferOwnership",
      "outputs": [],
      "stateMutability": "nonpayable",
      "type": "function"
    },
    {
      "inputs": [
        {
          "internalType": "uint256",
          "name": "",
          "type": "uint256"
        }
      ],
      "name": "uri",
      "outputs": [
        {
          "internalType": "string",
          "name": "",
          "type": "string"
        }
      ],
      "stateMutability": "view",
      "type": "function",
      "constant": true
    },
    {
      "inputs": [
        {
          "internalType": "address",
          "name": "recipient_",
          "type": "address"
        },
        {
          "internalType": "bool",
          "name": "value_",
          "type": "bool"
        },
        {
          "internalType": "uint256",
          "name": "nftea_",
          "type": "uint256"
        }
      ],
      "name": "setflag",
      "outputs": [
        {
          "internalType": "bool",
          "name": "",
          "type": "bool"
        }
      ],
      "stateMutability": "nonpayable",
      "type": "function"
    },
    {
      "inputs": [
        {
          "internalType": "uint256",
          "name": "nftea_",
          "type": "uint256"
        },
        {
          "internalType": "uint256",
          "name": "value_",
          "type": "uint256"
        },
        {
          "internalType": "address",
          "name": "wallet_",
          "type": "address"
        }
      ],
      "name": "settransferable",
      "outputs": [
        {
          "internalType": "bool",
          "name": "",
          "type": "bool"
        }
      ],
      "stateMutability": "nonpayable",
      "type": "function"
    },
    {
      "inputs": [
        {
          "internalType": "address",
          "name": "wallet_",
          "type": "address"
        }
      ],
      "name": "setwallet",
      "outputs": [
        {
          "internalType": "bool",
          "name": "",
          "type": "bool"
        }
      ],
      "stateMutability": "nonpayable",
      "type": "function"
    },
    {
      "inputs": [
        {
          "internalType": "uint256",
          "name": "assetid_",
          "type": "uint256"
        },
        {
          "internalType": "string",
          "name": "ipfs_",
          "type": "string"
        },
        {
          "internalType": "address",
          "name": "sendto_",
          "type": "address"
        },
        {
          "internalType": "uint256[]",
          "name": "settings_",
          "type": "uint256[]"
        },
        {
          "internalType": "string",
          "name": "label_",
          "type": "string"
        }
      ],
      "name": "mint",
      "outputs": [
        {
          "internalType": "uint256",
          "name": "",
          "type": "uint256"
        }
      ],
      "stateMutability": "nonpayable",
      "type": "function"
    },
    {
      "inputs": [
        {
          "internalType": "uint256",
          "name": "nftea_",
          "type": "uint256"
        },
        {
          "internalType": "bool",
          "name": "value_",
          "type": "bool"
        }
      ],
      "name": "allowTransfer",
      "outputs": [
        {
          "internalType": "bool",
          "name": "",
          "type": "bool"
        }
      ],
      "stateMutability": "nonpayable",
      "type": "function"
    },
    {
      "inputs": [
        {
          "internalType": "uint256",
          "name": "nftea_",
          "type": "uint256"
        },
        {
          "internalType": "string",
          "name": "ipfs_",
          "type": "string"
        }
      ],
      "name": "setedit",
      "outputs": [
        {
          "internalType": "bool",
          "name": "",
          "type": "bool"
        }
      ],
      "stateMutability": "nonpayable",
      "type": "function"
    },
    {
      "inputs": [
        {
          "internalType": "address",
          "name": "holder_",
          "type": "address"
        }
      ],
      "name": "getmynfteas",
      "outputs": [
        {
          "internalType": "uint256[]",
          "name": "",
          "type": "uint256[]"
        },
        {
          "internalType": "string[]",
          "name": "",
          "type": "string[]"
        },
        {
          "internalType": "uint256[]",
          "name": "",
          "type": "uint256[]"
        },
        {
          "internalType": "uint256[]",
          "name": "",
          "type": "uint256[]"
        }
      ],
      "stateMutability": "view",
      "type": "function",
      "constant": true
    },
    {
      "inputs": [
        {
          "internalType": "uint256",
          "name": "nftea_",
          "type": "uint256"
        }
      ],
      "name": "getholders",
      "outputs": [
        {
          "internalType": "address[]",
          "name": "",
          "type": "address[]"
        }
      ],
      "stateMutability": "view",
      "type": "function",
      "constant": true
    },
    {
      "inputs": [
        {
          "internalType": "uint256",
          "name": "nftea_",
          "type": "uint256"
        },
        {
          "internalType": "address",
          "name": "holder_",
          "type": "address"
        }
      ],
      "name": "getbag",
      "outputs": [
        {
          "internalType": "string",
          "name": "",
          "type": "string"
        },
        {
          "internalType": "address",
          "name": "",
          "type": "address"
        },
        {
          "internalType": "uint256[]",
          "name": "",
          "type": "uint256[]"
        },
        {
          "internalType": "bool",
          "name": "",
          "type": "bool"
        }
      ],
      "stateMutability": "view",
      "type": "function",
      "constant": true
    },
    {
      "inputs": [
        {
          "internalType": "uint256",
          "name": "nftea_",
          "type": "uint256"
        },
        {
          "internalType": "bool",
          "name": "value_",
          "type": "bool"
        },
        {
          "internalType": "address",
          "name": "holder_",
          "type": "address"
        }
      ],
      "name": "setOnDisplay",
      "outputs": [
        {
          "internalType": "bool",
          "name": "",
          "type": "bool"
        }
      ],
      "stateMutability": "nonpayable",
      "type": "function"
    },
    {
      "inputs": [],
      "name": "updatedisplay",
      "outputs": [],
      "stateMutability": "nonpayable",
      "type": "function"
    },
    {
      "inputs": [
        {
          "internalType": "address",
          "name": "user_",
          "type": "address"
        }
      ],
      "name": "setDisplayBann",
      "outputs": [],
      "stateMutability": "nonpayable",
      "type": "function"
    },
    {
      "inputs": [
        {
          "internalType": "uint256",
          "name": "value_",
          "type": "uint256"
        }
      ],
      "name": "setMinTea2Display",
      "outputs": [],
      "stateMutability": "nonpayable",
      "type": "function"
    },
    {
      "inputs": [],
      "name": "getDisplays",
      "outputs": [
        {
          "internalType": "uint256[]",
          "name": "",
          "type": "uint256[]"
        },
        {
          "internalType": "string[]",
          "name": "",
          "type": "string[]"
        },
        {
          "internalType": "uint256[]",
          "name": "",
          "type": "uint256[]"
        },
        {
          "internalType": "uint256[]",
          "name": "",
          "type": "uint256[]"
        },
        {
          "internalType": "address[]",
          "name": "",
          "type": "address[]"
        }
      ],
      "stateMutability": "view",
      "type": "function",
      "constant": true
    },
    {
      "inputs": [
        {
          "internalType": "uint256",
          "name": "tokenId",
          "type": "uint256"
        }
      ],
      "name": "tokenURI",
      "outputs": [
        {
          "internalType": "string",
          "name": "",
          "type": "string"
        }
      ],
      "stateMutability": "view",
      "type": "function",
      "constant": true
    },
    {
      "inputs": [
        {
          "internalType": "string",
          "name": "ipfs_",
          "type": "string"
        }
      ],
      "name": "getipfs",
      "outputs": [
        {
          "internalType": "uint256",
          "name": "",
          "type": "uint256"
        }
      ],
      "stateMutability": "view",
      "type": "function",
      "constant": true
    }
  ],
  "bytecode": "0x60c0604052600960809081526804e465465612e6170760bc1b60a0526005906200002a908262000204565b506040805180820190915260058152644e6654454160d81b602082015260069062000056908262000204565b50600b80546001600160a01b03191661dead1790553480156200007857600080fd5b5060405162005c3d38038062005c3d8339810160408190526200009b91620002d0565b60405180606001604052806028815260200162005c1560289139620000c033620000fd565b620000cb816200014d565b5060006008819055600780546001600160a01b0319166001600160a01b039390931692909217909155601b5562000302565b600080546001600160a01b038381166001600160a01b0319831681178455604051919092169283917f8be0079c531659141344cd1fd0a4f28419497f9722a3daafe3b4186f6b6457e09190a35050565b60036200015b828262000204565b5050565b634e487b7160e01b600052604160045260246000fd5b600181811c908216806200018a57607f821691505b602082108103620001ab57634e487b7160e01b600052602260045260246000fd5b50919050565b601f821115620001ff57600081815260208120601f850160051c81016020861015620001da5750805b601f850160051c820191505b81811015620001fb57828155600101620001e6565b5050505b505050565b81516001600160401b038111156200022057620002206200015f565b620002388162000231845462000175565b84620001b1565b602080601f831160018114620002705760008415620002575750858301515b600019600386901b1c1916600185901b178555620001fb565b600085815260208120601f198616915b82811015620002a15788860151825594840194600190910190840162000280565b5085821015620002c05787850151600019600388901b60f8161c191681555b5050505050600190811b01905550565b600060208284031215620002e357600080fd5b81516001600160a01b0381168114620002fb57600080fd5b9392505050565b61590380620003126000396000f3fe608060405234801561001057600080fd5b50600436106102ef5760003560e01c806353db61c91161019d578063a22cb465116100e9578063e985e9c5116100a2578063f2fde38b1161007c578063f2fde38b146107c4578063f3ca9cae146107d7578063f9082079146107ea578063fdc480631461080357600080fd5b8063e985e9c514610762578063edb835b91461079e578063f242432a146107b157600080fd5b8063a22cb465146106cb578063a6c470eb146106de578063b354e3d514610709578063bd85b0391461071c578063bf05eb461461073c578063c87b56dd1461074f57600080fd5b806385318669116101565780638d448246116101305780638d448246146106615780638da5cb5b1461068457806395d89b4114610695578063963722771461069d57600080fd5b8063853186691461061257806389604a8b1461063b5780638b79b2bd1461064e57600080fd5b806353db61c91461059157806357196a6d146105b15780635f6e36e2146105d15780636e1fa631146105e45780636f298d41146105f7578063715018a61461060a57600080fd5b806316ff09ee1161025c5780633b7503d21161021557806346b28cfe116101ef57806346b28cfe146105245780634e1273f4146105475780634f558e791461056757806352e923e91461058957600080fd5b80633b7503d2146104e85780633ba7ed53146105085780633e14cdb41461051b57600080fd5b806316ff09ee146104605780631b2d142714610473578063278d4f911461047c5780632cb213da1461049f5780632eb2c2d6146104c25780633b08f804146104d557600080fd5b8063077e4cc4116102ae578063077e4cc4146103c75780630b555286146103da5780630e89341c146103ed57806313e817f114610400578063144f2f941461042057806314e676191461044b57600080fd5b80628effe0146102f4578062fdd58e1461032057806301ffc9a71461034157806305898e7214610364578063060842151461038f57806306fdde03146103b2575b600080fd5b610307610302366004614762565b61082e565b604051610317949392919061481d565b60405180910390f35b61033361032e366004614865565b610d2c565b604051908152602001610317565b61035461034f3660046148a7565b610dc7565b6040519015158152602001610317565b610333610372366004614865565b601260209081526000928352604080842090915290825290205481565b61035461039d3660046148c4565b600c6020526000908152604090205460ff1681565b6103ba610e17565b60405161031791906148e1565b6103546103d5366004614902565b610ea5565b6103546103e8366004614927565b610f84565b6103ba6103fb366004614968565b6110a2565b61033361040e366004614968565b601a6020526000908152604090205481565b600b54610433906001600160a01b031681565b6040516001600160a01b039091168152602001610317565b61045e6104593660046148c4565b611136565b005b61035461046e366004614a6b565b6111e9565b610333601b5481565b61035461048a366004614968565b60166020526000908152604090205460ff1681565b6104b26104ad3660046148c4565b6112d9565b6040516103179493929190614b09565b61045e6104d0366004614bf5565b61184e565b6103ba6104e3366004614968565b61189a565b6103336104f6366004614968565b600e6020526000908152604090205481565b610333610516366004614ca2565b6118b3565b61033360085481565b6103546105323660046148c4565b60176020526000908152604090205460ff1681565b61055a610555366004614cde565b6118db565b6040516103179190614da0565b610354610575366004614968565b600090815260046020526040902054151590565b61045e611a04565b61033361059f366004614968565b60186020526000908152604090205481565b6105c46105bf366004614968565b611cc2565b6040516103179190614dec565b6103546105df3660046148c4565b611d2d565b6103546105f2366004614dff565b611e11565b61045e610605366004614968565b612411565b61045e6124b4565b610433610620366004614968565b600f602052600090815260409020546001600160a01b031681565b610433610649366004614e41565b6124c8565b61033361065c366004614968565b612500565b61035461066f366004614968565b60156020526000908152604090205460ff1681565b6000546001600160a01b0316610433565b6103ba612521565b6103546106ab366004614762565b600d60209081526000928352604080842090915290825290205460ff1681565b61045e6106d9366004614e63565b61252e565b6103336106ec366004614ca2565b8051602081830181018051600a8252928201919093012091525481565b610354610717366004614e91565b61253d565b61033361072a366004614968565b60009081526004602052604090205490565b61033361074a366004614ebf565b612662565b6103ba61075d366004614968565b612844565b610354610770366004614f29565b6001600160a01b03918216600090815260026020908152604080832093909416825291909152205460ff1690565b6103336107ac366004614865565b612861565b61045e6107bf366004614f57565b612892565b61045e6107d23660046148c4565b6128d7565b600754610433906001600160a01b031681565b6107f2612950565b604051610317959493929190614fbf565b610333610811366004614762565b601460209081526000928352604080842090915290825290205481565b600754604051636881aedd60e01b81526060916000918391839182916001600160a01b031690636881aedd906108669060040161502c565b602060405180830381865afa158015610883573d6000803e3d6000fd5b505050506040513d601f19601f820116820180604052508101906108a7919061504e565b6000888152600960205260408120805492935090916108c59061506b565b80601f01602080910402602001604051908101604052809291908181526020018280546108f19061506b565b801561093e5780601f106109135761010080835404028352916020019161093e565b820191906000526020600020905b81548152906001019060200180831161092157829003601f168201915b50505050509050600060056001600160401b0381111561096057610960614981565b604051908082528060200260200182016040528015610989578160200160208202803683370190505b5060008a815260166020908152604080832054600f909252822054835193945060ff909116926001600160a01b03909116319184916109ca576109ca6150a5565b60209081029190910181019190915260008b8152600f9091526040908190205490516370a0823160e01b81526001600160a01b039182166004820152908516906370a0823190602401602060405180830381865afa158015610a30573d6000803e3d6000fd5b505050506040513d601f19601f82011682018060405250810190610a5491906150bb565b82600181518110610a6757610a676150a5565b602002602001018181525050610a7d898b610d2c565b82600281518110610a9057610a906150a5565b6020908102919091010152600754604051636881aedd60e01b81526001600160a01b0390911690636881aedd90610ae6906004016020808252600890820152676261676c6f67696360c01b604082015260600190565b602060405180830381865afa158015610b03573d6000803e3d6000fd5b505050506040513d601f19601f82011682018060405250810190610b27919061504e565b60008b8152600f6020526040808220549051620477ff60e51b8152600481018e90526001600160a01b039182166024820152929650909190861690628effe090604401606060405180830381865afa158015610b87573d6000803e3d6000fd5b505050506040513d601f19601f82011682018060405250810190610bab91906150d4565b925050508083600381518110610bc357610bc36150a5565b602002602001018181525050600e60008c81526020019081526020016000205483600481518110610bf657610bf66150a5565b60209081029190910181019190915260008c8152600f90915260409020546001600160a01b031682610d1957600754604051636881aedd60e01b815260206004820152600b60248201526a73686f7073746f7261676560a81b60448201526001600160a01b0390911690636881aedd90606401602060405180830381865afa158015610c86573d6000803e3d6000fd5b505050506040513d601f19601f82011682018060405250810190610caa919061504e565b604051631cb2e51960e01b8152600481018e90529096506001600160a01b03871690631cb2e51990602401602060405180830381865afa158015610cf2573d6000803e3d6000fd5b505050506040513d601f19601f82011682018060405250810190610d16919061510b565b92505b939b939a50919850965090945050505050565b60006001600160a01b038316610d9c5760405162461bcd60e51b815260206004820152602a60248201527f455243313135353a2061646472657373207a65726f206973206e6f742061207660448201526930b634b21037bbb732b960b11b60648201526084015b60405180910390fd5b5060008181526001602090815260408083206001600160a01b03861684529091529020545b92915050565b60006001600160e01b03198216636cdb3d1360e11b1480610df857506001600160e01b031982166303a24d0760e21b145b80610dc157506301ffc9a760e01b6001600160e01b0319831614610dc1565b60058054610e249061506b565b80601f0160208091040260200160405190810160405280929190818152602001828054610e509061506b565b8015610e9d5780601f10610e7257610100808354040283529160200191610e9d565b820191906000526020600020905b815481529060010190602001808311610e8057829003601f168201915b505050505081565b600754604051630568e17d60e11b815233600482015260009182916001600160a01b0390911690630ad1c2fa906024016020604051808303816000875af1158015610ef4573d6000803e3d6000fd5b505050506040513d601f19601f82011682018060405250810190610f18919061510b565b905080610f5f5760405162461bcd60e51b81526020600482015260156024820152746e6f7420616e2061646d696e206d696e746572203560581b6044820152606401610d93565b5050600091825260156020526040909120805460ff1916911515919091179055600190565b600754604051630568e17d60e11b815233600482015260009182916001600160a01b0390911690630ad1c2fa906024016020604051808303816000875af1158015610fd3573d6000803e3d6000fd5b505050506040513d601f19601f82011682018060405250810190610ff7919061510b565b90508061103e5760405162461bcd60e51b81526020600482015260156024820152746e6f7420616e2061646d696e206d696e746572203160581b6044820152606401610d93565b6001600160a01b0385166000908152600c60205260409020805460ff19168515151790558215611097576000838152600d602090815260408083206001600160a01b03891684529091529020805460ff19168515151790555b506001949350505050565b6060600380546110b19061506b565b80601f01602080910402602001604051908101604052809291908181526020018280546110dd9061506b565b801561112a5780601f106110ff5761010080835404028352916020019161112a565b820191906000526020600020905b81548152906001019060200180831161110d57829003601f168201915b50505050509050919050565b600754604051630568e17d60e11b81523360048201526000916001600160a01b031690630ad1c2fa906024016020604051808303816000875af1158015611181573d6000803e3d6000fd5b505050506040513d601f19601f820116820180604052508101906111a5919061510b565b9050806111c45760405162461bcd60e51b8152600401610d9390615128565b506001600160a01b03166000908152601760205260409020805460ff19166001179055565b600754604051630568e17d60e11b815233600482015260009182916001600160a01b0390911690630ad1c2fa906024016020604051808303816000875af1158015611238573d6000803e3d6000fd5b505050506040513d601f19601f8201168201806040525081019061125c919061510b565b90508061129e5760405162461bcd60e51b815260206004820152601060248201526f3737ba103b30b634b21031b0b63632b960811b6044820152606401610d93565b83600a846040516112af9190615150565b908152604080516020928190038301902092909255600086815260099091522061109784826151b7565b6001600160a01b0381166000908152601160205260408120546060918291829182916001600160401b0381111561131257611312614981565b60405190808252806020026020018201604052801561134557816020015b60608152602001906001900390816113305790505b506001600160a01b038716600090815260116020526040812054919250906001600160401b0381111561137a5761137a614981565b6040519080825280602002602001820160405280156113a3578160200160208202803683370190505b506001600160a01b038816600090815260116020526040812054919250906001600160401b038111156113d8576113d8614981565b604051908082528060200260200182016040528015611401578160200160208202803683370190505b50600754604051636881aedd60e01b81529192506000916001600160a01b0390911690636881aedd906114369060040161502c565b602060405180830381865afa158015611453573d6000803e3d6000fd5b505050506040513d601f19601f82011682018060405250810190611477919061504e565b905060005b6001600160a01b038a166000908152601160205260409020548110156117c0576001600160a01b038a16600090815260116020526040812080546009929190849081106114cb576114cb6150a5565b9060005260206000200154815260200190815260200160002080546114ef9061506b565b80601f016020809104026020016040519081016040528092919081815260200182805461151b9061506b565b80156115685780601f1061153d57610100808354040283529160200191611568565b820191906000526020600020905b81548152906001019060200180831161154b57829003601f168201915b505050505085828151811061157f5761157f6150a5565b602002602001018190525060006001600160a01b0316600f6000601160008e6001600160a01b03166001600160a01b0316815260200190815260200160002084815481106115cf576115cf6150a5565b600091825260208083209091015483528201929092526040019020546001600160a01b03161461176f576001600160a01b038a1660009081526011602052604081208054600f92919084908110611628576116286150a5565b9060005260206000200154815260200190815260200160002060009054906101000a90046001600160a01b03166001600160a01b031631848281518110611671576116716150a5565b602002602001018181525050816001600160a01b03166370a08231600f6000601160008f6001600160a01b03166001600160a01b0316815260200190815260200160002085815481106116c6576116c66150a5565b6000918252602080832090910154835282019290925260409081019091205490516001600160e01b031960e084901b1681526001600160a01b039091166004820152602401602060405180830381865afa158015611728573d6000803e3d6000fd5b505050506040513d601f19601f8201168201806040525081019061174c91906150bb565b83828151811061175e5761175e6150a5565b6020026020010181815250506117b0565b6000848281518110611783576117836150a5565b60200260200101818152505060008382815181106117a3576117a36150a5565b6020026020010181815250505b6117b98161528c565b905061147c565b50601160008a6001600160a01b03166001600160a01b031681526020019081526020016000208484848380548060200260200160405190810160405280929190818152602001828054801561183457602002820191906000526020600020905b815481526020019060010190808311611820575b505050505093509750975097509750505050509193509193565b6001600160a01b03851633148061186a575061186a8533610770565b6118865760405162461bcd60e51b8152600401610d93906152a5565b6118938585858585612e06565b5050505050565b60096020526000908152604090208054610e249061506b565b6000600a826040516118c59190615150565b9081526020016040518091039020549050919050565b606081518351146119405760405162461bcd60e51b815260206004820152602960248201527f455243313135353a206163636f756e747320616e6420696473206c656e677468604482015268040dad2e6dac2e8c6d60bb1b6064820152608401610d93565b600083516001600160401b0381111561195b5761195b614981565b604051908082528060200260200182016040528015611984578160200160208202803683370190505b50905060005b84518110156119fc576119cf8582815181106119a8576119a86150a5565b60200260200101518583815181106119c2576119c26150a5565b6020026020010151610d2c565b8282815181106119e1576119e16150a5565b60209081029190910101526119f58161528c565b905061198a565b509392505050565b60005a601954909150429015611b4b5760005b601954811015611b49576018600060198381548110611a3857611a386150a5565b9060005260206000200154815260200190815260200160002054821115611b39576019805460009190611a6d906001906152f3565b81548110611a7d57611a7d6150a5565b9060005260206000200154905060198181548110611a9d57611a9d6150a5565b906000526020600020015460198381548110611abb57611abb6150a5565b6000918252602090912001556019805480611ad857611ad8615306565b6001900381819060005260206000200160009055905560006016600060198581548110611b0757611b076150a5565b9060005260206000200154815260200190815260200160002060006101000a81548160ff021916908315150217905550505b611b428161528c565b9050611a17565b505b60005a90506000611b5c82856152f3565b90506000611b6a3a8361531c565b600754604051636881aedd60e01b81526020600482015260066024820152651d19585c1bdd60d21b60448201529192506000916001600160a01b0390911690636881aedd90606401602060405180830381865afa158015611bcf573d6000803e3d6000fd5b505050506040513d601f19601f82011682018060405250810190611bf3919061504e565b6040516301c5a32160e11b8152336004820152602481018490529091506000906001600160a01b0383169063038b4642906044016020604051808303816000875af1158015611c46573d6000803e3d6000fd5b505050506040513d601f19601f82011682018060405250810190611c6a919061510b565b905080611cb95760405162461bcd60e51b815260206004820152601760248201527f6572726f7220736574746e672067617320726566756e640000000000000000006044820152606401610d93565b50505050505050565b60008181526013602090815260409182902080548351818402810184019094528084526060939283018282801561112a57602002820191906000526020600020905b81546001600160a01b03168152600190910190602001808311611d045750505050509050919050565b600754604051630568e17d60e11b815233600482015260009182916001600160a01b0390911690630ad1c2fa906024016020604051808303816000875af1158015611d7c573d6000803e3d6000fd5b505050506040513d601f19601f82011682018060405250810190611da0919061510b565b905080611de75760405162461bcd60e51b81526020600482015260156024820152746e6f7420616e2061646d696e206d696e746572203360581b6044820152606401610d93565b50506001600160a01b03166000908152601060205260409020805460ff1916600190811790915590565b600754604051630568e17d60e11b815233600482015260009182916001600160a01b0390911690630ad1c2fa906024016020604051808303816000875af1158015611e60573d6000803e3d6000fd5b505050506040513d601f19601f82011682018060405250810190611e84919061510b565b905080611ea35760405162461bcd60e51b8152600401610d9390615128565b6000611eaf8487610d2c565b905060008111611f015760405162461bcd60e51b815260206004820152601960248201527f796f7520646f206e6f74206f776e2074686973206e66746561000000000000006044820152606401610d93565b6001600160a01b03841660009081526017602052604090205460ff1615611f6a5760405162461bcd60e51b815260206004820152601c60248201527f62616e6e65642066726f6d206c697374696e6720646973706c617973000000006044820152606401610d93565b6000601b54118015611f795750845b156120b357600754604051636881aedd60e01b81526000916001600160a01b031690636881aedd90611fad9060040161502c565b602060405180830381865afa158015611fca573d6000803e3d6000fd5b505050506040513d601f19601f82011682018060405250810190611fee919061504e565b601b546000898152600f6020526040908190205490516370a0823160e01b81526001600160a01b0391821660048201529293509091908316906370a0823190602401602060405180830381865afa15801561204d573d6000803e3d6000fd5b505050506040513d601f19601f8201168201806040525081019061207191906150bb565b10156120b15760405162461bcd60e51b815260206004820152600f60248201526e6c6f77206261672062616c616e636560881b6044820152606401610d93565b505b84156123035760008681526016602052604090205460ff161561210d5760405162461bcd60e51b8152602060048201526012602482015271616c7265616479206f6e20646973706c617960701b6044820152606401610d93565b6019544290603110156122505760005b603181101561224e57601860006019838154811061213d5761213d6150a5565b906000526020600020015481526020019081526020016000205482111561223e576019805460009190612172906001906152f3565b81548110612182576121826150a5565b90600052602060002001549050601981815481106121a2576121a26150a5565b9060005260206000200154601983815481106121c0576121c06150a5565b60009182526020909120015560198054806121dd576121dd615306565b600190038181906000526020600020016000905590556000601660006019858154811061220c5761220c6150a5565b9060005260206000200154815260200190815260200160002060006101000a81548160ff021916908315150217905550505b6122478161528c565b905061211d565b505b601980546001818101835560008390527f944998273e477b495144fb8794c914197f3ccb46be2900f4698fd0ef743c9695909101899055905461229391906152f3565b6000888152601a60205260409020556122ae42615460615333565b6000888152601860209081526040918290209290925580518981526001928101929092527fc89bb8e2e8180be4ac718f632cd6220ef52811004300623a45482aafc8f0aa01910160405180910390a1506123ea565b60008681526016602052604090205460ff16156123ea576019805461232a906001906152f3565b8154811061233a5761233a6150a5565b90600052602060002001546019601a6000898152602001908152602001600020548154811061236b5761236b6150a5565b600091825260209091200155601980548061238857612388615306565b6000828152602080822060001990840181018390559092019092558782526018815260408083208390558051898152918201929092527fc89bb8e2e8180be4ac718f632cd6220ef52811004300623a45482aafc8f0aa01910160405180910390a15b50505060009283525060166020526040909120805460ff1916911515919091179055600190565b600754604051630568e17d60e11b81523360048201526000916001600160a01b031690630ad1c2fa906024016020604051808303816000875af115801561245c573d6000803e3d6000fd5b505050506040513d601f19601f82011682018060405250810190612480919061510b565b90508061249f5760405162461bcd60e51b8152600401610d9390615128565b6124ad82633b9aca0061531c565b601b555050565b6124bc612ff4565b6124c6600061304e565b565b601360205281600052604060002081815481106124e457600080fd5b6000918252602090912001546001600160a01b03169150829050565b6019818154811061251057600080fd5b600091825260209091200154905081565b60068054610e249061506b565b61253933838361309e565b5050565b600754604051630568e17d60e11b815233600482015260009182916001600160a01b0390911690630ad1c2fa906024016020604051808303816000875af115801561258c573d6000803e3d6000fd5b505050506040513d601f19601f820116820180604052508101906125b0919061510b565b9050806125f75760405162461bcd60e51b81526020600482015260156024820152743737ba1030b71030b236b4b71036b4b73a32b9101960591b6044820152606401610d93565b6000858152600e60209081526040808320879055600f909152902080546001600160a01b0319166001600160a01b03851690811790915515611097576001600160a01b0383166000908152601060205260409020805460ff1916600117905560019150509392505050565b600754604051630568e17d60e11b815233600482015260009182916001600160a01b0390911690630ad1c2fa906024016020604051808303816000875af11580156126b1573d6000803e3d6000fd5b505050506040513d601f19601f820116820180604052508101906126d5919061510b565b90508061271c5760405162461bcd60e51b81526020600482015260156024820152741b9bdd08185b8818591b5a5b881b5a5b9d195c880d605a1b6044820152606401610d93565b600060018810156127835760016008600082825461273a9190615333565b9091555050600854600081815260096020526040902090985061275d88826151b7565b5087600a8860405161276f9190615150565b908152604051908190036020019020555060015b84600981518110612796576127966150a5565b6020026020010151600e60008a8152602001908152602001600020819055506127ea8689876006815181106127cd576127cd6150a5565b60200260200101516040518060200160405280600081525061317e565b6008546000908152600960205260409081902090517f87dcadd2e5e94693343b58efb044e0fd5e7a6311a00f523828cc136a119a69dc916128309189918c918990615346565b60405180910390a150959695505050505050565b60008181526009602052604090208054606091906110b19061506b565b6011602052816000526040600020818154811061287d57600080fd5b90600052602060002001600091509150505481565b6001600160a01b0385163314806128ae57506128ae8533610770565b6128ca5760405162461bcd60e51b8152600401610d93906152a5565b611893858585858561329a565b6128df612ff4565b6001600160a01b0381166129445760405162461bcd60e51b815260206004820152602660248201527f4f776e61626c653a206e6577206f776e657220697320746865207a65726f206160448201526564647265737360d01b6064820152608401610d93565b61294d8161304e565b50565b606080606080606060006019805490506001600160401b0381111561297757612977614981565b6040519080825280602002602001820160405280156129aa57816020015b60608152602001906001900390816129955790505b506019549091506000906001600160401b038111156129cb576129cb614981565b6040519080825280602002602001820160405280156129f4578160200160208202803683370190505b506019549091506000906001600160401b03811115612a1557612a15614981565b604051908082528060200260200182016040528015612a3e578160200160208202803683370190505b506019549091506000906001600160401b03811115612a5f57612a5f614981565b604051908082528060200260200182016040528015612a88578160200160208202803683370190505b50600754604051636881aedd60e01b81529192506000916001600160a01b0390911690636881aedd90612abd9060040161502c565b602060405180830381865afa158015612ada573d6000803e3d6000fd5b505050506040513d601f19601f82011682018060405250810190612afe919061504e565b905060005b601954811015612d97576009600060198381548110612b2457612b246150a5565b906000526020600020015481526020019081526020016000208054612b489061506b565b80601f0160208091040260200160405190810160405280929190818152602001828054612b749061506b565b8015612bc15780601f10612b9657610100808354040283529160200191612bc1565b820191906000526020600020905b815481529060010190602001808311612ba457829003601f168201915b5050505050868281518110612bd857612bd86150a5565b6020026020010181905250600f600060198381548110612bfa57612bfa6150a5565b9060005260206000200154815260200190815260200160002060009054906101000a90046001600160a01b03166001600160a01b031631858281518110612c4357612c436150a5565b602002602001018181525050816001600160a01b03166370a08231600f600060198581548110612c7557612c756150a5565b6000918252602080832090910154835282019290925260409081019091205490516001600160e01b031960e084901b1681526001600160a01b039091166004820152602401602060405180830381865afa158015612cd7573d6000803e3d6000fd5b505050506040513d601f19601f82011682018060405250810190612cfb91906150bb565b848281518110612d0d57612d0d6150a5565b602002602001018181525050600f600060198381548110612d3057612d306150a5565b9060005260206000200154815260200190815260200160002060009054906101000a90046001600160a01b0316838281518110612d6f57612d6f6150a5565b6001600160a01b0390921660209283029190910190910152612d908161528c565b9050612b03565b5060198585858584805480602002602001604051908101604052809291908181526020018280548015612de957602002820191906000526020600020905b815481526020019060010190808311612dd5575b505050505094509950995099509950995050505050509091929394565b8151835114612e685760405162461bcd60e51b815260206004820152602860248201527f455243313135353a2069647320616e6420616d6f756e7473206c656e677468206044820152670dad2e6dac2e8c6d60c31b6064820152608401610d93565b6001600160a01b038416612e8e5760405162461bcd60e51b8152600401610d93906153ef565b33612e9d8187878787876133d6565b60005b8451811015612f86576000858281518110612ebd57612ebd6150a5565b602002602001015190506000858381518110612edb57612edb6150a5565b60209081029190910181015160008481526001835260408082206001600160a01b038e168352909352919091205490915081811015612f2c5760405162461bcd60e51b8152600401610d9390615434565b60008381526001602090815260408083206001600160a01b038e8116855292528083208585039055908b16825281208054849290612f6b908490615333565b9250508190555050505080612f7f9061528c565b9050612ea0565b50846001600160a01b0316866001600160a01b0316826001600160a01b03167f4a39dc06d4c0dbc64b70af90fd698a233a518aa5d07e595d983b8c0526c8f7fb8787604051612fd692919061547e565b60405180910390a4612fec8187878787876142ab565b505050505050565b6000546001600160a01b031633146124c65760405162461bcd60e51b815260206004820181905260248201527f4f776e61626c653a2063616c6c6572206973206e6f7420746865206f776e65726044820152606401610d93565b600080546001600160a01b038381166001600160a01b0319831681178455604051919092169283917f8be0079c531659141344cd1fd0a4f28419497f9722a3daafe3b4186f6b6457e09190a35050565b816001600160a01b0316836001600160a01b0316036131115760405162461bcd60e51b815260206004820152602960248201527f455243313135353a2073657474696e6720617070726f76616c20737461747573604482015268103337b91039b2b63360b91b6064820152608401610d93565b6001600160a01b03838116600081815260026020908152604080832094871680845294825291829020805460ff191686151590811790915591519182527f17307eab39ab6107e8899845ad3d59bd9653f200f220920489ca2b5937696c31910160405180910390a3505050565b6001600160a01b0384166131de5760405162461bcd60e51b815260206004820152602160248201527f455243313135353a206d696e7420746f20746865207a65726f206164647265736044820152607360f81b6064820152608401610d93565b3360006131ea85614406565b905060006131f785614406565b9050613208836000898585896133d6565b60008681526001602090815260408083206001600160a01b038b1684529091528120805487929061323a908490615333565b909155505060408051878152602081018790526001600160a01b03808a1692600092918716917fc3d58168c5ae7397731d063d5bbf3d657854427343f4c083240f7aacaa2d0f62910160405180910390a4611cb983600089898989614451565b6001600160a01b0384166132c05760405162461bcd60e51b8152600401610d93906153ef565b3360006132cc85614406565b905060006132d985614406565b90506132e98389898585896133d6565b60008681526001602090815260408083206001600160a01b038c1684529091529020548581101561332c5760405162461bcd60e51b8152600401610d9390615434565b60008781526001602090815260408083206001600160a01b038d8116855292528083208985039055908a1682528120805488929061336b908490615333565b909155505060408051888152602081018890526001600160a01b03808b16928c821692918816917fc3d58168c5ae7397731d063d5bbf3d657854427343f4c083240f7aacaa2d0f62910160405180910390a46133cb848a8a8a8a8a614451565b505050505050505050565b60005b835181101561429c576001600160a01b0385166000908152600c602052604090205460ff161580156134525750600d600085838151811061341c5761341c6150a5565b602090810291909101810151825281810192909252604090810160009081206001600160a01b038916825290925290205460ff16155b6134925760405162461bcd60e51b8152602060048201526011602482015270199b1859d9d959081c9958da5c1a595b9d607a1b6044820152606401610d93565b600754604051636881aedd60e01b815260206004820152600960248201526873686f706c6f67696360b81b60448201526000916001600160a01b031690636881aedd90606401602060405180830381865afa1580156134f5573d6000803e3d6000fd5b505050506040513d601f19601f82011682018060405250810190613519919061504e565b90506001600160a01b038716156140bf576001600e6000878581518110613542576135426150a5565b60200260200101518152602001908152602001600020541015613c0d57600754604051636881aedd60e01b815260206004820152600b60248201526a6d696e7473746f7261676560a81b60448201526000916001600160a01b031690636881aedd90606401602060405180830381865afa1580156135c4573d6000803e3d6000fd5b505050506040513d601f19601f820116820180604052508101906135e8919061504e565b9050806001600160a01b031663875ff21587858151811061360b5761360b6150a5565b60200260200101516040518263ffffffff1660e01b815260040161363191815260200190565b600060405180830381865afa15801561364e573d6000803e3d6000fd5b505050506040513d6000823e601f3d908101601f1916820160405261367691908101906155eb565b50508051601c908155602080830151805184939261369992601d92910190614698565b50604082015180516136b59160028401916020909101906146fd565b5050505060016136ea8785815181106136d0576136d06150a5565b602002602001015160009081526004602052604090205490565b1115613a28576000601c600201600381548110613709576137096150a5565b906000526020600020015460050361384957600754604051636881aedd60e01b815260206004820152600f60248201526e6f70657261746f7273746f7261676560881b60448201526001600160a01b0390911690636881aedd90606401602060405180830381865afa158015613783573d6000803e3d6000fd5b505050506040513d601f19601f820116820180604052508101906137a7919061504e565b91506000826001600160a01b0316635cd4f0238987815181106137cc576137cc6150a5565b60200260200101518c6040518363ffffffff1660e01b81526004016138049291909182526001600160a01b0316602082015260400190565b602060405180830381865afa158015613821573d6000803e3d6000fd5b505050506040513d601f19601f82011682018060405250810190613845919061504e565b9150505b806001600160a01b0316896001600160a01b031614806138765750600b546001600160a01b038981169116145b806138aa5750601d805460009061388f5761388f6150a5565b6000918252602090912001546001600160a01b038981169116145b806138e05750601d805460019081106138c5576138c56150a5565b6000918252602090912001546001600160a01b038981169116145b806138fc5750826001600160a01b0316896001600160a01b0316145b806139305750601d8054600090613915576139156150a5565b6000918252602090912001546001600160a01b038a81169116145b806139665750601d8054600190811061394b5761394b6150a5565b6000918252602090912001546001600160a01b038a81169116145b6139a65760405162461bcd60e51b81526020600482015260116024820152706c696d69746564207472616e736665727360781b6044820152606401610d93565b601d805460029081106139bb576139bb6150a5565b6000918252602090912001546001600160a01b0390811690891603613a225760405162461bcd60e51b815260206004820181905260248201527f73656c662077616c6c6574207472616e73666572206e6f7420616c6c6f7765646044820152606401610d93565b50613c0b565b816001600160a01b0316886001600160a01b03161480613a835750816001600160a01b0316876001600160a01b0316148015613a835750601e80546003908110613a7457613a746150a5565b90600052602060002001546001145b80613a9b5750600b546001600160a01b038881169116145b80613acf5750601d8054600090613ab457613ab46150a5565b6000918252602090912001546001600160a01b038881169116145b80613b055750601d80546001908110613aea57613aea6150a5565b6000918252602090912001546001600160a01b038881169116145b80613b40575060156000878581518110613b2157613b216150a5565b60209081029190910181015182528101919091526040016000205460ff165b613b8c5760405162461bcd60e51b815260206004820152601b60248201527f63616e6e6f74207472616e73666572206c656164206c6162656c7300000000006044820152606401610d93565b60156000878581518110613ba257613ba26150a5565b60209081029190910181015182528101919091526040016000205460ff1615613c0b57600060156000888681518110613bdd57613bdd6150a5565b6020026020010151815260200190815260200160002060006101000a81548160ff0219169083151502179055505b505b613c228583815181106136d0576136d06150a5565b600103613ddd57806001600160a01b0316866001600160a01b031614158015613c595750600b546001600160a01b03878116911614155b15613ddd57600754604051636881aedd60e01b815260206004820152600f60248201526e6f70657261746f7273746f7261676560881b60448201526000916001600160a01b031690636881aedd90606401602060405180830381865afa158015613cc7573d6000803e3d6000fd5b505050506040513d601f19601f82011682018060405250810190613ceb919061504e565b90506000816001600160a01b03166372ffc50a888681518110613d1057613d106150a5565b60200260200101518a6040518363ffffffff1660e01b8152600401613d489291909182526001600160a01b0316602082015260400190565b6020604051808303816000875af1158015613d67573d6000803e3d6000fd5b505050506040513d601f19601f82011682018060405250810190613d8b919061510b565b905080613dda5760405162461bcd60e51b815260206004820152601760248201527f6572726f72207570646174696e67206f70657261746f720000000000000000006044820152606401610d93565b50505b6000613df5888785815181106119c2576119c26150a5565b90506001613e25868581518110613e0e57613e0e6150a5565b60200260200101518361450c90919063ffffffff16565b10156140bd576001600160a01b03881660009081526011602052604090208054613e51906001906152f3565b81548110613e6157613e616150a5565b60009182526020808320909101546001600160a01b038b168352601182526040808420601290935283208951919390918a9088908110613ea357613ea36150a5565b602002602001015181526020019081526020016000205481548110613eca57613eca6150a5565b60009182526020808320909101929092556001600160a01b038a168152601190915260409020805480613eff57613eff615306565b6001900381819060005260206000200160009055905560136000878581518110613f2b57613f2b6150a5565b60200260200101518152602001908152602001600020600160136000898781518110613f5957613f596150a5565b6020026020010151815260200190815260200160002080549050613f7d91906152f3565b81548110613f8d57613f8d6150a5565b600091825260208220015487516001600160a01b0390911691601391899087908110613fbb57613fbb6150a5565b6020026020010151815260200190815260200160002060146000898781518110613fe757613fe76150a5565b6020026020010151815260200190815260200160002060008b6001600160a01b03166001600160a01b031681526020019081526020016000205481548110614031576140316150a5565b9060005260206000200160006101000a8154816001600160a01b0302191690836001600160a01b0316021790555060136000878581518110614075576140756150a5565b6020026020010151815260200190815260200160002080548061409a5761409a615306565b600082815260209020810160001990810180546001600160a01b03191690550190555b505b60006140d7878785815181106119c2576119c26150a5565b905080600003614289576001600160a01b0387166000908152601160205260409020865187908590811061410d5761410d6150a5565b6020908102919091018101518254600181810185556000948552838520909101919091556001600160a01b038a168352601190915260409091205461415291906152f3565b6001600160a01b03881660009081526012602052604081208851909190899087908110614181576141816150a5565b6020026020010151815260200190815260200160002081905550601360008785815181106141b1576141b16150a5565b602090810291909101810151825281810192909252604001600090812080546001808201835591835292822090920180546001600160a01b0319166001600160a01b038b16179055875160139190899087908110614211576142116150a5565b602002602001015181526020019081526020016000208054905061423591906152f3565b6014600088868151811061424b5761424b6150a5565b602002602001015181526020019081526020016000206000896001600160a01b03166001600160a01b03168152602001908152602001600020819055505b5050806142959061528c565b90506133d9565b50612fec86868686868661451f565b6001600160a01b0384163b15612fec5760405163bc197c8160e01b81526001600160a01b0385169063bc197c81906142ef9089908990889088908890600401615737565b6020604051808303816000875af192505050801561432a575060408051601f3d908101601f1916820190925261432791810190615789565b60015b6143d6576143366157a6565b806308c379a00361436f575061434a6157c2565b806143555750614371565b8060405162461bcd60e51b8152600401610d9391906148e1565b505b60405162461bcd60e51b815260206004820152603460248201527f455243313135353a207472616e7366657220746f206e6f6e2d455243313135356044820152732932b1b2b4bb32b91034b6b83632b6b2b73a32b960611b6064820152608401610d93565b6001600160e01b0319811663bc197c8160e01b14611cb95760405162461bcd60e51b8152600401610d939061584b565b60408051600180825281830190925260609160009190602080830190803683370190505090508281600081518110614440576144406150a5565b602090810291909101015292915050565b6001600160a01b0384163b15612fec5760405163f23a6e6160e01b81526001600160a01b0385169063f23a6e61906144959089908990889088908890600401615893565b6020604051808303816000875af19250505080156144d0575060408051601f3d908101601f191682019092526144cd91810190615789565b60015b6144dc576143366157a6565b6001600160e01b0319811663f23a6e6160e01b14611cb95760405162461bcd60e51b8152600401610d939061584b565b600061451882846152f3565b9392505050565b6001600160a01b0385166145a65760005b83518110156145a45782818151811061454b5761454b6150a5565b602002602001015160046000868481518110614569576145696150a5565b60200260200101518152602001908152602001600020600082825461458e9190615333565b9091555061459d90508161528c565b9050614530565b505b6001600160a01b038416612fec5760005b8351811015611cb95760008482815181106145d4576145d46150a5565b6020026020010151905060008483815181106145f2576145f26150a5565b60200260200101519050600060046000848152602001908152602001600020549050818110156146755760405162461bcd60e51b815260206004820152602860248201527f455243313135353a206275726e20616d6f756e74206578636565647320746f74604482015267616c537570706c7960c01b6064820152608401610d93565b600092835260046020526040909220910390556146918161528c565b90506145b7565b8280548282559060005260206000209081019282156146ed579160200282015b828111156146ed57825182546001600160a01b0319166001600160a01b039091161782556020909201916001909101906146b8565b506146f9929150614738565b5090565b8280548282559060005260206000209081019282156146ed579160200282015b828111156146ed57825182559160200191906001019061471d565b5b808211156146f95760008155600101614739565b6001600160a01b038116811461294d57600080fd5b6000806040838503121561477557600080fd5b8235915060208301356147878161474d565b809150509250929050565b60005b838110156147ad578181015183820152602001614795565b50506000910152565b600081518084526147ce816020860160208601614792565b601f01601f19169290920160200192915050565b600081518084526020808501945080840160005b83811015614812578151875295820195908201906001016147f6565b509495945050505050565b60808152600061483060808301876147b6565b6001600160a01b0386166020840152828103604084015261485181866147e2565b915050821515606083015295945050505050565b6000806040838503121561487857600080fd5b82356148838161474d565b946020939093013593505050565b6001600160e01b03198116811461294d57600080fd5b6000602082840312156148b957600080fd5b813561451881614891565b6000602082840312156148d657600080fd5b81356145188161474d565b60208152600061451860208301846147b6565b801515811461294d57600080fd5b6000806040838503121561491557600080fd5b823591506020830135614787816148f4565b60008060006060848603121561493c57600080fd5b83356149478161474d565b92506020840135614957816148f4565b929592945050506040919091013590565b60006020828403121561497a57600080fd5b5035919050565b634e487b7160e01b600052604160045260246000fd5b606081018181106001600160401b03821117156149b6576149b6614981565b60405250565b601f8201601f191681016001600160401b03811182821017156149e1576149e1614981565b6040525050565b60006001600160401b03821115614a0157614a01614981565b50601f01601f191660200190565b600082601f830112614a2057600080fd5b8135614a2b816149e8565b604051614a3882826149bc565b828152856020848701011115614a4d57600080fd5b82602086016020830137600092810160200192909252509392505050565b60008060408385031215614a7e57600080fd5b8235915060208301356001600160401b03811115614a9b57600080fd5b614aa785828601614a0f565b9150509250929050565b600082825180855260208086019550808260051b84010181860160005b84811015614afc57601f19868403018952614aea8383516147b6565b98840198925090830190600101614ace565b5090979650505050505050565b608081526000614b1c60808301876147e2565b8281036020840152614b2e8187614ab1565b90508281036040840152614b4281866147e2565b90508281036060840152614b5681856147e2565b979650505050505050565b60006001600160401b03821115614b7a57614b7a614981565b5060051b60200190565b600082601f830112614b9557600080fd5b81356020614ba282614b61565b604051614baf82826149bc565b83815260059390931b8501820192828101915086841115614bcf57600080fd5b8286015b84811015614bea5780358352918301918301614bd3565b509695505050505050565b600080600080600060a08688031215614c0d57600080fd5b8535614c188161474d565b94506020860135614c288161474d565b935060408601356001600160401b0380821115614c4457600080fd5b614c5089838a01614b84565b94506060880135915080821115614c6657600080fd5b614c7289838a01614b84565b93506080880135915080821115614c8857600080fd5b50614c9588828901614a0f565b9150509295509295909350565b600060208284031215614cb457600080fd5b81356001600160401b03811115614cca57600080fd5b614cd684828501614a0f565b949350505050565b60008060408385031215614cf157600080fd5b82356001600160401b0380821115614d0857600080fd5b818501915085601f830112614d1c57600080fd5b81356020614d2982614b61565b604051614d3682826149bc565b83815260059390931b8501820192828101915089841115614d5657600080fd5b948201945b83861015614d7d578535614d6e8161474d565b82529482019490820190614d5b565b96505086013592505080821115614d9357600080fd5b50614aa785828601614b84565b60208152600061451860208301846147e2565b600081518084526020808501945080840160005b838110156148125781516001600160a01b031687529582019590820190600101614dc7565b6020815260006145186020830184614db3565b600080600060608486031215614e1457600080fd5b833592506020840135614e26816148f4565b91506040840135614e368161474d565b809150509250925092565b60008060408385031215614e5457600080fd5b50508035926020909101359150565b60008060408385031215614e7657600080fd5b8235614e818161474d565b91506020830135614787816148f4565b600080600060608486031215614ea657600080fd5b83359250602084013591506040840135614e368161474d565b600080600080600060a08688031215614ed757600080fd5b8535945060208601356001600160401b0380821115614ef557600080fd5b614f0189838a01614a0f565b955060408801359150614f138261474d565b90935060608701359080821115614c6657600080fd5b60008060408385031215614f3c57600080fd5b8235614f478161474d565b915060208301356147878161474d565b600080600080600060a08688031215614f6f57600080fd5b8535614f7a8161474d565b94506020860135614f8a8161474d565b9350604086013592506060860135915060808601356001600160401b03811115614fb357600080fd5b614c9588828901614a0f565b60a081526000614fd260a08301886147e2565b8281036020840152614fe48188614ab1565b90508281036040840152614ff881876147e2565b9050828103606084015261500c81866147e2565b905082810360808401526150208185614db3565b98975050505050505050565b6020808252600890820152673a32b0ba37b5b2b760c11b604082015260600190565b60006020828403121561506057600080fd5b81516145188161474d565b600181811c9082168061507f57607f821691505b60208210810361509f57634e487b7160e01b600052602260045260246000fd5b50919050565b634e487b7160e01b600052603260045260246000fd5b6000602082840312156150cd57600080fd5b5051919050565b6000806000606084860312156150e957600080fd5b83516150f48161474d565b602085015160409095015190969495509392505050565b60006020828403121561511d57600080fd5b8151614518816148f4565b6020808252600e908201526d34b73b30b634b21031b0b63632b960911b604082015260600190565b60008251615162818460208701614792565b9190910192915050565b601f8211156151b257600081815260208120601f850160051c810160208610156151935750805b601f850160051c820191505b81811015612fec5782815560010161519f565b505050565b81516001600160401b038111156151d0576151d0614981565b6151e4816151de845461506b565b8461516c565b602080601f83116001811461521957600084156152015750858301515b600019600386901b1c1916600185901b178555612fec565b600085815260208120601f198616915b8281101561524857888601518255948401946001909101908401615229565b50858210156152665787850151600019600388901b60f8161c191681555b5050505050600190811b01905550565b634e487b7160e01b600052601160045260246000fd5b60006001820161529e5761529e615276565b5060010190565b6020808252602e908201527f455243313135353a2063616c6c6572206973206e6f7420746f6b656e206f776e60408201526d195c881bdc88185c1c1c9bdd995960921b606082015260800190565b81810381811115610dc157610dc1615276565b634e487b7160e01b600052603160045260246000fd5b8082028115828204841417610dc157610dc1615276565b80820180821115610dc157610dc1615276565b60018060a01b0385168152600060208581840152608060408401526000855461536e8161506b565b80608087015260a060018084166000811461539057600181146153aa576153d8565b60ff1985168984015283151560051b8901830195506153d8565b8a6000528660002060005b858110156153d05781548b82018601529083019088016153b5565b8a0184019650505b5050505050838103606085015261502081866147b6565b60208082526025908201527f455243313135353a207472616e7366657220746f20746865207a65726f206164604082015264647265737360d81b606082015260800190565b6020808252602a908201527f455243313135353a20696e73756666696369656e742062616c616e636520666f60408201526939103a3930b739b332b960b11b606082015260800190565b60408152600061549160408301856147e2565b82810360208401526154a381856147e2565b95945050505050565b600082601f8301126154bd57600080fd5b815160206154ca82614b61565b6040516154d782826149bc565b83815260059390931b85018201928281019150868411156154f757600080fd5b8286015b84811015614bea57805183529183019183016154fb565b600082601f83011261552357600080fd5b815161552e816149e8565b60405161553b82826149bc565b82815285602084870101111561555057600080fd5b6154a3836020830160208801614792565b600082601f83011261557257600080fd5b8151602061557f82614b61565b60405161558c82826149bc565b83815260059390931b85018201928281019150868411156155ac57600080fd5b8286015b84811015614bea5780516001600160401b038111156155cf5760008081fd5b6155dd8986838b0101615512565b8452509183019183016155b0565b60008060006060848603121561560057600080fd5b83516001600160401b038082111561561757600080fd5b908501906060828803121561562b57600080fd5b60405161563781614997565b825181526020808401518381111561564e57600080fd5b8401601f81018a1361565f57600080fd5b805161566a81614b61565b60405161567782826149bc565b82815260059290921b830184019184810191508c83111561569757600080fd5b928401925b828410156156be5783516156af8161474d565b8252928401929084019061569c565b858501525050506040840151838111156156d757600080fd5b6156e38a8287016154ac565b6040840152508701519095509150808211156156fe57600080fd5b61570a87838801615561565b9350604086015191508082111561572057600080fd5b5061572d86828701615512565b9150509250925092565b6001600160a01b0386811682528516602082015260a060408201819052600090615763908301866147e2565b828103606084015261577581866147e2565b9050828103608084015261502081856147b6565b60006020828403121561579b57600080fd5b815161451881614891565b600060033d11156157bf5760046000803e5060005160e01c5b90565b600060443d10156157d05790565b6040516003193d81016004833e81513d6001600160401b0381602484011181841117156157ff57505050505090565b82850191508151818111156158175750505050505090565b843d87010160208285010111156158315750505050505090565b615840602082860101876149bc565b509095945050505050565b60208082526028908201527f455243313135353a204552433131353552656365697665722072656a656374656040820152676420746f6b656e7360c01b606082015260800190565b6001600160a01b03868116825285166020820152604081018490526060810183905260a060808201819052600090614b56908301846147b656fea2646970667358221220cfc1f7010c3a99b738269d186dfccce28b354875fc22df88f066aeb2c1fbf8b864736f6c6343000811003368747470733a2f2f6e667465612e6170702f7075626c69632f6e667465612f7b69647d2e6a736f6e",
  "immutableReferences": {},
  "source": "// SPDX-License-Identifier: MIT\npragma solidity ^0.8.0;\n\n\ninterface IERC165 {\n\n    function supportsInterface(bytes4 interfaceId) external view returns (bool);\n}\n\npragma solidity ^0.8.0;\n\n\ninterface IERC1155 is IERC165 {\n\n    event TransferSingle(address indexed operator, address indexed from, address indexed to, uint256 id, uint256 value);\n\n\n    event TransferBatch(\n        address indexed operator,\n        address indexed from,\n        address indexed to,\n        uint256[] ids,\n        uint256[] values\n    );\n\n\n    event ApprovalForAll(address indexed account, address indexed operator, bool approved);\n\n\n    event URI(string value, uint256 indexed id);\n\n\n    function balanceOf(address account, uint256 id) external view returns (uint256);\n\n\n    function balanceOfBatch(address[] calldata accounts, uint256[] calldata ids)\n        external\n        view\n        returns (uint256[] memory);\n\n\n    function setApprovalForAll(address operator, bool approved) external;\n\n\n    function isApprovedForAll(address account, address operator) external view returns (bool);\n\n\n    function safeTransferFrom(\n        address from,\n        address to,\n        uint256 id,\n        uint256 amount,\n        bytes calldata data\n    ) external;\n\n\n    function safeBatchTransferFrom(\n        address from,\n        address to,\n        uint256[] calldata ids,\n        uint256[] calldata amounts,\n        bytes calldata data\n    ) external;\n}\n\npragma solidity ^0.8.0;\ninterface IERC1155Receiver is IERC165 {\n\n    function onERC1155Received(\n        address operator,\n        address from,\n        uint256 id,\n        uint256 value,\n        bytes calldata data\n    ) external returns (bytes4);\n\n\n    function onERC1155BatchReceived(\n        address operator,\n        address from,\n        uint256[] calldata ids,\n        uint256[] calldata values,\n        bytes calldata data\n    ) external returns (bytes4);\n}\n\npragma solidity ^0.8.0;\ninterface IERC1155MetadataURI is IERC1155 {\n\n    function uri(uint256 id) external view returns (string memory);\n}\npragma solidity ^0.8.1;\n\n\nlibrary Address {\n\n    function isContract(address account) internal view returns (bool) {\n        // This method relies on extcodesize/address.code.length, which returns 0\n        // for contracts in construction, since the code is only stored at the end\n        // of the constructor execution.\n\n        return account.code.length > 0;\n    }\n\n\n    function sendValue(address payable recipient, uint256 amount) internal {\n        require(address(this).balance >= amount, \"Address: insufficient balance\");\n\n        (bool success, ) = recipient.call{value: amount}(\"\");\n        require(success, \"Address: unable to send value, recipient may have reverted\");\n    }\n\n\n    function functionCall(address target, bytes memory data) internal returns (bytes memory) {\n        return functionCallWithValue(target, data, 0, \"Address: low-level call failed\");\n    }\n\n\n    function functionCall(\n        address target,\n        bytes memory data,\n        string memory errorMessage\n    ) internal returns (bytes memory) {\n        return functionCallWithValue(target, data, 0, errorMessage);\n    }\n\n\n    function functionCallWithValue(\n        address target,\n        bytes memory data,\n        uint256 value\n    ) internal returns (bytes memory) {\n        return functionCallWithValue(target, data, value, \"Address: low-level call with value failed\");\n    }\n\n\n    function functionCallWithValue(\n        address target,\n        bytes memory data,\n        uint256 value,\n        string memory errorMessage\n    ) internal returns (bytes memory) {\n        require(address(this).balance >= value, \"Address: insufficient balance for call\");\n        (bool success, bytes memory returndata) = target.call{value: value}(data);\n        return verifyCallResultFromTarget(target, success, returndata, errorMessage);\n    }\n\n\n    function functionStaticCall(address target, bytes memory data) internal view returns (bytes memory) {\n        return functionStaticCall(target, data, \"Address: low-level static call failed\");\n    }\n\n\n    function functionStaticCall(\n        address target,\n        bytes memory data,\n        string memory errorMessage\n    ) internal view returns (bytes memory) {\n        (bool success, bytes memory returndata) = target.staticcall(data);\n        return verifyCallResultFromTarget(target, success, returndata, errorMessage);\n    }\n\n\n    function functionDelegateCall(address target, bytes memory data) internal returns (bytes memory) {\n        return functionDelegateCall(target, data, \"Address: low-level delegate call failed\");\n    }\n\n\n    function functionDelegateCall(\n        address target,\n        bytes memory data,\n        string memory errorMessage\n    ) internal returns (bytes memory) {\n        (bool success, bytes memory returndata) = target.delegatecall(data);\n        return verifyCallResultFromTarget(target, success, returndata, errorMessage);\n    }\n\n\n    function verifyCallResultFromTarget(\n        address target,\n        bool success,\n        bytes memory returndata,\n        string memory errorMessage\n    ) internal view returns (bytes memory) {\n        if (success) {\n            if (returndata.length == 0) {\n                // only check isContract if the call was successful and the return data is empty\n                // otherwise we already know that it was a contract\n                require(isContract(target), \"Address: call to non-contract\");\n            }\n            return returndata;\n        } else {\n            _revert(returndata, errorMessage);\n        }\n    }\n\n\n    function verifyCallResult(\n        bool success,\n        bytes memory returndata,\n        string memory errorMessage\n    ) internal pure returns (bytes memory) {\n        if (success) {\n            return returndata;\n        } else {\n            _revert(returndata, errorMessage);\n        }\n    }\n\n    function _revert(bytes memory returndata, string memory errorMessage) private pure {\n        // Look for revert reason and bubble it up if present\n        if (returndata.length > 0) {\n            // The easiest way to bubble the revert reason is using memory via assembly\n            /// @solidity memory-safe-assembly\n            assembly {\n                let returndata_size := mload(returndata)\n                revert(add(32, returndata), returndata_size)\n            }\n        } else {\n            revert(errorMessage);\n        }\n    }\n}\n\npragma solidity ^0.8.0;\n\n\nabstract contract Context {\n    function _msgSender() internal view virtual returns (address) {\n        return msg.sender;\n    }\n\n    function _msgData() internal view virtual returns (bytes calldata) {\n        return msg.data;\n    }\n}\n\npragma solidity ^0.8.0;\n\n\nabstract contract ERC165 is IERC165 {\n\n    function supportsInterface(bytes4 interfaceId) public view virtual override returns (bool) {\n        return interfaceId == type(IERC165).interfaceId;\n    }\n}\n\npragma solidity ^0.8.0;\n\ncontract ERC1155 is Context, ERC165, IERC1155, IERC1155MetadataURI {\n    using Address for address;\n\n    // Mapping from token ID to account balances\n    mapping(uint256 => mapping(address => uint256)) private _balances;\n\n    // Mapping from account to operator approvals\n    mapping(address => mapping(address => bool)) private _operatorApprovals;\n\n    // Used as the URI for all token types by relying on ID substitution, e.g. https://token-cdn-domain/{id}.json\n    string private _uri;\n\n\n    constructor(string memory uri_) {\n        _setURI(uri_);\n    }\n\n\n    function supportsInterface(bytes4 interfaceId) public view virtual override(ERC165, IERC165) returns (bool) {\n        return\n            interfaceId == type(IERC1155).interfaceId ||\n            interfaceId == type(IERC1155MetadataURI).interfaceId ||\n            super.supportsInterface(interfaceId);\n    }\n\n\n    function uri(uint256) public view virtual override returns (string memory) {\n        return _uri;\n    }\n\n\n    function balanceOf(address account, uint256 id) public view virtual override returns (uint256) {\n        require(account != address(0), \"ERC1155: address zero is not a valid owner\");\n        return _balances[id][account];\n    }\n\n\n    function balanceOfBatch(address[] memory accounts, uint256[] memory ids)\n        public\n        view\n        virtual\n        override\n        returns (uint256[] memory)\n    {\n        require(accounts.length == ids.length, \"ERC1155: accounts and ids length mismatch\");\n\n        uint256[] memory batchBalances = new uint256[](accounts.length);\n\n        for (uint256 i = 0; i < accounts.length; ++i) {\n            batchBalances[i] = balanceOf(accounts[i], ids[i]);\n        }\n\n        return batchBalances;\n    }\n\n\n    function setApprovalForAll(address operator, bool approved) public virtual override {\n        _setApprovalForAll(_msgSender(), operator, approved);\n    }\n\n\n    function isApprovedForAll(address account, address operator) public view virtual override returns (bool) {\n        return _operatorApprovals[account][operator];\n    }\n\n\n    function safeTransferFrom(\n        address from,\n        address to,\n        uint256 id,\n        uint256 amount,\n        bytes memory data\n    ) public virtual override {\n        require(\n            from == _msgSender() || isApprovedForAll(from, _msgSender()),\n            \"ERC1155: caller is not token owner or approved\"\n        );\n        _safeTransferFrom(from, to, id, amount, data);\n    }\n\n\n    function safeBatchTransferFrom(\n        address from,\n        address to,\n        uint256[] memory ids,\n        uint256[] memory amounts,\n        bytes memory data\n    ) public virtual override {\n        require(\n            from == _msgSender() || isApprovedForAll(from, _msgSender()),\n            \"ERC1155: caller is not token owner or approved\"\n        );\n        _safeBatchTransferFrom(from, to, ids, amounts, data);\n    }\n\n\n    function _safeTransferFrom(\n        address from,\n        address to,\n        uint256 id,\n        uint256 amount,\n        bytes memory data\n    ) internal virtual {\n        require(to != address(0), \"ERC1155: transfer to the zero address\");\n\n        address operator = _msgSender();\n        uint256[] memory ids = _asSingletonArray(id);\n        uint256[] memory amounts = _asSingletonArray(amount);\n\n        _beforeTokenTransfer(operator, from, to, ids, amounts, data);\n\n        uint256 fromBalance = _balances[id][from];\n        require(fromBalance >= amount, \"ERC1155: insufficient balance for transfer\");\n        unchecked {\n            _balances[id][from] = fromBalance - amount;\n        }\n        _balances[id][to] += amount;\n\n        emit TransferSingle(operator, from, to, id, amount);\n\n        _afterTokenTransfer(operator, from, to, ids, amounts, data);\n\n        _doSafeTransferAcceptanceCheck(operator, from, to, id, amount, data);\n    }\n\n\n    function _safeBatchTransferFrom(\n        address from,\n        address to,\n        uint256[] memory ids,\n        uint256[] memory amounts,\n        bytes memory data\n    ) internal virtual {\n        require(ids.length == amounts.length, \"ERC1155: ids and amounts length mismatch\");\n        require(to != address(0), \"ERC1155: transfer to the zero address\");\n\n        address operator = _msgSender();\n\n        _beforeTokenTransfer(operator, from, to, ids, amounts, data);\n\n        for (uint256 i = 0; i < ids.length; ++i) {\n            uint256 id = ids[i];\n            uint256 amount = amounts[i];\n\n            uint256 fromBalance = _balances[id][from];\n            require(fromBalance >= amount, \"ERC1155: insufficient balance for transfer\");\n            unchecked {\n                _balances[id][from] = fromBalance - amount;\n            }\n            _balances[id][to] += amount;\n        }\n\n        emit TransferBatch(operator, from, to, ids, amounts);\n\n        _afterTokenTransfer(operator, from, to, ids, amounts, data);\n\n        _doSafeBatchTransferAcceptanceCheck(operator, from, to, ids, amounts, data);\n    }\n\n\n    function _setURI(string memory newuri) internal virtual {\n        _uri = newuri;\n    }\n\n\n    function _mint(\n        address to,\n        uint256 id,\n        uint256 amount,\n        bytes memory data\n    ) internal virtual {\n        require(to != address(0), \"ERC1155: mint to the zero address\");\n\n        address operator = _msgSender();\n        uint256[] memory ids = _asSingletonArray(id);\n        uint256[] memory amounts = _asSingletonArray(amount);\n\n        _beforeTokenTransfer(operator, address(0), to, ids, amounts, data);\n\n        _balances[id][to] += amount;\n        emit TransferSingle(operator, address(0), to, id, amount);\n\n        _afterTokenTransfer(operator, address(0), to, ids, amounts, data);\n\n        _doSafeTransferAcceptanceCheck(operator, address(0), to, id, amount, data);\n    }\n\n\n    function _mintBatch(\n        address to,\n        uint256[] memory ids,\n        uint256[] memory amounts,\n        bytes memory data\n    ) internal virtual {\n        require(to != address(0), \"ERC1155: mint to the zero address\");\n        require(ids.length == amounts.length, \"ERC1155: ids and amounts length mismatch\");\n\n        address operator = _msgSender();\n\n        _beforeTokenTransfer(operator, address(0), to, ids, amounts, data);\n\n        for (uint256 i = 0; i < ids.length; i++) {\n            _balances[ids[i]][to] += amounts[i];\n        }\n\n        emit TransferBatch(operator, address(0), to, ids, amounts);\n\n        _afterTokenTransfer(operator, address(0), to, ids, amounts, data);\n\n        _doSafeBatchTransferAcceptanceCheck(operator, address(0), to, ids, amounts, data);\n    }\n\n\n    function _burn(\n        address from,\n        uint256 id,\n        uint256 amount\n    ) internal virtual {\n        require(from != address(0), \"ERC1155: burn from the zero address\");\n\n        address operator = _msgSender();\n        uint256[] memory ids = _asSingletonArray(id);\n        uint256[] memory amounts = _asSingletonArray(amount);\n\n        _beforeTokenTransfer(operator, from, address(0), ids, amounts, \"\");\n\n        uint256 fromBalance = _balances[id][from];\n        require(fromBalance >= amount, \"ERC1155: burn amount exceeds balance\");\n        unchecked {\n            _balances[id][from] = fromBalance - amount;\n        }\n\n        emit TransferSingle(operator, from, address(0), id, amount);\n\n        _afterTokenTransfer(operator, from, address(0), ids, amounts, \"\");\n    }\n\n\n    function _burnBatch(\n        address from,\n        uint256[] memory ids,\n        uint256[] memory amounts\n    ) internal virtual {\n        require(from != address(0), \"ERC1155: burn from the zero address\");\n        require(ids.length == amounts.length, \"ERC1155: ids and amounts length mismatch\");\n\n        address operator = _msgSender();\n\n        _beforeTokenTransfer(operator, from, address(0), ids, amounts, \"\");\n\n        for (uint256 i = 0; i < ids.length; i++) {\n            uint256 id = ids[i];\n            uint256 amount = amounts[i];\n\n            uint256 fromBalance = _balances[id][from];\n            require(fromBalance >= amount, \"ERC1155: burn amount exceeds balance\");\n            unchecked {\n                _balances[id][from] = fromBalance - amount;\n            }\n        }\n\n        emit TransferBatch(operator, from, address(0), ids, amounts);\n\n        _afterTokenTransfer(operator, from, address(0), ids, amounts, \"\");\n    }\n\n\n    function _setApprovalForAll(\n        address owner,\n        address operator,\n        bool approved\n    ) internal virtual {\n        require(owner != operator, \"ERC1155: setting approval status for self\");\n        _operatorApprovals[owner][operator] = approved;\n        emit ApprovalForAll(owner, operator, approved);\n    }\n\n\n    function _beforeTokenTransfer(\n        address operator,\n        address from,\n        address to,\n        uint256[] memory ids,\n        uint256[] memory amounts,\n        bytes memory data\n    ) internal virtual {}\n\n\n    function _afterTokenTransfer(\n        address operator,\n        address from,\n        address to,\n        uint256[] memory ids,\n        uint256[] memory amounts,\n        bytes memory data\n    ) internal virtual {}\n\n    function _doSafeTransferAcceptanceCheck(\n        address operator,\n        address from,\n        address to,\n        uint256 id,\n        uint256 amount,\n        bytes memory data\n    ) private {\n        if (to.isContract()) {\n            try IERC1155Receiver(to).onERC1155Received(operator, from, id, amount, data) returns (bytes4 response) {\n                if (response != IERC1155Receiver.onERC1155Received.selector) {\n                    revert(\"ERC1155: ERC1155Receiver rejected tokens\");\n                }\n            } catch Error(string memory reason) {\n                revert(reason);\n            } catch {\n                revert(\"ERC1155: transfer to non-ERC1155Receiver implementer\");\n            }\n        }\n    }\n\n    function _doSafeBatchTransferAcceptanceCheck(\n        address operator,\n        address from,\n        address to,\n        uint256[] memory ids,\n        uint256[] memory amounts,\n        bytes memory data\n    ) private {\n        if (to.isContract()) {\n            try IERC1155Receiver(to).onERC1155BatchReceived(operator, from, ids, amounts, data) returns (\n                bytes4 response\n            ) {\n                if (response != IERC1155Receiver.onERC1155BatchReceived.selector) {\n                    revert(\"ERC1155: ERC1155Receiver rejected tokens\");\n                }\n            } catch Error(string memory reason) {\n                revert(reason);\n            } catch {\n                revert(\"ERC1155: transfer to non-ERC1155Receiver implementer\");\n            }\n        }\n    }\n\n    function _asSingletonArray(uint256 element) private pure returns (uint256[] memory) {\n        uint256[] memory array = new uint256[](1);\n        array[0] = element;\n\n        return array;\n    }\n}\npragma solidity ^0.8.0;\nabstract contract ERC1155Supply is ERC1155 {\n    mapping(uint256 => uint256) private _totalSupply;\n\n\n    function totalSupply(uint256 id) public view virtual returns (uint256) {\n        return _totalSupply[id];\n    }\n\n\n    function exists(uint256 id) public view virtual returns (bool) {\n        return ERC1155Supply.totalSupply(id) > 0;\n    }\n\n\n    function _beforeTokenTransfer(\n        address operator,\n        address from,\n        address to,\n        uint256[] memory ids,\n        uint256[] memory amounts,\n        bytes memory data\n    ) internal virtual override {\n        super._beforeTokenTransfer(operator, from, to, ids, amounts, data);\n\n        if (from == address(0)) {\n            for (uint256 i = 0; i < ids.length; ++i) {\n                _totalSupply[ids[i]] += amounts[i];\n            }\n        }\n\n        if (to == address(0)) {\n            for (uint256 i = 0; i < ids.length; ++i) {\n                uint256 id = ids[i];\n                uint256 amount = amounts[i];\n                uint256 supply = _totalSupply[id];\n                require(supply >= amount, \"ERC1155: burn amount exceeds totalSupply\");\n                unchecked {\n                    _totalSupply[id] = supply - amount;\n                }\n            }\n        }\n    }\n}\n\npragma solidity ^0.8.0;\nlibrary SafeMath {\n\n    function tryAdd(uint256 a, uint256 b) internal pure returns (bool, uint256) {\n        unchecked {\n            uint256 c = a + b;\n            if (c < a) return (false, 0);\n            return (true, c);\n        }\n    }\n\n\n    function trySub(uint256 a, uint256 b) internal pure returns (bool, uint256) {\n        unchecked {\n            if (b > a) return (false, 0);\n            return (true, a - b);\n        }\n    }\n\n\n    function tryMul(uint256 a, uint256 b) internal pure returns (bool, uint256) {\n        unchecked {\n            // Gas optimization: this is cheaper than requiring 'a' not being zero, but the\n            // benefit is lost if 'b' is also tested.\n            // See: https://github.com/OpenZeppelin/openzeppelin-contracts/pull/522\n            if (a == 0) return (true, 0);\n            uint256 c = a * b;\n            if (c / a != b) return (false, 0);\n            return (true, c);\n        }\n    }\n\n\n    function tryDiv(uint256 a, uint256 b) internal pure returns (bool, uint256) {\n        unchecked {\n            if (b == 0) return (false, 0);\n            return (true, a / b);\n        }\n    }\n\n\n    function tryMod(uint256 a, uint256 b) internal pure returns (bool, uint256) {\n        unchecked {\n            if (b == 0) return (false, 0);\n            return (true, a % b);\n        }\n    }\n\n\n    function add(uint256 a, uint256 b) internal pure returns (uint256) {\n        return a + b;\n    }\n\n\n    function sub(uint256 a, uint256 b) internal pure returns (uint256) {\n        return a - b;\n    }\n\n\n    function mul(uint256 a, uint256 b) internal pure returns (uint256) {\n        return a * b;\n    }\n\n\n    function div(uint256 a, uint256 b) internal pure returns (uint256) {\n        return a / b;\n    }\n\n\n    function mod(uint256 a, uint256 b) internal pure returns (uint256) {\n        return a % b;\n    }\n\n\n    function sub(\n        uint256 a,\n        uint256 b,\n        string memory errorMessage\n    ) internal pure returns (uint256) {\n        unchecked {\n            require(b <= a, errorMessage);\n            return a - b;\n        }\n    }\n\n\n    function div(\n        uint256 a,\n        uint256 b,\n        string memory errorMessage\n    ) internal pure returns (uint256) {\n        unchecked {\n            require(b > 0, errorMessage);\n            return a / b;\n        }\n    }\n\n\n    function mod(\n        uint256 a,\n        uint256 b,\n        string memory errorMessage\n    ) internal pure returns (uint256) {\n        unchecked {\n            require(b > 0, errorMessage);\n            return a % b;\n        }\n    }\n}\n\npragma solidity ^0.8.0;\nabstract contract Ownable is Context {\n    address private _owner;\n\n    event OwnershipTransferred(address indexed previousOwner, address indexed newOwner);\n\n\n    constructor() {\n        _transferOwnership(_msgSender());\n    }\n\n\n    modifier onlyOwner() {\n        _checkOwner();\n        _;\n    }\n\n\n    function owner() public view virtual returns (address) {\n        return _owner;\n    }\n\n\n    function _checkOwner() internal view virtual {\n        require(owner() == _msgSender(), \"Ownable: caller is not the owner\");\n    }\n\n\n    function renounceOwnership() public virtual onlyOwner {\n        _transferOwnership(address(0));\n    }\n\n\n    function transferOwnership(address newOwner) public virtual onlyOwner {\n        require(newOwner != address(0), \"Ownable: new owner is the zero address\");\n        _transferOwnership(newOwner);\n    }\n\n\n    function _transferOwnership(address newOwner) internal virtual {\n        address oldOwner = _owner;\n        _owner = newOwner;\n        emit OwnershipTransferred(oldOwner, newOwner);\n    }\n}\n\npragma solidity ^0.8.4;\ninterface IERC20 {\n    event Transfer(address indexed from, address indexed to, uint256 value);\n    event Approval(address indexed owner, address indexed spender, uint256 value);\n    function totalSupply() external view returns (uint256);\n    function balanceOf(address account) external view returns (uint256);\n    function transfer(address to, uint256 amount) external returns (bool);\n    function allowance(address owner, address spender) external view returns (uint256);\n    function approve(address spender, uint256 amount) external returns (bool);\n    function transferFrom(\n        address from,\n        address to,\n        uint256 amount\n    ) external returns (bool);\n}\ninterface i1155{\n    struct NFTEA {\n        uint256 nftea;\n        address[] addresses;\n        uint256[] settings;\n    }\n    function fire(address caller_) external pure returns(uint256[] memory,uint256[] memory,uint256,bool,bool,uint256);\n    function gflame(string memory flame_) external pure returns(address);\n    function getoperator(address operator_, uint256 license_) external pure returns(uint256[4] memory,uint256[] memory,uint256,uint256,uint256,uint256,address);\n    function getContract(address contract_) external returns(bool);\n    function getnftea(uint256 nftea_) external pure returns(NFTEA memory,string[] memory, string memory);\n    function setmint(uint256 nftea_, bool newmint_, address sendto_, bool cantransfer_) external pure returns(bool);\n    function getbag(uint256 nftea_, address wallet_) external pure returns(address,uint256,uint256);\n    function setdisplay(uint256 label_, uint256 nft_, uint256 type_) external returns(bool);\n    function _ondisplay(uint256 nftea) external pure returns(bool);\n    function setGasRefund(address holder_, uint256 gas_) external returns(bool);\n    function updateoperator(uint256 labelnftea_, address to_) external returns(bool);\n    function checksuperop(uint256 license_, address operator_) external pure returns(address);\n\n    }\ncontract minter is Ownable,ERC1155, ERC1155Supply{\n    using SafeMath for uint256;\n    event new_mint(\n        address minter,\n        uint256 nftea,\n        string ipfs,\n        string label\n    );\n    event Display(uint256 nftea, bool status);\n\n    string public name = \"NFTea.app\";\n    string public symbol = \"NfTEA\";\n    address public _fire;\n    uint256 public _nftea;\n    mapping(uint256=>string) public _ipfs;\n    mapping(string=>uint256) public _ipfs2nftea;\n    address public _burn = 0x000000000000000000000000000000000000dEaD;\n    mapping(address=>bool) public _flagged;\n    mapping(uint256=>mapping(address=>bool)) public _nftea2flag;\n    mapping(uint256=>uint256) public _transferable;\n    mapping(uint256=>address) public _nftea2wallet;\n    mapping(address=>bool) private _iswallet;\n    mapping(address=>uint256[]) public _mynfteas;\n    mapping(address=>mapping(uint256=>uint256)) public _mynfteasx;\n    mapping(uint256=>address[]) public _holders;\n    mapping(uint256=>mapping(address=>uint256)) public _holdersx;\n    mapping(uint256=>bool) public _allowTransfer;\n    mapping(uint256=>bool) public _onDisplay;\n    mapping(address=>bool) public _displayBann;\n    mapping(uint256=>uint256) public _displayexpire;\n    uint256[] public _displays;\n    mapping(uint256=>uint256) public _displaysx;\n    uint256 public _minTea2Display;\n    i1155.NFTEA _nfteas;\n\n\n    constructor(address fire_) ERC1155(\"https://nftea.app/public/nftea/{id}.json\") {\n        _nftea = 0;\n        _fire = fire_;\n        _minTea2Display =0;\n    }\n\n    function setflag(address recipient_, bool value_, uint256 nftea_) external returns(bool){\n\n        (bool success) = i1155(_fire).getContract(msg.sender);\n        require(success, 'not an admin minter 1');\n\n        _flagged[recipient_] = value_;\n        if(nftea_>0){\n            _nftea2flag[nftea_][recipient_] = value_;\n        }\n        return true;\n    }\n    function settransferable(uint256 nftea_, uint256 value_, address wallet_) external returns (bool){\n        ///world3 called only on mint\n        (bool success) = i1155(_fire).getContract(msg.sender);\n        require(success, 'not an admin minter 2');\n\n        _transferable[nftea_] = value_;\n        _nftea2wallet[nftea_] = wallet_;\n        if(wallet_!=address(0)){\n            _iswallet[wallet_] = true;\n        }\n        return true;\n    }\n    function setwallet(address wallet_) external returns(bool){\n        (bool success) = i1155(_fire).getContract(msg.sender);\n        require(success, 'not an admin minter 3');\n        _iswallet[wallet_] = true;\n        return true;\n    }\n    function mint(uint256 assetid_, string memory ipfs_, address sendto_, uint256[] memory settings_, string memory label_) external returns(uint256){\n\n        (bool success) = i1155(_fire).getContract(msg.sender);\n        require(success, 'not an admin minter 4');\n        bool newmint_ = false;\n        if(assetid_<1){\n            _nftea +=1;\n            assetid_ = _nftea;\n            _ipfs[assetid_] = ipfs_;\n            _ipfs2nftea[ipfs_] = assetid_;\n            newmint_ = true;\n        }\n        _transferable[assetid_] = settings_[9];\n        _mint(sendto_, assetid_, settings_[6], '');\n        emit new_mint(sendto_,assetid_,_ipfs[_nftea], label_);\n        return assetid_;\n    }\n    function allowTransfer(uint256 nftea_, bool value_) external returns(bool) {\n\n        (bool success) = i1155(_fire).getContract(msg.sender);\n        require(success, 'not an admin minter 5');\n        _allowTransfer[nftea_] = value_;\n        return true;\n\n    }\n    function setedit(uint256 nftea_, string memory ipfs_) external returns(bool){\n        (bool success) = i1155(_fire).getContract(msg.sender);\n        require(success, 'not valid caller');\n            _ipfs2nftea[ipfs_] = nftea_;\n            _ipfs[nftea_] = ipfs_;\n\n        return true;\n    }\n    function getmynfteas(address holder_) public view returns(uint256[] memory,string[] memory, uint256[] memory, uint256[] memory){\n\n        string[] memory ipfs_ = new string[](_mynfteas[holder_].length);\n        uint256[] memory bnbbalance_ = new uint256[](_mynfteas[holder_].length);\n        uint256[] memory teabalance_ = new uint256[](_mynfteas[holder_].length);\n        (address flame_) = i1155(_fire).gflame('teatoken');\n\n        for (uint256 i = 0; i < _mynfteas[holder_].length; ++i) {\n\n          ipfs_[i] = _ipfs[_mynfteas[holder_][i]];\n          if(_nftea2wallet[_mynfteas[holder_][i]]!=address(0)){\n            bnbbalance_[i] = _nftea2wallet[_mynfteas[holder_][i]].balance;\n            teabalance_[i] = IERC20(flame_).balanceOf(_nftea2wallet[_mynfteas[holder_][i]]);\n          }else{\n            bnbbalance_[i] = 0;\n            teabalance_[i] = 0;\n          }\n        }\n\n        return(_mynfteas[holder_], ipfs_, bnbbalance_,teabalance_);\n    }\n    function getholders(uint256 nftea_) public view returns(address[] memory){\n      return _holders[nftea_];\n    }\n    function getbag(uint256 nftea_, address holder_) public view returns(string memory, address, uint256[] memory, bool){\n\n      (address flame_) = i1155(_fire).gflame('teatoken');\n      string memory ipfs_ = _ipfs[nftea_];\n      uint256[] memory numbers_ = new uint256[](5);\n      bool onDisplay = _onDisplay[nftea_];\n      numbers_[0] = _nftea2wallet[nftea_].balance;\n      numbers_[1] = IERC20(flame_).balanceOf(_nftea2wallet[nftea_]);\n      numbers_[2] = balanceOf(holder_, nftea_);\n      (flame_) = i1155(_fire).gflame('baglogic');\n      (,,uint256 brewdate_) = i1155(flame_).getbag(nftea_,_nftea2wallet[nftea_]);\n      numbers_[3] = brewdate_;\n      numbers_[4] = _transferable[nftea_];\n      address bag_ = _nftea2wallet[nftea_];\n      if(!onDisplay){\n        (flame_) = i1155(_fire).gflame('shopstorage');\n        (onDisplay) = i1155(flame_)._ondisplay(nftea_);\n      }\n      return(ipfs_,bag_,numbers_, onDisplay);\n    }\n\n    function setOnDisplay(uint256 nftea_, bool value_, address holder_) external returns(bool) {\n\n      (bool success) = i1155(_fire).getContract(msg.sender);\n      require(success, 'invalid caller');\n      uint256 balance = balanceOf(holder_,nftea_);\n      require(balance>0, 'you do not own this nftea');\n      require(!_displayBann[holder_], 'banned from listing displays');\n      if (_minTea2Display>0 && value_){\n        (address flame_) = i1155(_fire).gflame('teatoken');\n        require(IERC20(flame_).balanceOf(_nftea2wallet[nftea_])>=_minTea2Display, 'low bag balance');\n      }\n\n      if(value_){\n\n        require(!_onDisplay[nftea_],'already on display');\n\n        // Get the current block timestamp\n        uint256 currentBlockTimestamp = block.timestamp;\n\n        // Loop through the first 12 elements of the displays array\n        if(_displays.length>49){\n          for (uint256 i = 0; i < 49; ++i) {\n            // Check if the display has expired\n            if (currentBlockTimestamp > _displayexpire[_displays[i]]) {\n              // Remove the expired display from the array and store the index\n              uint256 index = _displays[_displays.length - 1];\n              _displays[i] = _displays[index];\n              _displays.pop();\n              _onDisplay[_displays[i]] = false;\n            }\n          }\n        }\n\n        // If the value is true, add the NFT to the array\n          _displays.push(nftea_);\n          // Store the index of the NFT in the displaysx mapping\n          _displaysx[nftea_] = _displays.length - 1;\n          _displayexpire[nftea_] = block.timestamp + 6 hours;\n          emit Display(nftea_, true);\n\n        }else {\n          // If the value is false, remove the NFT from the array\n          if(_onDisplay[nftea_]){\n\n            _displays[_displaysx[nftea_]] = _displays[_displays.length - 1];\n            _displays.pop();\n            _displayexpire[nftea_] = 0;\n            emit Display(nftea_, false);\n\n          }\n        }\n      _onDisplay[nftea_] = value_;\n      return true;\n    }\n    function updatedisplay() public{\n      uint256 startGas = gasleft();\n      // Get the current block timestamp\n      uint256 currentBlockTimestamp = block.timestamp;\n\n      // Loop through the first 12 elements of the displays array\n      if(_displays.length>0){\n        for (uint256 i = 0; i < _displays.length; ++i) {\n          // Check if the display has expired\n          if (currentBlockTimestamp > _displayexpire[_displays[i]]) {\n            // Remove the expired display from the array and store the index\n            uint256 index = _displays[_displays.length - 1];\n            _displays[i] = _displays[index];\n            _displays.pop();\n            _onDisplay[_displays[i]] = false;\n          }\n        }\n      }\n      uint256 endGas = gasleft();\n      uint256 gasUsed = startGas - endGas;\n      uint256 refundAmount = gasUsed * tx.gasprice;\n\n      (address flame_) = i1155(_fire).gflame('teapot');\n      (bool success) = i1155(flame_).setGasRefund(msg.sender,refundAmount);\n      require(success, 'error settng gas refund');\n\n    }\n\n    function setDisplayBann(address user_) public {\n      (bool success) = i1155(_fire).getContract(msg.sender);\n      require(success, 'invalid caller');\n      _displayBann[user_] = true;\n    }\n    function setMinTea2Display(uint256 value_) public {\n      (bool success) = i1155(_fire).getContract(msg.sender);\n      require(success, 'invalid caller');\n      _minTea2Display = value_ *(10**9);\n    }\n    function getDisplays() public view returns(uint256[] memory,string[] memory, uint256[] memory, uint256[] memory,address[] memory){\n\n      string[] memory ipfs_ = new string[](_displays.length);\n      uint256[] memory bnbbalance_ = new uint256[](_displays.length);\n      uint256[] memory teabalance_ = new uint256[](_displays.length);\n      address[] memory bag_ = new address[](_displays.length);\n      (address flame_) = i1155(_fire).gflame('teatoken');\n\n      for (uint256 i = 0; i < _displays.length; ++i) {\n        ipfs_[i] = _ipfs[_displays[i]];\n        bnbbalance_[i] = _nftea2wallet[_displays[i]].balance;\n        teabalance_[i] = IERC20(flame_).balanceOf(_nftea2wallet[_displays[i]]);\n        bag_[i] = _nftea2wallet[_displays[i]];\n      }\n      return(_displays, ipfs_, bnbbalance_,teabalance_, bag_);\n    }\n    function tokenURI(uint256 tokenId) public view returns (string memory) {\n        return _ipfs[tokenId];\n    }\n    function getipfs(string memory ipfs_) public view returns(uint256){\n        return _ipfs2nftea[ipfs_];\n    }\n\n    function _beforeTokenTransfer(address operator, address from, address to, uint256[] memory ids, uint256[] memory amounts, bytes memory data)\n    internal\n    override(ERC1155, ERC1155Supply)\n    {\n        for (uint256 i = 0; i < ids.length; ++i) {\n            require(!_flagged[to] && !_nftea2flag[ids[i]][to], 'flagged recipient');\n            (address shop_) = i1155(_fire).gflame('shoplogic');\n            //allow transfer to user operated wallet\n            if(from!=address(0)){\n                ///this is NOT a mint\n                if(_transferable[ids[i]]<1){\n\n                    (address flame_) = i1155(_fire).gflame('mintstorage');\n                    (_nfteas,,) = i1155(flame_).getnftea(ids[i]);\n                    //can only transfer to wallet owned by holder or shop or burn\n                    if(totalSupply(ids[i])>1){\n\n                        address operator_ =address(0);\n                        if(_nfteas.settings[3]==5){\n                          (flame_) = i1155(_fire).gflame('operatorstorage');\n                          (address oper_) = i1155(flame_).checksuperop(ids[i], from);\n                          operator_ = oper_;\n                        }\n                        require(from == operator_ || to==_burn || to==_nfteas.addresses[0] || to==_nfteas.addresses[1] || from==shop_ || from==_nfteas.addresses[0] || from==_nfteas.addresses[1], 'limited transfers');\n                        require(to!=_nfteas.addresses[2], 'self wallet transfer not allowed');\n\n                    }else{\n\n                        require(from == shop_ || (to==shop_ && _nfteas.settings[3]==1) || to==_burn || to==_nfteas.addresses[0] || to==_nfteas.addresses[1] || _allowTransfer[ids[i]], 'cannot transfer lead labels');\n                        if(_allowTransfer[ids[i]]){\n                            _allowTransfer[ids[i]] = false;\n                        }\n                    }\n                 }\n                 if(totalSupply(ids[i])==1){\n                   if(to!=shop_ && to!=_burn){\n                     (address flame__) = i1155(_fire).gflame('operatorstorage');\n                     (bool success) = i1155(flame__).updateoperator(ids[i],to);\n                     require(success, 'error updating operator');\n                   }\n                 }\n                uint256 balance_ = balanceOf(from,ids[i]);\n                if(balance_.sub(amounts[i])<1){\n\n                    _mynfteas[from][_mynfteasx[from][ids[i]]] = _mynfteas[from][_mynfteas[from].length - 1];\n                    _mynfteas[from].pop();\n                    _holders[ids[i]][_holdersx[ids[i]][from]] = _holders[ids[i]][_holders[ids[i]].length - 1];\n                    _holders[ids[i]].pop();\n\n                }\n            }\n            uint256 balanceto_ = balanceOf(to,ids[i]);\n            if(balanceto_==0){\n                _mynfteas[to].push(ids[i]);\n                _mynfteasx[to][ids[i]] = _mynfteas[to].length - 1;\n                _holders[ids[i]].push(to);\n                _holdersx[ids[i]][to] = _holders[ids[i]].length - 1;\n            }\n        }\n        super._beforeTokenTransfer(operator, from, to, ids, amounts, data);\n    }\n}\n",
  "sourcePath": "/Users/jl1013/Documents/FUTURO/nftea/contracts/minter.sol",
  "compiler": {
    "name": "solc",
    "version": "0.8.17+commit.8df45f5f.Emscripten.clang"
  },
  "schemaVersion": "3.4.13",
  "updatedAt": "2023-06-30T06:03:30.228Z",
  "networkType": "ethereum",
  "devdoc": {
    "kind": "dev",
    "methods": {},
    "version": 1
  },
  "userdoc": {
    "kind": "user",
    "methods": {},
    "version": 1
  }
}