{
  "contractName": "mintlogic",
  "abi": [
    {
      "inputs": [
        {
          "internalType": "address",
          "name": "fire_",
          "type": "address"
        }
      ],
      "stateMutability": "nonpayable",
      "type": "constructor"
    },
    {
      "inputs": [],
      "name": "_burn",
      "outputs": [
        {
          "internalType": "address",
          "name": "",
          "type": "address"
        }
      ],
      "stateMutability": "view",
      "type": "function",
      "constant": true
    },
    {
      "inputs": [],
      "name": "_fire",
      "outputs": [
        {
          "internalType": "address",
          "name": "",
          "type": "address"
        }
      ],
      "stateMutability": "view",
      "type": "function",
      "constant": true
    },
    {
      "inputs": [
        {
          "internalType": "uint256",
          "name": "",
          "type": "uint256"
        },
        {
          "internalType": "uint256",
          "name": "",
          "type": "uint256"
        }
      ],
      "name": "_nftea2addresses",
      "outputs": [
        {
          "internalType": "address",
          "name": "",
          "type": "address"
        }
      ],
      "stateMutability": "view",
      "type": "function",
      "constant": true
    },
    {
      "inputs": [
        {
          "internalType": "uint256",
          "name": "",
          "type": "uint256"
        }
      ],
      "name": "_nftea2ipfs",
      "outputs": [
        {
          "internalType": "string",
          "name": "",
          "type": "string"
        }
      ],
      "stateMutability": "view",
      "type": "function",
      "constant": true
    },
    {
      "inputs": [
        {
          "internalType": "uint256",
          "name": "",
          "type": "uint256"
        },
        {
          "internalType": "uint256",
          "name": "",
          "type": "uint256"
        }
      ],
      "name": "_nftea2settings",
      "outputs": [
        {
          "internalType": "uint256",
          "name": "",
          "type": "uint256"
        }
      ],
      "stateMutability": "view",
      "type": "function",
      "constant": true
    },
    {
      "inputs": [],
      "name": "name",
      "outputs": [
        {
          "internalType": "string",
          "name": "",
          "type": "string"
        }
      ],
      "stateMutability": "view",
      "type": "function",
      "constant": true
    },
    {
      "stateMutability": "payable",
      "type": "receive",
      "payable": true
    },
    {
      "inputs": [
        {
          "internalType": "address",
          "name": "",
          "type": "address"
        },
        {
          "internalType": "address",
          "name": "",
          "type": "address"
        },
        {
          "internalType": "uint256",
          "name": "",
          "type": "uint256"
        },
        {
          "internalType": "uint256",
          "name": "",
          "type": "uint256"
        },
        {
          "internalType": "bytes",
          "name": "",
          "type": "bytes"
        }
      ],
      "name": "onERC1155Received",
      "outputs": [
        {
          "internalType": "bytes4",
          "name": "",
          "type": "bytes4"
        }
      ],
      "stateMutability": "nonpayable",
      "type": "function"
    },
    {
      "inputs": [
        {
          "internalType": "address",
          "name": "",
          "type": "address"
        },
        {
          "internalType": "address",
          "name": "",
          "type": "address"
        },
        {
          "internalType": "uint256",
          "name": "",
          "type": "uint256"
        },
        {
          "internalType": "bytes",
          "name": "",
          "type": "bytes"
        }
      ],
      "name": "onERC721Received",
      "outputs": [
        {
          "internalType": "bytes4",
          "name": "",
          "type": "bytes4"
        }
      ],
      "stateMutability": "nonpayable",
      "type": "function"
    },
    {
      "inputs": [
        {
          "internalType": "uint256",
          "name": "expire_",
          "type": "uint256"
        },
        {
          "internalType": "string",
          "name": "label_",
          "type": "string"
        }
      ],
      "name": "renew",
      "outputs": [],
      "stateMutability": "nonpayable",
      "type": "function"
    },
    {
      "inputs": [
        {
          "internalType": "string[]",
          "name": "strings_",
          "type": "string[]"
        },
        {
          "internalType": "uint256[]",
          "name": "settings_",
          "type": "uint256[]"
        },
        {
          "internalType": "address[]",
          "name": "addresses_",
          "type": "address[]"
        }
      ],
      "name": "mintstart",
      "outputs": [
        {
          "internalType": "uint256",
          "name": "",
          "type": "uint256"
        },
        {
          "internalType": "address",
          "name": "",
          "type": "address"
        }
      ],
      "stateMutability": "nonpayable",
      "type": "function"
    },
    {
      "inputs": [
        {
          "internalType": "address",
          "name": "contract_",
          "type": "address"
        },
        {
          "internalType": "uint256",
          "name": "nft_",
          "type": "uint256"
        },
        {
          "internalType": "uint256[]",
          "name": "settings_",
          "type": "uint256[]"
        },
        {
          "internalType": "address[]",
          "name": "addresses_",
          "type": "address[]"
        },
        {
          "internalType": "string",
          "name": "ipfs_",
          "type": "string"
        }
      ],
      "name": "wrap",
      "outputs": [
        {
          "internalType": "bool",
          "name": "",
          "type": "bool"
        }
      ],
      "stateMutability": "nonpayable",
      "type": "function"
    },
    {
      "inputs": [
        {
          "internalType": "uint256",
          "name": "nft_",
          "type": "uint256"
        }
      ],
      "name": "unWrap",
      "outputs": [],
      "stateMutability": "nonpayable",
      "type": "function"
    },
    {
      "inputs": [
        {
          "internalType": "address",
          "name": "contract_",
          "type": "address"
        },
        {
          "internalType": "uint256",
          "name": "nft_",
          "type": "uint256"
        }
      ],
      "name": "getURI",
      "outputs": [
        {
          "internalType": "string",
          "name": "",
          "type": "string"
        }
      ],
      "stateMutability": "pure",
      "type": "function",
      "constant": true
    },
    {
      "inputs": [
        {
          "internalType": "uint256",
          "name": "nftea_",
          "type": "uint256"
        },
        {
          "internalType": "string",
          "name": "media_",
          "type": "string"
        },
        {
          "internalType": "string",
          "name": "title_",
          "type": "string"
        },
        {
          "internalType": "uint256[]",
          "name": "nfteas_",
          "type": "uint256[]"
        },
        {
          "internalType": "string[]",
          "name": "medias_",
          "type": "string[]"
        },
        {
          "internalType": "string[]",
          "name": "titles_",
          "type": "string[]"
        }
      ],
      "name": "setmediaattribute",
      "outputs": [],
      "stateMutability": "nonpayable",
      "type": "function"
    },
    {
      "inputs": [
        {
          "internalType": "uint256",
          "name": "nftea_",
          "type": "uint256"
        },
        {
          "internalType": "string",
          "name": "ipfs_",
          "type": "string"
        }
      ],
      "name": "edit",
      "outputs": [],
      "stateMutability": "nonpayable",
      "type": "function"
    }
  ],
  "bytecode": "0x60c0604052600d60809081526c4d494e54204c4f47494320563160981b60a0526000906200002e90826200013e565b50600180546001600160a01b03191661dead1790553480156200005057600080fd5b5060405162005ad438038062005ad483398101604081905262000073916200020a565b600280546001600160a01b0319166001600160a01b03929092169190911790556200023c565b634e487b7160e01b600052604160045260246000fd5b600181811c90821680620000c457607f821691505b602082108103620000e557634e487b7160e01b600052602260045260246000fd5b50919050565b601f8211156200013957600081815260208120601f850160051c81016020861015620001145750805b601f850160051c820191505b81811015620001355782815560010162000120565b5050505b505050565b81516001600160401b038111156200015a576200015a62000099565b62000172816200016b8454620000af565b84620000eb565b602080601f831160018114620001aa5760008415620001915750858301515b600019600386901b1c1916600185901b17855562000135565b600085815260208120601f198616915b82811015620001db57888601518255948401946001909101908401620001ba565b5085821015620001fa5787850151600019600388901b60f8161c191681555b5050505050600190811b01905550565b6000602082840312156200021d57600080fd5b81516001600160a01b03811681146200023557600080fd5b9392505050565b615888806200024c6000396000f3fe6080604052600436106100ec5760003560e01c8063472371621161008a578063e1a888b611610059578063e1a888b6146102b3578063f23a6e61146102d3578063f3ca9cae146102ff578063f891ca1f1461031f57600080fd5b8063472371621461022557806366005434146102455780637b7d691414610265578063a775868a1461029357600080fd5b8063144f2f94116100c6578063144f2f9414610165578063150b7a021461019d5780632b8c2e20146101d557806336423f541461020557600080fd5b80630686e500146100f857806306fdde031461012e57806309c4a9951461014357600080fd5b366100f357005b600080fd5b34801561010457600080fd5b5061011861011336600461496a565b61035c565b60405161012591906149d3565b60405180910390f35b34801561013a57600080fd5b506101186103f6565b34801561014f57600080fd5b5061016361015e36600461496a565b610403565b005b34801561017157600080fd5b50600154610185906001600160a01b031681565b6040516001600160a01b039091168152602001610125565b3480156101a957600080fd5b506101c86101b8366004614b0b565b630a85bd0160e11b949350505050565b6040516101259190614b76565b3480156101e157600080fd5b506101f56101f0366004614c78565b610c79565b6040519015158152602001610125565b34801561021157600080fd5b50610163610220366004614d1c565b611a4d565b34801561023157600080fd5b50610118610240366004614d62565b612002565b34801561025157600080fd5b50610185610260366004614d8e565b61207b565b34801561027157600080fd5b50610285610280366004614d8e565b6120b3565b604051908152602001610125565b34801561029f57600080fd5b506101636102ae366004614e2f565b6120e4565b3480156102bf57600080fd5b506101636102ce366004614d1c565b612a61565b3480156102df57600080fd5b506101c86102ee366004614f08565b63f23a6e6160e01b95945050505050565b34801561030b57600080fd5b50600254610185906001600160a01b031681565b34801561032b57600080fd5b5061033f61033a366004614f70565b612e83565b604080519283526001600160a01b03909116602083015201610125565b6003602052600090815260409020805461037590614ff7565b80601f01602080910402602001604051908101604052809291908181526020018280546103a190614ff7565b80156103ee5780601f106103c3576101008083540402835291602001916103ee565b820191906000526020600020905b8154815290600101906020018083116103d157829003601f168201915b505050505081565b6000805461037590614ff7565b60005a600254604051636881aedd60e01b81529192506000916001600160a01b0390911690636881aedd9061043a90600401615031565b602060405180830381865afa158015610457573d6000803e3d6000fd5b505050506040513d601f19601f8201168201806040525081019061047b9190615067565b90506000816001600160a01b031662fdd58e33866040518363ffffffff1660e01b81526004016104ac92919061508b565b602060405180830381865afa1580156104c9573d6000803e3d6000fd5b505050506040513d601f19601f820116820180604052508101906104ed91906150a4565b1161053f5760405162461bcd60e51b815260206004820152601760248201527f796f7520646f206e6f74206f776e2074686973206e667400000000000000000060448201526064015b60405180910390fd5b60018054604051637921219560e11b81526001600160a01b038481169363f242432a936105769333939091169189916004016150bd565b600060405180830381600087803b15801561059057600080fd5b505af11580156105a4573d6000803e3d6000fd5b5050600254604051636881aedd60e01b81526001600160a01b039091169250636881aedd91506105d6906004016150f5565b602060405180830381865afa1580156105f3573d6000803e3d6000fd5b505050506040513d601f19601f820116820180604052508101906106179190615067565b60405163875ff21560e01b8152600481018590529091506001600160a01b0382169063875ff21590602401600060405180830381865afa15801561065f573d6000803e3d6000fd5b505050506040513d6000823e601f3d908101601f19168201604052610687919081019061529b565b50508051600790815560208083015180518493926106aa926008929101906148b5565b50604082015180516106c691600284019160209091019061491a565b5050505060076001016004815481106106e1576106e1615388565b6000918252602090912001546040516301ffc9a760e01b81526001600160a01b03909116906301ffc9a790610721906380ac58cd60e01b90600401614b76565b602060405180830381865afa15801561073e573d6000803e3d6000fd5b505050506040513d601f19601f8201168201806040525081019061076291906153ae565b1561085a5760088054600490811061077c5761077c615388565b60009182526020808320919091015485835260069091526040808320549051635c46a7ef60e11b815230600482015233602482015260448101919091526080606482015260848101929092526001600160a01b03169063b88d4fde9060a401600060405180830381600087803b1580156107f557600080fd5b505af1158015610809573d6000803e3d6000fd5b505050506108156132c3565b6108555760405162461bcd60e51b81526020600482015260116024820152706572726f7220756e7772617070696e696760781b6044820152606401610536565b6109d0565b60088054600490811061086f5761086f615388565b6000918252602090912001546040516301ffc9a760e01b81526001600160a01b03909116906301ffc9a7906108af90636cdb3d1360e11b90600401614b76565b602060405180830381865afa1580156108cc573d6000803e3d6000fd5b505050506040513d601f19601f820116820180604052508101906108f091906153ae565b156109d05760088054600490811061090a5761090a615388565b60009182526020808320909101548583526006909152604091829020549151637921219560e11b81526001600160a01b039091169163f242432a9161095891309133916001916004016150bd565b600060405180830381600087803b15801561097257600080fd5b505af1158015610986573d6000803e3d6000fd5b505050506109926132c3565b6109d05760405162461bcd60e51b815260206004820152600f60248201526e6572726f72207772617070696e696760881b6044820152606401610536565b600254604051636881aedd60e01b81526001600160a01b0390911690636881aedd906109fe906004016150f5565b602060405180830381865afa158015610a1b573d6000803e3d6000fd5b505050506040513d601f19601f82011682018060405250810190610a3f9190615067565b90506000816001600160a01b031663cad64816856007600101600481548110610a6a57610a6a615388565b60009182526020909120015460405160e084901b6001600160e01b031916815260048101929092526001600160a01b031660248201526044016020604051808303816000875af1158015610ac2573d6000803e3d6000fd5b505050506040513d601f19601f82011682018060405250810190610ae691906153ae565b905080610b285760405162461bcd60e51b815260206004820152601060248201526f6572726f7220756e7772617070696e6760801b6044820152606401610536565b60005a90506000610b3982866153df565b90506000610b473a836153f2565b600254604051636881aedd60e01b81529192506001600160a01b031690636881aedd90610b7690600401615409565b602060405180830381865afa158015610b93573d6000803e3d6000fd5b505050506040513d601f19601f82011682018060405250810190610bb79190615067565b6040516301c5a32160e11b81529095506001600160a01b0386169063038b464290610be8903390859060040161508b565b6020604051808303816000875af1158015610c07573d6000803e3d6000fd5b505050506040513d601f19601f82011682018060405250810190610c2b91906153ae565b935083610c705760405162461bcd60e51b81526020600482015260136024820152726572726f7220726566756e64696e672067617360681b6044820152606401610536565b50505050505050565b6000805a600254604051636881aedd60e01b815260206004820152600a6024820152697772617062726964676560b01b60448201529192506060916000916001600160a01b031690636881aedd90606401602060405180830381865afa158015610ce7573d6000803e3d6000fd5b505050506040513d601f19601f82011682018060405250810190610d0b9190615067565b9050336001600160a01b038216146112e6576040516301ffc9a760e01b81526001600160a01b038a16906301ffc9a790610d50906380ac58cd60e01b90600401614b76565b602060405180830381865afa158015610d6d573d6000803e3d6000fd5b505050506040513d601f19601f82011682018060405250810190610d9191906153ae565b15611005576040516331a9108f60e11b815260048101899052899033906001600160a01b03831690636352211e90602401602060405180830381865afa158015610ddf573d6000803e3d6000fd5b505050506040513d601f19601f82011682018060405250810190610e039190615067565b6001600160a01b03161480610e8e57506001546040516331a9108f60e11b8152600481018b90526001600160a01b0391821691831690636352211e90602401602060405180830381865afa158015610e5f573d6000803e3d6000fd5b505050506040513d601f19601f82011682018060405250810190610e839190615067565b6001600160a01b0316145b610eca5760405162461bcd60e51b815260206004820152600d60248201526c6e6674206e6f7420796f75727360981b6044820152606401610536565b6040516331a9108f60e11b8152600481018a905233906001600160a01b03831690636352211e90602401602060405180830381865afa158015610f11573d6000803e3d6000fd5b505050506040513d601f19601f82011682018060405250810190610f359190615067565b6001600160a01b031603610ff357604051632142170760e11b8152336004820152306024820152604481018a90526001600160a01b038216906342842e0e90606401600060405180830381600087803b158015610f9157600080fd5b505af1158015610fa5573d6000803e3d6000fd5b50505050610fb16132c3565b610ff35760405162461bcd60e51b815260206004820152601360248201527232b93937b9103bb930b8103a3930b739b332b960691b6044820152606401610536565b610ffd8a8a612002565b9550506112e6565b6040516301ffc9a760e01b81526001600160a01b038a16906301ffc9a79061103890636cdb3d1360e11b90600401614b76565b602060405180830381865afa158015611055573d6000803e3d6000fd5b505050506040513d601f19601f8201168201806040525081019061107991906153ae565b156112e657604051627eeac760e11b815289906000906001600160a01b0383169062fdd58e906110af9033908e9060040161508b565b602060405180830381865afa1580156110cc573d6000803e3d6000fd5b505050506040513d601f19601f820116820180604052508101906110f091906150a4565b118061116e5750600154604051627eeac760e11b81526001600160a01b038381169262fdd58e9261112992909116908d9060040161508b565b602060405180830381865afa158015611146573d6000803e3d6000fd5b505050506040513d601f19601f8201168201806040525081019061116a91906150a4565b6001145b6111a95760405162461bcd60e51b815260206004820152600c60248201526b1b9bdd081e5bdd5c881b999d60a21b6044820152606401610536565b604051627eeac760e11b81526000906001600160a01b0383169062fdd58e906111d89033908e9060040161508b565b602060405180830381865afa1580156111f5573d6000803e3d6000fd5b505050506040513d601f19601f8201168201806040525081019061121991906150a4565b11156112d857604051637921219560e11b81526001600160a01b0382169063f242432a9061125290339030908e906001906004016150bd565b600060405180830381600087803b15801561126c57600080fd5b505af1158015611280573d6000803e3d6000fd5b5050505061128c6132c3565b6112d85760405162461bcd60e51b815260206004820152601860248201527f6572726f722077726170207472616e73666572203131353500000000000000006044820152606401610536565b6112e28a8a612002565b9550505b6001876006815181106112fb576112fb615388565b602002602001018181525050600b8760038151811061131c5761131c615388565b6020908102919091010152600254604051636881aedd60e01b81526001600160a01b0390911690636881aedd90611355906004016150f5565b602060405180830381865afa158015611372573d6000803e3d6000fd5b505050506040513d601f19601f820116820180604052508101906113969190615067565b90506000876000815181106113ad576113ad615388565b6020026020010151111561146f57806001600160a01b03166390de3b9c886000815181106113dd576113dd615388565b60200260200101516040518263ffffffff1660e01b815260040161141f9181526040602082018190526004908201526337b832b760e11b606082015260800190565b600060405180830381865afa15801561143c573d6000803e3d6000fd5b505050506040513d6000823e601f3d908101601f191682016040526114649190810190615429565b509350611491915050565b604051806040016040528060068152602001652d6f70656e2d60d01b81525091505b60408051600380825260808201909252600091816020015b60608152602001906001900390816114a957905050905082816000815181106114d4576114d4615388565b602002602001018190525085816001815181106114f3576114f3615388565b6020026020010181905250604051806040016040528060038152602001626e2f6160e81b8152508160028151811061152d5761152d615388565b6020908102919091010152600254604051636881aedd60e01b81526001600160a01b0390911690636881aedd9061156690600401615031565b602060405180830381865afa158015611583573d6000803e3d6000fd5b505050506040513d601f19601f820116820180604052508101906115a79190615067565b91506000826001600160a01b031663bf05eb466000846001815181106115cf576115cf615388565b60200260200101518b6001815181106115ea576115ea615388565b60200260200101518d8760008151811061160657611606615388565b60200260200101516040518663ffffffff1660e01b815260040161162e9594939291906154fc565b6020604051808303816000875af115801561164d573d6000803e3d6000fd5b505050506040513d601f19601f8201168201806040525081019061167191906150a4565b9050600081116116b35760405162461bcd60e51b815260206004820152600d60248201526c6572726f72206d696e74696e6760981b6044820152606401610536565b600254604051636881aedd60e01b81526020600482015260086024820152676261676c6f67696360c01b60448201526001600160a01b0390911690636881aedd90606401602060405180830381865afa158015611714573d6000803e3d6000fd5b505050506040513d601f19601f820116820180604052508101906117389190615067565b92506000836001600160a01b0316634c4f8b248a8460006040518463ffffffff1660e01b815260040161176d9392919061558f565b6020604051808303816000875af115801561178c573d6000803e3d6000fd5b505050506040513d601f19601f820116820180604052508101906117b09190615067565b90506001600160a01b0381166117ff5760405162461bcd60e51b8152602060048201526014602482015273195c9c9bdc881cd95d1d1a5b99c81dd85b1b195d60621b6044820152606401610536565b808960028151811061181357611813615388565b60200260200101906001600160a01b031690816001600160a01b03168152505060008960038151811061184857611848615388565b60200260200101906001600160a01b031690816001600160a01b0316815250506000611890838b8d8760008151811061188357611883615388565b60200260200101516132f7565b9050806118d75760405162461bcd60e51b815260206004820152601560248201527406572726f7220636f6d706c6574696e67207772617605c1b6044820152606401610536565b60005a905060006118e8828a6153df565b905060006118f63a836153f2565b600254604051636881aedd60e01b81529192506001600160a01b031690636881aedd9061192590600401615409565b602060405180830381865afa158015611942573d6000803e3d6000fd5b505050506040513d601f19601f820116820180604052508101906119669190615067565b6040516301c5a32160e11b81529098506001600160a01b0389169063038b464290611997903390859060040161508b565b6020604051808303816000875af11580156119b6573d6000803e3d6000fd5b505050506040513d601f19601f820116820180604052508101906119da91906153ae565b935083611a295760405162461bcd60e51b815260206004820152601760248201527f6572726f7220736574746e672067617320726566756e640000000000000000006044820152606401610536565b5050506000928352600660205260409092209a909a559a9950505050505050505050565b600254604051636881aedd60e01b81526000916001600160a01b031690636881aedd90611a7c906004016150f5565b602060405180830381865afa158015611a99573d6000803e3d6000fd5b505050506040513d601f19601f82011682018060405250810190611abd9190615067565b60405163875ff21560e01b8152600481018590529091506001600160a01b0382169063875ff21590602401600060405180830381865afa158015611b05573d6000803e3d6000fd5b505050506040513d6000823e601f3d908101601f19168201604052611b2d919081019061529b565b5050805160079081556020808301518051849392611b50926008929101906148b5565b5060408201518051611b6c91600284019160209091019061491a565b5050600254604051636881aedd60e01b81526001600160a01b039091169250636881aedd9150611b9e90600401615031565b602060405180830381865afa158015611bbb573d6000803e3d6000fd5b505050506040513d601f19601f82011682018060405250810190611bdf9190615067565b90506000816001600160a01b031662fdd58e33866040518363ffffffff1660e01b8152600401611c1092919061508b565b602060405180830381865afa158015611c2d573d6000803e3d6000fd5b505050506040513d601f19601f82011682018060405250810190611c5191906150a4565b90506007600201600681548110611c6a57611c6a615388565b90600052602060002001548114611cc35760405162461bcd60e51b815260206004820152601b60248201527f6d757374206f776e20616c6c206e667465617320746f206564697400000000006044820152606401610536565b60006007600201600081548110611cdc57611cdc615388565b90600052602060002001541115611ed857600254604051636881aedd60e01b81526001600160a01b0390911690636881aedd90611d1b906004016155b4565b602060405180830381865afa158015611d38573d6000803e3d6000fd5b505050506040513d601f19601f82011682018060405250810190611d5c9190615067565b9150600080836001600160a01b0316633658baa1336007600201600081548110611d8857611d88615388565b90600052602060002001546040518363ffffffff1660e01b8152600401611db092919061508b565b600060405180830381865afa158015611dcd573d6000803e3d6000fd5b505050506040513d6000823e601f3d908101601f19168201604052611df591908101906155dd565b50505093509350505060008211611e1e5760405162461bcd60e51b81526004016105369061569e565b42811180611e2a575080155b611e465760405162461bcd60e51b8152600401610536906156c8565b6040516335d9e65d60e01b8152600481018390526000906001600160a01b038616906335d9e65d90602401602060405180830381865afa158015611e8e573d6000803e3d6000fd5b505050506040513d601f19601f82011682018060405250810190611eb291906150a4565b905080600114611ed45760405162461bcd60e51b8152600401610536906156ff565b5050505b600254604051636881aedd60e01b81526001600160a01b0390911690636881aedd90611f0690600401615031565b602060405180830381865afa158015611f23573d6000803e3d6000fd5b505050506040513d601f19601f82011682018060405250810190611f479190615067565b91506000826001600160a01b03166316ff09ee86866040518363ffffffff1660e01b8152600401611f79929190615736565b6020604051808303816000875af1158015611f98573d6000803e3d6000fd5b505050506040513d601f19601f82011682018060405250810190611fbc91906153ae565b905080611ffb5760405162461bcd60e51b815260206004820152600d60248201526c6572726f722065646974696e6760981b6044820152606401610536565b5050505050565b60405163c87b56dd60e01b8152600481018290526060906001600160a01b0384169063c87b56dd90602401600060405180830381865afa15801561204a573d6000803e3d6000fd5b505050506040513d6000823e601f3d908101601f19168201604052612072919081019061574f565b90505b92915050565b6004602052816000526040600020818154811061209757600080fd5b6000918252602090912001546001600160a01b03169150829050565b600560205281600052604060002081815481106120cf57600080fd5b90600052602060002001600091509150505481565b8251156125d05760005b83518110156125ca57600254604051636881aedd60e01b81526000916001600160a01b031690636881aedd90612126906004016150f5565b602060405180830381865afa158015612143573d6000803e3d6000fd5b505050506040513d601f19601f820116820180604052508101906121679190615067565b9050806001600160a01b031663875ff21586848151811061218a5761218a615388565b60200260200101516040518263ffffffff1660e01b81526004016121b091815260200190565b600060405180830381865afa1580156121cd573d6000803e3d6000fd5b505050506040513d6000823e601f3d908101601f191682016040526121f5919081019061529b565b5050805160079081556020808301518051849392612218926008929101906148b5565b506040820151805161223491600284019160209091019061491a565b505050506000600760020160008154811061225157612251615388565b906000526020600020015411156124f957600254604051636881aedd60e01b81526001600160a01b0390911690636881aedd90612290906004016155b4565b602060405180830381865afa1580156122ad573d6000803e3d6000fd5b505050506040513d601f19601f820116820180604052508101906122d19190615067565b9050600080826001600160a01b0316633658baa13360076002016000815481106122fd576122fd615388565b90600052602060002001546040518363ffffffff1660e01b815260040161232592919061508b565b600060405180830381865afa158015612342573d6000803e3d6000fd5b505050506040513d6000823e601f3d908101601f1916820160405261236a91908101906155dd565b505050935093505050600082116123935760405162461bcd60e51b81526004016105369061569e565b4281118061239f575080155b6123bb5760405162461bcd60e51b8152600401610536906156c8565b6040516335d9e65d60e01b8152600481018390526000906001600160a01b038516906335d9e65d90602401602060405180830381865afa158015612403573d6000803e3d6000fd5b505050506040513d601f19601f8201168201806040525081019061242791906150a4565b9050806001036124f157836001600160a01b0316631b46b60089878151811061245257612452615388565b602002602001015189888151811061246c5761246c615388565b602002602001015189898151811061248657612486615388565b60200260200101516040518463ffffffff1660e01b81526004016124ac93929190615783565b6020604051808303816000875af11580156124cb573d6000803e3d6000fd5b505050506040513d601f19601f820116820180604052508101906124ef91906153ae565b505b5050506125b9565b806001600160a01b0316631b46b60086848151811061251a5761251a615388565b602002602001015186858151811061253457612534615388565b602002602001015186868151811061254e5761254e615388565b60200260200101516040518463ffffffff1660e01b815260040161257493929190615783565b6020604051808303816000875af1158015612593573d6000803e3d6000fd5b505050506040513d601f19601f820116820180604052508101906125b791906153ae565b505b506125c3816157b8565b90506120ee565b50612a59565b600254604051636881aedd60e01b81526000916001600160a01b031690636881aedd906125ff906004016150f5565b602060405180830381865afa15801561261c573d6000803e3d6000fd5b505050506040513d601f19601f820116820180604052508101906126409190615067565b60405163875ff21560e01b8152600481018990529091506001600160a01b0382169063875ff21590602401600060405180830381865afa158015612688573d6000803e3d6000fd5b505050506040513d6000823e601f3d908101601f191682016040526126b0919081019061529b565b50508051600790815560208083015180518493926126d3926008929101906148b5565b50604082015180516126ef91600284019160209091019061491a565b505050506000600760020160008154811061270c5761270c615388565b9060005260206000200154111561290c57600254604051636881aedd60e01b81526001600160a01b0390911690636881aedd9061274b906004016155b4565b602060405180830381865afa158015612768573d6000803e3d6000fd5b505050506040513d601f19601f8201168201806040525081019061278c9190615067565b9050600080826001600160a01b0316633658baa13360076002016000815481106127b8576127b8615388565b90600052602060002001546040518363ffffffff1660e01b81526004016127e092919061508b565b600060405180830381865afa1580156127fd573d6000803e3d6000fd5b505050506040513d6000823e601f3d908101601f1916820160405261282591908101906155dd565b5050509350935050506000821161284e5760405162461bcd60e51b81526004016105369061569e565b4281118061285a575080155b6128765760405162461bcd60e51b8152600401610536906156c8565b6040516335d9e65d60e01b8152600481018390526000906001600160a01b038516906335d9e65d90602401602060405180830381865afa1580156128be573d6000803e3d6000fd5b505050506040513d601f19601f820116820180604052508101906128e291906150a4565b9050806001146129045760405162461bcd60e51b8152600401610536906156ff565b505050612992565b6008805433919060009061292257612922615388565b6000918252602090912001546001600160a01b0316146129925760405162461bcd60e51b815260206004820152602560248201527f6f6e6c792063726561746f722063616e20616464206d65646961206174747269604482015264627574657360d81b6064820152608401610536565b604051620da35b60e91b81526000906001600160a01b03831690631b46b600906129c4908b908b908b90600401615783565b6020604051808303816000875af11580156129e3573d6000803e3d6000fd5b505050506040513d601f19601f82011682018060405250810190612a0791906153ae565b905080612a565760405162461bcd60e51b815260206004820152601760248201527f6572726f722073657474696e67206174747269627574650000000000000000006044820152606401610536565b50505b505050505050565b600254604051636881aedd60e01b81526000916001600160a01b031690636881aedd90612a90906004016150f5565b602060405180830381865afa158015612aad573d6000803e3d6000fd5b505050506040513d601f19601f82011682018060405250810190612ad19190615067565b90506000816001600160a01b031663f359a641846040518263ffffffff1660e01b8152600401612b0191906149d3565b602060405180830381865afa158015612b1e573d6000803e3d6000fd5b505050506040513d601f19601f82011682018060405250810190612b4291906150a4565b60025460405163f84766cd60e01b81526020600482015260056024820152641b1858995b60da1b60448201529192506000916001600160a01b039091169063f84766cd90606401602060405180830381865afa158015612ba6573d6000803e3d6000fd5b505050506040513d601f19601f82011682018060405250810190612bca91906150a4565b90508015612dc857612bdc8186613b16565b600254604051636881aedd60e01b81526020600482015260086024820152673a32b0ba37b5b2b760c11b60448201529192506000916001600160a01b0390911690636881aedd90606401602060405180830381865afa158015612c43573d6000803e3d6000fd5b505050506040513d601f19601f82011682018060405250810190612c679190615067565b600254604051636881aedd60e01b81526020600482015260096024820152686d61726b6574696e6760b81b60448201529192506000916001600160a01b0390911690636881aedd90606401602060405180830381865afa158015612ccf573d6000803e3d6000fd5b505050506040513d601f19601f82011682018060405250810190612cf39190615067565b6040516323b872dd60e01b81523360048201526001600160a01b03808316602483015260448201869052919250908316906323b872dd906064016020604051808303816000875af1158015612d4c573d6000803e3d6000fd5b505050506040513d601f19601f82011682018060405250810190612d7091906153ae565b50612d796132c3565b612dc55760405162461bcd60e51b815260206004820152601b60248201527f6572726f7220706179696e6720746f2072656e6577206c6162656c00000000006044820152606401610536565b50505b604051634bf37e9560e01b815260048101839052602481018690526000906001600160a01b03851690634bf37e95906044016020604051808303816000875af1158015612e19573d6000803e3d6000fd5b505050506040513d601f19601f82011682018060405250810190612e3d91906153ae565b905080612a595760405162461bcd60e51b8152602060048201526014602482015273195c9c9bdc881c995b995dda5b99c81b1858995b60621b6044820152606401610536565b60008060005a600254604051636881aedd60e01b8152919250600091829182918291829182916001600160a01b031690636881aedd90612ec5906004016150f5565b602060405180830381865afa158015612ee2573d6000803e3d6000fd5b505050506040513d601f19601f82011682018060405250810190612f069190615067565b905060008b600381518110612f1d57612f1d615388565b6020026020010151118015612f4c575060078b600381518110612f4257612f42615388565b6020026020010151105b15612fa8576000806000612f798f600081518110612f6c57612f6c615388565b6020026020010151613b22565b9250925092508294508280612f8e5750600181105b80612f965750815b15612fa057600196505b505050613144565b60008b600081518110612fbd57612fbd615388565b6020026020010151111561313f57600254604051636881aedd60e01b81526001600160a01b0390911690636881aedd90612ff990600401615031565b602060405180830381865afa158015613016573d6000803e3d6000fd5b505050506040513d601f19601f8201168201806040525081019061303a9190615067565b6001548c5191925082916001600160a01b038084169262fdd58e929116908f9060009061306957613069615388565b60200260200101516040518363ffffffff1660e01b815260040161308e92919061508b565b602060405180830381865afa1580156130ab573d6000803e3d6000fd5b505050506040513d601f19601f820116820180604052508101906130cf91906150a4565b6001036130db57600192505b6130fe8c6000815181106130f1576130f1615388565b6020026020010151613e2b565b93508361313d5760405162461bcd60e51b815260206004820152600d60248201526c1b1858995b08195e1c1a5c9959609a1b6044820152606401610536565b505b600193505b831561315c576131568c8c8c85613f62565b90965094505b60005a9050600061316d828a6153df565b9050600061317b3a836153f2565b600254604051636881aedd60e01b81529192506001600160a01b031690636881aedd906131aa90600401615409565b602060405180830381865afa1580156131c7573d6000803e3d6000fd5b505050506040513d601f19601f820116820180604052508101906131eb9190615067565b6040516301c5a32160e11b81529094506001600160a01b0385169063038b46429061321c903390859060040161508b565b6020604051808303816000875af115801561323b573d6000803e3d6000fd5b505050506040513d601f19601f8201168201806040525081019061325f91906153ae565b9550856132ae5760405162461bcd60e51b815260206004820152601d60248201527f6572726f72207472616e7366657272696e672067617320726566756e640000006044820152606401610536565b50969d959c50949a5050505050505050505050565b6000803d80156132da57602081146132e3576132ef565b600191506132ef565b60206000803e60005191505b501515919050565b600254604051636881aedd60e01b815260009182916001600160a01b0390911690636881aedd9061332a90600401615031565b602060405180830381865afa158015613347573d6000803e3d6000fd5b505050506040513d601f19601f8201168201806040525081019061336b9190615067565b9050806001600160a01b03168560048151811061338a5761338a615388565b60200260200101516001600160a01b03160361357557600254604051636881aedd60e01b81526001600160a01b0390911690636881aedd906133ce906004016150f5565b602060405180830381865afa1580156133eb573d6000803e3d6000fd5b505050506040513d601f19601f8201168201806040525081019061340f9190615067565b9050806001600160a01b031663875ff21585600a8151811061343357613433615388565b60200260200101516040518263ffffffff1660e01b815260040161345991815260200190565b600060405180830381865afa158015613476573d6000803e3d6000fd5b505050506040513d6000823e601f3d908101601f1916820160405261349e919081019061529b565b50508051600790815560208083015180518493926134c1926008929101906148b5565b50604082015180516134dd91600284019160209091019061491a565b5050505060076001016000815481106134f8576134f8615388565b600091825260208220015486516001600160a01b0390911691879161351f5761351f615388565b60200260200101906001600160a01b031690816001600160a01b03168152505060008560038151811061355457613554615388565b60200260200101906001600160a01b031690816001600160a01b0316815250505b600254604051636881aedd60e01b81526001600160a01b0390911690636881aedd906135a3906004016150f5565b602060405180830381865afa1580156135c0573d6000803e3d6000fd5b505050506040513d601f19601f820116820180604052508101906135e49190615067565b90506000816001600160a01b0316634226868b888888886040518563ffffffff1660e01b815260040161361a94939291906157d1565b6020604051808303816000875af1158015613639573d6000803e3d6000fd5b505050506040513d601f19601f8201168201806040525081019061365d91906153ae565b9050806136945760405162461bcd60e51b815260206004820152600560248201526432b93937b960d91b6044820152606401610536565b600254604051636881aedd60e01b81526001600160a01b0390911690636881aedd906136c290600401615031565b602060405180830381865afa1580156136df573d6000803e3d6000fd5b505050506040513d601f19601f820116820180604052508101906137039190615067565b9150816001600160a01b031663b354e3d5888760098151811061372857613728615388565b60200260200101518960028151811061374357613743615388565b60200260200101516040518463ffffffff1660e01b81526004016137839392919092835260208301919091526001600160a01b0316604082015260600190565b6020604051808303816000875af11580156137a2573d6000803e3d6000fd5b505050506040513d601f19601f820116820180604052508101906137c691906153ae565b9050806138205760405162461bcd60e51b815260206004820152602260248201527f6572726f722073657474696e67207472616e73666572207065726d697373696f6044820152616e7360f01b6064820152608401610536565b60018560038151811061383557613835615388565b602002602001015110158015613865575060078560038151811061385b5761385b615388565b6020026020010151105b15613b095760025460405163f84766cd60e01b81526020600482015260056024820152641b1858995b60da1b60448201526000916001600160a01b03169063f84766cd90606401602060405180830381865afa1580156138c9573d6000803e3d6000fd5b505050506040513d601f19601f820116820180604052508101906138ed91906150a4565b90508015613b07576139228660018151811061390b5761390b615388565b602002602001015182613b1690919063ffffffff16565b600254604051636881aedd60e01b81526020600482015260086024820152673a32b0ba37b5b2b760c11b60448201529192506000916001600160a01b0390911690636881aedd90606401602060405180830381865afa158015613989573d6000803e3d6000fd5b505050506040513d601f19601f820116820180604052508101906139ad9190615067565b600254604051636881aedd60e01b81526020600482015260096024820152686d61726b6574696e6760b81b60448201529192506000916001600160a01b0390911690636881aedd90606401602060405180830381865afa158015613a15573d6000803e3d6000fd5b505050506040513d601f19601f82011682018060405250810190613a399190615067565b6040516323b872dd60e01b81523360048201526001600160a01b03808316602483015260448201869052919250908316906323b872dd906064016020604051808303816000875af1158015613a92573d6000803e3d6000fd5b505050506040513d601f19601f82011682018060405250810190613ab691906153ae565b50613abf6132c3565b613b045760405162461bcd60e51b8152602060048201526016602482015275195c9c9bdc881c185e5a5b99c8199bdc881b1858995b60521b6044820152606401610536565b50505b505b5060019695505050505050565b600061207282846153f2565b600254604051636881aedd60e01b8152600091829182918291829182916001600160a01b0390911690636881aedd90613b5d906004016150f5565b602060405180830381865afa158015613b7a573d6000803e3d6000fd5b505050506040513d601f19601f82011682018060405250810190613b9e9190615067565b90506000816001600160a01b031663f359a641896040518263ffffffff1660e01b8152600401613bce91906149d3565b602060405180830381865afa158015613beb573d6000803e3d6000fd5b505050506040513d601f19601f82011682018060405250810190613c0f91906150a4565b90508015613e1d5760405163875ff21560e01b8152600481018290526001600160a01b0383169063875ff21590602401600060405180830381865afa158015613c5c573d6000803e3d6000fd5b505050506040513d6000823e601f3d908101601f19168201604052613c84919081019061529b565b5050805160079081556020808301518051849392613ca7926008929101906148b5565b5060408201518051613cc391600284019160209091019061491a565b5050505060006007600201600781548110613ce057613ce0615388565b906000526020600020015462093a80613cf9919061581b565b905080421115613d0857600193505b600254604051636881aedd60e01b81526001600160a01b0390911690636881aedd90613d3690600401615031565b602060405180830381865afa158015613d53573d6000803e3d6000fd5b505050506040513d601f19601f82011682018060405250810190613d779190615067565b6009805491945084916006908110613d9157613d91615388565b600091825260209091200154600154604051627eeac760e11b81526001600160a01b038481169262fdd58e92613dcf9290911690889060040161508b565b602060405180830381865afa158015613dec573d6000803e3d6000fd5b505050506040513d601f19601f82011682018060405250810190613e1091906150a4565b03613e1a57600195505b50505b929791965091945092505050565b600254604051636881aedd60e01b815260009182916001600160a01b0390911690636881aedd90613e5e906004016150f5565b602060405180830381865afa158015613e7b573d6000803e3d6000fd5b505050506040513d601f19601f82011682018060405250810190613e9f9190615067565b6040516333a1f51d60e11b8152600481018590529091506000906001600160a01b03831690636743ea3a906024016040805180830381865afa158015613ee9573d6000803e3d6000fd5b505050506040513d601f19601f82011682018060405250810190613f0d919061582e565b91505080421080613f1c575080155b613f585760405162461bcd60e51b815260206004820152600d60248201526c1b1858995b08195e1c1a5c9959609a1b6044820152606401610536565b5060019392505050565b600080600085600681518110613f7a57613f7a615388565b602002602001015111613fc15760405162461bcd60e51b815260206004820152600f60248201526e6d696e74206174206c65617374203160881b6044820152606401610536565b60006001600160a01b031684600181518110613fdf57613fdf615388565b60200260200101516001600160a01b0316036140365760405162461bcd60e51b8152602060048201526016602482015275696e76616c6964206d696e746572206164647265737360501b6044820152606401610536565b60008060008760098151811061404e5761404e615388565b6020026020010151600014801561407f57508760038151811061407357614073615388565b60200260200101516003145b1561413f5760006140a98a60028151811061409c5761409c615388565b6020026020010151614842565b6002546040516328968c0d60e21b81529192506001600160a01b03169063a25a3034906140da9084906004016149d3565b602060405180830381865afa1580156140f7573d6000803e3d6000fd5b505050506040513d601f19601f8201168201806040525081019061411b91906153ae565b9150808261413c5760405162461bcd60e51b815260040161053691906149d3565b50505b60008860008151811061415457614154615388565b60200260200101511180156141835750600188600c8151811061417957614179615388565b6020026020010151105b1561443557600254604051636881aedd60e01b81526001600160a01b0390911690636881aedd906141b6906004016155b4565b602060405180830381865afa1580156141d3573d6000803e3d6000fd5b505050506040513d601f19601f820116820180604052508101906141f79190615067565b9250600080600080866001600160a01b0316633658baa1338e60008151811061422257614222615388565b60200260200101516040518363ffffffff1660e01b815260040161424792919061508b565b600060405180830381865afa158015614264573d6000803e3d6000fd5b505050506040513d6000823e601f3d908101601f1916820160405261428c91908101906155dd565b9650509550955095505050600084116142b75760405162461bcd60e51b81526004016105369061569e565b428311806142c3575082155b6142df5760405162461bcd60e51b8152600401610536906156c8565b6040516335d9e65d60e01b8152600481018590526000906001600160a01b038916906335d9e65d90602401602060405180830381865afa158015614327573d6000803e3d6000fd5b505050506040513d601f19601f8201168201806040525081019061434b91906150a4565b90508060011461436d5760405162461bcd60e51b8152600401610536906156ff565b8a156143aa5760405162461bcd60e51b815260206004820152600c60248201526b1b1858995b08189d5c9b995960a21b6044820152606401610536565b6143b383613e2b565b9550856143fb5760405162461bcd60e51b81526020600482015260166024820152751bdc195c985d1bdc881b1858995b08195e1c1a5c995960521b6044820152606401610536565b818c60038151811061440f5761440f615388565b60200260200101906001600160a01b031690816001600160a01b03168152505050505050505b600254604051636881aedd60e01b81526001600160a01b0390911690636881aedd9061446390600401615031565b602060405180830381865afa158015614480573d6000803e3d6000fd5b505050506040513d601f19601f820116820180604052508101906144a49190615067565b92506000836001600160a01b031663bf05eb4660008c6001815181106144cc576144cc615388565b60200260200101518b6001815181106144e7576144e7615388565b60200260200101518d8f60008151811061450357614503615388565b60200260200101516040518663ffffffff1660e01b815260040161452b9594939291906154fc565b6020604051808303816000875af115801561454a573d6000803e3d6000fd5b505050506040513d601f19601f8201168201806040525081019061456e91906150a4565b9050600081116145b05760405162461bcd60e51b815260206004820152600d60248201526c6572726f72206d696e74696e6760981b6044820152606401610536565b886006815181106145c3576145c3615388565b602002602001015160010361477c576000896000815181106145e7576145e7615388565b60200260200101519050806000036145fc5750805b600254604051636881aedd60e01b81526020600482015260086024820152676261676c6f67696360c01b60448201526001600160a01b0390911690636881aedd90606401602060405180830381865afa15801561465d573d6000803e3d6000fd5b505050506040513d601f19601f820116820180604052508101906146819190615067565b604051631313e2c960e21b81529095506001600160a01b03861690634c4f8b24906146b4908c908690869060040161558f565b6020604051808303816000875af11580156146d3573d6000803e3d6000fd5b505050506040513d601f19601f820116820180604052508101906146f79190615067565b93506001600160a01b0384166147465760405162461bcd60e51b8152602060048201526014602482015273195c9c9bdc881cd95d1d1a5b99c81dd85b1b195d60621b6044820152606401610536565b838960028151811061475a5761475a615388565b60200260200101906001600160a01b031690816001600160a01b031681525050505b8860038151811061478f5761478f615388565b60200260200101516002036147d35733886003815181106147b2576147b2615388565b60200260200101906001600160a01b031690816001600160a01b0316815250505b6147ec81898b8d60008151811061188357611883615388565b9150816148335760405162461bcd60e51b8152602060048201526015602482015274195c9c9bdc8818dbdb5c1b195d1a5b99c81b5a5b9d605a1b6044820152606401610536565b99919850909650505050505050565b604080516001808252818301909252606091600091906020820181803683370190505090508260008151811061487a5761487a615388565b602001015160f81c60f81b8160008151811061489857614898615388565b60200101906001600160f81b031916908160001a90535092915050565b82805482825590600052602060002090810192821561490a579160200282015b8281111561490a57825182546001600160a01b0319166001600160a01b039091161782556020909201916001909101906148d5565b50614916929150614955565b5090565b82805482825590600052602060002090810192821561490a579160200282015b8281111561490a57825182559160200191906001019061493a565b5b808211156149165760008155600101614956565b60006020828403121561497c57600080fd5b5035919050565b60005b8381101561499e578181015183820152602001614986565b50506000910152565b600081518084526149bf816020860160208601614983565b601f01601f19169290920160200192915050565b60208152600061207260208301846149a7565b6001600160a01b03811681146149fb57600080fd5b50565b634e487b7160e01b600052604160045260246000fd5b604051606081016001600160401b0381118282101715614a3657614a366149fe565b60405290565b604051608081016001600160401b0381118282101715614a3657614a366149fe565b604051601f8201601f191681016001600160401b0381118282101715614a8657614a866149fe565b604052919050565b60006001600160401b03821115614aa757614aa76149fe565b50601f01601f191660200190565b600082601f830112614ac657600080fd5b8135614ad9614ad482614a8e565b614a5e565b818152846020838601011115614aee57600080fd5b816020850160208301376000918101602001919091529392505050565b60008060008060808587031215614b2157600080fd5b8435614b2c816149e6565b93506020850135614b3c816149e6565b92506040850135915060608501356001600160401b03811115614b5e57600080fd5b614b6a87828801614ab5565b91505092959194509250565b6001600160e01b031991909116815260200190565b60006001600160401b03821115614ba457614ba46149fe565b5060051b60200190565b600082601f830112614bbf57600080fd5b81356020614bcf614ad483614b8b565b82815260059290921b84018101918181019086841115614bee57600080fd5b8286015b84811015614c095780358352918301918301614bf2565b509695505050505050565b600082601f830112614c2557600080fd5b81356020614c35614ad483614b8b565b82815260059290921b84018101918181019086841115614c5457600080fd5b8286015b84811015614c09578035614c6b816149e6565b8352918301918301614c58565b600080600080600060a08688031215614c9057600080fd5b8535614c9b816149e6565b94506020860135935060408601356001600160401b0380821115614cbe57600080fd5b614cca89838a01614bae565b94506060880135915080821115614ce057600080fd5b614cec89838a01614c14565b93506080880135915080821115614d0257600080fd5b50614d0f88828901614ab5565b9150509295509295909350565b60008060408385031215614d2f57600080fd5b8235915060208301356001600160401b03811115614d4c57600080fd5b614d5885828601614ab5565b9150509250929050565b60008060408385031215614d7557600080fd5b8235614d80816149e6565b946020939093013593505050565b60008060408385031215614da157600080fd5b50508035926020909101359150565b600082601f830112614dc157600080fd5b81356020614dd1614ad483614b8b565b82815260059290921b84018101918181019086841115614df057600080fd5b8286015b84811015614c095780356001600160401b03811115614e135760008081fd5b614e218986838b0101614ab5565b845250918301918301614df4565b60008060008060008060c08789031215614e4857600080fd5b8635955060208701356001600160401b0380821115614e6657600080fd5b614e728a838b01614ab5565b96506040890135915080821115614e8857600080fd5b614e948a838b01614ab5565b95506060890135915080821115614eaa57600080fd5b614eb68a838b01614bae565b94506080890135915080821115614ecc57600080fd5b614ed88a838b01614db0565b935060a0890135915080821115614eee57600080fd5b50614efb89828a01614db0565b9150509295509295509295565b600080600080600060a08688031215614f2057600080fd5b8535614f2b816149e6565b94506020860135614f3b816149e6565b9350604086013592506060860135915060808601356001600160401b03811115614f6457600080fd5b614d0f88828901614ab5565b600080600060608486031215614f8557600080fd5b83356001600160401b0380821115614f9c57600080fd5b614fa887838801614db0565b94506020860135915080821115614fbe57600080fd5b614fca87838801614bae565b93506040860135915080821115614fe057600080fd5b50614fed86828701614c14565b9150509250925092565b600181811c9082168061500b57607f821691505b60208210810361502b57634e487b7160e01b600052602260045260246000fd5b50919050565b6020808252600c908201526b1b5a5b9d18dbdb9d1c9858dd60a21b604082015260600190565b8051615062816149e6565b919050565b60006020828403121561507957600080fd5b8151615084816149e6565b9392505050565b6001600160a01b03929092168252602082015260400190565b6000602082840312156150b657600080fd5b5051919050565b6001600160a01b0394851681529290931660208301526040820152606081019190915260a06080820181905260009082015260c00190565b6020808252600b908201526a6d696e7473746f7261676560a81b604082015260600190565b600082601f83011261512b57600080fd5b8151602061513b614ad483614b8b565b82815260059290921b8401810191818101908684111561515a57600080fd5b8286015b84811015614c09578051835291830191830161515e565b60006060828403121561518757600080fd5b61518f614a14565b9050815181526020808301516001600160401b03808211156151b057600080fd5b818501915085601f8301126151c457600080fd5b81516151d2614ad482614b8b565b81815260059190911b830184019084810190888311156151f157600080fd5b938501935b82851015615218578451615209816149e6565b825293850193908501906151f6565b8086880152505050604085015192508083111561523457600080fd5b50506152428482850161511a565b60408301525092915050565b600082601f83011261525f57600080fd5b815161526d614ad482614a8e565b81815284602083860101111561528257600080fd5b615293826020830160208701614983565b949350505050565b6000806000606084860312156152b057600080fd5b83516001600160401b03808211156152c757600080fd5b6152d387838801615175565b94506020915081860151818111156152ea57600080fd5b8601601f810188136152fb57600080fd5b8051615309614ad482614b8b565b81815260059190911b8201840190848101908a83111561532857600080fd5b8584015b83811015615360578051868111156153445760008081fd5b6153528d898389010161524e565b84525091860191860161532c565b5060408a015190975094505050508082111561537b57600080fd5b50614fed8682870161524e565b634e487b7160e01b600052603260045260246000fd5b8051801515811461506257600080fd5b6000602082840312156153c057600080fd5b6120728261539e565b634e487b7160e01b600052601160045260246000fd5b81810381811115612075576120756153c9565b8082028115828204841417612075576120756153c9565b6020808252600690820152651d19585c1bdd60d21b604082015260600190565b6000806000806080858703121561543f57600080fd5b84516001600160401b038082111561545657600080fd5b61546288838901615175565b9550602087015191508082111561547857600080fd5b6154848883890161511a565b9450604087015191508082111561549a57600080fd5b506154a78782880161524e565b9250506154b66060860161539e565b905092959194509250565b600081518084526020808501945080840160005b838110156154f1578151875295820195908201906001016154d5565b509495945050505050565b85815260a06020820152600061551560a08301876149a7565b6001600160a01b0386166040840152828103606084015261553681866154c1565b9050828103608084015261554a81856149a7565b98975050505050505050565b600081518084526020808501945080840160005b838110156154f15781516001600160a01b03168752958201959082019060010161556a565b6060815260006155a26060830186615556565b60208301949094525060400152919050565b6020808252600f908201526e6f70657261746f7273746f7261676560881b604082015260600190565b6000806000806000806000610140888a0312156155f957600080fd5b88601f89011261560857600080fd5b615610614a3c565b8060808a018b81111561562257600080fd5b8a5b8181101561563c578051845260209384019301615624565b505190985090506001600160401b0381111561565757600080fd5b6156638a828b0161511a565b96505060a0880151945060c0880151935060e0880151925061010088015191506156906101208901615057565b905092959891949750929550565b60208082526010908201526f34b73b30b634b21037b832b930ba37b960811b604082015260600190565b60208082526018908201527f6f70657261746f72206c6963656e736520657870697265640000000000000000604082015260600190565b6020808252601d908201527f796f7520617265206e6f742061207375706572206f6572706572746f72000000604082015260600190565b82815260406020820152600061529360408301846149a7565b60006020828403121561576157600080fd5b81516001600160401b0381111561577757600080fd5b6152938482850161524e565b83815260606020820152600061579c60608301856149a7565b82810360408401526157ae81856149a7565b9695505050505050565b6000600182016157ca576157ca6153c9565b5060010190565b8481526080602082015260006157ea6080830186615556565b82810360408401526157fc81866154c1565b9050828103606084015261581081856149a7565b979650505050505050565b80820180821115612075576120756153c9565b6000806040838503121561584157600080fd5b50508051602090910151909290915056fea2646970667358221220368778b2a36a7b3ba2bb27db315ffbd145a80c4a1e70f0ad0f7b7bf0f29c101e64736f6c63430008110033",
  "immutableReferences": {},
  "source": "// SPDX-License-Identifier: MIT\n\npragma solidity ^0.8.0;\ninterface IERC20 {\n\n    event Transfer(address indexed from, address indexed to, uint256 value);\n\n\n    event Approval(address indexed owner, address indexed spender, uint256 value);\n\n\n    function totalSupply() external view returns (uint256);\n\n\n    function balanceOf(address account) external view returns (uint256);\n\n\n    function transfer(address to, uint256 amount) external returns (bool);\n\n\n    function allowance(address owner, address spender) external view returns (uint256);\n\n\n    function approve(address spender, uint256 amount) external returns (bool);\n\n\n    function transferFrom(\n        address from,\n        address to,\n        uint256 amount\n    ) external returns (bool);\n}\n\npragma solidity ^0.8.0;\ninterface IERC165 {\n\n    function supportsInterface(bytes4 interfaceId) external view returns (bool);\n}\n\npragma solidity ^0.8.0;\ninterface IERC1155 is IERC165 {\n\n    event TransferSingle(address indexed operator, address indexed from, address indexed to, uint256 id, uint256 value);\n\n\n    event TransferBatch(\n        address indexed operator,\n        address indexed from,\n        address indexed to,\n        uint256[] ids,\n        uint256[] values\n    );\n\n\n    event ApprovalForAll(address indexed account, address indexed operator, bool approved);\n\n\n    event URI(string value, uint256 indexed id);\n\n\n    function balanceOf(address account, uint256 id) external view returns (uint256);\n\n\n    function balanceOfBatch(address[] calldata accounts, uint256[] calldata ids)\n        external\n        view\n        returns (uint256[] memory);\n\n\n    function setApprovalForAll(address operator, bool approved) external;\n\n\n    function isApprovedForAll(address account, address operator) external view returns (bool);\n\n\n    function safeTransferFrom(\n        address from,\n        address to,\n        uint256 id,\n        uint256 amount,\n        bytes calldata data\n    ) external;\n\n\n    function safeBatchTransferFrom(\n        address from,\n        address to,\n        uint256[] calldata ids,\n        uint256[] calldata amounts,\n        bytes calldata data\n    ) external;\n}\n\npragma solidity ^0.8.0;\ninterface IERC1155Receiver is IERC165 {\n\n    function onERC1155Received(\n        address operator,\n        address from,\n        uint256 id,\n        uint256 value,\n        bytes calldata data\n    ) external returns (bytes4);\n\n\n    function onERC1155BatchReceived(\n        address operator,\n        address from,\n        uint256[] calldata ids,\n        uint256[] calldata values,\n        bytes calldata data\n    ) external returns (bytes4);\n}\n\npragma solidity ^0.8.0;\ninterface IERC1155MetadataURI is IERC1155 {\n\n    function uri(uint256 id) external view returns (string memory);\n}\n\npragma solidity ^0.8.0;\nabstract contract ERC165 is IERC165 {\n\n    function supportsInterface(bytes4 interfaceId) public view virtual override returns (bool) {\n        return interfaceId == type(IERC165).interfaceId;\n    }\n}\n\npragma solidity ^0.8.0;\ninterface IERC721 is IERC165 {\n\n    event Transfer(address indexed from, address indexed to, uint256 indexed tokenId);\n\n\n    event Approval(address indexed owner, address indexed approved, uint256 indexed tokenId);\n\n\n    event ApprovalForAll(address indexed owner, address indexed operator, bool approved);\n\n\n    function balanceOf(address owner) external view returns (uint256 balance);\n\n\n    function ownerOf(uint256 tokenId) external view returns (address owner);\n\n\n    function safeTransferFrom(\n        address from,\n        address to,\n        uint256 tokenId,\n        bytes calldata data\n    ) external;\n\n\n    function safeTransferFrom(\n        address from,\n        address to,\n        uint256 tokenId\n    ) external;\n\n\n    function transferFrom(\n        address from,\n        address to,\n        uint256 tokenId\n    ) external;\n\n\n    function approve(address to, uint256 tokenId) external;\n\n\n    function setApprovalForAll(address operator, bool _approved) external;\n\n\n    function getApproved(uint256 tokenId) external view returns (address operator);\n\n\n    function isApprovedForAll(address owner, address operator) external view returns (bool);\n}\npragma solidity ^0.8.0;\nlibrary SafeMath {\n\n    function tryAdd(uint256 a, uint256 b) internal pure returns (bool, uint256) {\n        unchecked {\n            uint256 c = a + b;\n            if (c < a) return (false, 0);\n            return (true, c);\n        }\n    }\n\n\n    function trySub(uint256 a, uint256 b) internal pure returns (bool, uint256) {\n        unchecked {\n            if (b > a) return (false, 0);\n            return (true, a - b);\n        }\n    }\n\n\n    function tryMul(uint256 a, uint256 b) internal pure returns (bool, uint256) {\n        unchecked {\n            // Gas optimization: this is cheaper than requiring 'a' not being zero, but the\n            // benefit is lost if 'b' is also tested.\n            // See: https://github.com/OpenZeppelin/openzeppelin-contracts/pull/522\n            if (a == 0) return (true, 0);\n            uint256 c = a * b;\n            if (c / a != b) return (false, 0);\n            return (true, c);\n        }\n    }\n\n\n    function tryDiv(uint256 a, uint256 b) internal pure returns (bool, uint256) {\n        unchecked {\n            if (b == 0) return (false, 0);\n            return (true, a / b);\n        }\n    }\n\n\n    function tryMod(uint256 a, uint256 b) internal pure returns (bool, uint256) {\n        unchecked {\n            if (b == 0) return (false, 0);\n            return (true, a % b);\n        }\n    }\n\n\n    function add(uint256 a, uint256 b) internal pure returns (uint256) {\n        return a + b;\n    }\n\n\n    function sub(uint256 a, uint256 b) internal pure returns (uint256) {\n        return a - b;\n    }\n\n\n    function mul(uint256 a, uint256 b) internal pure returns (uint256) {\n        return a * b;\n    }\n\n\n    function div(uint256 a, uint256 b) internal pure returns (uint256) {\n        return a / b;\n    }\n\n\n    function mod(uint256 a, uint256 b) internal pure returns (uint256) {\n        return a % b;\n    }\n\n\n    function sub(\n        uint256 a,\n        uint256 b,\n        string memory errorMessage\n    ) internal pure returns (uint256) {\n        unchecked {\n            require(b <= a, errorMessage);\n            return a - b;\n        }\n    }\n\n\n    function div(\n        uint256 a,\n        uint256 b,\n        string memory errorMessage\n    ) internal pure returns (uint256) {\n        unchecked {\n            require(b > 0, errorMessage);\n            return a / b;\n        }\n    }\n\n\n    function mod(\n        uint256 a,\n        uint256 b,\n        string memory errorMessage\n    ) internal pure returns (uint256) {\n        unchecked {\n            require(b > 0, errorMessage);\n            return a % b;\n        }\n    }\n}\ninterface i1155{\n\n    struct NFTEA {\n        uint256 nftea;\n        address[] addresses;\n        uint256[] settings;\n    }\n    function fire(address caller_) external pure returns(uint256[] memory,uint256[] memory,uint256,bool,bool,uint256);\n    function gflame(string memory flame_) external pure returns(address);\n    function getnftea(uint256 nftea_) external pure returns(NFTEA memory,string[] memory, string memory);\n    function getlabel(uint256 nftea_, string memory label_) external pure returns(NFTEA memory, uint256[] memory, string memory,bool);\n    function getoperator(address operator_, uint256 license_) external pure returns(uint256[4] memory,uint256[] memory,uint256,uint256,uint256,uint256,address);\n    function gspark(string memory spark_) external pure returns(uint256);\n    function getoperatorrole(uint256 opid_) external pure returns(uint256);\n    function gtag(string memory tag_) external pure returns(bool);\n    function getipfs(string memory _ipfs) external pure returns(uint256);\n    function setedit(uint256 nftea_, string memory ipfs_) external returns(bool);\n    function getfee(string memory fee_) external pure returns(uint256);\n    function mint(uint256 assetid_, string memory ipfs_, address sendto_, uint256[] memory settings_, string memory label_) external returns(uint256);\n    function createwallet(address[] memory addresses_, uint256 nftea_, uint256 label_) external returns(address);\n    function settransferable(uint256 nftea_, uint256 value_, address wallet) external returns(bool);\n    function setmint(uint256 nftea_,address[] memory addresses_,uint256[] memory settings_,string memory label_) external returns(bool);\n    function setmediaattribute(uint256 nftea_, string memory media_, string memory title_) external returns(bool);\n    function tokenURI(uint256 nftea_) external pure returns(string memory);\n    function mintContract(string memory label_, string memory symbol_, string memory ipfs_) external returns(address);\n    function setGasRefund(address holder_, uint256 gas_) external returns(bool);\n    function _label2nftea(string memory label_) external pure returns(uint256);\n    function setrenew(uint256 nft_, uint256 expire) external returns(bool);\n    function getnftea2label(uint256 nftea_) external pure returns(uint256,uint256);\n    function unWrap(uint256 nftea_, address contract_) external returns(bool);\n\n}\ncontract mintlogic {\n\n    using SafeMath for uint256;\n\n\n    string public name = \"MINT LOGIC V1\";\n    address public _burn = 0x000000000000000000000000000000000000dEaD;\n    address public _fire;\n    bytes4 private constant INTERFACE_ID_ERC721 = 0x80ac58cd;\n    bytes4 private constant INTERFACE_ID_ERC1155 = 0xd9b67a26;\n    mapping(uint256=>string) public _nftea2ipfs;\n    mapping(uint256=>address[]) public _nftea2addresses;\n    mapping(uint256=>uint256[]) public _nftea2settings;\n    mapping(uint256=>uint256) private _nftea2wrapto;\n    i1155.NFTEA _nfteas;\n\n    constructor(address fire_){\n        _fire = fire_;\n    }\n    receive () external payable {}\n    function onERC1155Received(\n        address,\n        address,\n        uint256,\n        uint256,\n        bytes memory\n    ) public virtual returns (bytes4) {\n        return this.onERC1155Received.selector;\n    }\n    function onERC721Received(\n        address,\n        address,\n        uint256,\n        bytes memory\n    ) public virtual returns (bytes4) {\n        return this.onERC721Received.selector;\n    }\n    //nftea types\n    //1. label\n    //2. label - profile\n    //3. label - Tags\n    //4. label - chapters\n    //5. license - label operator\n    //6. license - label marketplace\n    //7. mint pass\n    //8. nftea\n    //9. generative nftea\n    //10. redeemable nftea\n    //11. wrap to nftea\n    function gettag(string memory label_) internal pure returns (string memory){\n        bytes memory a = new bytes(1);\n        a[0] = bytes(label_)[0];\n        return string(a);\n    }\n    function expirecheck(uint256 label_) internal view returns(bool){\n      (address flame_) = i1155(_fire).gflame('mintstorage');\n      (, uint256 expire_) = i1155(flame_).getnftea2label(label_);\n      require(block.timestamp<expire_ || expire_ == 0, 'label expired');\n      return true;\n    }\n    function checkLabel(string memory label_) internal returns(bool, bool, uint256){\n\n      bool burned = false;\n      bool expired = false;\n      (address flame_) = i1155(_fire).gflame('mintstorage');\n      (uint256 nft_) = i1155(flame_)._label2nftea(label_);\n      if(nft_>0){\n        (_nfteas,,) = i1155(flame_).getnftea(nft_);\n        //grace period\n        uint256 grace = _nfteas.settings[7] + 7 days;\n        if(block.timestamp > grace){\n          expired = true;\n        }\n        //check of label has been burned\n        (flame_) = i1155(_fire).gflame('mintcontract');\n        IERC1155 nft = IERC1155(flame_);\n        if(nft.balanceOf(_burn, nft_)==_nfteas.settings[6]){\n          burned = true;\n        }\n      }\n      return(burned,expired,nft_);\n    }\n    function renew(uint256 expire_, string memory label_) public{\n\n      (address flame_) = i1155(_fire).gflame('mintstorage');\n      (uint256 nft_) = i1155(flame_)._label2nftea(label_);\n      (uint256 price_) = i1155(_fire).getfee('label');\n      if(price_>0){\n\n          price_ = price_.mul(expire_);\n          (address paytoken_) =i1155(_fire).gflame(\"teatoken\");\n          (address marketing_) =i1155(_fire).gflame(\"marketing\");\n          IERC20(paytoken_).transferFrom(msg.sender,marketing_,price_);\n          require(checkSuccess(), 'error paying to renew label');\n\n      }\n      (bool success)= i1155(flame_).setrenew(nft_,expire_);\n      require(success, 'error renewing label');\n    }\n\n    function mintstart(string[] memory strings_, uint256[] memory settings_, address[] memory addresses_) public returns (uint256, address) {\n      uint256 startGas = gasleft();\n\n      uint256 nftea_;\n      address wallet_;\n      bool newmint_ = false;\n      bool success = false;\n      bool burned_ = false;\n      (address flame_) = i1155(_fire).gflame('mintstorage');\n      if (settings_[3] > 0 && settings_[3] < 7) {\n        (bool burned, bool expired, uint256 nft_) = checkLabel(strings_[0]);\n        burned_ = burned;\n        if (burned || nft_ < 1 || expired) {\n          // mint new label\n          newmint_ = true;\n        }\n      } else {\n        if (settings_[0] > 0) {\n          (flame_) = i1155(_fire).gflame('mintcontract');\n          IERC1155 nft = IERC1155(flame_);\n          if (nft.balanceOf(_burn, settings_[0]) == 1) {\n            burned_ = true;\n          }\n          (success) = expirecheck(settings_[0]);\n          require(success, 'label expired');\n        }\n        newmint_ = true;\n      }\n      if (newmint_) {\n        (nftea_, wallet_) = mint(strings_, settings_, addresses_, burned_);\n      }\n      uint256 endGas = gasleft();\n      uint256 gasUsed = startGas - endGas;\n\n      // Calculate the gas refund based on the actual gas used\n      uint256 refundAmount = gasUsed * tx.gasprice;\n\n      // Transfer the gas refund to the sender\n      (flame_) = i1155(_fire).gflame('teapot');\n      (success) = i1155(flame_).setGasRefund(msg.sender, refundAmount);\n      require(success, 'error transferring gas refund');\n\n      return (nftea_, wallet_);\n    }\n    function mint(string[] memory strings_, uint256[] memory settings_, address[] memory addresses_, bool burned_) internal returns(uint256, address){\n        require(settings_[6]>0, 'mint at least 1');\n        require(addresses_[1]!=address(0), 'invalid minter address');\n        address flame_ = address(0);\n        address wallet_ = address(0);\n        bool success = false;\n\n        if(settings_[9]==0 && settings_[3]==3){\n            //not transferable, check if tag is valid\n            string memory tag_ = gettag(strings_[2]);\n            (success) = i1155(_fire).gtag(tag_);\n            require(success, tag_);\n        }\n        if(settings_[0]>0 && settings_[12]<1){\n\n            // linked to a label, must validate minter\n            (flame_) = i1155(_fire).gflame('operatorstorage');\n            //validate operator\n            (,,uint256 opid_, uint256 expirex_,uint256 oplabel_,,address walletlabel_) = i1155(flame_).getoperator(msg.sender,settings_[0]);\n            require(opid_>0, 'invalid operator');\n            require(expirex_ > block.timestamp || expirex_==0, 'operator license expired');\n            (uint256 rolex_)= i1155(flame_).getoperatorrole(opid_);\n            require(rolex_==1, 'you are not a super oerpertor');\n            require(!burned_, 'label burned');\n            //check if label for operator expired\n            (success) = expirecheck(oplabel_);\n            require(success, 'operator label expired');\n            //minter okay\n            addresses_[3] = walletlabel_;\n        }\n         (flame_) = i1155(_fire).gflame('mintcontract');\n         (uint256 nftea_) = i1155(flame_).mint(0,strings_[1], addresses_[1],settings_,strings_[0]);\n         require(nftea_>0, 'error minting');\n         if(settings_[6]==1){\n             uint256 labelnftea_ = settings_[0];\n             if(labelnftea_==0){\n                 labelnftea_ = nftea_;\n             }\n             (flame_) = i1155(_fire).gflame('baglogic');\n             (wallet_) = i1155(flame_).createwallet(addresses_,nftea_,labelnftea_);\n             require(wallet_!=address(0), 'error setting wallet');\n             addresses_[2] = wallet_;\n         }\n         if(settings_[3]==2){\n             //set label owner\n            addresses_[3] = msg.sender;\n         }\n        (success) = mintcomplete(nftea_,addresses_,settings_,strings_[0]);\n         require(success,'error completing mint');\n         return (nftea_, wallet_);\n    }\n    function mintcomplete(uint256 nftea_,address[] memory addresses_, uint256[] memory settings_, string memory label_) internal returns(bool){\n\n        (address flame_) = i1155(_fire).gflame('mintcontract');\n        if(addresses_[4]==flame_){\n          (flame_) = i1155(_fire).gflame('mintstorage');\n          (_nfteas,,) = i1155(flame_).getnftea(settings_[10]);\n          addresses_[0] = _nfteas.addresses[0];\n          addresses_[3] = address(0);\n        }\n        (flame_) = i1155(_fire).gflame('mintstorage');\n        (bool success) = i1155(flame_).setmint(nftea_,addresses_,settings_,label_);\n        require(success, 'error');\n        (flame_) = i1155(_fire).gflame('mintcontract');\n        (success) = i1155(flame_).settransferable(nftea_,settings_[9],addresses_[2]);\n        require(success, 'error setting transfer permissions');\n        if(settings_[3]>=1 && settings_[3]<7){\n            ///pay to mint this label\n            //get label price\n            (uint256 price_) = i1155(_fire).getfee('label');\n            if(price_>0){\n\n                price_ = price_.mul(settings_[1]);\n                (address paytoken_) =i1155(_fire).gflame(\"teatoken\");\n                (address marketing_) =i1155(_fire).gflame(\"marketing\");\n                IERC20(paytoken_).transferFrom(msg.sender,marketing_,price_);\n                require(checkSuccess(), 'error paying for label');\n\n            }\n        }\n        return true;\n    }\n    function wrap(address contract_, uint256 nft_, uint256[] memory settings_, address[] memory addresses_, string memory ipfs_) public returns(bool){\n        uint256 startGas = gasleft();\n        string memory label_;\n        (address flame_) = i1155(_fire).gflame('wrapbridge');\n        if(msg.sender!=flame_){\n          if (IERC165(contract_).supportsInterface(INTERFACE_ID_ERC721)) {\n\n              IERC721 nft = IERC721(contract_);\n              require(nft.ownerOf(nft_) == msg.sender || nft.ownerOf(nft_)==_burn, \"nft not yours\");\n              if(nft.ownerOf(nft_) == msg.sender){\n                  nft.safeTransferFrom(msg.sender, address(this), nft_);\n                  require(checkSuccess(), 'error wrap transfer');\n              }\n              ipfs_ = getURI(contract_,nft_);\n\n          } else if (IERC165(contract_).supportsInterface(INTERFACE_ID_ERC1155)) {\n\n              IERC1155 nft = IERC1155(contract_);\n              require(nft.balanceOf(msg.sender, nft_) > 0 || nft.balanceOf(_burn, nft_) ==1, \"not your nft\");\n              if(nft.balanceOf(msg.sender, nft_) > 0){\n                  nft.safeTransferFrom(msg.sender, address(this), nft_, 1, '');\n                  require(checkSuccess(), 'error wrap transfer 1155');\n              }\n              ipfs_ = getURI(contract_,nft_);\n          }\n        }\n\n        settings_[6] = 1;\n        settings_[3] = 11;\n        (flame_) = i1155(_fire).gflame('mintstorage');\n        if(settings_[0]>0){\n          (,,label_,) = i1155(flame_).getlabel(settings_[0],'open');\n        }else{\n          label_ = '-open-';\n        }\n        string[] memory strings_ = new string[](3);\n          strings_[0] = label_;\n          strings_[1] = ipfs_;\n          strings_[2] = \"n/a\";\n        (flame_) = i1155(_fire).gflame('mintcontract');\n        (uint256 nftea_) = i1155(flame_).mint(0,strings_[1], addresses_[1],settings_,strings_[0]);\n        require(nftea_>0, 'error minting');\n        (flame_) = i1155(_fire).gflame('baglogic');\n        (address wallet_) = i1155(flame_).createwallet(addresses_,nftea_,0);\n        require(wallet_!=address(0), 'error setting wallet');\n        addresses_[2] = wallet_;\n        addresses_[3] = address(0);\n        (bool success) = mintcomplete(nftea_,addresses_,settings_,strings_[0]);\n        require(success, 'error completing wrap');\n        uint256 endGas = gasleft();\n        uint256 gasUsed = startGas - endGas;\n        uint256 refundAmount = gasUsed * tx.gasprice;\n\n        (flame_) = i1155(_fire).gflame('teapot');\n        (success) = i1155(flame_).setGasRefund(msg.sender,refundAmount);\n        require(success, 'error settng gas refund');\n        _nftea2wrapto[nftea_] = nft_;\n        return (success);\n    }\n    function unWrap(uint256 nft_) public{\n      uint256 startGas = gasleft();\n\n        (address flame_) = i1155(_fire).gflame('mintcontract');\n        require(IERC1155(flame_).balanceOf(msg.sender,nft_)>0, 'you do not own this nft');\n        IERC1155(flame_).safeTransferFrom(msg.sender, _burn, nft_, 1, '');\n\n        (flame_) = i1155(_fire).gflame('mintstorage');\n        (_nfteas,,) = i1155(flame_).getnftea(nft_);\n        if (IERC165(_nfteas.addresses[4]).supportsInterface(INTERFACE_ID_ERC721)) {\n\n            IERC721(_nfteas.addresses[4]).safeTransferFrom(address(this), msg.sender, _nftea2wrapto[nft_],'');\n            require(checkSuccess(), 'error unwrappinig');\n\n        } else if (IERC165(_nfteas.addresses[4]).supportsInterface(INTERFACE_ID_ERC1155)) {\n\n            IERC1155(_nfteas.addresses[4]).safeTransferFrom(address(this), msg.sender, 1, _nftea2wrapto[nft_],'');\n            require(checkSuccess(), 'error wrappinig');\n        }\n        (flame_) = i1155(_fire).gflame('mintstorage');\n        (bool success) = i1155(flame_).unWrap(nft_,_nfteas.addresses[4]);\n        require(success, 'error unwrapping');\n        uint256 endGas = gasleft();\n        uint256 gasUsed = startGas - endGas;\n        uint256 refundAmount = gasUsed * tx.gasprice;\n        (flame_) = i1155(_fire).gflame('teapot');\n        (success) = i1155(flame_).setGasRefund(msg.sender,refundAmount);\n        require(success, 'error refunding gas');\n\n    }\n    function getURI(address contract_, uint256 nft_) public pure returns (string memory) {\n\n        return (i1155(contract_).tokenURI(nft_));\n    }\n\n    function setmediaattribute(uint256 nftea_, string memory media_, string memory title_, uint256[] memory nfteas_, string[] memory medias_, string[] memory titles_) public {\n\n        ///must be creator or operator of nftea not minter\n        if(nfteas_.length>0){\n\n            for (uint256 i = 0; i < nfteas_.length; ++i) {\n\n                (address flame_) = i1155(_fire).gflame('mintstorage');\n                (_nfteas,,) = i1155(flame_).getnftea(nfteas_[i]);\n                if(_nfteas.settings[0]>0){\n                    ///linked to label... validate operator\n                    (flame_) = i1155(_fire).gflame('operatorstorage');\n                    //validate operator\n                    (,,uint256 opid_, uint256 expirex_,,,) = i1155(flame_).getoperator(msg.sender,_nfteas.settings[0]);\n                    require(opid_>0, 'invalid operator');\n                    require(expirex_ > block.timestamp || expirex_==0, 'operator license expired');\n                    (uint256 rolex_)= i1155(flame_).getoperatorrole(opid_);\n                    if(rolex_==1){\n                        i1155(flame_).setmediaattribute(nfteas_[i], medias_[i], titles_[i]);\n                    }\n                }else{\n                    i1155(flame_).setmediaattribute(nfteas_[i], medias_[i], titles_[i]);\n                }\n            }\n\n        }else{\n\n            (address flame_) = i1155(_fire).gflame('mintstorage');\n            (_nfteas,,) = i1155(flame_).getnftea(nftea_);\n            if(_nfteas.settings[0]>0){\n                ///linked to label... validate operator\n                (flame_) = i1155(_fire).gflame('operatorstorage');\n                //validate operator\n                (,,uint256 opid_, uint256 expirex_,,,) = i1155(flame_).getoperator(msg.sender,_nfteas.settings[0]);\n                require(opid_>0, 'invalid operator');\n                require(expirex_ > block.timestamp || expirex_==0, 'operator license expired');\n                (uint256 rolex_)= i1155(flame_).getoperatorrole(opid_);\n                require(rolex_==1, 'you are not a super oerpertor');\n\n            }else{\n\n                require(_nfteas.addresses[0]==msg.sender, 'only creator can add media attributes');\n\n            }\n            (bool success ) = i1155(flame_).setmediaattribute(nftea_, media_, title_);\n            require(success, 'error setting attribute');\n        }\n\n    }\n    function edit(uint256 nftea_, string memory ipfs_) public {\n\n        (address flame_) = i1155(_fire).gflame('mintstorage');\n        (_nfteas,,) = i1155(flame_).getnftea(nftea_);\n        (flame_) = i1155(_fire).gflame('mintcontract');\n        uint256 balance_ = IERC1155(flame_).balanceOf(msg.sender,nftea_);\n        require(balance_==_nfteas.settings[6], 'must own all nfteas to edit');\n\n        if(_nfteas.settings[0]>0){\n            ///linked to label... validate operator\n            (flame_) = i1155(_fire).gflame('operatorstorage');\n            //validate operator\n            (,,uint256 opid_, uint256 expirex_,,,) = i1155(flame_).getoperator(msg.sender,_nfteas.settings[0]);\n            require(opid_>0, 'invalid operator');\n            require(expirex_ > block.timestamp || expirex_==0, 'operator license expired');\n            (uint256 rolex_)= i1155(flame_).getoperatorrole(opid_);\n            require(rolex_==1, 'you are not a super oerpertor');\n        }\n\n        (flame_) = i1155(_fire).gflame('mintcontract');\n        (bool success) = i1155(flame_).setedit(nftea_, ipfs_);\n        require(success, 'error editing');\n    }\n    function checkSuccess()\n    private pure\n    returns (bool)\n    {\n        uint256 returnValue = 0;\n\n        /* solium-disable-next-line security/no-inline-assembly */\n        assembly {\n        // check number of bytes returned from last function call\n            switch returndatasize()\n\n            // no bytes returned: assume success\n            case 0x0 {\n                returnValue := 1\n            }\n\n            // 32 bytes returned: check if non-zero\n            case 0x20 {\n            // copy 32 bytes into scratch space\n                returndatacopy(0x0, 0x0, 0x20)\n\n            // load those bytes into returnValue\n                returnValue := mload(0x0)\n            }\n\n            // not sure what was returned: dont mark as success\n            default { }\n\n        }\n\n        return returnValue != 0;\n    }\n\n}\n",
  "sourcePath": "/Users/jl1013/Documents/FUTURO/nftea/contracts/mintlogic.sol",
  "compiler": {
    "name": "solc",
    "version": "0.8.17+commit.8df45f5f.Emscripten.clang"
  },
  "schemaVersion": "3.4.13",
  "updatedAt": "2023-06-30T06:03:30.261Z",
  "networkType": "ethereum",
  "devdoc": {
    "kind": "dev",
    "methods": {},
    "version": 1
  },
  "userdoc": {
    "kind": "user",
    "methods": {},
    "version": 1
  }
}