{
  "contractName": "mocknft",
  "abi": [
    {
      "inputs": [],
      "stateMutability": "nonpayable",
      "type": "constructor"
    },
    {
      "anonymous": false,
      "inputs": [
        {
          "indexed": true,
          "internalType": "address",
          "name": "account",
          "type": "address"
        },
        {
          "indexed": true,
          "internalType": "address",
          "name": "operator",
          "type": "address"
        },
        {
          "indexed": false,
          "internalType": "bool",
          "name": "approved",
          "type": "bool"
        }
      ],
      "name": "ApprovalForAll",
      "type": "event"
    },
    {
      "anonymous": false,
      "inputs": [
        {
          "indexed": true,
          "internalType": "address",
          "name": "operator",
          "type": "address"
        },
        {
          "indexed": true,
          "internalType": "address",
          "name": "from",
          "type": "address"
        },
        {
          "indexed": true,
          "internalType": "address",
          "name": "to",
          "type": "address"
        },
        {
          "indexed": false,
          "internalType": "uint256[]",
          "name": "ids",
          "type": "uint256[]"
        },
        {
          "indexed": false,
          "internalType": "uint256[]",
          "name": "values",
          "type": "uint256[]"
        }
      ],
      "name": "TransferBatch",
      "type": "event"
    },
    {
      "anonymous": false,
      "inputs": [
        {
          "indexed": true,
          "internalType": "address",
          "name": "operator",
          "type": "address"
        },
        {
          "indexed": true,
          "internalType": "address",
          "name": "from",
          "type": "address"
        },
        {
          "indexed": true,
          "internalType": "address",
          "name": "to",
          "type": "address"
        },
        {
          "indexed": false,
          "internalType": "uint256",
          "name": "id",
          "type": "uint256"
        },
        {
          "indexed": false,
          "internalType": "uint256",
          "name": "value",
          "type": "uint256"
        }
      ],
      "name": "TransferSingle",
      "type": "event"
    },
    {
      "anonymous": false,
      "inputs": [
        {
          "indexed": false,
          "internalType": "string",
          "name": "value",
          "type": "string"
        },
        {
          "indexed": true,
          "internalType": "uint256",
          "name": "id",
          "type": "uint256"
        }
      ],
      "name": "URI",
      "type": "event"
    },
    {
      "inputs": [
        {
          "internalType": "address",
          "name": "account",
          "type": "address"
        },
        {
          "internalType": "uint256",
          "name": "id",
          "type": "uint256"
        }
      ],
      "name": "balanceOf",
      "outputs": [
        {
          "internalType": "uint256",
          "name": "",
          "type": "uint256"
        }
      ],
      "stateMutability": "view",
      "type": "function",
      "constant": true
    },
    {
      "inputs": [
        {
          "internalType": "address[]",
          "name": "accounts",
          "type": "address[]"
        },
        {
          "internalType": "uint256[]",
          "name": "ids",
          "type": "uint256[]"
        }
      ],
      "name": "balanceOfBatch",
      "outputs": [
        {
          "internalType": "uint256[]",
          "name": "",
          "type": "uint256[]"
        }
      ],
      "stateMutability": "view",
      "type": "function",
      "constant": true
    },
    {
      "inputs": [
        {
          "internalType": "address",
          "name": "account",
          "type": "address"
        },
        {
          "internalType": "address",
          "name": "operator",
          "type": "address"
        }
      ],
      "name": "isApprovedForAll",
      "outputs": [
        {
          "internalType": "bool",
          "name": "",
          "type": "bool"
        }
      ],
      "stateMutability": "view",
      "type": "function",
      "constant": true
    },
    {
      "inputs": [
        {
          "internalType": "address",
          "name": "from",
          "type": "address"
        },
        {
          "internalType": "address",
          "name": "to",
          "type": "address"
        },
        {
          "internalType": "uint256[]",
          "name": "ids",
          "type": "uint256[]"
        },
        {
          "internalType": "uint256[]",
          "name": "amounts",
          "type": "uint256[]"
        },
        {
          "internalType": "bytes",
          "name": "data",
          "type": "bytes"
        }
      ],
      "name": "safeBatchTransferFrom",
      "outputs": [],
      "stateMutability": "nonpayable",
      "type": "function"
    },
    {
      "inputs": [
        {
          "internalType": "address",
          "name": "from",
          "type": "address"
        },
        {
          "internalType": "address",
          "name": "to",
          "type": "address"
        },
        {
          "internalType": "uint256",
          "name": "id",
          "type": "uint256"
        },
        {
          "internalType": "uint256",
          "name": "amount",
          "type": "uint256"
        },
        {
          "internalType": "bytes",
          "name": "data",
          "type": "bytes"
        }
      ],
      "name": "safeTransferFrom",
      "outputs": [],
      "stateMutability": "nonpayable",
      "type": "function"
    },
    {
      "inputs": [
        {
          "internalType": "address",
          "name": "operator",
          "type": "address"
        },
        {
          "internalType": "bool",
          "name": "approved",
          "type": "bool"
        }
      ],
      "name": "setApprovalForAll",
      "outputs": [],
      "stateMutability": "nonpayable",
      "type": "function"
    },
    {
      "inputs": [
        {
          "internalType": "bytes4",
          "name": "interfaceId",
          "type": "bytes4"
        }
      ],
      "name": "supportsInterface",
      "outputs": [
        {
          "internalType": "bool",
          "name": "",
          "type": "bool"
        }
      ],
      "stateMutability": "view",
      "type": "function",
      "constant": true
    },
    {
      "inputs": [
        {
          "internalType": "uint256",
          "name": "",
          "type": "uint256"
        }
      ],
      "name": "uri",
      "outputs": [
        {
          "internalType": "string",
          "name": "",
          "type": "string"
        }
      ],
      "stateMutability": "view",
      "type": "function",
      "constant": true
    },
    {
      "inputs": [
        {
          "internalType": "uint256",
          "name": "amount",
          "type": "uint256"
        },
        {
          "internalType": "string",
          "name": "ipfsAddress",
          "type": "string"
        }
      ],
      "name": "mint",
      "outputs": [],
      "stateMutability": "nonpayable",
      "type": "function"
    },
    {
      "inputs": [
        {
          "internalType": "uint256",
          "name": "tokenId",
          "type": "uint256"
        }
      ],
      "name": "tokenURI",
      "outputs": [
        {
          "internalType": "string",
          "name": "",
          "type": "string"
        }
      ],
      "stateMutability": "view",
      "type": "function",
      "constant": true
    }
  ],
  "bytecode": "0x60806040523480156200001157600080fd5b506040805160208101909152600081526200002c8162000038565b506001600455620001bb565b6002620000468282620000ef565b5050565b634e487b7160e01b600052604160045260246000fd5b600181811c908216806200007557607f821691505b6020821081036200009657634e487b7160e01b600052602260045260246000fd5b50919050565b601f821115620000ea57600081815260208120601f850160051c81016020861015620000c55750805b601f850160051c820191505b81811015620000e657828155600101620000d1565b5050505b505050565b81516001600160401b038111156200010b576200010b6200004a565b62000123816200011c845462000060565b846200009c565b602080601f8311600181146200015b5760008415620001425750858301515b600019600386901b1c1916600185901b178555620000e6565b600085815260208120601f198616915b828110156200018c578886015182559484019460019091019084016200016b565b5085821015620001ab5787850151600019600388901b60f8161c191681555b5050505050600190811b01905550565b61169780620001cb6000396000f3fe608060405234801561001057600080fd5b506004361061009d5760003560e01c806377097fc81161006657806377097fc814610140578063a22cb46514610153578063c87b56dd14610166578063e985e9c514610179578063f242432a146101b557600080fd5b8062fdd58e146100a257806301ffc9a7146100c85780630e89341c146100eb5780632eb2c2d61461010b5780634e1273f414610120575b600080fd5b6100b56100b0366004610cf4565b6101c8565b6040519081526020015b60405180910390f35b6100db6100d6366004610d37565b610261565b60405190151581526020016100bf565b6100fe6100f9366004610d5b565b6102b1565b6040516100bf9190610dba565b61011e610119366004610f23565b610345565b005b61013361012e366004610fcd565b610391565b6040516100bf91906110d3565b61011e61014e3660046110e6565b6104bb565b61011e610161366004611137565b61050b565b6100fe610174366004610d5b565b61051a565b6100db610187366004611173565b6001600160a01b03918216600090815260016020908152604080832093909416825291909152205460ff1690565b61011e6101c33660046111a6565b610537565b60006001600160a01b0383166102385760405162461bcd60e51b815260206004820152602a60248201527f455243313135353a2061646472657373207a65726f206973206e6f742061207660448201526930b634b21037bbb732b960b11b60648201526084015b60405180910390fd5b506000818152602081815260408083206001600160a01b03861684529091529020545b92915050565b60006001600160e01b03198216636cdb3d1360e11b148061029257506001600160e01b031982166303a24d0760e21b145b8061025b57506301ffc9a760e01b6001600160e01b031983161461025b565b6060600280546102c09061120b565b80601f01602080910402602001604051908101604052809291908181526020018280546102ec9061120b565b80156103395780601f1061030e57610100808354040283529160200191610339565b820191906000526020600020905b81548152906001019060200180831161031c57829003601f168201915b50505050509050919050565b6001600160a01b03851633148061036157506103618533610187565b61037d5760405162461bcd60e51b815260040161022f90611245565b61038a858585858561057c565b5050505050565b606081518351146103f65760405162461bcd60e51b815260206004820152602960248201527f455243313135353a206163636f756e747320616e6420696473206c656e677468604482015268040dad2e6dac2e8c6d60bb1b606482015260840161022f565b6000835167ffffffffffffffff81111561041257610412610dcd565b60405190808252806020026020018201604052801561043b578160200160208202803683370190505b50905060005b84518110156104b35761048685828151811061045f5761045f611293565b602002602001015185838151811061047957610479611293565b60200260200101516101c8565b82828151811061049857610498611293565b60209081029190910101526104ac816112bf565b9050610441565b509392505050565b6004805490819060006104cd836112bf565b91905055506104ed33828560405180602001604052806000815250610759565b60008181526003602052604090206105058382611323565b50505050565b61051633838361086d565b5050565b60008181526003602052604090208054606091906102c09061120b565b6001600160a01b03851633148061055357506105538533610187565b61056f5760405162461bcd60e51b815260040161022f90611245565b61038a858585858561094d565b81518351146105de5760405162461bcd60e51b815260206004820152602860248201527f455243313135353a2069647320616e6420616d6f756e7473206c656e677468206044820152670dad2e6dac2e8c6d60c31b606482015260840161022f565b6001600160a01b0384166106045760405162461bcd60e51b815260040161022f906113e3565b3360005b84518110156106eb57600085828151811061062557610625611293565b60200260200101519050600085838151811061064357610643611293565b602090810291909101810151600084815280835260408082206001600160a01b038e1683529093529190912054909150818110156106935760405162461bcd60e51b815260040161022f90611428565b6000838152602081815260408083206001600160a01b038e8116855292528083208585039055908b168252812080548492906106d0908490611472565b92505081905550505050806106e4906112bf565b9050610608565b50846001600160a01b0316866001600160a01b0316826001600160a01b03167f4a39dc06d4c0dbc64b70af90fd698a233a518aa5d07e595d983b8c0526c8f7fb878760405161073b929190611485565b60405180910390a4610751818787878787610a77565b505050505050565b6001600160a01b0384166107b95760405162461bcd60e51b815260206004820152602160248201527f455243313135353a206d696e7420746f20746865207a65726f206164647265736044820152607360f81b606482015260840161022f565b3360006107c585610bd2565b905060006107d285610bd2565b90506000868152602081815260408083206001600160a01b038b16845290915281208054879290610804908490611472565b909155505060408051878152602081018790526001600160a01b03808a1692600092918716917fc3d58168c5ae7397731d063d5bbf3d657854427343f4c083240f7aacaa2d0f62910160405180910390a461086483600089898989610c1d565b50505050505050565b816001600160a01b0316836001600160a01b0316036108e05760405162461bcd60e51b815260206004820152602960248201527f455243313135353a2073657474696e6720617070726f76616c20737461747573604482015268103337b91039b2b63360b91b606482015260840161022f565b6001600160a01b03838116600081815260016020908152604080832094871680845294825291829020805460ff191686151590811790915591519182527f17307eab39ab6107e8899845ad3d59bd9653f200f220920489ca2b5937696c31910160405180910390a3505050565b6001600160a01b0384166109735760405162461bcd60e51b815260040161022f906113e3565b33600061097f85610bd2565b9050600061098c85610bd2565b90506000868152602081815260408083206001600160a01b038c168452909152902054858110156109cf5760405162461bcd60e51b815260040161022f90611428565b6000878152602081815260408083206001600160a01b038d8116855292528083208985039055908a16825281208054889290610a0c908490611472565b909155505060408051888152602081018890526001600160a01b03808b16928c821692918816917fc3d58168c5ae7397731d063d5bbf3d657854427343f4c083240f7aacaa2d0f62910160405180910390a4610a6c848a8a8a8a8a610c1d565b505050505050505050565b6001600160a01b0384163b156107515760405163bc197c8160e01b81526001600160a01b0385169063bc197c8190610abb90899089908890889088906004016114b3565b6020604051808303816000875af1925050508015610af6575060408051601f3d908101601f19168201909252610af391810190611511565b60015b610ba257610b0261152e565b806308c379a003610b3b5750610b1661154a565b80610b215750610b3d565b8060405162461bcd60e51b815260040161022f9190610dba565b505b60405162461bcd60e51b815260206004820152603460248201527f455243313135353a207472616e7366657220746f206e6f6e2d455243313135356044820152732932b1b2b4bb32b91034b6b83632b6b2b73a32b960611b606482015260840161022f565b6001600160e01b0319811663bc197c8160e01b146108645760405162461bcd60e51b815260040161022f906115d4565b60408051600180825281830190925260609160009190602080830190803683370190505090508281600081518110610c0c57610c0c611293565b602090810291909101015292915050565b6001600160a01b0384163b156107515760405163f23a6e6160e01b81526001600160a01b0385169063f23a6e6190610c61908990899088908890889060040161161c565b6020604051808303816000875af1925050508015610c9c575060408051601f3d908101601f19168201909252610c9991810190611511565b60015b610ca857610b0261152e565b6001600160e01b0319811663f23a6e6160e01b146108645760405162461bcd60e51b815260040161022f906115d4565b80356001600160a01b0381168114610cef57600080fd5b919050565b60008060408385031215610d0757600080fd5b610d1083610cd8565b946020939093013593505050565b6001600160e01b031981168114610d3457600080fd5b50565b600060208284031215610d4957600080fd5b8135610d5481610d1e565b9392505050565b600060208284031215610d6d57600080fd5b5035919050565b6000815180845260005b81811015610d9a57602081850181015186830182015201610d7e565b506000602082860101526020601f19601f83011685010191505092915050565b602081526000610d546020830184610d74565b634e487b7160e01b600052604160045260246000fd5b601f8201601f1916810167ffffffffffffffff81118282101715610e0957610e09610dcd565b6040525050565b600067ffffffffffffffff821115610e2a57610e2a610dcd565b5060051b60200190565b600082601f830112610e4557600080fd5b81356020610e5282610e10565b604051610e5f8282610de3565b83815260059390931b8501820192828101915086841115610e7f57600080fd5b8286015b84811015610e9a5780358352918301918301610e83565b509695505050505050565b600067ffffffffffffffff831115610ebf57610ebf610dcd565b604051610ed6601f8501601f191660200182610de3565b809150838152848484011115610eeb57600080fd5b83836020830137600060208583010152509392505050565b600082601f830112610f1457600080fd5b610d5483833560208501610ea5565b600080600080600060a08688031215610f3b57600080fd5b610f4486610cd8565b9450610f5260208701610cd8565b9350604086013567ffffffffffffffff80821115610f6f57600080fd5b610f7b89838a01610e34565b94506060880135915080821115610f9157600080fd5b610f9d89838a01610e34565b93506080880135915080821115610fb357600080fd5b50610fc088828901610f03565b9150509295509295909350565b60008060408385031215610fe057600080fd5b823567ffffffffffffffff80821115610ff857600080fd5b818501915085601f83011261100c57600080fd5b8135602061101982610e10565b6040516110268282610de3565b83815260059390931b850182019282810191508984111561104657600080fd5b948201945b8386101561106b5761105c86610cd8565b8252948201949082019061104b565b9650508601359250508082111561108157600080fd5b5061108e85828601610e34565b9150509250929050565b600081518084526020808501945080840160005b838110156110c8578151875295820195908201906001016110ac565b509495945050505050565b602081526000610d546020830184611098565b600080604083850312156110f957600080fd5b82359150602083013567ffffffffffffffff81111561111757600080fd5b8301601f8101851361112857600080fd5b61108e85823560208401610ea5565b6000806040838503121561114a57600080fd5b61115383610cd8565b91506020830135801515811461116857600080fd5b809150509250929050565b6000806040838503121561118657600080fd5b61118f83610cd8565b915061119d60208401610cd8565b90509250929050565b600080600080600060a086880312156111be57600080fd5b6111c786610cd8565b94506111d560208701610cd8565b93506040860135925060608601359150608086013567ffffffffffffffff8111156111ff57600080fd5b610fc088828901610f03565b600181811c9082168061121f57607f821691505b60208210810361123f57634e487b7160e01b600052602260045260246000fd5b50919050565b6020808252602e908201527f455243313135353a2063616c6c6572206973206e6f7420746f6b656e206f776e60408201526d195c881bdc88185c1c1c9bdd995960921b606082015260800190565b634e487b7160e01b600052603260045260246000fd5b634e487b7160e01b600052601160045260246000fd5b6000600182016112d1576112d16112a9565b5060010190565b601f82111561131e57600081815260208120601f850160051c810160208610156112ff5750805b601f850160051c820191505b818110156107515782815560010161130b565b505050565b815167ffffffffffffffff81111561133d5761133d610dcd565b6113518161134b845461120b565b846112d8565b602080601f831160018114611386576000841561136e5750858301515b600019600386901b1c1916600185901b178555610751565b600085815260208120601f198616915b828110156113b557888601518255948401946001909101908401611396565b50858210156113d35787850151600019600388901b60f8161c191681555b5050505050600190811b01905550565b60208082526025908201527f455243313135353a207472616e7366657220746f20746865207a65726f206164604082015264647265737360d81b606082015260800190565b6020808252602a908201527f455243313135353a20696e73756666696369656e742062616c616e636520666f60408201526939103a3930b739b332b960b11b606082015260800190565b8082018082111561025b5761025b6112a9565b6040815260006114986040830185611098565b82810360208401526114aa8185611098565b95945050505050565b6001600160a01b0386811682528516602082015260a0604082018190526000906114df90830186611098565b82810360608401526114f18186611098565b905082810360808401526115058185610d74565b98975050505050505050565b60006020828403121561152357600080fd5b8151610d5481610d1e565b600060033d11156115475760046000803e5060005160e01c5b90565b600060443d10156115585790565b6040516003193d81016004833e81513d67ffffffffffffffff816024840111818411171561158857505050505090565b82850191508151818111156115a05750505050505090565b843d87010160208285010111156115ba5750505050505090565b6115c960208286010187610de3565b509095945050505050565b60208082526028908201527f455243313135353a204552433131353552656365697665722072656a656374656040820152676420746f6b656e7360c01b606082015260800190565b6001600160a01b03868116825285166020820152604081018490526060810183905260a06080820181905260009061165690830184610d74565b97965050505050505056fea2646970667358221220b3653bfa64730ee76fb47b55c59a6d4e26ba6584608b8b0fa1ef3c5ff373f27d64736f6c63430008110033",
  "immutableReferences": {},
  "source": "// SPDX-License-Identifier: MIT\npragma solidity ^0.8.0;\n\nimport \"@openzeppelin/contracts/token/ERC1155/ERC1155.sol\";\n\n//fire: 0x5326DED133620013d1c4acF61E769ac1eaFb668b\n//minter: 0x3058F33E97a654B05743f054Ca8b61B98D6Ba88d\n//mintlock: 0x2aE30787d5A21096f68E9034B0E870b5432c7940\n//mintstorage: 0x3F22B1B1860ea9306f2d681C184E63A4eaB4AabA\n//bag logic: 0x25b5001e98cA3C686A938bCD709679394A3cA2e5\n//bag storage: 0x0872401Dd31017827D96AfeB1dBEeE6E05958222\n//kettle: 0x3937aB1ad44652e4D1Ef9eCda384c60415D4E436\n//operatorlogic: 0xfD55EA7cF475f3781B0132EAeCDb5a968e5e6CfA\n//operatorstorage: 0x5c137f8A3b4b6b16191e473dc80058D95A3d351a\n\n//0x2DE47d5E6Fcdc68e0044225F11B5eb1Bb461D1E1\n//[\"0x764BB22b7474741f360bE1Ce814fe02B7d73461A\",\"0x764BB22b7474741f360bE1Ce814fe02B7d73461A\",\"0x0000000000000000000000000000000000000000\",\"0x0000000000000000000000000000000000000000\",\"0x31f5215d9EbdA9BFCEB55DC5A7c2806f33a281d3\"]\ncontract mocknft is ERC1155 {\n\n    mapping(uint256 => string) private _ipfs;\n    uint256 private tokenIdCounter;\n\n    constructor() ERC1155(\"\") {\n        tokenIdCounter = 1;\n    }\n\n    function mint(uint256 amount, string memory ipfsAddress) external {\n        uint256 tokenId = tokenIdCounter;\n        tokenIdCounter++;\n\n        _mint(msg.sender, tokenId, amount, \"\");\n\n        _ipfs[tokenId] = ipfsAddress;\n    }\n\n    function tokenURI(uint256 tokenId) public view returns (string memory) {\n        return _ipfs[tokenId];\n    }\n}\n",
  "sourcePath": "/Users/jl1013/Documents/FUTURO/nftea/contracts/mocknftea.sol",
  "compiler": {
    "name": "solc",
    "version": "0.8.17+commit.8df45f5f.Emscripten.clang"
  },
  "schemaVersion": "3.4.13",
  "updatedAt": "2023-06-30T06:03:30.516Z",
  "networkType": "ethereum",
  "devdoc": {
    "kind": "dev",
    "methods": {
      "balanceOf(address,uint256)": {
        "details": "See {IERC1155-balanceOf}. Requirements: - `account` cannot be the zero address."
      },
      "balanceOfBatch(address[],uint256[])": {
        "details": "See {IERC1155-balanceOfBatch}. Requirements: - `accounts` and `ids` must have the same length."
      },
      "isApprovedForAll(address,address)": {
        "details": "See {IERC1155-isApprovedForAll}."
      },
      "safeBatchTransferFrom(address,address,uint256[],uint256[],bytes)": {
        "details": "See {IERC1155-safeBatchTransferFrom}."
      },
      "safeTransferFrom(address,address,uint256,uint256,bytes)": {
        "details": "See {IERC1155-safeTransferFrom}."
      },
      "setApprovalForAll(address,bool)": {
        "details": "See {IERC1155-setApprovalForAll}."
      },
      "supportsInterface(bytes4)": {
        "details": "See {IERC165-supportsInterface}."
      },
      "uri(uint256)": {
        "details": "See {IERC1155MetadataURI-uri}. This implementation returns the same URI for *all* token types. It relies on the token type ID substitution mechanism https://eips.ethereum.org/EIPS/eip-1155#metadata[defined in the EIP]. Clients calling this function must replace the `\\{id\\}` substring with the actual token type ID."
      }
    },
    "version": 1
  },
  "userdoc": {
    "kind": "user",
    "methods": {},
    "version": 1
  }
}