{
  "contractName": "operatorstorage",
  "abi": [
    {
      "inputs": [
        {
          "internalType": "address",
          "name": "fire_",
          "type": "address"
        }
      ],
      "stateMutability": "nonpayable",
      "type": "constructor"
    },
    {
      "inputs": [],
      "name": "_fire",
      "outputs": [
        {
          "internalType": "address",
          "name": "",
          "type": "address"
        }
      ],
      "stateMutability": "view",
      "type": "function",
      "constant": true
    },
    {
      "inputs": [
        {
          "internalType": "uint256",
          "name": "",
          "type": "uint256"
        },
        {
          "internalType": "uint256",
          "name": "",
          "type": "uint256"
        }
      ],
      "name": "_label2activeoperators",
      "outputs": [
        {
          "internalType": "address",
          "name": "",
          "type": "address"
        }
      ],
      "stateMutability": "view",
      "type": "function",
      "constant": true
    },
    {
      "inputs": [
        {
          "internalType": "uint256",
          "name": "",
          "type": "uint256"
        },
        {
          "internalType": "address",
          "name": "",
          "type": "address"
        }
      ],
      "name": "_label2activeoperatorsx",
      "outputs": [
        {
          "internalType": "uint256",
          "name": "",
          "type": "uint256"
        }
      ],
      "stateMutability": "view",
      "type": "function",
      "constant": true
    },
    {
      "inputs": [
        {
          "internalType": "uint256",
          "name": "",
          "type": "uint256"
        },
        {
          "internalType": "uint256",
          "name": "",
          "type": "uint256"
        }
      ],
      "name": "_label2operators",
      "outputs": [
        {
          "internalType": "address",
          "name": "",
          "type": "address"
        }
      ],
      "stateMutability": "view",
      "type": "function",
      "constant": true
    },
    {
      "inputs": [
        {
          "internalType": "uint256",
          "name": "",
          "type": "uint256"
        },
        {
          "internalType": "address",
          "name": "",
          "type": "address"
        }
      ],
      "name": "_label2operatorsx",
      "outputs": [
        {
          "internalType": "uint256",
          "name": "",
          "type": "uint256"
        }
      ],
      "stateMutability": "view",
      "type": "function",
      "constant": true
    },
    {
      "inputs": [
        {
          "internalType": "uint256",
          "name": "",
          "type": "uint256"
        }
      ],
      "name": "_label2ops",
      "outputs": [
        {
          "internalType": "uint256",
          "name": "",
          "type": "uint256"
        }
      ],
      "stateMutability": "view",
      "type": "function",
      "constant": true
    },
    {
      "inputs": [
        {
          "internalType": "uint256",
          "name": "",
          "type": "uint256"
        },
        {
          "internalType": "uint256",
          "name": "",
          "type": "uint256"
        }
      ],
      "name": "_license2label2wallet",
      "outputs": [
        {
          "internalType": "address",
          "name": "",
          "type": "address"
        }
      ],
      "stateMutability": "view",
      "type": "function",
      "constant": true
    },
    {
      "inputs": [
        {
          "internalType": "uint256",
          "name": "",
          "type": "uint256"
        },
        {
          "internalType": "address",
          "name": "",
          "type": "address"
        }
      ],
      "name": "_license2operator2label",
      "outputs": [
        {
          "internalType": "uint256",
          "name": "",
          "type": "uint256"
        }
      ],
      "stateMutability": "view",
      "type": "function",
      "constant": true
    },
    {
      "inputs": [
        {
          "internalType": "uint256",
          "name": "",
          "type": "uint256"
        }
      ],
      "name": "_op",
      "outputs": [
        {
          "internalType": "address",
          "name": "operator",
          "type": "address"
        },
        {
          "internalType": "address",
          "name": "wallet",
          "type": "address"
        },
        {
          "internalType": "uint256",
          "name": "label",
          "type": "uint256"
        },
        {
          "internalType": "uint256",
          "name": "license",
          "type": "uint256"
        },
        {
          "internalType": "uint256",
          "name": "expire",
          "type": "uint256"
        },
        {
          "internalType": "uint256",
          "name": "wdays",
          "type": "uint256"
        },
        {
          "internalType": "uint256",
          "name": "nextwithdraw",
          "type": "uint256"
        },
        {
          "internalType": "uint256",
          "name": "wamount1",
          "type": "uint256"
        },
        {
          "internalType": "uint256",
          "name": "wamount2",
          "type": "uint256"
        },
        {
          "internalType": "uint256",
          "name": "role",
          "type": "uint256"
        }
      ],
      "stateMutability": "view",
      "type": "function",
      "constant": true
    },
    {
      "inputs": [
        {
          "internalType": "address",
          "name": "",
          "type": "address"
        },
        {
          "internalType": "uint256",
          "name": "",
          "type": "uint256"
        }
      ],
      "name": "_operator2label2ops",
      "outputs": [
        {
          "internalType": "uint256",
          "name": "",
          "type": "uint256"
        }
      ],
      "stateMutability": "view",
      "type": "function",
      "constant": true
    },
    {
      "inputs": [
        {
          "internalType": "address",
          "name": "",
          "type": "address"
        },
        {
          "internalType": "uint256",
          "name": "",
          "type": "uint256"
        }
      ],
      "name": "_operator2ops",
      "outputs": [
        {
          "internalType": "uint256",
          "name": "",
          "type": "uint256"
        }
      ],
      "stateMutability": "view",
      "type": "function",
      "constant": true
    },
    {
      "inputs": [
        {
          "internalType": "address",
          "name": "",
          "type": "address"
        },
        {
          "internalType": "uint256",
          "name": "",
          "type": "uint256"
        }
      ],
      "name": "_operator2opsx",
      "outputs": [
        {
          "internalType": "uint256",
          "name": "",
          "type": "uint256"
        }
      ],
      "stateMutability": "view",
      "type": "function",
      "constant": true
    },
    {
      "inputs": [],
      "name": "_opid",
      "outputs": [
        {
          "internalType": "uint256",
          "name": "",
          "type": "uint256"
        }
      ],
      "stateMutability": "view",
      "type": "function",
      "constant": true
    },
    {
      "inputs": [
        {
          "internalType": "uint256",
          "name": "",
          "type": "uint256"
        }
      ],
      "name": "_opsx",
      "outputs": [
        {
          "internalType": "uint256",
          "name": "",
          "type": "uint256"
        }
      ],
      "stateMutability": "view",
      "type": "function",
      "constant": true
    },
    {
      "inputs": [
        {
          "internalType": "address",
          "name": "",
          "type": "address"
        },
        {
          "internalType": "uint256",
          "name": "",
          "type": "uint256"
        }
      ],
      "name": "_seller2label2marketplacelicense",
      "outputs": [
        {
          "internalType": "uint256",
          "name": "",
          "type": "uint256"
        }
      ],
      "stateMutability": "view",
      "type": "function",
      "constant": true
    },
    {
      "inputs": [],
      "name": "name",
      "outputs": [
        {
          "internalType": "string",
          "name": "",
          "type": "string"
        }
      ],
      "stateMutability": "view",
      "type": "function",
      "constant": true
    },
    {
      "inputs": [
        {
          "internalType": "uint256",
          "name": "labelnftea_",
          "type": "uint256"
        },
        {
          "internalType": "address",
          "name": "operator_",
          "type": "address"
        },
        {
          "internalType": "address",
          "name": "wallet_",
          "type": "address"
        },
        {
          "internalType": "uint256",
          "name": "license_",
          "type": "uint256"
        },
        {
          "internalType": "uint256",
          "name": "expire_",
          "type": "uint256"
        },
        {
          "internalType": "uint256",
          "name": "role_",
          "type": "uint256"
        }
      ],
      "name": "setoperator",
      "outputs": [
        {
          "internalType": "bool",
          "name": "",
          "type": "bool"
        }
      ],
      "stateMutability": "nonpayable",
      "type": "function"
    },
    {
      "inputs": [
        {
          "internalType": "uint256",
          "name": "opid_",
          "type": "uint256"
        },
        {
          "internalType": "uint256",
          "name": "nw",
          "type": "uint256"
        }
      ],
      "name": "setnW",
      "outputs": [
        {
          "internalType": "bool",
          "name": "",
          "type": "bool"
        }
      ],
      "stateMutability": "nonpayable",
      "type": "function"
    },
    {
      "inputs": [
        {
          "internalType": "uint256",
          "name": "labelnftea_",
          "type": "uint256"
        },
        {
          "internalType": "address",
          "name": "to_",
          "type": "address"
        }
      ],
      "name": "updateoperator",
      "outputs": [
        {
          "internalType": "bool",
          "name": "",
          "type": "bool"
        }
      ],
      "stateMutability": "nonpayable",
      "type": "function"
    },
    {
      "inputs": [
        {
          "internalType": "uint256[]",
          "name": "numbers_",
          "type": "uint256[]"
        },
        {
          "internalType": "address",
          "name": "operator_",
          "type": "address"
        },
        {
          "internalType": "uint256",
          "name": "nftea_",
          "type": "uint256"
        }
      ],
      "name": "setwithdrawsettings",
      "outputs": [
        {
          "internalType": "bool",
          "name": "",
          "type": "bool"
        }
      ],
      "stateMutability": "nonpayable",
      "type": "function"
    },
    {
      "inputs": [
        {
          "internalType": "uint256",
          "name": "license_",
          "type": "uint256"
        },
        {
          "internalType": "uint256",
          "name": "role_",
          "type": "uint256"
        },
        {
          "internalType": "address",
          "name": "operator_",
          "type": "address"
        }
      ],
      "name": "setrole",
      "outputs": [
        {
          "internalType": "bool",
          "name": "",
          "type": "bool"
        }
      ],
      "stateMutability": "nonpayable",
      "type": "function"
    },
    {
      "inputs": [
        {
          "internalType": "address",
          "name": "operator_",
          "type": "address"
        },
        {
          "internalType": "uint256",
          "name": "opid_",
          "type": "uint256"
        }
      ],
      "name": "removeoperator",
      "outputs": [
        {
          "internalType": "bool",
          "name": "",
          "type": "bool"
        }
      ],
      "stateMutability": "nonpayable",
      "type": "function"
    },
    {
      "inputs": [
        {
          "internalType": "uint256",
          "name": "nftea_",
          "type": "uint256"
        }
      ],
      "name": "getlabeloperators",
      "outputs": [
        {
          "internalType": "address[]",
          "name": "",
          "type": "address[]"
        },
        {
          "internalType": "uint256[]",
          "name": "",
          "type": "uint256[]"
        },
        {
          "internalType": "uint256[]",
          "name": "",
          "type": "uint256[]"
        },
        {
          "internalType": "uint256[]",
          "name": "",
          "type": "uint256[]"
        }
      ],
      "stateMutability": "view",
      "type": "function",
      "constant": true
    },
    {
      "inputs": [
        {
          "internalType": "address",
          "name": "operator_",
          "type": "address"
        },
        {
          "internalType": "uint256",
          "name": "label_",
          "type": "uint256"
        }
      ],
      "name": "getoperator",
      "outputs": [
        {
          "internalType": "uint256[4]",
          "name": "",
          "type": "uint256[4]"
        },
        {
          "internalType": "uint256[]",
          "name": "",
          "type": "uint256[]"
        },
        {
          "internalType": "uint256",
          "name": "",
          "type": "uint256"
        },
        {
          "internalType": "uint256",
          "name": "",
          "type": "uint256"
        },
        {
          "internalType": "uint256",
          "name": "",
          "type": "uint256"
        },
        {
          "internalType": "uint256",
          "name": "",
          "type": "uint256"
        },
        {
          "internalType": "address",
          "name": "",
          "type": "address"
        }
      ],
      "stateMutability": "view",
      "type": "function",
      "constant": true
    },
    {
      "inputs": [
        {
          "internalType": "uint256",
          "name": "opid_",
          "type": "uint256"
        }
      ],
      "name": "getwithdrawsetting",
      "outputs": [
        {
          "internalType": "uint256",
          "name": "",
          "type": "uint256"
        },
        {
          "internalType": "uint256",
          "name": "",
          "type": "uint256"
        },
        {
          "internalType": "uint256",
          "name": "",
          "type": "uint256"
        },
        {
          "internalType": "uint256",
          "name": "",
          "type": "uint256"
        },
        {
          "internalType": "uint256",
          "name": "",
          "type": "uint256"
        }
      ],
      "stateMutability": "view",
      "type": "function",
      "constant": true
    },
    {
      "inputs": [
        {
          "internalType": "uint256",
          "name": "license_",
          "type": "uint256"
        },
        {
          "internalType": "address",
          "name": "operator_",
          "type": "address"
        }
      ],
      "name": "getlicense2nftea2operate",
      "outputs": [
        {
          "internalType": "uint256",
          "name": "",
          "type": "uint256"
        },
        {
          "internalType": "address",
          "name": "",
          "type": "address"
        }
      ],
      "stateMutability": "view",
      "type": "function",
      "constant": true
    },
    {
      "inputs": [
        {
          "internalType": "uint256",
          "name": "opid_",
          "type": "uint256"
        }
      ],
      "name": "getop",
      "outputs": [
        {
          "components": [
            {
              "internalType": "address",
              "name": "operator",
              "type": "address"
            },
            {
              "internalType": "address",
              "name": "wallet",
              "type": "address"
            },
            {
              "internalType": "uint256",
              "name": "label",
              "type": "uint256"
            },
            {
              "internalType": "uint256",
              "name": "license",
              "type": "uint256"
            },
            {
              "internalType": "uint256",
              "name": "expire",
              "type": "uint256"
            },
            {
              "internalType": "uint256",
              "name": "wdays",
              "type": "uint256"
            },
            {
              "internalType": "uint256",
              "name": "nextwithdraw",
              "type": "uint256"
            },
            {
              "internalType": "uint256",
              "name": "wamount1",
              "type": "uint256"
            },
            {
              "internalType": "uint256",
              "name": "wamount2",
              "type": "uint256"
            },
            {
              "internalType": "uint256",
              "name": "role",
              "type": "uint256"
            }
          ],
          "internalType": "struct operatorstorage.OP",
          "name": "",
          "type": "tuple"
        }
      ],
      "stateMutability": "view",
      "type": "function",
      "constant": true
    },
    {
      "inputs": [
        {
          "internalType": "address",
          "name": "operator_",
          "type": "address"
        }
      ],
      "name": "getoperatorlicenses",
      "outputs": [
        {
          "internalType": "uint256[]",
          "name": "",
          "type": "uint256[]"
        }
      ],
      "stateMutability": "view",
      "type": "function",
      "constant": true
    },
    {
      "inputs": [
        {
          "internalType": "uint256",
          "name": "opid_",
          "type": "uint256"
        }
      ],
      "name": "getoperatorrole",
      "outputs": [
        {
          "internalType": "uint256",
          "name": "",
          "type": "uint256"
        }
      ],
      "stateMutability": "view",
      "type": "function",
      "constant": true
    },
    {
      "inputs": [
        {
          "internalType": "uint256",
          "name": "license_",
          "type": "uint256"
        },
        {
          "internalType": "address",
          "name": "operator_",
          "type": "address"
        }
      ],
      "name": "checksuperop",
      "outputs": [
        {
          "internalType": "address",
          "name": "",
          "type": "address"
        }
      ],
      "stateMutability": "view",
      "type": "function",
      "constant": true
    }
  ],
  "bytecode": "0x60c0604052601360809081527f4f50455241544f522053544f524147452056310000000000000000000000000060a052600d906200003e90826200013f565b503480156200004c57600080fd5b506040516200271f3803806200271f8339810160408190526200006f916200020b565b600f80546001600160a01b0319166001600160a01b03929092169190911790556000600e556200023d565b634e487b7160e01b600052604160045260246000fd5b600181811c90821680620000c557607f821691505b602082108103620000e657634e487b7160e01b600052602260045260246000fd5b50919050565b601f8211156200013a57600081815260208120601f850160051c81016020861015620001155750805b601f850160051c820191505b81811015620001365782815560010162000121565b5050505b505050565b81516001600160401b038111156200015b576200015b6200009a565b62000173816200016c8454620000b0565b84620000ec565b602080601f831160018114620001ab5760008415620001925750858301515b600019600386901b1c1916600185901b17855562000136565b600085815260208120601f198616915b82811015620001dc57888601518255948401946001909101908401620001bb565b5085821015620001fb5787850151600019600388901b60f8161c191681555b5050505050600190811b01905550565b6000602082840312156200021e57600080fd5b81516001600160a01b03811681146200023657600080fd5b9392505050565b6124d2806200024d6000396000f3fe608060405234801561001057600080fd5b50600436106101da5760003560e01c8063740be0b511610104578063972116dc116100a2578063df63cfa711610071578063df63cfa7146105ca578063df750033146105dd578063e764212f14610645578063f3ca9cae146106ae57600080fd5b8063972116dc146104a8578063a65f74ab14610569578063c82d2b161461057c578063dcb9df21146105a757600080fd5b80638a5388aa116100de5780638a5388aa146104125780638fe0a49e1461043257806390d3eeed1461045d57806394d75abd1461047d57600080fd5b8063740be0b5146103c15780637f57f0c6146103d457806389f5f00e146103e757600080fd5b806335d9e65d1161017c5780635cd4f0231161014b5780635cd4f023146103685780635ceb1d6e1461037b5780636fd513221461039b57806372ffc50a146103ae57600080fd5b806335d9e65d146102eb5780633658baa11461030e5780633a13c33f146103345780634a0f03c61461035f57600080fd5b80631b4a668a116101b85780631b4a668a146102825780631fd1325c146102a55780632d0d3640146102b8578063352a8b04146102d857600080fd5b806306fdde03146101df57806310f251e2146101fd578063110013f614610249575b600080fd5b6101e76106c1565b6040516101f49190611eeb565b60405180910390f35b61023161020b366004611f39565b600a6020908152600092835260408084209091529082529020546001600160a01b031681565b6040516001600160a01b0390911681526020016101f4565b610274610257366004611f83565b600860209081526000928352604080842090915290825290205481565b6040519081526020016101f4565b610295610290366004611fb3565b61074f565b60405190151581526020016101f4565b6102956102b336600461200f565b610b67565b6102746102c6366004612048565b600c6020526000908152604090205481565b6102316102e6366004611f39565b610c61565b6102746102f9366004612048565b60009081526020819052604090206009015490565b61032161031c366004612061565b610c99565b6040516101f497969594939291906120c8565b610274610342366004612061565b600460209081526000928352604080842090915290825290205481565b610274600e5481565b610231610376366004611f83565b610e6f565b61038e610389366004612048565b610ece565b6040516101f4919061213b565b6102956103a93660046121d8565b610fc4565b6102956103bc366004611f83565b6111cd565b6102956103cf366004612061565b611727565b6102316103e2366004611f39565b611978565b6102746103f5366004611f83565b600960209081526000928352604080842090915290825290205481565b6104256104203660046122b1565b611994565b6040516101f491906122d5565b610274610440366004612061565b600b60209081526000928352604080842090915290825290205481565b61027461046b366004612048565b60016020526000908152604090205481565b61027461048b366004612061565b600260209081526000928352604080842090915290825290205481565b6105146104b6366004612048565b60006020819052908152604090208054600182015460028301546003840154600485015460058601546006870154600788015460088901546009909901546001600160a01b039889169997909816979596949593949293919290918a565b604080516001600160a01b039b8c1681529a90991660208b0152978901969096526060880194909452608087019290925260a086015260c085015260e0840152610100830152610120820152610140016101f4565b610274610577366004612061565b611a00565b61027461058a366004611f83565b600660209081526000928352604080842090915290825290205481565b6105ba6105b5366004612048565b611a31565b6040516101f494939291906122e8565b6102956105d8366004611f39565b611d88565b61061d6105eb366004612048565b600090815260208190526040902060058101546006820154600483015460078401546008909401549294919390929091565b604080519586526020860194909452928401919091526060830152608082015260a0016101f4565b610691610653366004611f83565b60008281526009602090815260408083206001600160a01b039485168452825280832054948352600a82528083208584529091529020549192911690565b604080519283526001600160a01b039091166020830152016101f4565b600f54610231906001600160a01b031681565b600d80546106ce90612372565b80601f01602080910402602001604051908101604052809291908181526020018280546106fa90612372565b80156107475780601f1061071c57610100808354040283529160200191610747565b820191906000526020600020905b81548152906001019060200180831161072a57829003601f168201915b505050505081565b600f54604051630568e17d60e11b815233600482015260009182916001600160a01b0390911690630ad1c2fa906024016020604051808303816000875af115801561079e573d6000803e3d6000fd5b505050506040513d601f19601f820116820180604052508101906107c291906123ac565b9050806108165760405162461bcd60e51b815260206004820152601e60248201527f6e6f7420616e2061646d696e206f70657261746f7273746f726167652031000060448201526064015b60405180910390fd5b83156108365761082984620151806123e4565b61083390426123fb565b93505b6001600e600082825461084991906123fb565b925050819055506000604051806101400160405280896001600160a01b03168152602001886001600160a01b031681526020018a81526020018781526020018681526020016000815260200160008152602001600081526020016000815260200185815250905080600080600e54815260200190815260200160002060008201518160000160006101000a8154816001600160a01b0302191690836001600160a01b0316021790555060208201518160010160006101000a8154816001600160a01b0302191690836001600160a01b0316021790555060408201518160020155606082015181600301556080820151816004015560a0820151816005015560c0820151816006015560e082015181600701556101008201518160080155610120820151816009015590505060036000896001600160a01b03166001600160a01b03168152602001908152602001600020600e5490806001815401808255809150506001900390600052602060002001600090919091909150556001600360008a6001600160a01b03166001600160a01b03168152602001908152602001600020805490506109f7919061240e565b6001600160a01b0389166000818152600460209081526040808320600e80548552908352818420959095559354838352600282528483208e8452825284832055600581529281208054600181810183558284529483200180546001600160a01b0319169093179092558b905254610a6e919061240e565b60008a81526006602090815260408083206001600160a01b038d16808552908352818420949094558c83526007825282208054600181810183558285529284200180546001600160a01b031916909417909355908b90529054610ad1919061240e565b60008a81526008602090815260408083206001600160a01b038d8116808652918452828520959095558a84526009835281842090845282528083208d9055898352600a82528083208d8452825280832080546001600160a01b031916948c1694909417909355600c9052908120549003610b5857600e5460008a8152600c60205260409020555b50600198975050505050505050565b600f54604051630568e17d60e11b815233600482015260009182916001600160a01b0390911690630ad1c2fa906024016020604051808303816000875af1158015610bb6573d6000803e3d6000fd5b505050506040513d601f19601f82011682018060405250810190610bda91906123ac565b905080610c295760405162461bcd60e51b815260206004820152601760248201527f6e6f7420616e6765746f70657261746f722061646d696e000000000000000000604482015260640161080d565b50506001600160a01b031660009081526002602090815260408083209483529381528382205482528190529190912060090155600190565b60056020528160005260406000208181548110610c7d57600080fd5b6000918252602090912001546001600160a01b03169150829050565b610ca1611e53565b6001600160a01b03831660009081526002602090815260408083208584529091528120546060919081908190819081906001811015610d1257506001600160a01b03891660008181526002602090815260408083208c84526009835281842094845293825280832054835292905220545b60008115610d3b57506000818152602081905260409020600101546001600160a01b0316610d40565b600091505b610d48611e53565b600083815260208190526040812060050154908290602090810291909101919091526000848152908190526040902060060154816001602090810291909101919091526000848152908190526040902060070154816002602090810291909101919091526000848152908190526040902060080154816003602090810291909101919091526001600160a01b038d1660009081526003808352604080832087845283855292819020600481015460028201549190930154845483518188028101880190945280845287968a95948a929091889190830182828015610e4b57602002820191906000526020600020905b815481526020019060010190808311610e37575b50505050509550995099509950995099509950995050505092959891949750929550565b60008281526009602090815260408083206001600160a01b038516845282528083205460028352818420818552909252822054828115610ec357506000818152602081905260409020546001600160a01b03165b925050505b92915050565b610f3660405180610140016040528060006001600160a01b0316815260200160006001600160a01b0316815260200160008152602001600081526020016000815260200160008152602001600081526020016000815260200160008152602001600081525090565b506000908152602081815260409182902082516101408101845281546001600160a01b039081168252600183015416928101929092526002810154928201929092526003820154606082015260048201546080820152600582015460a0820152600682015460c0820152600782015460e0820152600882015461010082015260099091015461012082015290565b600f54604051630568e17d60e11b815233600482015260009182916001600160a01b0390911690630ad1c2fa906024016020604051808303816000875af1158015611013573d6000803e3d6000fd5b505050506040513d601f19601f8201168201806040525081019061103791906123ac565b9050806110865760405162461bcd60e51b815260206004820152601e60248201527f6e6f7420616e2061646d696e206f70657261746f7273746f7261676520330000604482015260640161080d565b6001600160a01b03841660009081526002602081815260408084208785529091529091205486519091879181106110bf576110bf612421565b602002602001015160008083815260200190815260200160002060050181905550856003815181106110f3576110f3612421565b6020026020010151600080838152602001908152602001600020600601819055508560018151811061112757611127612421565b6020026020010151600080838152602001908152602001600020600701819055508560008151811061115b5761115b612421565b6020026020010151600080838152602001908152602001600020600801819055508560048151811061118f5761118f612421565b6020026020010151426111a291906123e4565b6111af90620151806123fb565b60009182526020829052604090912060040155506001949350505050565b600f54604051630568e17d60e11b815233600482015260009182916001600160a01b0390911690630ad1c2fa906024016020604051808303816000875af115801561121c573d6000803e3d6000fd5b505050506040513d601f19601f8201168201806040525081019061124091906123ac565b9050806113a257600f54604051636881aedd60e01b815260206004820152600c60248201526b1b5a5b9d18dbdb9d1c9858dd60a21b60448201526000916001600160a01b031690636881aedd90606401602060405180830381865afa1580156112ad573d6000803e3d6000fd5b505050506040513d601f19601f820116820180604052508101906112d19190612437565b604051627eeac760e11b8152336004820152602481018790529091506000906001600160a01b0383169062fdd58e906044016020604051808303816000875af1158015611322573d6000803e3d6000fd5b505050506040513d601f19601f820116820180604052508101906113469190612454565b9050806001146113985760405162461bcd60e51b815260206004820152601960248201527f796f7520646f206e6f74206f776e2074686973206e6674656100000000000000604482015260640161080d565b33945050506113ef565b806113ef5760405162461bcd60e51b815260206004820152601e60248201527f6e6f7420616e2061646d696e206f70657261746f7273746f7261676520320000604482015260640161080d565b6000848152600c6020526040902054801561171c57600081815260208181526040808320546001600160a01b0316808452600390925290912080546114369060019061240e565b8154811061144657611446612421565b60009182526020808320909101546001600160a01b038416835260038252604080842060048452818520878652909352909220548154811061148a5761148a612421565b60009182526020808320909101929092556001600160a01b03831681526003909152604090208054806114bf576114bf61246d565b60019003818190600052602060002001600090559055600067ffffffffffffffff8111156114ef576114ef6121c2565b604051908082528060200260200182016040528015611518578160200160208202803683370190505b506000878152600560209081526040909120825161153c9391929190910190611e71565b5060408051600080825260208083018085528a8352600790915292902090516115659290611e71565b5060008681526008602090815260408083206001600160a01b03808616808652918452828520859055868552848452828520600390810154865260098552838620928652918452828520859055891680855290835290832080546001818101835582865293852001869055925290546115de919061240e565b6001600160a01b0386166000818152600460209081526040808320878452825280832094909455828252600281528382208a83528152838220869055600581529281208054600181810183558284529483200180546001600160a01b03191690931790925588905254611651919061240e565b60008781526006602090815260408083206001600160a01b038a16808552908352818420949094558983526007825282208054600181810183558285529284200180546001600160a01b0319169094179093559088905290546116b4919061240e565b60008781526008602090815260408083206001600160a01b038a16808552908352818420949094558983526009825280832084845282528083208a905585835290829052812060038101899055600481019190915580546001600160a01b0319169091179055505b506001949350505050565b600f54604051630568e17d60e11b815233600482015260009182916001600160a01b0390911690630ad1c2fa906024016020604051808303816000875af1158015611776573d6000803e3d6000fd5b505050506040513d601f19601f8201168201806040525081019061179a91906123ac565b9050806117e95760405162461bcd60e51b815260206004820152601e60248201527f6e6f7420616e2061646d696e206f70657261746f7273746f7261676520340000604482015260640161080d565b600e546000908152602081815260408083206002810154600391820154808652600985528386206001600160a01b038b16875285528386208690559190935292205490919061183a9060019061240e565b6001600160a01b0387166000908152600360209081526040808320600483528184208a8552909252909120548154811061187657611876612421565b60009182526020808320909101929092556001600160a01b03881681526003909152604090208054806118ab576118ab61246d565b6000828152602080822083016000199081018390559092019092556001600160a01b0388168252600281526040808320858452825280832083905560079091529020546118fa9060019061240e565b60008381526008602090815260408083206001600160a01b038b16845282528083209390935584825260079052208054806119375761193761246d565b60008281526020808220830160001990810180546001600160a01b031916905590920190925586825281905260408120600201555060019250505092915050565b60076020528160005260406000208181548110610c7d57600080fd5b6001600160a01b0381166000908152600360209081526040918290208054835181840281018401909452808452606093928301828280156119f457602002820191906000526020600020905b8154815260200190600101908083116119e0575b50505050509050919050565b60036020528160005260406000208181548110611a1c57600080fd5b90600052602060002001600091509150505481565b60008181526005602052604081205460609182918291829167ffffffffffffffff811115611a6157611a616121c2565b604051908082528060200260200182016040528015611a8a578160200160208202803683370190505b506000878152600560205260408120549192509067ffffffffffffffff811115611ab657611ab66121c2565b604051908082528060200260200182016040528015611adf578160200160208202803683370190505b506000888152600560205260408120549192509067ffffffffffffffff811115611b0b57611b0b6121c2565b604051908082528060200260200182016040528015611b34578160200160208202803683370190505b50905060005b600089815260056020526040902054811015611d035760008060026000600560008e81526020019081526020016000208581548110611b7b57611b7b612421565b60009182526020808320909101546001600160a01b0316835282810193909352604091820181208e825283528181205484529183019390935291019020600301548451859083908110611bd057611bd0612421565b60200260200101818152505060008060026000600560008e81526020019081526020016000208581548110611c0757611c07612421565b60009182526020808320909101546001600160a01b0316835282810193909352604091820181208e825283528181205484529183019390935291019020600401548351849083908110611c5c57611c5c612421565b60200260200101818152505060008060026000600560008e81526020019081526020016000208581548110611c9357611c93612421565b60009182526020808320909101546001600160a01b0316835282810193909352604091820181208e825283528181205484529183019390935291019020600901548251839083908110611ce857611ce8612421565b6020908102919091010152611cfc81612483565b9050611b3a565b506005600089815260200190815260200160002083838383805480602002602001604051908101604052809291908181526020018280548015611d6f57602002820191906000526020600020905b81546001600160a01b03168152600190910190602001808311611d51575b5050505050935096509650965096505050509193509193565b600f54604051630568e17d60e11b815233600482015260009182916001600160a01b0390911690630ad1c2fa906024016020604051808303816000875af1158015611dd7573d6000803e3d6000fd5b505050506040513d601f19601f82011682018060405250810190611dfb91906123ac565b905080611e395760405162461bcd60e51b815260206004820152600c60248201526b1b9bdd08185c1c1c9bdd995960a21b604482015260640161080d565b505060009182526020829052604090912060060155600190565b60405180608001604052806004906020820280368337509192915050565b828054828255906000526020600020908101928215611ec6579160200282015b82811115611ec657825182546001600160a01b0319166001600160a01b03909116178255602090920191600190910190611e91565b50611ed2929150611ed6565b5090565b5b80821115611ed25760008155600101611ed7565b600060208083528351808285015260005b81811015611f1857858101830151858201604001528201611efc565b506000604082860101526040601f19601f8301168501019250505092915050565b60008060408385031215611f4c57600080fd5b50508035926020909101359150565b6001600160a01b0381168114611f7057600080fd5b50565b8035611f7e81611f5b565b919050565b60008060408385031215611f9657600080fd5b823591506020830135611fa881611f5b565b809150509250929050565b60008060008060008060c08789031215611fcc57600080fd5b863595506020870135611fde81611f5b565b94506040870135611fee81611f5b565b959894975094956060810135955060808101359460a0909101359350915050565b60008060006060848603121561202457600080fd5b8335925060208401359150604084013561203d81611f5b565b809150509250925092565b60006020828403121561205a57600080fd5b5035919050565b6000806040838503121561207457600080fd5b823561207f81611f5b565b946020939093013593505050565b600081518084526020808501945080840160005b838110156120bd578151875295820195908201906001016120a1565b509495945050505050565b6000610140828a835b60048110156120f05781518352602092830192909101906001016120d1565b5050508060808401526121058184018a61208d565b60a0840198909852505060c081019490945260e08401929092526101008301526001600160a01b03166101209091015292915050565b81516001600160a01b031681526101408101602083015161216760208401826001600160a01b03169052565b5060408301516040830152606083015160608301526080830151608083015260a083015160a083015260c083015160c083015260e083015160e083015261010080840151818401525061012080840151818401525092915050565b634e487b7160e01b600052604160045260246000fd5b6000806000606084860312156121ed57600080fd5b833567ffffffffffffffff8082111561220557600080fd5b818601915086601f83011261221957600080fd5b813560208282111561222d5761222d6121c2565b8160051b604051601f19603f83011681018181108682111715612252576122526121c2565b60405292835281830193508481018201928a84111561227057600080fd5b948201945b8386101561228e57853585529482019493820193612275565b975061229d9050888201611f73565b955050505050604084013590509250925092565b6000602082840312156122c357600080fd5b81356122ce81611f5b565b9392505050565b6020815260006122ce602083018461208d565b6080808252855190820181905260009060209060a0840190828901845b8281101561232a5781516001600160a01b031684529284019290840190600101612305565b5050508381038285015261233e818861208d565b9150508281036040840152612353818661208d565b90508281036060840152612367818561208d565b979650505050505050565b600181811c9082168061238657607f821691505b6020821081036123a657634e487b7160e01b600052602260045260246000fd5b50919050565b6000602082840312156123be57600080fd5b815180151581146122ce57600080fd5b634e487b7160e01b600052601160045260246000fd5b8082028115828204841417610ec857610ec86123ce565b80820180821115610ec857610ec86123ce565b81810381811115610ec857610ec86123ce565b634e487b7160e01b600052603260045260246000fd5b60006020828403121561244957600080fd5b81516122ce81611f5b565b60006020828403121561246657600080fd5b5051919050565b634e487b7160e01b600052603160045260246000fd5b600060018201612495576124956123ce565b506001019056fea2646970667358221220e2b08c014835419b1a9d5873226c180afe887ed575cd20aafa02e0e4c4e73de764736f6c63430008110033",
  "immutableReferences": {},
  "source": "// File: contracts/operatorstorage.sol\n\n// SPDX-License-Identifier: MIT\npragma solidity ^0.8.4;\ninterface i1155 {\n    function gflame(string memory flame_) external pure returns(address);\n    function getContract(address contract_) external returns(bool);\n    function getoperator(address operator_, uint256 license_) external pure returns(uint256[4] memory,uint256[] memory,uint256,uint256,uint256,address);\n    function fire(address caller_) external pure returns(uint256[] memory,uint256[] memory,uint256,bool,bool,uint256);\n    function removeoperator(address operator_, uint256 opid_) external returns(bool);\n    function balanceOf(address holder, uint256 nftea_) external returns(uint256);\n}\n\ncontract operatorstorage {\n\n    struct OP{\n        address operator;\n        address wallet;\n        uint256 label;\n        uint256 license;\n        uint256 expire;\n        uint256 wdays;\n        uint256 nextwithdraw;\n        uint256 wamount1;\n        uint256 wamount2;\n        uint256 role;\n    }\n    mapping(uint256=>OP) public _op;\n    mapping(uint256=>uint256) public _opsx;\n    mapping(address=>mapping(uint256=>uint256)) public _operator2label2ops;\n    mapping(address=>uint256[]) public _operator2ops;\n    mapping(address=>mapping(uint256=>uint256)) public _operator2opsx;\n    mapping(uint256=>address[]) public _label2operators;\n    mapping(uint256=>mapping(address=>uint256)) public _label2operatorsx;\n    mapping(uint256=>address[]) public _label2activeoperators;\n    mapping(uint256=>mapping(address=>uint256)) public _label2activeoperatorsx;\n    mapping(uint256=>mapping(address=>uint256)) public _license2operator2label;\n    mapping(uint256=>mapping(uint256=>address)) public _license2label2wallet;\n    mapping(address=>mapping(uint256=>uint256)) public _seller2label2marketplacelicense;\n    mapping(uint256=>uint256) public _label2ops;\n    string public name = \"OPERATOR STORAGE V1\";\n    uint256 public _opid;\n    address public _fire;\n\n    constructor(address fire_){\n        _fire = fire_;\n        _opid = 0;\n    }\n\nfunction setoperator(uint256 labelnftea_, address operator_, address wallet_, uint256 license_,uint256 expire_, uint256 role_) external returns(bool){\n\n        (bool success) = i1155(_fire).getContract(msg.sender);\n        require(success, 'not an admin operatorstorage 1');\n        if(expire_>0){\n            expire_ = block.timestamp + expire_* 24 hours;\n        }\n        _opid += 1;\n        OP memory save_  = OP({\n            operator: operator_,\n            wallet: wallet_,\n            label: labelnftea_,\n            license: license_,\n            expire: expire_,\n            wdays:0,\n            nextwithdraw:0,\n            wamount1:0,\n            wamount2:0,\n            role: role_\n        });\n        _op[_opid] = save_;\n        _operator2ops[operator_].push(_opid);\n        _operator2opsx[operator_][_opid] = _operator2ops[operator_].length - 1;\n        _operator2label2ops[operator_][labelnftea_]= _opid;\n        _label2operators[labelnftea_].push(operator_);\n        _label2operatorsx[labelnftea_][operator_] = _label2operators[labelnftea_].length - 1;\n\n        _label2activeoperators[labelnftea_].push(operator_);\n        _label2activeoperatorsx[labelnftea_][operator_] = _label2activeoperators[labelnftea_].length - 1;\n\n        _license2operator2label[license_][operator_] = labelnftea_;\n        _license2label2wallet[license_][labelnftea_] = wallet_;\n        if(_label2ops[labelnftea_]==0){\n          _label2ops[labelnftea_] = _opid;\n        }\n        return true;\n    }\n    function setnW(uint256 opid_, uint256 nw) external returns(bool){\n      (bool success) = i1155(_fire).getContract(msg.sender);\n      require(success, 'not approved');\n      _op[opid_].nextwithdraw = nw;\n      return true;\n    }\n    function updateoperator(uint256 labelnftea_, address to_) external returns(bool){\n      (bool success) = i1155(_fire).getContract(msg.sender);\n      if(!success){\n        (address flame_) = i1155(_fire).gflame('mintcontract');\n        uint256 balance = i1155(flame_).balanceOf(msg.sender,labelnftea_);\n        require(balance==1, 'you do not own this nftea');\n        to_ = msg.sender;\n      }else{\n        require(success, 'not an admin operatorstorage 2');\n      }\n      //remove previous operator\n      uint256 _operatorid = _label2ops[labelnftea_];\n      if(_operatorid>0){\n        address from_ = _op[_operatorid].operator;\n        _operator2ops[from_][_operator2opsx[from_][_operatorid]] = _operator2ops[from_][_operator2ops[from_].length -1];\n        _operator2ops[from_].pop();\n        _label2operators[labelnftea_] = new address[](0);\n        _label2activeoperators[labelnftea_] = new address[](0);\n        _label2activeoperatorsx[labelnftea_][from_] = 0;\n        _license2operator2label[_op[_operatorid].license][from_] = 0;\n\n        //add new operator\n        _operator2ops[to_].push(_operatorid);\n        _operator2opsx[to_][_operatorid] = _operator2ops[to_].length - 1;\n        _operator2label2ops[to_][labelnftea_]= _operatorid;\n        _label2operators[labelnftea_].push(to_);\n        _label2operatorsx[labelnftea_][to_] = _label2operators[labelnftea_].length - 1;\n        _label2activeoperators[labelnftea_].push(to_);\n        _label2activeoperatorsx[labelnftea_][to_] = _label2activeoperators[labelnftea_].length - 1;\n        _license2operator2label[labelnftea_][to_] = labelnftea_;\n        _op[_operatorid].license = labelnftea_;\n        _op[_operatorid].expire = 0;\n        _op[_operatorid].operator = to_;\n      }\n      return true;\n    }\n    function setwithdrawsettings( uint256[] memory numbers_, address operator_,uint256 nftea_) external returns(bool){\n        ///reset all settings if needed\n        (bool success) = i1155(_fire).getContract(msg.sender);\n        require(success, 'not an admin operatorstorage 3');\n        ///validate super operator\n        uint256 opid_ = _operator2label2ops[operator_][nftea_];\n        _op[opid_].wdays = numbers_[2];\n        _op[opid_].nextwithdraw = numbers_[3];\n        _op[opid_].wamount1 = numbers_[1];\n        _op[opid_].wamount2 = numbers_[0];\n        _op[opid_].expire = block.timestamp * numbers_[4] + 24 hours; /// license expire in days\n        return true;\n    }\n    function setrole(uint256 license_, uint256 role_, address operator_) external returns(bool){\n\n        (bool success) = i1155(_fire).getContract(msg.sender);\n        require(success, 'not angetoperator admin');\n\n        uint256 opid_ = _operator2label2ops[operator_][license_];\n        _op[opid_].role = role_;\n        return true;\n\n    }\n\n    function removeoperator(address operator_, uint256 opid_) external returns(bool){\n\n        (bool success) = i1155(_fire).getContract(msg.sender);\n        require(success, 'not an admin operatorstorage 4');\n        uint256 label_ = _op[_opid].label;\n        uint256 license_ = _op[_opid].license;\n\n        _license2operator2label[license_][operator_] = 0;\n        _operator2ops[operator_][_operator2opsx[operator_][opid_]] = _operator2ops[operator_].length - 1;\n        _operator2ops[operator_].pop();\n        _operator2label2ops[operator_][label_] = 0;\n        _label2activeoperatorsx[label_][operator_] = _label2activeoperators[label_].length - 1;\n        _label2activeoperators[label_].pop();\n        _op[opid_].label = 0;\n        return true;\n    }\n    function getlabeloperators(uint256 nftea_) public view returns(address[] memory, uint256[] memory, uint256[] memory,uint256[] memory){\n\n      uint256[] memory license = new uint256[](_label2operators[nftea_].length);\n      uint256[] memory expire = new uint256[](_label2operators[nftea_].length);\n      uint256[] memory role = new uint256[](_label2operators[nftea_].length);\n\n      for (uint256 i = 0; i < _label2operators[nftea_].length; ++i) {\n        license[i] = _op[_operator2label2ops[_label2operators[nftea_][i]][nftea_]].license;\n        expire[i] = _op[_operator2label2ops[_label2operators[nftea_][i]][nftea_]].expire;\n        role[i] = _op[_operator2label2ops[_label2operators[nftea_][i]][nftea_]].role;\n      }\n\n        return (_label2operators[nftea_], license, expire, role);\n    }\n    function getoperator(address operator_, uint256 label_) public view returns(uint256[4] memory,uint256[] memory,uint256,uint256,uint256,uint256,address){\n\n        uint256 opid_ = _operator2label2ops[operator_][label_];\n        if(opid_<1){\n          opid_ = _operator2label2ops[operator_][_license2operator2label[label_][operator_]];\n        }\n        address wallet_ = address(0);\n        if(opid_>0){\n            wallet_ = _op[opid_].wallet;\n        }else{\n            opid_= 0;\n        }\n        uint256[4] memory wsettings_;\n        wsettings_[0] =_op[opid_].wdays;\n        wsettings_[1] =_op[opid_].nextwithdraw;\n        wsettings_[2] =_op[opid_].wamount1;\n        wsettings_[3] =_op[opid_].wamount2;\n        return(wsettings_,_operator2ops[operator_], opid_,_op[opid_].expire,_op[opid_].label,_op[opid_].license,wallet_);\n    }\n\n    function getwithdrawsetting(uint256 opid_) external view returns(uint256,uint256,uint256,uint256,uint256){\n\n        return(_op[opid_].wdays, _op[opid_].nextwithdraw, _op[opid_].expire,_op[opid_].wamount1,_op[opid_].wamount2);\n    }\n    function getlicense2nftea2operate(uint256 license_,address operator_) public view returns(uint256, address){\n\n        return (_license2operator2label[license_][operator_], _license2label2wallet[license_][_license2operator2label[license_][operator_]]);\n    }\n    function getop(uint256 opid_) public view returns(OP memory){\n\n        return _op[opid_];\n    }\n    function getoperatorlicenses(address operator_) public view returns(uint256[] memory){\n\n        return _operator2ops[operator_];\n    }\n    function getoperatorrole(uint256 opid_) public view returns(uint256){\n        return _op[opid_].role;\n    }\n    function checksuperop(uint256 license_, address operator_) public view returns(address){\n        uint256 label_ = _license2operator2label[license_][operator_];\n        uint256 opid_ = _operator2label2ops[operator_][label_];\n        address operator = address(0);\n        if(opid_>0){\n          operator = _op[opid_].operator;\n        }\n        return operator;\n    }\n}\n",
  "sourcePath": "/Users/jl1013/Documents/FUTURO/nftea/contracts/operatorstorage.sol",
  "compiler": {
    "name": "solc",
    "version": "0.8.17+commit.8df45f5f.Emscripten.clang"
  },
  "schemaVersion": "3.4.13",
  "updatedAt": "2023-06-30T06:03:30.366Z",
  "networkType": "ethereum",
  "devdoc": {
    "kind": "dev",
    "methods": {},
    "version": 1
  },
  "userdoc": {
    "kind": "user",
    "methods": {},
    "version": 1
  }
}