{
  "contractName": "operatorlogic",
  "abi": [
    {
      "inputs": [
        {
          "internalType": "address",
          "name": "fire_",
          "type": "address"
        }
      ],
      "stateMutability": "nonpayable",
      "type": "constructor"
    },
    {
      "inputs": [],
      "name": "_fire",
      "outputs": [
        {
          "internalType": "address",
          "name": "",
          "type": "address"
        }
      ],
      "stateMutability": "view",
      "type": "function",
      "constant": true
    },
    {
      "inputs": [],
      "name": "name",
      "outputs": [
        {
          "internalType": "string",
          "name": "",
          "type": "string"
        }
      ],
      "stateMutability": "view",
      "type": "function",
      "constant": true
    },
    {
      "inputs": [
        {
          "internalType": "uint256",
          "name": "labelnftea_",
          "type": "uint256"
        },
        {
          "internalType": "address",
          "name": "operator_",
          "type": "address"
        },
        {
          "internalType": "address",
          "name": "wallet_",
          "type": "address"
        },
        {
          "internalType": "uint256",
          "name": "license_",
          "type": "uint256"
        },
        {
          "internalType": "uint256",
          "name": "expire_",
          "type": "uint256"
        },
        {
          "internalType": "uint256",
          "name": "role_",
          "type": "uint256"
        }
      ],
      "name": "setoperator",
      "outputs": [],
      "stateMutability": "nonpayable",
      "type": "function"
    },
    {
      "inputs": [
        {
          "internalType": "uint256[]",
          "name": "numbers_",
          "type": "uint256[]"
        },
        {
          "internalType": "address",
          "name": "operator_",
          "type": "address"
        },
        {
          "internalType": "uint256",
          "name": "nftea_",
          "type": "uint256"
        }
      ],
      "name": "setwithdrawsettings",
      "outputs": [],
      "stateMutability": "nonpayable",
      "type": "function"
    },
    {
      "inputs": [
        {
          "internalType": "uint256",
          "name": "license_",
          "type": "uint256"
        },
        {
          "internalType": "address",
          "name": "wallet_",
          "type": "address"
        },
        {
          "internalType": "address",
          "name": "operator_",
          "type": "address"
        },
        {
          "internalType": "address",
          "name": "token_",
          "type": "address"
        },
        {
          "internalType": "uint256",
          "name": "limit_",
          "type": "uint256"
        }
      ],
      "name": "setWithdrawTokenLimit",
      "outputs": [],
      "stateMutability": "nonpayable",
      "type": "function"
    },
    {
      "inputs": [
        {
          "internalType": "uint256",
          "name": "license_",
          "type": "uint256"
        },
        {
          "internalType": "address",
          "name": "wallet_",
          "type": "address"
        },
        {
          "internalType": "address",
          "name": "operator_",
          "type": "address"
        },
        {
          "internalType": "address",
          "name": "nftcontract_",
          "type": "address"
        },
        {
          "internalType": "uint256",
          "name": "nftid_",
          "type": "uint256"
        },
        {
          "internalType": "uint256",
          "name": "limit_",
          "type": "uint256"
        }
      ],
      "name": "setWithdrawNFTLimit",
      "outputs": [],
      "stateMutability": "nonpayable",
      "type": "function"
    },
    {
      "inputs": [
        {
          "internalType": "uint256",
          "name": "nftea2operate_",
          "type": "uint256"
        },
        {
          "internalType": "uint256",
          "name": "role_",
          "type": "uint256"
        },
        {
          "internalType": "uint256",
          "name": "license_",
          "type": "uint256"
        },
        {
          "internalType": "address",
          "name": "operator_",
          "type": "address"
        }
      ],
      "name": "setrole",
      "outputs": [],
      "stateMutability": "nonpayable",
      "type": "function"
    },
    {
      "inputs": [
        {
          "internalType": "address",
          "name": "operator_",
          "type": "address"
        },
        {
          "internalType": "uint256",
          "name": "license_",
          "type": "uint256"
        }
      ],
      "name": "removeoperator",
      "outputs": [],
      "stateMutability": "nonpayable",
      "type": "function"
    },
    {
      "inputs": [
        {
          "internalType": "address",
          "name": "operator_",
          "type": "address"
        },
        {
          "internalType": "uint256",
          "name": "license_",
          "type": "uint256"
        }
      ],
      "name": "getoperator",
      "outputs": [
        {
          "internalType": "uint256[]",
          "name": "",
          "type": "uint256[]"
        },
        {
          "internalType": "uint256[4]",
          "name": "",
          "type": "uint256[4]"
        },
        {
          "internalType": "uint256",
          "name": "",
          "type": "uint256"
        },
        {
          "internalType": "uint256",
          "name": "",
          "type": "uint256"
        },
        {
          "internalType": "address",
          "name": "",
          "type": "address"
        }
      ],
      "stateMutability": "nonpayable",
      "type": "function"
    },
    {
      "inputs": [
        {
          "internalType": "address",
          "name": "operator_",
          "type": "address"
        }
      ],
      "name": "getoperatorlicenses",
      "outputs": [
        {
          "internalType": "uint256[]",
          "name": "",
          "type": "uint256[]"
        }
      ],
      "stateMutability": "view",
      "type": "function",
      "constant": true
    }
  ],
  "bytecode": "0x60c060405260116080908152704f50455241544f52204c4f47494320563160781b60a0526000906200003290826200012e565b503480156200004057600080fd5b5060405162003101380380620031018339810160408190526200006391620001fa565b600180546001600160a01b0319166001600160a01b03929092169190911790556200022c565b634e487b7160e01b600052604160045260246000fd5b600181811c90821680620000b457607f821691505b602082108103620000d557634e487b7160e01b600052602260045260246000fd5b50919050565b601f8211156200012957600081815260208120601f850160051c81016020861015620001045750805b601f850160051c820191505b81811015620001255782815560010162000110565b5050505b505050565b81516001600160401b038111156200014a576200014a62000089565b62000162816200015b84546200009f565b84620000db565b602080601f8311600181146200019a5760008415620001815750858301515b600019600386901b1c1916600185901b17855562000125565b600085815260208120601f198616915b82811015620001cb57888601518255948401946001909101908401620001aa565b5085821015620001ea5787850151600019600388901b60f8161c191681555b5050505050600190811b01905550565b6000602082840312156200020d57600080fd5b81516001600160a01b03811681146200022557600080fd5b9392505050565b612ec5806200023c6000396000f3fe608060405234801561001057600080fd5b506004361061009e5760003560e01c80636fd51322116100665780636fd5132214610120578063740be0b5146101335780638a5388aa14610146578063a057c32f14610166578063f3ca9cae1461017957600080fd5b806306fdde03146100a3578063094bbe87146100c15780631b4a668a146100d65780633658baa1146100e95780636c4f43311461010d575b600080fd5b6100ab6101a4565b6040516100b89190612349565b60405180910390f35b6100d46100cf3660046123a4565b610232565b005b6100d46100e43660046123e5565b610619565b6100fc6100f7366004612441565b610b93565b6040516100b89594939291906124a8565b6100d461011b36600461250e565b610e4e565b6100d461012e366004612644565b61127b565b6100d4610141366004612441565b61194e565b6101596101543660046126f5565b611cc8565b6040516100b89190612719565b6100d461017436600461272c565b611db9565b60015461018c906001600160a01b031681565b6040516001600160a01b0390911681526020016100b8565b600080546101b190612791565b80601f01602080910402602001604051908101604052809291908181526020018280546101dd90612791565b801561022a5780601f106101ff5761010080835404028352916020019161022a565b820191906000526020600020905b81548152906001019060200180831161020d57829003601f168201915b505050505081565b600154604051636881aedd60e01b81526000916001600160a01b031690636881aedd90610261906004016127cb565b602060405180830381865afa15801561027e573d6000803e3d6000fd5b505050506040513d601f19601f820116820180604052508101906102a291906127ff565b9050600080826001600160a01b0316633658baa133876040518363ffffffff1660e01b81526004016102d592919061281c565b600060405180830381865afa1580156102f2573d6000803e3d6000fd5b505050506040513d6000823e601f3d908101601f1916820160405261031a919081019061289b565b5050509350935050506000821161034c5760405162461bcd60e51b81526004016103439061295d565b60405180910390fd5b42811180610358575080155b6103745760405162461bcd60e51b815260040161034390612987565b6040516335d9e65d60e01b8152600481018390526000906001600160a01b038516906335d9e65d90602401602060405180830381865afa1580156103bc573d6000803e3d6000fd5b505050506040513d601f19601f820116820180604052508101906103e091906129be565b9050806001146104025760405162461bcd60e51b8152600401610343906129d7565b604051632e758eb760e11b8152600481018490526001600160a01b03851690635ceb1d6e9060240161014060405180830381865afa158015610448573d6000803e3d6000fd5b505050506040513d601f19601f8201168201806040525081019061046c9190612a0e565b8051600580546001600160a01b039283166001600160a01b0319918216179091556020830151600680549190931691161790556040810151600781905560608201516008819055608083015160095560a0830151600a5560c0830151600b5560e0830151600c55610100830151600d5561012090920151600e551461054557600554336001600160a01b03909116036105175760405162461bcd60e51b815260040161034390612aa3565b6005546001600160a01b03908116908616036105455760405162461bcd60e51b815260040161034390612ada565b60405163094bbe8760e01b81526004810189905260248101879052604481018890526001600160a01b0386811660648301526000919086169063094bbe87906084016020604051808303816000875af11580156105a6573d6000803e3d6000fd5b505050506040513d601f19601f820116820180604052508101906105ca9190612b11565b90508061060e5760405162461bcd60e51b81526020600482015260126024820152716572726f722073657474696e6720726f6c6560701b6044820152606401610343565b505050505050505050565b600154604051636881aedd60e01b81526000916001600160a01b031690636881aedd90610648906004016127cb565b602060405180830381865afa158015610665573d6000803e3d6000fd5b505050506040513d601f19601f8201168201806040525081019061068991906127ff565b9050600080826001600160a01b0316633658baa1338b6040518363ffffffff1660e01b81526004016106bc92919061281c565b600060405180830381865afa1580156106d9573d6000803e3d6000fd5b505050506040513d6000823e601f3d908101601f19168201604052610701919081019061289b565b5050509350935050506000821161072a5760405162461bcd60e51b81526004016103439061295d565b42811180610736575080155b6107525760405162461bcd60e51b815260040161034390612987565b6040516335d9e65d60e01b8152600481018390526000906001600160a01b038516906335d9e65d90602401602060405180830381865afa15801561079a573d6000803e3d6000fd5b505050506040513d601f19601f820116820180604052508101906107be91906129be565b9050806001146107e05760405162461bcd60e51b8152600401610343906129d7565b600154604051636881aedd60e01b815260206004820152600c60248201526b1b5a5b9d18dbdb9d1c9858dd60a21b60448201526001600160a01b0390911690636881aedd90606401602060405180830381865afa158015610845573d6000803e3d6000fd5b505050506040513d601f19601f8201168201806040525081019061086991906127ff565b93506000846001600160a01b031662fdd58e338a6040518363ffffffff1660e01b815260040161089a92919061281c565b602060405180830381865afa1580156108b7573d6000803e3d6000fd5b505050506040513d601f19601f820116820180604052508101906108db91906129be565b90506000811161091d5760405162461bcd60e51b815260206004820152600d60248201526c636865636b206c6963656e736560981b6044820152606401610343565b604051627eeac760e11b81526000906001600160a01b0387169062fdd58e9061094c908e908d9060040161281c565b602060405180830381865afa158015610969573d6000803e3d6000fd5b505050506040513d601f19601f8201168201806040525081019061098d91906129be565b90506001811015610a6057604051637921219560e11b81523360048201526001600160a01b038c81166024830152604482018b90526001606483015260a06084830152600060a483015287169063f242432a9060c401600060405180830381600087803b1580156109fd57600080fd5b505af1158015610a11573d6000803e3d6000fd5b50505050610a1d61221e565b610a605760405162461bcd60e51b81526020600482015260146024820152731cd85b19481d1c985b9cd9995c8819985a5b195960621b6044820152606401610343565b600154604051636881aedd60e01b81526001600160a01b0390911690636881aedd90610a8e906004016127cb565b602060405180830381865afa158015610aab573d6000803e3d6000fd5b505050506040513d601f19601f82011682018060405250810190610acf91906127ff565b604051630da5334560e11b8152600481018e90526001600160a01b038d811660248301528c81166044830152606482018c9052608482018b905260a482018a9052919750600091881690631b4a668a9060c4016020604051808303816000875af1158015610b41573d6000803e3d6000fd5b505050506040513d601f19601f82011682018060405250810190610b659190612b11565b905080610b845760405162461bcd60e51b815260040161034390612b33565b50505050505050505050505050565b6060610b9d612252565b600154604051636881aedd60e01b81526000918291829182916001600160a01b0390911690636881aedd90610bd4906004016127cb565b602060405180830381865afa158015610bf1573d6000803e3d6000fd5b505050506040513d601f19601f82011682018060405250810190610c1591906127ff565b9050600080600080846001600160a01b0316633658baa18d8d6040518363ffffffff1660e01b8152600401610c4b92919061281c565b600060405180830381865afa158015610c68573d6000803e3d6000fd5b505050506040513d6000823e601f3d908101601f19168201604052610c90919081019061289b565b600154604051636881aedd60e01b815260206004820152600b60248201526a6d696e7473746f7261676560a81b6044820152979b50949950929750919550506001600160a01b0390911692636881aedd92506064019050602060405180830381865afa158015610d04573d6000803e3d6000fd5b505050506040513d601f19601f82011682018060405250810190610d2891906127ff565b60405163875ff21560e01b8152600481018d90529095506001600160a01b0386169063875ff21590602401600060405180830381865afa158015610d70573d6000803e3d6000fd5b505050506040513d6000823e601f3d908101601f19168201604052610d989190810190612c47565b5050805160029081556020808301518051849392610dbb92600392910190612270565b5060408201518051610dd79160028401916020909101906122d5565b50505050600280018484848484805480602002602001604051908101604052809291908181526020018280548015610e2e57602002820191906000526020600020905b815481526020019060010190808311610e1a575b505050505094509950995099509950995050505050509295509295909350565b600154604051636881aedd60e01b81526000916001600160a01b031690636881aedd90610e7d906004016127cb565b602060405180830381865afa158015610e9a573d6000803e3d6000fd5b505050506040513d601f19601f82011682018060405250810190610ebe91906127ff565b9050600080826001600160a01b0316633658baa1338a6040518363ffffffff1660e01b8152600401610ef192919061281c565b600060405180830381865afa158015610f0e573d6000803e3d6000fd5b505050506040513d6000823e601f3d908101601f19168201604052610f36919081019061289b565b50505093509350505060008211610f5f5760405162461bcd60e51b81526004016103439061295d565b42811180610f6b575080155b610f875760405162461bcd60e51b815260040161034390612987565b6040516335d9e65d60e01b8152600481018390526000906001600160a01b038516906335d9e65d90602401602060405180830381865afa158015610fcf573d6000803e3d6000fd5b505050506040513d601f19601f82011682018060405250810190610ff391906129be565b9050806001146110155760405162461bcd60e51b8152600401610343906129d7565b604051632e758eb760e11b8152600481018490526001600160a01b03851690635ceb1d6e9060240161014060405180830381865afa15801561105b573d6000803e3d6000fd5b505050506040513d601f19601f8201168201806040525081019061107f9190612a0e565b8051600580546001600160a01b039283166001600160a01b0319918216179091556020830151600680549190931691161790556040810151600781905560608201516008819055608083015160095560a0830151600a5560c0830151600b5560e0830151600c55610100830151600d5561012090920151600e551461115857600554336001600160a01b039091160361112a5760405162461bcd60e51b815260040161034390612aa3565b6005546001600160a01b03908116908816036111585760405162461bcd60e51b815260040161034390612ada565b600154604051636881aedd60e01b81526001600160a01b0390911690636881aedd9061118690600401612d85565b602060405180830381865afa1580156111a3573d6000803e3d6000fd5b505050506040513d601f19601f820116820180604052508101906111c791906127ff565b60405163297805ed60e21b81526001600160a01b038a81166004830152898116602483015288811660448301526064820188905291955060009186169063a5e017b4906084016020604051808303816000875af115801561122c573d6000803e3d6000fd5b505050506040513d601f19601f820116820180604052508101906112509190612b11565b90508061126f5760405162461bcd60e51b815260040161034390612da9565b50505050505050505050565b60008360048151811061129057611290612deb565b602002602001015111156112e757826004815181106112b1576112b1612deb565b6020026020010151620151806112c79190612e01565b836004815181106112da576112da612deb565b6020026020010181815250505b6000836000815181106112fc576112fc612deb565b60200260200101511115611354578260008151811061131d5761131d612deb565b6020026020010151633b9aca006113349190612e01565b8360008151811061134757611347612deb565b6020026020010181815250505b60008360018151811061136957611369612deb565b602002602001015111156113c1578260018151811061138a5761138a612deb565b6020026020010151633b9aca006113a19190612e01565b836001815181106113b4576113b4612deb565b6020026020010181815250505b600154604051636881aedd60e01b81526000916001600160a01b031690636881aedd906113f0906004016127cb565b602060405180830381865afa15801561140d573d6000803e3d6000fd5b505050506040513d601f19601f8201168201806040525081019061143191906127ff565b90506000806000836001600160a01b0316633658baa133876040518363ffffffff1660e01b815260040161146692919061281c565b600060405180830381865afa158015611483573d6000803e3d6000fd5b505050506040513d6000823e601f3d908101601f191682016040526114ab919081019061289b565b96505050945094505050600083116114d55760405162461bcd60e51b81526004016103439061295d565b428211806114e1575081155b6114fd5760405162461bcd60e51b815260040161034390612987565b6040516335d9e65d60e01b8152600481018490526000906001600160a01b038616906335d9e65d90602401602060405180830381865afa158015611545573d6000803e3d6000fd5b505050506040513d601f19601f8201168201806040525081019061156991906129be565b90508060011461158b5760405162461bcd60e51b8152600401610343906129d7565b604051632e758eb760e11b8152600481018590526001600160a01b03861690635ceb1d6e9060240161014060405180830381865afa1580156115d1573d6000803e3d6000fd5b505050506040513d601f19601f820116820180604052508101906115f59190612a0e565b8051600580546001600160a01b039283166001600160a01b0319918216179091556020830151600680549190931691161790556040810151600781905560608201516008819055608083015160095560a0830151600a5560c0830151600b5560e0830151600c55610100830151600d5561012090920151600e55146116ce57600554336001600160a01b03909116036116a05760405162461bcd60e51b815260040161034390612aa3565b6005546001600160a01b03908116908816036116ce5760405162461bcd60e51b815260040161034390612ada565b6040516337ea899160e11b81526000906001600160a01b03871690636fd5132290611701908c908c908c90600401612e2c565b6020604051808303816000875af1158015611720573d6000803e3d6000fd5b505050506040513d601f19601f820116820180604052508101906117449190612b11565b9050806117635760405162461bcd60e51b815260040161034390612b33565b60008960008151811061177857611778612deb565b6020026020010151111561060e57600154604051636881aedd60e01b81526020600482015260086024820152673a32b0ba37b5b2b760c11b60448201526000916001600160a01b031690636881aedd90606401602060405180830381865afa1580156117e8573d6000803e3d6000fd5b505050506040513d601f19601f8201168201806040525081019061180c91906127ff565b600154604051636881aedd60e01b81529192506001600160a01b031690636881aedd9061183b90600401612d85565b602060405180830381865afa158015611858573d6000803e3d6000fd5b505050506040513d601f19601f8201168201806040525081019061187c91906127ff565b9650866001600160a01b031663a5e017b4858b848e6000815181106118a3576118a3612deb565b60209081029190910101516040516001600160e01b031960e087901b1681526001600160a01b03948516600482015292841660248401529216604482015260648101919091526084016020604051808303816000875af115801561190b573d6000803e3d6000fd5b505050506040513d601f19601f8201168201806040525081019061192f9190612b11565b91508161126f5760405162461bcd60e51b815260040161034390612da9565b600154604051636881aedd60e01b81526000916001600160a01b031690636881aedd9061197d906004016127cb565b602060405180830381865afa15801561199a573d6000803e3d6000fd5b505050506040513d601f19601f820116820180604052508101906119be91906127ff565b9050600080826001600160a01b0316633658baa133866040518363ffffffff1660e01b81526004016119f192919061281c565b600060405180830381865afa158015611a0e573d6000803e3d6000fd5b505050506040513d6000823e601f3d908101601f19168201604052611a36919081019061289b565b50505093509350505060008211611a5f5760405162461bcd60e51b81526004016103439061295d565b42811180611a6b575080155b611a875760405162461bcd60e51b815260040161034390612987565b6040516335d9e65d60e01b8152600481018390526000906001600160a01b038516906335d9e65d90602401602060405180830381865afa158015611acf573d6000803e3d6000fd5b505050506040513d601f19601f82011682018060405250810190611af391906129be565b905080600114611b155760405162461bcd60e51b8152600401610343906129d7565b604051632e758eb760e11b8152600481018490526001600160a01b03851690635ceb1d6e9060240161014060405180830381865afa158015611b5b573d6000803e3d6000fd5b505050506040513d601f19601f82011682018060405250810190611b7f9190612a0e565b8051600580546001600160a01b039283166001600160a01b0319918216179091556020830151600680549190931691161790556040810151600781905560608201516008819055608083015160095560a0830151600a5560c0830151600b5560e0830151600c55610100830151600d5561012090920151600e5514611c2c576005546001600160a01b0390811690871603611c2c5760405162461bcd60e51b815260040161034390612ada565b60405163740be0b560e01b81526000906001600160a01b0386169063740be0b590611c5d908a90889060040161281c565b6020604051808303816000875af1158015611c7c573d6000803e3d6000fd5b505050506040513d601f19601f82011682018060405250810190611ca09190612b11565b905080611cbf5760405162461bcd60e51b815260040161034390612b33565b50505050505050565b600154604051636881aedd60e01b81526060916000916001600160a01b0390911690636881aedd90611cfc906004016127cb565b602060405180830381865afa158015611d19573d6000803e3d6000fd5b505050506040513d601f19601f82011682018060405250810190611d3d91906127ff565b604051634529c45560e11b81526001600160a01b038581166004830152919250600091831690638a5388aa90602401600060405180830381865afa158015611d89573d6000803e3d6000fd5b505050506040513d6000823e601f3d908101601f19168201604052611db19190810190612e5a565b949350505050565b600154604051636881aedd60e01b81526000916001600160a01b031690636881aedd90611de8906004016127cb565b602060405180830381865afa158015611e05573d6000803e3d6000fd5b505050506040513d601f19601f82011682018060405250810190611e2991906127ff565b9050600080826001600160a01b0316633658baa1338b6040518363ffffffff1660e01b8152600401611e5c92919061281c565b600060405180830381865afa158015611e79573d6000803e3d6000fd5b505050506040513d6000823e601f3d908101601f19168201604052611ea1919081019061289b565b50505093509350505060008211611eca5760405162461bcd60e51b81526004016103439061295d565b42811180611ed6575080155b611ef25760405162461bcd60e51b815260040161034390612987565b6040516335d9e65d60e01b8152600481018390526000906001600160a01b038516906335d9e65d90602401602060405180830381865afa158015611f3a573d6000803e3d6000fd5b505050506040513d601f19601f82011682018060405250810190611f5e91906129be565b905080600114611f805760405162461bcd60e51b8152600401610343906129d7565b604051632e758eb760e11b8152600481018490526001600160a01b03851690635ceb1d6e9060240161014060405180830381865afa158015611fc6573d6000803e3d6000fd5b505050506040513d601f19601f82011682018060405250810190611fea9190612a0e565b8051600580546001600160a01b039283166001600160a01b0319918216179091556020830151600680549190931691161790556040810151600781905560608201516008819055608083015160095560a0830151600a5560c0830151600b5560e0830151600c55610100830151600d5561012090920151600e55146120c357600554336001600160a01b03909116036120955760405162461bcd60e51b815260040161034390612aa3565b6005546001600160a01b03908116908916036120c35760405162461bcd60e51b815260040161034390612ada565b600154604051636881aedd60e01b81526001600160a01b0390911690636881aedd906120f190600401612d85565b602060405180830381865afa15801561210e573d6000803e3d6000fd5b505050506040513d601f19601f8201168201806040525081019061213291906127ff565b604051630f71f92960e31b81526001600160a01b038b811660048301528a8116602483015289811660448301526064820189905260848201889052919550600091861690637b8fc9489060a4016020604051808303816000875af115801561219e573d6000803e3d6000fd5b505050506040513d601f19601f820116820180604052508101906121c29190612b11565b9050806122115760405162461bcd60e51b815260206004820181905260248201527f6572726f722073657474696e67206e6674207769746864726177206c696d69746044820152606401610343565b5050505050505050505050565b6000803d8015612235576020811461223e5761224a565b6001915061224a565b60206000803e60005191505b501515919050565b60405180608001604052806004906020820280368337509192915050565b8280548282559060005260206000209081019282156122c5579160200282015b828111156122c557825182546001600160a01b0319166001600160a01b03909116178255602090920191600190910190612290565b506122d1929150612310565b5090565b8280548282559060005260206000209081019282156122c5579160200282015b828111156122c55782518255916020019190600101906122f5565b5b808211156122d15760008155600101612311565b60005b83811015612340578181015183820152602001612328565b50506000910152565b6020815260008251806020840152612368816040850160208701612325565b601f01601f19169190910160400192915050565b6001600160a01b038116811461239157600080fd5b50565b803561239f8161237c565b919050565b600080600080608085870312156123ba57600080fd5b84359350602085013592506040850135915060608501356123da8161237c565b939692955090935050565b60008060008060008060c087890312156123fe57600080fd5b8635955060208701356124108161237c565b945060408701356124208161237c565b959894975094956060810135955060808101359460a0909101359350915050565b6000806040838503121561245457600080fd5b823561245f8161237c565b946020939093013593505050565b600081518084526020808501945080840160005b8381101561249d57815187529582019590820190600101612481565b509495945050505050565b60006101008083526124bc8184018961246d565b91505060208083018760005b60048110156124e5578151835291830191908301906001016124c8565b5050505060a082019490945260c08101929092526001600160a01b031660e09091015292915050565b600080600080600060a0868803121561252657600080fd5b8535945060208601356125388161237c565b935060408601356125488161237c565b925060608601356125588161237c565b949793965091946080013592915050565b634e487b7160e01b600052604160045260246000fd5b6040516080810167ffffffffffffffff811182821017156125a2576125a2612569565b60405290565b604051610140810167ffffffffffffffff811182821017156125a2576125a2612569565b6040516060810167ffffffffffffffff811182821017156125a2576125a2612569565b604051601f8201601f1916810167ffffffffffffffff8111828210171561261857612618612569565b604052919050565b600067ffffffffffffffff82111561263a5761263a612569565b5060051b60200190565b60008060006060848603121561265957600080fd5b833567ffffffffffffffff81111561267057600080fd5b8401601f8101861361268157600080fd5b8035602061269661269183612620565b6125ef565b82815260059290921b830181019181810190898411156126b557600080fd5b938201935b838510156126d3578435825293820193908201906126ba565b96506126e29050878201612394565b9450505050604084013590509250925092565b60006020828403121561270757600080fd5b81356127128161237c565b9392505050565b602081526000612712602083018461246d565b60008060008060008060c0878903121561274557600080fd5b8635955060208701356127578161237c565b945060408701356127678161237c565b935060608701356127778161237c565b9598949750929560808101359460a0909101359350915050565b600181811c908216806127a557607f821691505b6020821081036127c557634e487b7160e01b600052602260045260246000fd5b50919050565b6020808252600f908201526e6f70657261746f7273746f7261676560881b604082015260600190565b805161239f8161237c565b60006020828403121561281157600080fd5b81516127128161237c565b6001600160a01b03929092168252602082015260400190565b600082601f83011261284657600080fd5b8151602061285661269183612620565b82815260059290921b8401810191818101908684111561287557600080fd5b8286015b848110156128905780518352918301918301612879565b509695505050505050565b6000806000806000806000610140888a0312156128b757600080fd5b88601f8901126128c657600080fd5b6128ce61257f565b8060808a018b8111156128e057600080fd5b8a5b818110156128fa5780518452602093840193016128e2565b5051909850905067ffffffffffffffff81111561291657600080fd5b6129228a828b01612835565b96505060a0880151945060c0880151935060e08801519250610100880151915061294f61012089016127f4565b905092959891949750929550565b60208082526010908201526f34b73b30b634b21037b832b930ba37b960811b604082015260600190565b60208082526018908201527f6f70657261746f72206c6963656e736520657870697265640000000000000000604082015260600190565b6000602082840312156129d057600080fd5b5051919050565b6020808252601d908201527f796f7520617265206e6f742061207375706572206f6572706572746f72000000604082015260600190565b60006101408284031215612a2157600080fd5b612a296125a8565b612a32836127f4565b8152612a40602084016127f4565b602082015260408301516040820152606083015160608201526080830151608082015260a083015160a082015260c083015160c082015260e083015160e08201526101008084015181830152506101208084015181830152508091505092915050565b6020808252601d908201527f63616e6e6f74206564697420796f7572206f776e2073657474696e6773000000604082015260600190565b60208082526019908201527f63616e6e6f742065646974206c656164206f70657261746f7200000000000000604082015260600190565b600060208284031215612b2357600080fd5b8151801515811461271257600080fd5b60208082526016908201527532b93937b91039b2ba3a34b7339037b832b930ba37b960511b604082015260600190565b600082601f830112612b7457600080fd5b815167ffffffffffffffff811115612b8e57612b8e612569565b612ba1601f8201601f19166020016125ef565b818152846020838601011115612bb657600080fd5b611db1826020830160208701612325565b600082601f830112612bd857600080fd5b81516020612be861269183612620565b82815260059290921b84018101918181019086841115612c0757600080fd5b8286015b8481101561289057805167ffffffffffffffff811115612c2b5760008081fd5b612c398986838b0101612b63565b845250918301918301612c0b565b600080600060608486031215612c5c57600080fd5b835167ffffffffffffffff80821115612c7457600080fd5b9085019060608288031215612c8857600080fd5b612c906125cc565b8251815260208084015183811115612ca757600080fd5b8401601f81018a13612cb857600080fd5b8051612cc661269182612620565b81815260059190911b8201830190838101908c831115612ce557600080fd5b928401925b82841015612d0c578351612cfd8161237c565b82529284019290840190612cea565b85850152505050604084015183811115612d2557600080fd5b612d318a828701612835565b604084015250870151909550915080821115612d4c57600080fd5b612d5887838801612bc7565b93506040860151915080821115612d6e57600080fd5b50612d7b86828701612b63565b9150509250925092565b6020808252600a908201526962616773746f7261676560b01b604082015260600190565b60208082526022908201527f6572726f722073657474696e6720746f6b656e207769746864726177206c696d6040820152611a5d60f21b606082015260800190565b634e487b7160e01b600052603260045260246000fd5b8082028115828204841417612e2657634e487b7160e01b600052601160045260246000fd5b92915050565b606081526000612e3f606083018661246d565b6001600160a01b039490941660208301525060400152919050565b600060208284031215612e6c57600080fd5b815167ffffffffffffffff811115612e8357600080fd5b611db18482850161283556fea2646970667358221220533ebb31062f50a9ec70cd0f6b32c4c80027efc2fa52272caee7a5f16616649164736f6c63430008110033",
  "immutableReferences": {},
  "source": "// SPDX-License-Identifier: MIT\npragma solidity ^0.8.0;\ninterface IERC20 {\n\n    event Transfer(address indexed from, address indexed to, uint256 value);\n\n\n    event Approval(address indexed owner, address indexed spender, uint256 value);\n\n\n    function totalSupply() external view returns (uint256);\n\n\n    function balanceOf(address account) external view returns (uint256);\n\n\n    function transfer(address to, uint256 amount) external returns (bool);\n\n\n    function allowance(address owner, address spender) external view returns (uint256);\n\n\n    function approve(address spender, uint256 amount) external returns (bool);\n\n\n    function transferFrom(\n        address from,\n        address to,\n        uint256 amount\n    ) external returns (bool);\n}\n\npragma solidity ^0.8.0;\ninterface IERC165 {\n\n    function supportsInterface(bytes4 interfaceId) external view returns (bool);\n}\npragma solidity ^0.8.0;\ninterface IERC1155 is IERC165 {\n\n    event TransferSingle(address indexed operator, address indexed from, address indexed to, uint256 id, uint256 value);\n\n\n    event TransferBatch(\n        address indexed operator,\n        address indexed from,\n        address indexed to,\n        uint256[] ids,\n        uint256[] values\n    );\n\n\n    event ApprovalForAll(address indexed account, address indexed operator, bool approved);\n\n\n    event URI(string value, uint256 indexed id);\n\n\n    function balanceOf(address account, uint256 id) external view returns (uint256);\n\n\n    function balanceOfBatch(address[] calldata accounts, uint256[] calldata ids)\n        external\n        view\n        returns (uint256[] memory);\n\n\n    function setApprovalForAll(address operator, bool approved) external;\n\n\n    function isApprovedForAll(address account, address operator) external view returns (bool);\n\n\n    function safeTransferFrom(\n        address from,\n        address to,\n        uint256 id,\n        uint256 amount,\n        bytes calldata data\n    ) external;\n\n\n    function safeBatchTransferFrom(\n        address from,\n        address to,\n        uint256[] calldata ids,\n        uint256[] calldata amounts,\n        bytes calldata data\n    ) external;\n}\npragma solidity ^0.8.4;\ninterface i1155 {\n    struct NFTEA {\n        uint256 nftea;\n        address[] addresses;\n        uint256[] settings;\n    }\n    struct OP{\n        address operator;\n        address wallet;\n        uint256 label;\n        uint256 license;\n        uint256 expire;\n        uint256 wdays;\n        uint256 nextwithdraw;\n        uint256 wamount1;\n        uint256 wamount2;\n        uint256 role;\n    }\n    function gflame(string memory flame_) external pure returns(address);\n    function getoperator(address operator_, uint256 license_) external pure returns(uint256[4] memory,uint256[] memory,uint256,uint256,uint256,uint256,address);\n    function fire(address caller_) external pure returns(uint256[] memory,uint256[] memory,uint256,bool,bool,uint256);\n    function removeoperator(address operator_, uint256 opid_) external returns(bool);\n    function getnftea(uint256 nftea_) external pure returns(NFTEA memory,string[] memory, string memory);\n    function getoperatorlicenses(address operator_) external pure returns(uint256[] memory);\n    // function getbag(uint256 nftea_, address wallet_, address profile_) external pure returns(address, uint256, uint256);\n    function getoperatorrole(uint256 opid_) external view returns(uint256);\n    function setoperator(uint256 labelnftea_, address operator_, address wallet_, uint256 license_, uint256 expire_, uint256 role_) external returns(bool);\n    function setwithdrawsettings(uint256[] memory numbers_, address operator_,uint256 nftea_) external returns(bool);\n    function setrole(uint256 nftea2operate_, uint256 license_, uint256 role_, address operator_) external returns(bool);\n    function setWithdrawTokenLimit(address wallet_, address operator_, address token_, uint256 limit_) external returns(bool);\n    function setWithdrawNFTLimit(address wallet_, address operator_, address nftcontract_, uint256 nftid_, uint256 limit_) external returns(bool);\n    function getop(uint256 opid_) external pure returns(OP memory);\n    function setTokenDecimal(address token_, uint256 decimal_) external returns(bool);\n}\ncontract operatorlogic {\n\n    string public name = \"OPERATOR LOGIC V1\";\n    address public _fire;\n    i1155.NFTEA _nfteas;\n    i1155.OP _op;\n\n    constructor(address fire_){\n        _fire = fire_;\n    }\n\n    function setoperator(uint256 labelnftea_, address operator_, address wallet_, uint256 license_, uint256 expire_,uint256 role_) public{\n\n        //get operator\n        //validate operator is super operator role 1\n        (address flame_) = i1155(_fire).gflame('operatorstorage');\n        //validate operator\n        (,,uint256 opid_, uint256 expirex_,,,) = i1155(flame_).getoperator(msg.sender,labelnftea_);\n        require(opid_>0, 'invalid operator');\n        require(expirex_ > block.timestamp || expirex_==0, 'operator license expired');\n\n        (uint256 rolex_)= i1155(flame_).getoperatorrole(opid_);\n        require(rolex_==1, 'you are not a super oerpertor');\n        (flame_) = i1155(_fire).gflame('mintcontract');\n        //make sure super op has license to send\n        uint256 balance1 = IERC1155(flame_).balanceOf(msg.sender,license_);\n        require(balance1>0, 'check license');\n        uint256 balance = IERC1155(flame_).balanceOf(operator_,license_);\n        if(balance<1){\n          IERC1155(flame_).safeTransferFrom(msg.sender,operator_,license_, 1,'');\n          require(checkSuccess(), 'sale transfer failed');\n        }\n        (flame_) = i1155(_fire).gflame('operatorstorage');\n        (bool success) = i1155(flame_).setoperator(labelnftea_,operator_,wallet_,license_,expire_,role_);\n        require(success, 'error setting operator');\n\n    }\n\n    function setwithdrawsettings(uint256[] memory numbers_,address operator_,uint256 nftea_) public{\n        //0 = wlimittea_\n        //1 = wlimitbnb_\n        //2 = wfreq_\n        //3 = nextwithraw\n        //4 = wexpire_\n        //5 = license_\n        if(numbers_[4]>0){\n          numbers_[4] = numbers_[4] * 24 hours;\n        }\n        if(numbers_[0]>0){\n          numbers_[0] = numbers_[0]*10**9;\n        }\n        if(numbers_[1]>0){\n          numbers_[1] = numbers_[1]*10**9;\n        }\n        (address flame_) = i1155(_fire).gflame('operatorstorage');\n        //validate operator\n        (,,uint256 opid_,uint256 expire_,,,address wallet_) = i1155(flame_).getoperator(msg.sender,nftea_);\n        require(opid_>0, 'invalid operator');\n        require(expire_ > block.timestamp || expire_==0, 'operator license expired');\n        (uint256 rolex_)= i1155(flame_).getoperatorrole(opid_);\n        require(rolex_==1, 'you are not a super oerpertor');\n        (_op) = i1155(flame_).getop(opid_);\n        if(_op.license!=_op.label){\n          require(_op.operator != msg.sender, 'cannot edit your own settings');\n          require(operator_!=_op.operator, 'cannot edit lead operator');\n        }\n        (bool success) = i1155(flame_).setwithdrawsettings(numbers_,operator_,nftea_);\n        require(success, 'error setting operator');\n        if(numbers_[0]>0){\n          (address token_) = i1155(_fire).gflame('teatoken');\n          (flame_) = i1155(_fire).gflame('bagstorage');\n          (success) = i1155(flame_).setWithdrawTokenLimit(wallet_,operator_,token_,numbers_[0]);\n          require(success, 'error setting token withdraw limit');\n        }\n\n    }\n    function setWithdrawTokenLimit(uint256 license_, address wallet_, address operator_, address token_, uint256 limit_) public {\n\n      (address flame_) = i1155(_fire).gflame('operatorstorage');\n      //validate operator\n      (,,uint256 opid_,uint256 expire_,,,) = i1155(flame_).getoperator(msg.sender,license_);\n      require(opid_>0, 'invalid operator');\n      require(expire_ > block.timestamp || expire_==0, 'operator license expired');\n      (uint256 rolex_)= i1155(flame_).getoperatorrole(opid_);\n      require(rolex_==1, 'you are not a super oerpertor');\n      (_op) = i1155(flame_).getop(opid_);\n      if(_op.license!=_op.label){\n        require(_op.operator != msg.sender, 'cannot edit your own settings');\n        require(operator_!=_op.operator, 'cannot edit lead operator');\n      }\n      (flame_) = i1155(_fire).gflame('bagstorage');\n      (bool success) = i1155(flame_).setWithdrawTokenLimit(wallet_,operator_,token_,limit_);\n      require(success, 'error setting token withdraw limit');\n\n    }\n    function setWithdrawNFTLimit(uint256 license_, address wallet_, address operator_, address nftcontract_, uint256 nftid_, uint256 limit_) public {\n\n      (address flame_) = i1155(_fire).gflame('operatorstorage');\n      //validate operator\n      (,,uint256 opid_,uint256 expire_,,,) = i1155(flame_).getoperator(msg.sender,license_);\n      require(opid_>0, 'invalid operator');\n      require(expire_ > block.timestamp || expire_==0, 'operator license expired');\n      (uint256 rolex_)= i1155(flame_).getoperatorrole(opid_);\n      require(rolex_==1, 'you are not a super oerpertor');\n      (_op) = i1155(flame_).getop(opid_);\n      if(_op.license!=_op.label){\n        require(_op.operator != msg.sender, 'cannot edit your own settings');\n        require(operator_!=_op.operator, 'cannot edit lead operator');\n      }\n      (flame_) = i1155(_fire).gflame('bagstorage');\n      (bool success) = i1155(flame_).setWithdrawNFTLimit(wallet_,operator_,nftcontract_,nftid_,limit_);\n      require(success, 'error setting nft withdraw limit');\n    }\n    function setrole(uint256 nftea2operate_, uint256 role_, uint256 license_, address operator_) public {\n\n        (address flame_) = i1155(_fire).gflame('operatorstorage');\n        //validate operator\n        (,,uint256 opid_, uint256 expirex_,,,) = i1155(flame_).getoperator(msg.sender,license_);\n        require(opid_>0, 'invalid operator');\n        require(expirex_ > block.timestamp || expirex_==0, 'operator license expired');\n        (uint256 rolex_)= i1155(flame_).getoperatorrole(opid_);\n        require(rolex_==1, 'you are not a super oerpertor');\n        (_op) = i1155(flame_).getop(opid_);\n        if(_op.license!=_op.label){\n          require(_op.operator != msg.sender, 'cannot edit your own settings');\n          require(operator_!=_op.operator, 'cannot edit lead operator');\n        }\n        (bool success) = i1155(flame_).setrole(nftea2operate_,license_, role_, operator_);\n        require(success, 'error setting role');\n    }\n    function removeoperator(address operator_,uint256 license_) public{\n\n        (address flame_) = i1155(_fire).gflame('operatorstorage');\n        //validate operator\n        (,,uint256 opidx_, uint256 expirex_,,,) = i1155(flame_).getoperator(msg.sender,license_);\n        require(opidx_>0, 'invalid operator');\n        require(expirex_ > block.timestamp || expirex_==0, 'operator license expired');\n        (uint256 role_)= i1155(flame_).getoperatorrole(opidx_);\n        require(role_==1, 'you are not a super oerpertor');\n        (_op) = i1155(flame_).getop(opidx_);\n        if(_op.license!=_op.label){\n          require(operator_!=_op.operator, 'cannot edit lead operator');\n        }\n        (bool success) = i1155(flame_).removeoperator(operator_, opidx_);\n        require(success, 'error setting operator');\n\n    }\n    function getoperator(address operator_, uint256 license_) public returns(uint256[] memory, uint256[4] memory,uint256,uint256,address){\n\n        (address flame_) = i1155(_fire).gflame('operatorstorage');\n        (uint256[4] memory wsettings_,, uint256 opid_,uint256 expire_,,, address wallet_) = i1155(flame_).getoperator(operator_,license_);\n        (flame_) = i1155(_fire).gflame('mintstorage');\n        (_nfteas,,) = i1155(flame_).getnftea(license_);\n\n        return(_nfteas.settings,wsettings_,opid_, expire_,wallet_);\n    }\n    function getoperatorlicenses(address operator_) public view returns(uint256[] memory){\n\n        (address flame_) = i1155(_fire).gflame('operatorstorage');\n        (uint256[] memory ops_) = i1155(flame_).getoperatorlicenses(operator_);\n        return ops_;\n\n    }\n    function checkSuccess()\n    private pure\n    returns (bool)\n    {\n        uint256 returnValue = 0;\n\n        /* solium-disable-next-line security/no-inline-assembly */\n        assembly {\n        // check number of bytes returned from last function call\n            switch returndatasize()\n\n            // no bytes returned: assume success\n            case 0x0 {\n                returnValue := 1\n            }\n\n            // 32 bytes returned: check if non-zero\n            case 0x20 {\n            // copy 32 bytes into scratch space\n                returndatacopy(0x0, 0x0, 0x20)\n\n            // load those bytes into returnValue\n                returnValue := mload(0x0)\n            }\n\n            // not sure what was returned: dont mark as success\n            default { }\n\n        }\n\n        return returnValue != 0;\n    }\n}\n",
  "sourcePath": "/Users/jl1013/Documents/FUTURO/nftea/contracts/operatorlogic.sol",
  "compiler": {
    "name": "solc",
    "version": "0.8.17+commit.8df45f5f.Emscripten.clang"
  },
  "schemaVersion": "3.4.13",
  "updatedAt": "2023-06-30T06:03:30.332Z",
  "networkType": "ethereum",
  "devdoc": {
    "kind": "dev",
    "methods": {},
    "version": 1
  },
  "userdoc": {
    "kind": "user",
    "methods": {},
    "version": 1
  }
}