{
  "contractName": "shopstorage",
  "abi": [
    {
      "inputs": [
        {
          "internalType": "address",
          "name": "fire_",
          "type": "address"
        }
      ],
      "stateMutability": "nonpayable",
      "type": "constructor"
    },
    {
      "inputs": [
        {
          "internalType": "address",
          "name": "",
          "type": "address"
        },
        {
          "internalType": "uint256",
          "name": "",
          "type": "uint256"
        }
      ],
      "name": "_buyer2labelbought",
      "outputs": [
        {
          "internalType": "bool",
          "name": "",
          "type": "bool"
        }
      ],
      "stateMutability": "view",
      "type": "function",
      "constant": true
    },
    {
      "inputs": [],
      "name": "_fire",
      "outputs": [
        {
          "internalType": "address",
          "name": "",
          "type": "address"
        }
      ],
      "stateMutability": "view",
      "type": "function",
      "constant": true
    },
    {
      "inputs": [
        {
          "internalType": "address",
          "name": "",
          "type": "address"
        },
        {
          "internalType": "uint256",
          "name": "",
          "type": "uint256"
        }
      ],
      "name": "_holder2livedisplays",
      "outputs": [
        {
          "internalType": "uint256",
          "name": "",
          "type": "uint256"
        }
      ],
      "stateMutability": "view",
      "type": "function",
      "constant": true
    },
    {
      "inputs": [
        {
          "internalType": "address",
          "name": "",
          "type": "address"
        },
        {
          "internalType": "uint256",
          "name": "",
          "type": "uint256"
        }
      ],
      "name": "_holder2livedisplaysx",
      "outputs": [
        {
          "internalType": "uint256",
          "name": "",
          "type": "uint256"
        }
      ],
      "stateMutability": "view",
      "type": "function",
      "constant": true
    },
    {
      "inputs": [
        {
          "internalType": "uint256",
          "name": "",
          "type": "uint256"
        },
        {
          "internalType": "uint256",
          "name": "",
          "type": "uint256"
        }
      ],
      "name": "_label2buyers",
      "outputs": [
        {
          "internalType": "address",
          "name": "",
          "type": "address"
        }
      ],
      "stateMutability": "view",
      "type": "function",
      "constant": true
    },
    {
      "inputs": [
        {
          "internalType": "uint256",
          "name": "",
          "type": "uint256"
        },
        {
          "internalType": "uint256",
          "name": "",
          "type": "uint256"
        }
      ],
      "name": "_label2livedisplay",
      "outputs": [
        {
          "internalType": "uint256",
          "name": "",
          "type": "uint256"
        }
      ],
      "stateMutability": "view",
      "type": "function",
      "constant": true
    },
    {
      "inputs": [
        {
          "internalType": "uint256",
          "name": "",
          "type": "uint256"
        },
        {
          "internalType": "uint256",
          "name": "",
          "type": "uint256"
        }
      ],
      "name": "_label2livedisplayx",
      "outputs": [
        {
          "internalType": "uint256",
          "name": "",
          "type": "uint256"
        }
      ],
      "stateMutability": "view",
      "type": "function",
      "constant": true
    },
    {
      "inputs": [
        {
          "internalType": "uint256",
          "name": "",
          "type": "uint256"
        },
        {
          "internalType": "uint256",
          "name": "",
          "type": "uint256"
        }
      ],
      "name": "_label2livesells",
      "outputs": [
        {
          "internalType": "uint256",
          "name": "",
          "type": "uint256"
        }
      ],
      "stateMutability": "view",
      "type": "function",
      "constant": true
    },
    {
      "inputs": [
        {
          "internalType": "uint256",
          "name": "",
          "type": "uint256"
        },
        {
          "internalType": "uint256",
          "name": "",
          "type": "uint256"
        }
      ],
      "name": "_label2livesellsx",
      "outputs": [
        {
          "internalType": "uint256",
          "name": "",
          "type": "uint256"
        }
      ],
      "stateMutability": "view",
      "type": "function",
      "constant": true
    },
    {
      "inputs": [
        {
          "internalType": "uint256",
          "name": "",
          "type": "uint256"
        }
      ],
      "name": "_label2volume",
      "outputs": [
        {
          "internalType": "uint256",
          "name": "",
          "type": "uint256"
        }
      ],
      "stateMutability": "view",
      "type": "function",
      "constant": true
    },
    {
      "inputs": [
        {
          "internalType": "uint256",
          "name": "",
          "type": "uint256"
        },
        {
          "internalType": "address",
          "name": "",
          "type": "address"
        }
      ],
      "name": "_nftea2buyer2lastmarket",
      "outputs": [
        {
          "internalType": "uint256",
          "name": "",
          "type": "uint256"
        }
      ],
      "stateMutability": "view",
      "type": "function",
      "constant": true
    },
    {
      "inputs": [
        {
          "internalType": "uint256",
          "name": "",
          "type": "uint256"
        }
      ],
      "name": "_nftea2displayholder",
      "outputs": [
        {
          "internalType": "address",
          "name": "",
          "type": "address"
        }
      ],
      "stateMutability": "view",
      "type": "function",
      "constant": true
    },
    {
      "inputs": [
        {
          "internalType": "uint256",
          "name": "",
          "type": "uint256"
        }
      ],
      "name": "_nftea2labeldisplay",
      "outputs": [
        {
          "internalType": "uint256",
          "name": "",
          "type": "uint256"
        }
      ],
      "stateMutability": "view",
      "type": "function",
      "constant": true
    },
    {
      "inputs": [
        {
          "internalType": "uint256",
          "name": "",
          "type": "uint256"
        }
      ],
      "name": "_nftea2lastmarket",
      "outputs": [
        {
          "internalType": "uint256",
          "name": "",
          "type": "uint256"
        }
      ],
      "stateMutability": "view",
      "type": "function",
      "constant": true
    },
    {
      "inputs": [
        {
          "internalType": "uint256",
          "name": "",
          "type": "uint256"
        },
        {
          "internalType": "uint256",
          "name": "",
          "type": "uint256"
        }
      ],
      "name": "_nftea2sales",
      "outputs": [
        {
          "internalType": "uint256",
          "name": "",
          "type": "uint256"
        }
      ],
      "stateMutability": "view",
      "type": "function",
      "constant": true
    },
    {
      "inputs": [
        {
          "internalType": "uint256",
          "name": "",
          "type": "uint256"
        }
      ],
      "name": "_nfteasaleid2salesx",
      "outputs": [
        {
          "internalType": "uint256",
          "name": "",
          "type": "uint256"
        }
      ],
      "stateMutability": "view",
      "type": "function",
      "constant": true
    },
    {
      "inputs": [
        {
          "internalType": "uint256",
          "name": "",
          "type": "uint256"
        }
      ],
      "name": "_ondisplay",
      "outputs": [
        {
          "internalType": "bool",
          "name": "",
          "type": "bool"
        }
      ],
      "stateMutability": "view",
      "type": "function",
      "constant": true
    },
    {
      "inputs": [
        {
          "internalType": "uint256",
          "name": "",
          "type": "uint256"
        }
      ],
      "name": "_sale",
      "outputs": [
        {
          "internalType": "uint256",
          "name": "saleid",
          "type": "uint256"
        },
        {
          "internalType": "uint256",
          "name": "expire",
          "type": "uint256"
        },
        {
          "internalType": "bool",
          "name": "active",
          "type": "bool"
        }
      ],
      "stateMutability": "view",
      "type": "function",
      "constant": true
    },
    {
      "inputs": [
        {
          "internalType": "uint256",
          "name": "",
          "type": "uint256"
        },
        {
          "internalType": "uint256",
          "name": "",
          "type": "uint256"
        }
      ],
      "name": "_sale2addresses",
      "outputs": [
        {
          "internalType": "address",
          "name": "",
          "type": "address"
        }
      ],
      "stateMutability": "view",
      "type": "function",
      "constant": true
    },
    {
      "inputs": [
        {
          "internalType": "uint256",
          "name": "",
          "type": "uint256"
        },
        {
          "internalType": "uint256",
          "name": "",
          "type": "uint256"
        }
      ],
      "name": "_sale2settings",
      "outputs": [
        {
          "internalType": "uint256",
          "name": "",
          "type": "uint256"
        }
      ],
      "stateMutability": "view",
      "type": "function",
      "constant": true
    },
    {
      "inputs": [],
      "name": "_saleid",
      "outputs": [
        {
          "internalType": "uint256",
          "name": "",
          "type": "uint256"
        }
      ],
      "stateMutability": "view",
      "type": "function",
      "constant": true
    },
    {
      "inputs": [
        {
          "internalType": "address",
          "name": "",
          "type": "address"
        },
        {
          "internalType": "uint256",
          "name": "",
          "type": "uint256"
        }
      ],
      "name": "_seller2livesells",
      "outputs": [
        {
          "internalType": "uint256",
          "name": "",
          "type": "uint256"
        }
      ],
      "stateMutability": "view",
      "type": "function",
      "constant": true
    },
    {
      "inputs": [
        {
          "internalType": "address",
          "name": "",
          "type": "address"
        },
        {
          "internalType": "uint256",
          "name": "",
          "type": "uint256"
        }
      ],
      "name": "_seller2livesellsx",
      "outputs": [
        {
          "internalType": "uint256",
          "name": "",
          "type": "uint256"
        }
      ],
      "stateMutability": "view",
      "type": "function",
      "constant": true
    },
    {
      "inputs": [],
      "name": "name",
      "outputs": [
        {
          "internalType": "string",
          "name": "",
          "type": "string"
        }
      ],
      "stateMutability": "view",
      "type": "function",
      "constant": true
    },
    {
      "stateMutability": "payable",
      "type": "receive",
      "payable": true
    },
    {
      "inputs": [
        {
          "internalType": "address",
          "name": "",
          "type": "address"
        },
        {
          "internalType": "address",
          "name": "",
          "type": "address"
        },
        {
          "internalType": "uint256",
          "name": "",
          "type": "uint256"
        },
        {
          "internalType": "uint256",
          "name": "",
          "type": "uint256"
        },
        {
          "internalType": "bytes",
          "name": "",
          "type": "bytes"
        }
      ],
      "name": "onERC1155Received",
      "outputs": [
        {
          "internalType": "bytes4",
          "name": "",
          "type": "bytes4"
        }
      ],
      "stateMutability": "nonpayable",
      "type": "function"
    },
    {
      "inputs": [
        {
          "internalType": "uint256[]",
          "name": "sellsettings_",
          "type": "uint256[]"
        },
        {
          "internalType": "address[]",
          "name": "addresses_",
          "type": "address[]"
        }
      ],
      "name": "setsell",
      "outputs": [
        {
          "internalType": "bool",
          "name": "",
          "type": "bool"
        },
        {
          "internalType": "uint256",
          "name": "",
          "type": "uint256"
        }
      ],
      "stateMutability": "nonpayable",
      "type": "function"
    },
    {
      "inputs": [
        {
          "internalType": "uint256",
          "name": "saleid_",
          "type": "uint256"
        }
      ],
      "name": "setunsell",
      "outputs": [
        {
          "internalType": "bool",
          "name": "",
          "type": "bool"
        }
      ],
      "stateMutability": "nonpayable",
      "type": "function"
    },
    {
      "inputs": [
        {
          "internalType": "uint256[]",
          "name": "buysettings_",
          "type": "uint256[]"
        },
        {
          "internalType": "uint256",
          "name": "quantity_",
          "type": "uint256"
        },
        {
          "internalType": "uint256",
          "name": "saleid_",
          "type": "uint256"
        },
        {
          "internalType": "address",
          "name": "buyer_",
          "type": "address"
        }
      ],
      "name": "setbuyclose",
      "outputs": [
        {
          "internalType": "bool",
          "name": "",
          "type": "bool"
        }
      ],
      "stateMutability": "nonpayable",
      "type": "function"
    },
    {
      "inputs": [
        {
          "internalType": "uint256",
          "name": "label_",
          "type": "uint256"
        },
        {
          "internalType": "uint256",
          "name": "nft_",
          "type": "uint256"
        },
        {
          "internalType": "uint256",
          "name": "type_",
          "type": "uint256"
        },
        {
          "internalType": "address",
          "name": "holder_",
          "type": "address"
        }
      ],
      "name": "setdisplay",
      "outputs": [
        {
          "internalType": "bool",
          "name": "",
          "type": "bool"
        }
      ],
      "stateMutability": "nonpayable",
      "type": "function"
    },
    {
      "inputs": [
        {
          "internalType": "uint256",
          "name": "saleid_",
          "type": "uint256"
        }
      ],
      "name": "getsell",
      "outputs": [
        {
          "components": [
            {
              "internalType": "uint256",
              "name": "saleid",
              "type": "uint256"
            },
            {
              "internalType": "uint256",
              "name": "expire",
              "type": "uint256"
            },
            {
              "internalType": "uint256[]",
              "name": "settings",
              "type": "uint256[]"
            },
            {
              "internalType": "address[]",
              "name": "addresses",
              "type": "address[]"
            },
            {
              "internalType": "bool",
              "name": "active",
              "type": "bool"
            }
          ],
          "internalType": "struct shopstorage.SALE",
          "name": "",
          "type": "tuple"
        }
      ],
      "stateMutability": "view",
      "type": "function",
      "constant": true
    },
    {
      "inputs": [
        {
          "internalType": "address",
          "name": "holder_",
          "type": "address"
        }
      ],
      "name": "getlivedisplay",
      "outputs": [
        {
          "internalType": "uint256[]",
          "name": "",
          "type": "uint256[]"
        },
        {
          "internalType": "uint256[]",
          "name": "",
          "type": "uint256[]"
        },
        {
          "internalType": "string[]",
          "name": "",
          "type": "string[]"
        }
      ],
      "stateMutability": "view",
      "type": "function",
      "constant": true
    },
    {
      "inputs": [
        {
          "internalType": "address",
          "name": "seller_",
          "type": "address"
        }
      ],
      "name": "getlivesales",
      "outputs": [
        {
          "internalType": "uint256[]",
          "name": "",
          "type": "uint256[]"
        },
        {
          "internalType": "uint256[]",
          "name": "",
          "type": "uint256[]"
        },
        {
          "internalType": "string[]",
          "name": "",
          "type": "string[]"
        }
      ],
      "stateMutability": "view",
      "type": "function",
      "constant": true
    },
    {
      "inputs": [
        {
          "internalType": "uint256",
          "name": "label_",
          "type": "uint256"
        },
        {
          "internalType": "string",
          "name": "search_",
          "type": "string"
        }
      ],
      "name": "getlivelabelsales",
      "outputs": [
        {
          "internalType": "uint256[]",
          "name": "",
          "type": "uint256[]"
        },
        {
          "internalType": "uint256[]",
          "name": "",
          "type": "uint256[]"
        },
        {
          "internalType": "address[]",
          "name": "",
          "type": "address[]"
        },
        {
          "internalType": "string[]",
          "name": "",
          "type": "string[]"
        }
      ],
      "stateMutability": "view",
      "type": "function",
      "constant": true
    },
    {
      "inputs": [
        {
          "internalType": "uint256",
          "name": "label_",
          "type": "uint256"
        },
        {
          "internalType": "string",
          "name": "search_",
          "type": "string"
        }
      ],
      "name": "getlabeldisplays",
      "outputs": [
        {
          "internalType": "uint256[]",
          "name": "",
          "type": "uint256[]"
        },
        {
          "internalType": "uint256[]",
          "name": "",
          "type": "uint256[]"
        },
        {
          "internalType": "address[]",
          "name": "",
          "type": "address[]"
        },
        {
          "internalType": "string[]",
          "name": "",
          "type": "string[]"
        }
      ],
      "stateMutability": "view",
      "type": "function",
      "constant": true
    },
    {
      "inputs": [
        {
          "internalType": "uint256",
          "name": "label_",
          "type": "uint256"
        }
      ],
      "name": "getvolume",
      "outputs": [
        {
          "internalType": "uint256",
          "name": "",
          "type": "uint256"
        },
        {
          "internalType": "address[]",
          "name": "",
          "type": "address[]"
        }
      ],
      "stateMutability": "view",
      "type": "function",
      "constant": true
    },
    {
      "inputs": [
        {
          "internalType": "uint256",
          "name": "label_",
          "type": "uint256"
        },
        {
          "internalType": "address",
          "name": "buyer_",
          "type": "address"
        }
      ],
      "name": "getlabelbuyers",
      "outputs": [
        {
          "internalType": "uint256",
          "name": "",
          "type": "uint256"
        },
        {
          "internalType": "bool",
          "name": "",
          "type": "bool"
        }
      ],
      "stateMutability": "view",
      "type": "function",
      "constant": true
    },
    {
      "inputs": [
        {
          "internalType": "uint256",
          "name": "saleid_",
          "type": "uint256"
        }
      ],
      "name": "getpaysplit",
      "outputs": [
        {
          "internalType": "uint256",
          "name": "",
          "type": "uint256"
        },
        {
          "internalType": "address",
          "name": "",
          "type": "address"
        }
      ],
      "stateMutability": "nonpayable",
      "type": "function"
    },
    {
      "inputs": [
        {
          "internalType": "uint256",
          "name": "nftea_",
          "type": "uint256"
        },
        {
          "internalType": "address",
          "name": "holder_",
          "type": "address"
        }
      ],
      "name": "getNftea2lastmarket",
      "outputs": [
        {
          "internalType": "uint256",
          "name": "",
          "type": "uint256"
        },
        {
          "internalType": "uint256",
          "name": "",
          "type": "uint256"
        },
        {
          "internalType": "uint256",
          "name": "",
          "type": "uint256"
        },
        {
          "internalType": "uint256",
          "name": "",
          "type": "uint256"
        }
      ],
      "stateMutability": "view",
      "type": "function",
      "constant": true
    }
  ],
  "bytecode": "0x60c0604052600f60809081526e53484f502053544f5241474520563160881b60a05260159062000030908262000131565b503480156200003e57600080fd5b50604051620047c8380380620047c88339810160408190526200006191620001fd565b601680546001600160a01b0319166001600160a01b039290921691909117905560006017556200022f565b634e487b7160e01b600052604160045260246000fd5b600181811c90821680620000b757607f821691505b602082108103620000d857634e487b7160e01b600052602260045260246000fd5b50919050565b601f8211156200012c57600081815260208120601f850160051c81016020861015620001075750805b601f850160051c820191505b81811015620001285782815560010162000113565b5050505b505050565b81516001600160401b038111156200014d576200014d6200008c565b62000165816200015e8454620000a2565b84620000de565b602080601f8311600181146200019d5760008415620001845750858301515b600019600386901b1c1916600185901b17855562000128565b600085815260208120601f198616915b82811015620001ce57888601518255948401946001909101908401620001ad565b5085821015620001ed5787850151600019600388901b60f8161c191681555b5050505050600190811b01905550565b6000602082840312156200021057600080fd5b81516001600160a01b03811681146200022857600080fd5b9392505050565b614589806200023f6000396000f3fe6080604052600436106102285760003560e01c806399ff1b7811610123578063d940e5e4116100ab578063f136c4301161006f578063f136c43014610859578063f23a6e6114610891578063f3ca9cae146108d6578063f4c38d56146108f6578063fc47f6251461092e57600080fd5b8063d940e5e414610749578063de8ad1d714610769578063edd4ce0f14610789578063eddfb8bc146107e5578063f09d32b81461081c57600080fd5b8063bd84ef42116100f2578063bd84ef421461065f578063be453eb41461069a578063c329cfba146106cf578063c510da62146106ef578063d1fa171b1461071c57600080fd5b806399ff1b78146105d9578063a88335be146105f9578063b5d4b86214610619578063b91e07cc1461064957600080fd5b806348e3cf24116101b15780638766cdb3116101755780638766cdb3146105215780638a83482d146105415780638de938c2146105615780638e54e42c14610581578063961a7a1c146105a157600080fd5b806348e3cf24146104015780634f0115601461048457806366d52c65146104a4578063747f801e146104d35780637fc07ffe1461050157600080fd5b8063238c73d8116101f8578063238c73d81461030157806325fc94231461032157806326100f551461036f5780632f36e7211461039c5780633e053236146103d457600080fd5b8062a62f291461023457806306fdde03146102675780630ba84478146102895780631cb2e519146102c157600080fd5b3661022f57005b600080fd5b34801561024057600080fd5b5061025461024f3660046139d1565b61095b565b6040519081526020015b60405180910390f35b34801561027357600080fd5b5061027c61098c565b60405161025e9190613a4d565b34801561029557600080fd5b506102546102a43660046139d1565b600a60209081526000928352604080842090915290825290205481565b3480156102cd57600080fd5b506102f16102dc366004613a60565b60146020526000908152604090205460ff1681565b604051901515815260200161025e565b34801561030d57600080fd5b5061025461031c366004613a79565b610a1a565b34801561032d57600080fd5b5061035761033c366004613a60565b600f602052600090815260409020546001600160a01b031681565b6040516001600160a01b03909116815260200161025e565b34801561037b57600080fd5b5061025461038a366004613a60565b60046020526000908152604090205481565b3480156103a857600080fd5b506102546103b7366004613a79565b600c60209081526000928352604080842090915290825290205481565b3480156103e057600080fd5b506102546103ef366004613a60565b60066020526000908152604090205481565b34801561040d57600080fd5b5061046461041c366004613a9b565b600091825260056020908152604080842054601183528185206001600160a01b0394909416855292825280842054838552600690925280842054828552932054919390929190565b60408051948552602085019390935291830152606082015260800161025e565b34801561049057600080fd5b506102f161049f366004613a60565b610a36565b3480156104b057600080fd5b506104c46104bf366004613acb565b610f45565b60405161025e93929190613b82565b3480156104df57600080fd5b506104f36104ee366004613a60565b6112b2565b60405161025e929190613bfe565b34801561050d57600080fd5b5061025461051c366004613a79565b61132f565b34801561052d57600080fd5b5061035761053c366004613a79565b61134b565b34801561054d57600080fd5b506102f161055c366004613d1b565b611383565b34801561056d57600080fd5b5061025461057c366004613a79565b611ba0565b34801561058d57600080fd5b5061025461059c3660046139d1565b611bbc565b3480156105ad57600080fd5b506102546105bc366004613a79565b600e60209081526000928352604080842090915290825290205481565b3480156105e557600080fd5b506102546105f4366004613a79565b611bd8565b34801561060557600080fd5b506102f1610614366004613d7d565b611bf4565b34801561062557600080fd5b50610639610634366004613e13565b611fa0565b60405161025e9493929190613e6d565b34801561065557600080fd5b5061025460175481565b34801561066b57600080fd5b506102f161067a3660046139d1565b601360209081526000928352604080842090915290825290205460ff1681565b3480156106a657600080fd5b506106ba6106b5366004613a9b565b6125a4565b6040805192835290151560208301520161025e565b3480156106db57600080fd5b506103576106ea366004613a79565b6125f7565b3480156106fb57600080fd5b5061070f61070a366004613a60565b612613565b60405161025e9190613ec5565b34801561072857600080fd5b50610254610737366004613a60565b60056020526000908152604090205481565b34801561075557600080fd5b50610639610764366004613e13565b612739565b34801561077557600080fd5b506104c4610784366004613acb565b612c4a565b34801561079557600080fd5b506107c86107a4366004613a60565b60006020819052908152604090208054600182015460049092015490919060ff1683565b60408051938452602084019290925215159082015260600161025e565b3480156107f157600080fd5b50610805610800366004613f5f565b6130cc565b60408051921515835260208301919091520161025e565b34801561082857600080fd5b5061083c610837366004613a60565b6136eb565b604080519283526001600160a01b0390911660208301520161025e565b34801561086557600080fd5b50610254610874366004613a9b565b601160209081526000928352604080842090915290825290205481565b34801561089d57600080fd5b506108bd6108ac366004614022565b63f23a6e6160e01b95945050505050565b6040516001600160e01b0319909116815260200161025e565b3480156108e257600080fd5b50601654610357906001600160a01b031681565b34801561090257600080fd5b506102546109113660046139d1565b600860209081526000928352604080842090915290825290205481565b34801561093a57600080fd5b50610254610949366004613a60565b60106020526000908152604090205481565b6007602052816000526040600020818154811061097757600080fd5b90600052602060002001600091509150505481565b60158054610999906140ab565b80601f01602080910402602001604051908101604052809291908181526020018280546109c5906140ab565b8015610a125780601f106109e757610100808354040283529160200191610a12565b820191906000526020600020905b8154815290600101906020018083116109f557829003601f168201915b505050505081565b600b602052816000526040600020818154811061097757600080fd5b601654604051630568e17d60e11b815233600482015260009182916001600160a01b0390911690630ad1c2fa90602401602060405180830381865afa158015610a83573d6000803e3d6000fd5b505050506040513d601f19601f82011682018060405250810190610aa791906140fa565b905080610afb5760405162461bcd60e51b815260206004820152601a60248201527f6e6f7420616e2061646d696e2073686f7073746f72616765203200000000000060448201526064015b60405180910390fd5b600083815260208190526040812060048101805460ff1916905560020180546003908110610b2b57610b2b614115565b90600052602060002001819055506000806000858152602001908152602001600020600201600a81548110610b6257610b62614115565b906000526020600020018190555060076000806000868152602001908152602001600020600301600081548110610b9b57610b9b614115565b60009182526020808320909101546001600160a01b03168352828101939093526040918201812086825292819052908120600301805460019260079290918290610be757610be7614115565b60009182526020808320909101546001600160a01b03168352820192909252604001902054610c169190614141565b81548110610c2657610c26614115565b906000526020600020015460076000806000878152602001908152602001600020600301600081548110610c5c57610c5c614115565b60009182526020808320909101546001600160a01b03168352828101939093526040918201812087825292819052908120600301805460089291908290610ca557610ca5614115565b60009182526020808320909101546001600160a01b03168352828101939093526040918201812088825290925290205481548110610ce557610ce5614115565b906000526020600020018190555060076000806000868152602001908152602001600020600301600081548110610d1e57610d1e614115565b60009182526020808320909101546001600160a01b031683528201929092526040019020805480610d5157610d51614154565b60019003818190600052602060002001600090559055600b6000806000868152602001908152602001600020600201600681548110610d9257610d92614115565b906000526020600020015481526020019081526020016000206001600b6000806000888152602001908152602001600020600201600681548110610dd857610dd8614115565b9060005260206000200154815260200190815260200160002080549050610dff9190614141565b81548110610e0f57610e0f614115565b9060005260206000200154600b6000806000878152602001908152602001600020600201600681548110610e4557610e45614115565b90600052602060002001548152602001908152602001600020600c6000806000888152602001908152602001600020600201600681548110610e8957610e89614115565b9060005260206000200154815260200190815260200160002060008681526020019081526020016000205481548110610ec457610ec4614115565b9060005260206000200181905550600b6000806000868152602001908152602001600020600201600681548110610efd57610efd614115565b90600052602060002001548152602001908152602001600020805480610f2557610f25614154565b600190038181906000526020600020016000905590556001915050919050565b6001600160a01b03811660009081526007602052604081205460609182918291906001600160401b03811115610f7d57610f7d613c1f565b604051908082528060200260200182016040528015610fa6578160200160208202803683370190505b506001600160a01b038616600090815260076020526040812054919250906001600160401b03811115610fdb57610fdb613c1f565b604051908082528060200260200182016040528015611004578160200160208202803683370190505b506001600160a01b038716600090815260076020526040812054919250906001600160401b0381111561103957611039613c1f565b60405190808252806020026020018201604052801561106c57816020015b60608152602001906001900390816110575790505b50601654604051636881aedd60e01b81529192506000916001600160a01b0390911690636881aedd906110a19060040161416a565b602060405180830381865afa1580156110be573d6000803e3d6000fd5b505050506040513d601f19601f820116820180604052508101906110e29190614190565b905060005b6001600160a01b0389166000908152600760205260409020548110156112a4576001600160a01b038916600090815260076020526040902080548290811061113157611131614115565b906000526020600020015484828151811061114e5761114e614115565b602002602001018181525050600080600760008c6001600160a01b03166001600160a01b03168152602001908152602001600020838154811061119357611193614115565b906000526020600020015481526020019081526020016000206002016000815481106111c1576111c1614115565b90600052602060002001548582815181106111de576111de614115565b602002602001018181525050816001600160a01b0316633b08f80486838151811061120b5761120b614115565b60200260200101516040518263ffffffff1660e01b815260040161123191815260200190565b600060405180830381865afa15801561124e573d6000803e3d6000fd5b505050506040513d6000823e601f3d908101601f1916820160405261127691908101906141f2565b83828151811061128857611288614115565b60200260200101819052508061129d90614226565b90506110e7565b509297919650945092505050565b6000818152600660209081526040808320546012835281842080548351818602810186019094528084526060949293919283919083018282801561131f57602002820191906000526020600020905b81546001600160a01b03168152600190910190602001808311611301575b5050505050905091509150915091565b6003602052816000526040600020818154811061097757600080fd5b6002602052816000526040600020818154811061136757600080fd5b6000918252602090912001546001600160a01b03169150829050565b601654604051630568e17d60e11b815233600482015260009182916001600160a01b0390911690630ad1c2fa90602401602060405180830381865afa1580156113d0573d6000803e3d6000fd5b505050506040513d601f19601f820116820180604052508101906113f491906140fa565b9050806114435760405162461bcd60e51b815260206004820152601a60248201527f6e6f7420616e2061646d696e2073686f7073746f7261676520330000000000006044820152606401610af2565b60016114898660008088815260200190815260200160002060020160038154811061147057611470614115565b90600052602060002001546138e390919063ffffffff16565b101561186257600084815260208190526040812060048101805460ff191690556003018054600792919082906114c1576114c1614115565b60009182526020808320909101546001600160a01b0316835282810193909352604091820181208782529281905290812060030180546001926007929091829061150d5761150d614115565b60009182526020808320909101546001600160a01b0316835282019290925260400190205461153c9190614141565b8154811061154c5761154c614115565b90600052602060002001546007600080600088815260200190815260200160002060030160008154811061158257611582614115565b60009182526020808320909101546001600160a01b031683528281019390935260409182018120888252928190529081206003018054600892919082906115cb576115cb614115565b60009182526020808320909101546001600160a01b0316835282810193909352604091820181208982529092529020548154811061160b5761160b614115565b90600052602060002001819055506007600080600087815260200190815260200160002060030160008154811061164457611644614115565b60009182526020808320909101546001600160a01b03168352820192909252604001902080548061167757611677614154565b60019003818190600052602060002001600090559055600b60008060008781526020019081526020016000206002016006815481106116b8576116b8614115565b906000526020600020015481526020019081526020016000206001600b60008060008981526020019081526020016000206002016006815481106116fe576116fe614115565b90600052602060002001548152602001908152602001600020805490506117259190614141565b8154811061173557611735614115565b9060005260206000200154600b600080600088815260200190815260200160002060020160068154811061176b5761176b614115565b90600052602060002001548152602001908152602001600020600c60008060008981526020019081526020016000206002016006815481106117af576117af614115565b90600052602060002001548152602001908152602001600020600087815260200190815260200160002054815481106117ea576117ea614115565b9060005260206000200181905550600b600080600087815260200190815260200160002060020160068154811061182357611823614115565b9060005260206000200154815260200190815260200160002080548061184b5761184b614154565b600190038181906000526020600020016000905590555b8460008086815260200190815260200160002060020160038154811061188a5761188a614115565b9060005260206000200160008282546118a39190614141565b92505081905550856001815181106118bd576118bd614115565b60200260200101516000808681526020019081526020016000206002016001815481106118ec576118ec614115565b906000526020600020018190555060008085815260200190815260200160002060020160068154811061192157611921614115565b90600052602060002001546005600080600088815260200190815260200160002060020160008154811061195757611957614115565b906000526020600020015481526020019081526020016000208190555060008085815260200190815260200160002060020160068154811061199b5761199b614115565b9060005260206000200154601160008060008881526020019081526020016000206002016000815481106119d1576119d1614115565b906000526020600020015481526020019081526020016000206000856001600160a01b03166001600160a01b031681526020019081526020016000208190555085600181518110611a2457611a24614115565b602002602001015160066000806000888152602001908152602001600020600201600681548110611a5757611a57614115565b906000526020600020015481526020019081526020016000206000828254611a7f919061423f565b90915550506000848152602081905260408120600201805460129291906006908110611aad57611aad614115565b6000918252602080832091909101548352828101939093526040918201812080546001810182559082528382200180546001600160a01b0319166001600160a01b03881617905586815291829052812060020180546006908110611b1357611b13614115565b90600052602060002001541115611b94576001600160a01b0383166000908152601360209081526040808320878452918390528220600201805460019391906006908110611b6357611b63614115565b9060005260206000200154815260200190815260200160002060006101000a81548160ff0219169083151502179055505b50600195945050505050565b6001602052816000526040600020818154811061097757600080fd5b6009602052816000526040600020818154811061097757600080fd5b600d602052816000526040600020818154811061097757600080fd5b601654604051630568e17d60e11b815233600482015260009182916001600160a01b0390911690630ad1c2fa90602401602060405180830381865afa158015611c41573d6000803e3d6000fd5b505050506040513d601f19601f82011682018060405250810190611c6591906140fa565b905080611cb45760405162461bcd60e51b815260206004820152601a60248201527f6e6f7420616e2061646d696e2073686f7073746f7261676520340000000000006044820152606401610af2565b83600103611df85760008581526014602052604090205460ff1615611d105760405162461bcd60e51b8152602060048201526012602482015271616c7265616479206f6e20646973706c617960701b6044820152606401610af2565b6000868152600d60209081526040822080546001818101835582855292842001889055918890529054611d439190614141565b6000878152600e602090815260408083208984528252808320939093556001600160a01b0386168083526009825292822080546001818101835582855292842001899055929091529054611d979190614141565b6001600160a01b0384166000818152600a602090815260408083208a845282528083209490945560148152838220805460ff19166001179055601081528382208a9055600f90529190912080546001600160a01b0319169091179055611b94565b600085815260106020908152604080832054808452600d909252909120805491975090611e2790600190614141565b81548110611e3757611e37614115565b6000918252602080832090910154888352600d82526040808420600e84528185208a86529093529092205481548110611e7257611e72614115565b9060005260206000200181905550600d6000878152602001908152602001600020805480611ea257611ea2614154565b6000828152602080822083016000199081018390559092019092556001600160a01b0385168252600990526040902054611ede90600190614141565b6001600160a01b0384166000908152600960209081526040808320600a83528184208a85529092529091205481548110611f1a57611f1a614115565b60009182526020808320909101929092556001600160a01b0385168152600990915260409020805480611f4f57611f4f614154565b600082815260208082208301600019908101839055909201909255868252601481526040808320805460ff19169055600f909152902080546001600160a01b03191690556001915050949350505050565b606080606080600186101561209357601654604051636881aedd60e01b81526000916001600160a01b031690636881aedd90611fde90600401614252565b602060405180830381865afa158015611ffb573d6000803e3d6000fd5b505050506040513d601f19601f8201168201806040525081019061201f9190614190565b604051630309c40160e51b81529091506001600160a01b0382169063613880209061204e908990600401613a4d565b602060405180830381865afa15801561206b573d6000803e3d6000fd5b505050506040513d601f19601f8201168201806040525081019061208f9190614277565b9650505b6000868152600d60205260408120546001600160401b038111156120b9576120b9613c1f565b6040519080825280602002602001820160405280156120e2578160200160208202803683370190505b506000888152600d6020526040812054919250906001600160401b0381111561210d5761210d613c1f565b604051908082528060200260200182016040528015612136578160200160208202803683370190505b506000898152600d6020526040812054919250906001600160401b0381111561216157612161613c1f565b60405190808252806020026020018201604052801561218a578160200160208202803683370190505b5060008a8152600d6020526040812054919250906001600160401b038111156121b5576121b5613c1f565b6040519080825280602002602001820160405280156121e857816020015b60608152602001906001900390816121d35790505b50601654604051636881aedd60e01b81529192506000916001600160a01b0390911690636881aedd9061221d9060040161416a565b602060405180830381865afa15801561223a573d6000803e3d6000fd5b505050506040513d601f19601f8201168201806040525081019061225e9190614190565b601654604051636881aedd60e01b81526020600482015260086024820152673a32b0ba37b5b2b760c11b60448201529192506000916001600160a01b0390911690636881aedd90606401602060405180830381865afa1580156122c5573d6000803e3d6000fd5b505050506040513d601f19601f820116820180604052508101906122e99190614190565b905060005b60008d8152600d60205260409020548110156125905760008d8152600d6020526040902080548290811061232457612324614115565b906000526020600020015487828151811061234157612341614115565b6020026020010181815250506000836001600160a01b0316638531866989848151811061237057612370614115565b60200260200101516040518263ffffffff1660e01b815260040161239691815260200190565b602060405180830381865afa1580156123b3573d6000803e3d6000fd5b505050506040513d601f19601f820116820180604052508101906123d79190614190565b6040516370a0823160e01b81526001600160a01b038083166004830152919250908416906370a0823190602401602060405180830381865afa158015612421573d6000803e3d6000fd5b505050506040513d601f19601f820116820180604052508101906124459190614277565b87838151811061245757612457614115565b602002602001018181525050600f600089848151811061247957612479614115565b6020026020010151815260200190815260200160002060009054906101000a90046001600160a01b03168683815181106124b5576124b5614115565b60200260200101906001600160a01b031690816001600160a01b031681525050836001600160a01b0316633b08f8048984815181106124f6576124f6614115565b60200260200101516040518263ffffffff1660e01b815260040161251c91815260200190565b600060405180830381865afa158015612539573d6000803e3d6000fd5b505050506040513d6000823e601f3d908101601f1916820160405261256191908101906141f2565b85838151811061257357612573614115565b6020026020010181905250508061258990614226565b90506122ee565b50949b939a50919850965090945050505050565b600080806001600160a01b038416156125e057506001600160a01b038316600090815260136020908152604080832087845290915290205460ff165b600094855260126020526040909420549492505050565b6012602052816000526040600020818154811061136757600080fd5b6126476040518060a00160405280600081526020016000815260200160608152602001606081526020016000151581525090565b60008281526020818152604091829020825160a08101845281548152600182015481840152600282018054855181860281018601875281815292959394938601938301828280156126b757602002820191906000526020600020905b8154815260200190600101908083116126a3575b505050505081526020016003820180548060200260200160405190810160405280929190818152602001828054801561271957602002820191906000526020600020905b81546001600160a01b031681526001909101906020018083116126fb575b50505091835250506004919091015460ff16151560209091015292915050565b606080606080600186101561282c57601654604051636881aedd60e01b81526000916001600160a01b031690636881aedd9061277790600401614252565b602060405180830381865afa158015612794573d6000803e3d6000fd5b505050506040513d601f19601f820116820180604052508101906127b89190614190565b604051630309c40160e51b81529091506001600160a01b038216906361388020906127e7908990600401613a4d565b602060405180830381865afa158015612804573d6000803e3d6000fd5b505050506040513d601f19601f820116820180604052508101906128289190614277565b9650505b6000868152600b60205260408120546001600160401b0381111561285257612852613c1f565b60405190808252806020026020018201604052801561287b578160200160208202803683370190505b506000888152600b6020526040812054919250906001600160401b038111156128a6576128a6613c1f565b6040519080825280602002602001820160405280156128cf578160200160208202803683370190505b506000898152600b6020526040812054919250906001600160401b038111156128fa576128fa613c1f565b604051908082528060200260200182016040528015612923578160200160208202803683370190505b5060008a8152600b6020526040812054919250906001600160401b0381111561294e5761294e613c1f565b60405190808252806020026020018201604052801561298157816020015b606081526020019060019003908161296c5790505b50601654604051636881aedd60e01b81529192506000916001600160a01b0390911690636881aedd906129b69060040161416a565b602060405180830381865afa1580156129d3573d6000803e3d6000fd5b505050506040513d601f19601f820116820180604052508101906129f79190614190565b905060005b60008c8152600b6020526040902054811015612c385760008c8152600b60205260409020805482908110612a3257612a32614115565b9060005260206000200154858281518110612a4f57612a4f614115565b602002602001018181525050600080600b60008f81526020019081526020016000208381548110612a8257612a82614115565b90600052602060002001548152602001908152602001600020600201600081548110612ab057612ab0614115565b9060005260206000200154868281518110612acd57612acd614115565b602002602001018181525050600080600b60008f81526020019081526020016000208381548110612b0057612b00614115565b90600052602060002001548152602001908152602001600020600301600081548110612b2e57612b2e614115565b9060005260206000200160009054906101000a90046001600160a01b0316848281518110612b5e57612b5e614115565b60200260200101906001600160a01b031690816001600160a01b031681525050816001600160a01b0316633b08f804878381518110612b9f57612b9f614115565b60200260200101516040518263ffffffff1660e01b8152600401612bc591815260200190565b600060405180830381865afa158015612be2573d6000803e3d6000fd5b505050506040513d6000823e601f3d908101601f19168201604052612c0a91908101906141f2565b838281518110612c1c57612c1c614115565b602002602001018190525080612c3190614226565b90506129fc565b50939a92995090975095509350505050565b6001600160a01b03811660009081526009602052604081205460609182918291906001600160401b03811115612c8257612c82613c1f565b604051908082528060200260200182016040528015612cab578160200160208202803683370190505b506001600160a01b038616600090815260096020526040812054919250906001600160401b03811115612ce057612ce0613c1f565b604051908082528060200260200182016040528015612d09578160200160208202803683370190505b506001600160a01b038716600090815260096020526040812054919250906001600160401b03811115612d3e57612d3e613c1f565b604051908082528060200260200182016040528015612d7157816020015b6060815260200190600190039081612d5c5790505b50601654604051636881aedd60e01b81529192506000916001600160a01b0390911690636881aedd90612da69060040161416a565b602060405180830381865afa158015612dc3573d6000803e3d6000fd5b505050506040513d601f19601f82011682018060405250810190612de79190614190565b601654604051636881aedd60e01b81526020600482015260086024820152673a32b0ba37b5b2b760c11b60448201529192506000916001600160a01b0390911690636881aedd90606401602060405180830381865afa158015612e4e573d6000803e3d6000fd5b505050506040513d601f19601f82011682018060405250810190612e729190614190565b905060005b6001600160a01b038a166000908152600960205260409020548110156130bb576001600160a01b038a166000908152600960205260409020805482908110612ec157612ec1614115565b9060005260206000200154868281518110612ede57612ede614115565b6020026020010181815250506000836001600160a01b03166385318669888481518110612f0d57612f0d614115565b60200260200101516040518263ffffffff1660e01b8152600401612f3391815260200190565b602060405180830381865afa158015612f50573d6000803e3d6000fd5b505050506040513d601f19601f82011682018060405250810190612f749190614190565b6040516370a0823160e01b81526001600160a01b038083166004830152919250908416906370a0823190602401602060405180830381865afa158015612fbe573d6000803e3d6000fd5b505050506040513d601f19601f82011682018060405250810190612fe29190614277565b868381518110612ff457612ff4614115565b602002602001018181525050836001600160a01b0316633b08f80488848151811061302157613021614115565b60200260200101516040518263ffffffff1660e01b815260040161304791815260200190565b600060405180830381865afa158015613064573d6000803e3d6000fd5b505050506040513d6000823e601f3d908101601f1916820160405261308c91908101906141f2565b85838151811061309e5761309e614115565b602002602001018190525050806130b490614226565b9050612e77565b509398929750909550909350505050565b601654604051630568e17d60e11b8152336004820152600091829182916001600160a01b031690630ad1c2fa90602401602060405180830381865afa158015613119573d6000803e3d6000fd5b505050506040513d601f19601f8201168201806040525081019061313d91906140fa565b90508061318c5760405162461bcd60e51b815260206004820152601a60248201527f6e6f7420616e2061646d696e2073686f7073746f7261676520310000000000006044820152606401610af2565b601654604051636881aedd60e01b81526000916001600160a01b031690636881aedd906131bb90600401614252565b602060405180830381865afa1580156131d8573d6000803e3d6000fd5b505050506040513d601f19601f820116820180604052508101906131fc9190614190565b9050806001600160a01b03166390de3b9c8760048151811061322057613220614115565b60200260200101516040518263ffffffff1660e01b81526004016132629181526040602082018190526004908201526337b832b760e11b606082015260800190565b600060405180830381865afa15801561327f573d6000803e3d6000fd5b505050506040513d6000823e601f3d908101601f191682016040526132a791908101906143c4565b50508151601890815560208084015180518594506132c9926019920190613904565b50604082015180516132e5916002840191602090910190613969565b50506017546132f89250905060016138f8565b60178190556040805160a081019091529081526000906020810161331f426276a70061423f565b815260200188516001600160401b0381111561333d5761333d613c1f565b604051908082528060200260200182016040528015613366578160200160208202803683370190505b50815260200187516001600160401b0381111561338557613385613c1f565b6040519080825280602002602001820160405280156133ae578160200160208202803683370190505b5081526001602091820181905260175460009081528083526040908190208451815584840151928101929092558301518051939450849391926133f992600285019290910190613969565b5060608201518051613415916003840191602090910190613904565b50608091909101516004918201805460ff191691151591909117905587516000918991811061344657613446614115565b602002602001015111156134bb5760198054600390811061346957613469614115565b9060005260206000200160009054906101000a90046001600160a01b03168660058151811061349a5761349a614115565b60200260200101906001600160a01b031690816001600160a01b0316815250505b60175460009081526020818152604090912087516134e192600390920191890190613904565b506017546000908152602081815260409091208851613508926002909201918a0190613969565b50600760008760008151811061352057613520614115565b6020908102919091018101516001600160a01b03168252818101929092526040016000908120601754815460018181018455928452938320909301929092558751600791908990829061357557613575614115565b60200260200101516001600160a01b03166001600160a01b03168152602001908152602001600020805490506135ab9190614141565b60086000886000815181106135c2576135c2614115565b60200260200101516001600160a01b03166001600160a01b031681526020019081526020016000206000601754815260200190815260200160002081905550600b60008860068151811061361857613618614115565b6020026020010151815260200190815260200160002060175490806001815401808255809150506001900390600052602060002001600090919091909150556001600b60008960068151811061367057613670614115565b60200260200101518152602001908152602001600020805490506136949190614141565b600c6000896006815181106136ab576136ab614115565b6020026020010151815260200190815260200160002060006017548152602001908152602001600020819055506001601754945094505050509250929050565b601654604051636881aedd60e01b8152600091829182916001600160a01b031690636881aedd9061371e90600401614252565b602060405180830381865afa15801561373b573d6000803e3d6000fd5b505050506040513d601f19601f8201168201806040525081019061375f9190614190565b9050600080600080600088815260200190815260200160002060020160068154811061378d5761378d614115565b906000526020600020015411156138d857826001600160a01b031663875ff2156000808981526020019081526020016000206002016006815481106137d4576137d4614115565b90600052602060002001546040518263ffffffff1660e01b81526004016137fd91815260200190565b600060405180830381865afa15801561381a573d6000803e3d6000fd5b505050506040513d6000823e601f3d908101601f19168201604052613842919081019061445c565b505080516018908155602080830151805184939261386592601992910190613904565b5060408201518051613881916002840191602090910190613969565b505050506018600201600b8154811061389c5761389c614115565b9060005260206000200154915060186001016002815481106138c0576138c0614115565b6000918252602090912001546001600160a01b031690505b909590945092505050565b60006138ef8284614141565b90505b92915050565b60006138ef828461423f565b828054828255906000526020600020908101928215613959579160200282015b8281111561395957825182546001600160a01b0319166001600160a01b03909116178255602090920191600190910190613924565b506139659291506139a4565b5090565b828054828255906000526020600020908101928215613959579160200282015b82811115613959578251825591602001919060010190613989565b5b8082111561396557600081556001016139a5565b6001600160a01b03811681146139ce57600080fd5b50565b600080604083850312156139e457600080fd5b82356139ef816139b9565b946020939093013593505050565b60005b83811015613a18578181015183820152602001613a00565b50506000910152565b60008151808452613a398160208601602086016139fd565b601f01601f19169290920160200192915050565b6020815260006138ef6020830184613a21565b600060208284031215613a7257600080fd5b5035919050565b60008060408385031215613a8c57600080fd5b50508035926020909101359150565b60008060408385031215613aae57600080fd5b823591506020830135613ac0816139b9565b809150509250929050565b600060208284031215613add57600080fd5b8135613ae8816139b9565b9392505050565b600081518084526020808501945080840160005b83811015613b1f57815187529582019590820190600101613b03565b509495945050505050565b600082825180855260208086019550808260051b84010181860160005b84811015613b7557601f19868403018952613b63838351613a21565b98840198925090830190600101613b47565b5090979650505050505050565b606081526000613b956060830186613aef565b8281036020840152613ba78186613aef565b90508281036040840152613bbb8185613b2a565b9695505050505050565b600081518084526020808501945080840160005b83811015613b1f5781516001600160a01b031687529582019590820190600101613bd9565b828152604060208201526000613c176040830184613bc5565b949350505050565b634e487b7160e01b600052604160045260246000fd5b604051606081016001600160401b0381118282101715613c5757613c57613c1f565b60405290565b604051601f8201601f191681016001600160401b0381118282101715613c8557613c85613c1f565b604052919050565b60006001600160401b03821115613ca657613ca6613c1f565b5060051b60200190565b600082601f830112613cc157600080fd5b81356020613cd6613cd183613c8d565b613c5d565b82815260059290921b84018101918181019086841115613cf557600080fd5b8286015b84811015613d105780358352918301918301613cf9565b509695505050505050565b60008060008060808587031215613d3157600080fd5b84356001600160401b03811115613d4757600080fd5b613d5387828801613cb0565b94505060208501359250604085013591506060850135613d72816139b9565b939692955090935050565b60008060008060808587031215613d9357600080fd5b8435935060208501359250604085013591506060850135613d72816139b9565b60006001600160401b03821115613dcc57613dcc613c1f565b50601f01601f191660200190565b6000613de8613cd184613db3565b9050828152838383011115613dfc57600080fd5b828260208301376000602084830101529392505050565b60008060408385031215613e2657600080fd5b8235915060208301356001600160401b03811115613e4357600080fd5b8301601f81018513613e5457600080fd5b613e6385823560208401613dda565b9150509250929050565b608081526000613e806080830187613aef565b8281036020840152613e928187613aef565b90508281036040840152613ea68186613bc5565b90508281036060840152613eba8185613b2a565b979650505050505050565b6000602080835260c08301845182850152818501516040850152604085015160a0606086015281815180845260e0870191508483019350600092505b80831015613f215783518252928401926001929092019190840190613f01565b506060870151868203601f190160808801529350613f3f8185613bc5565b93505050506080840151613f5760a085018215159052565b509392505050565b60008060408385031215613f7257600080fd5b82356001600160401b0380821115613f8957600080fd5b613f9586838701613cb0565b9350602091508185013581811115613fac57600080fd5b85019050601f81018613613fbf57600080fd5b8035613fcd613cd182613c8d565b81815260059190911b82018301908381019088831115613fec57600080fd5b928401925b82841015614013578335614004816139b9565b82529284019290840190613ff1565b80955050505050509250929050565b600080600080600060a0868803121561403a57600080fd5b8535614045816139b9565b94506020860135614055816139b9565b9350604086013592506060860135915060808601356001600160401b0381111561407e57600080fd5b8601601f8101881361408f57600080fd5b61409e88823560208401613dda565b9150509295509295909350565b600181811c908216806140bf57607f821691505b6020821081036140df57634e487b7160e01b600052602260045260246000fd5b50919050565b805180151581146140f557600080fd5b919050565b60006020828403121561410c57600080fd5b6138ef826140e5565b634e487b7160e01b600052603260045260246000fd5b634e487b7160e01b600052601160045260246000fd5b818103818111156138f2576138f261412b565b634e487b7160e01b600052603160045260246000fd5b6020808252600c908201526b1b5a5b9d18dbdb9d1c9858dd60a21b604082015260600190565b6000602082840312156141a257600080fd5b8151613ae8816139b9565b600082601f8301126141be57600080fd5b81516141cc613cd182613db3565b8181528460208386010111156141e157600080fd5b613c178260208301602087016139fd565b60006020828403121561420457600080fd5b81516001600160401b0381111561421a57600080fd5b613c17848285016141ad565b6000600182016142385761423861412b565b5060010190565b808201808211156138f2576138f261412b565b6020808252600b908201526a6d696e7473746f7261676560a81b604082015260600190565b60006020828403121561428957600080fd5b5051919050565b600082601f8301126142a157600080fd5b815160206142b1613cd183613c8d565b82815260059290921b840181019181810190868411156142d057600080fd5b8286015b84811015613d1057805183529183019183016142d4565b6000606082840312156142fd57600080fd5b614305613c35565b9050815181526020808301516001600160401b038082111561432657600080fd5b818501915085601f83011261433a57600080fd5b8151614348613cd182613c8d565b81815260059190911b8301840190848101908883111561436757600080fd5b938501935b8285101561438e57845161437f816139b9565b8252938501939085019061436c565b808688015250505060408501519250808311156143aa57600080fd5b50506143b884828501614290565b60408301525092915050565b600080600080608085870312156143da57600080fd5b84516001600160401b03808211156143f157600080fd5b6143fd888389016142eb565b9550602087015191508082111561441357600080fd5b61441f88838901614290565b9450604087015191508082111561443557600080fd5b50614442878288016141ad565b925050614451606086016140e5565b905092959194509250565b60008060006060848603121561447157600080fd5b83516001600160401b038082111561448857600080fd5b614494878388016142eb565b94506020915081860151818111156144ab57600080fd5b8601601f810188136144bc57600080fd5b80516144ca613cd182613c8d565b81815260059190911b8201840190848101908a8311156144e957600080fd5b8584015b83811015614521578051868111156145055760008081fd5b6145138d89838901016141ad565b8452509186019186016144ed565b5060408a015190975094505050508082111561453c57600080fd5b50614549868287016141ad565b915050925092509256fea2646970667358221220c391f45abc9e1b920614382a712e29c75e4e20dd73506b36c8a3723e0108426b64736f6c63430008110033",
  "immutableReferences": {},
  "source": "// SPDX-License-Identifier: MIT\n\npragma solidity ^0.8.0;\n\n\ninterface IERC165 {\n\n    function supportsInterface(bytes4 interfaceId) external view returns (bool);\n}\n\n\npragma solidity ^0.8.0;\n\n\ninterface IERC1155 is IERC165 {\n\n    event TransferSingle(address indexed operator, address indexed from, address indexed to, uint256 id, uint256 value);\n\n\n    event TransferBatch(\n        address indexed operator,\n        address indexed from,\n        address indexed to,\n        uint256[] ids,\n        uint256[] values\n    );\n\n\n    event ApprovalForAll(address indexed account, address indexed operator, bool approved);\n\n\n    event URI(string value, uint256 indexed id);\n\n\n    function balanceOf(address account, uint256 id) external view returns (uint256);\n\n\n    function balanceOfBatch(address[] calldata accounts, uint256[] calldata ids)\n        external\n        view\n        returns (uint256[] memory);\n\n\n    function setApprovalForAll(address operator, bool approved) external;\n\n\n    function isApprovedForAll(address account, address operator) external view returns (bool);\n\n\n    function safeTransferFrom(\n        address from,\n        address to,\n        uint256 id,\n        uint256 amount,\n        bytes calldata data\n    ) external;\n\n\n    function safeBatchTransferFrom(\n        address from,\n        address to,\n        uint256[] calldata ids,\n        uint256[] calldata amounts,\n        bytes calldata data\n    ) external;\n}\n\npragma solidity ^0.8.0;\n\n\ninterface IERC1155Receiver is IERC165 {\n\n    function onERC1155Received(\n        address operator,\n        address from,\n        uint256 id,\n        uint256 value,\n        bytes calldata data\n    ) external returns (bytes4);\n\n\n    function onERC1155BatchReceived(\n        address operator,\n        address from,\n        uint256[] calldata ids,\n        uint256[] calldata values,\n        bytes calldata data\n    ) external returns (bytes4);\n}\n\n\npragma solidity ^0.8.0;\n\n\ninterface IERC1155MetadataURI is IERC1155 {\n\n    function uri(uint256 id) external view returns (string memory);\n}\n\npragma solidity ^0.8.0;\ninterface IERC20 {\n\n    event Transfer(address indexed from, address indexed to, uint256 value);\n\n\n    event Approval(address indexed owner, address indexed spender, uint256 value);\n\n\n    function totalSupply() external view returns (uint256);\n\n\n    function balanceOf(address account) external view returns (uint256);\n\n\n    function transfer(address to, uint256 amount) external returns (bool);\n\n\n    function allowance(address owner, address spender) external view returns (uint256);\n\n\n    function approve(address spender, uint256 amount) external returns (bool);\n\n\n    function transferFrom(\n        address from,\n        address to,\n        uint256 amount\n    ) external returns (bool);\n}\n\npragma solidity ^0.8.0;\nlibrary SafeMath {\n\n    function tryAdd(uint256 a, uint256 b) internal pure returns (bool, uint256) {\n        unchecked {\n            uint256 c = a + b;\n            if (c < a) return (false, 0);\n            return (true, c);\n        }\n    }\n\n\n    function trySub(uint256 a, uint256 b) internal pure returns (bool, uint256) {\n        unchecked {\n            if (b > a) return (false, 0);\n            return (true, a - b);\n        }\n    }\n\n\n    function tryMul(uint256 a, uint256 b) internal pure returns (bool, uint256) {\n        unchecked {\n            // Gas optimization: this is cheaper than requiring 'a' not being zero, but the\n            // benefit is lost if 'b' is also tested.\n            // See: https://github.com/OpenZeppelin/openzeppelin-contracts/pull/522\n            if (a == 0) return (true, 0);\n            uint256 c = a * b;\n            if (c / a != b) return (false, 0);\n            return (true, c);\n        }\n    }\n\n\n    function tryDiv(uint256 a, uint256 b) internal pure returns (bool, uint256) {\n        unchecked {\n            if (b == 0) return (false, 0);\n            return (true, a / b);\n        }\n    }\n\n\n    function tryMod(uint256 a, uint256 b) internal pure returns (bool, uint256) {\n        unchecked {\n            if (b == 0) return (false, 0);\n            return (true, a % b);\n        }\n    }\n\n\n    function add(uint256 a, uint256 b) internal pure returns (uint256) {\n        return a + b;\n    }\n\n\n    function sub(uint256 a, uint256 b) internal pure returns (uint256) {\n        return a - b;\n    }\n\n\n    function mul(uint256 a, uint256 b) internal pure returns (uint256) {\n        return a * b;\n    }\n\n\n    function div(uint256 a, uint256 b) internal pure returns (uint256) {\n        return a / b;\n    }\n\n\n    function mod(uint256 a, uint256 b) internal pure returns (uint256) {\n        return a % b;\n    }\n\n\n    function sub(\n        uint256 a,\n        uint256 b,\n        string memory errorMessage\n    ) internal pure returns (uint256) {\n        unchecked {\n            require(b <= a, errorMessage);\n            return a - b;\n        }\n    }\n\n\n    function div(\n        uint256 a,\n        uint256 b,\n        string memory errorMessage\n    ) internal pure returns (uint256) {\n        unchecked {\n            require(b > 0, errorMessage);\n            return a / b;\n        }\n    }\n\n\n    function mod(\n        uint256 a,\n        uint256 b,\n        string memory errorMessage\n    ) internal pure returns (uint256) {\n        unchecked {\n            require(b > 0, errorMessage);\n            return a % b;\n        }\n    }\n}\n\npragma solidity ^0.8.4;\ninterface i1155{\n\n    struct SALE{\n        uint256 saleid;\n        uint256 expire;\n        uint256[] settings;\n        address[] addresses;\n        bool active;\n    }\n    struct NFTEA {\n        uint256 nftea;\n        address[] addresses;\n        uint256[] settings;\n    }\n    function fire(address caller_) external pure returns(uint256[] memory,uint256[] memory,uint256,bool,bool,uint256);\n    function gflame(string memory flame_) external pure returns(address);\n    function getContract(address contract_) external pure returns(bool);\n    // function getadmin(address admin_) external returns(bool);\n    function getlabel(uint256 nftea_, string memory label_) external pure returns(NFTEA memory _nfteas, uint256[] memory, string memory,bool);\n    function getnftea(uint256 nftea_) external pure returns(NFTEA memory _nfteas,string[] memory, string memory);\n    // function getSALE(uint256 sellid) external pure returns (SALE memory sale);\n    // function getroyatea(uint256 label_, address token_) external pure returns(uint256, uint256, uint256,uint256,uint256);\n    function getlabelsearch(string memory label_) external pure returns(uint256);\n    function _ipfs(uint256 nftea_) external pure returns(string memory);\n    function _nftea2wallet(uint256 nftea) external pure returns(address);\n\n}\ncontract shopstorage{\n\n    using SafeMath for uint256;\n\n    struct SALE{\n        uint256 saleid;\n        uint256 expire;\n        uint256[] settings;\n        address[] addresses;\n        bool active;\n    }\n    mapping(uint256=>SALE) public _sale;\n    mapping(uint256=>uint256[]) public _sale2settings;\n    mapping(uint256=>address[]) public _sale2addresses;\n    mapping(uint256=>uint256[]) public _nftea2sales;\n    mapping(uint256=>uint256) public _nfteasaleid2salesx;\n    mapping(uint256=>uint256) public _nftea2lastmarket;\n    mapping(uint256=>uint256) public _label2volume;\n    mapping(address=>uint256[]) public _seller2livesells;\n    mapping(address=>mapping(uint256=>uint256)) public _seller2livesellsx;\n    mapping(address=>uint256[]) public _holder2livedisplays;\n    mapping(address=>mapping(uint256=>uint256)) public _holder2livedisplaysx;\n    mapping(uint256=>uint256[]) public _label2livesells;\n    mapping(uint256=>mapping(uint256=>uint256)) public _label2livesellsx;\n    mapping(uint256=>uint256[]) public _label2livedisplay;\n    mapping(uint256=>mapping(uint256=>uint256)) public _label2livedisplayx;\n    mapping(uint256=>address) public _nftea2displayholder;\n    mapping(uint256=>uint256) public _nftea2labeldisplay;\n    mapping(uint256=>mapping(address=>uint256)) public _nftea2buyer2lastmarket;\n    mapping(uint256=>address[]) public _label2buyers;\n    mapping(address=>mapping(uint256=>bool)) public _buyer2labelbought;\n    mapping(uint256=>bool) public _ondisplay;\n    string public name = \"SHOP STORAGE V1\";\n    address public _fire;\n    uint256 public _saleid;\n    i1155.NFTEA _nfteas;\n\n    constructor(address fire_) {\n        _fire = fire_;\n        _saleid = 0;\n    }\n\n    receive () external payable {}\n    function onERC1155Received(\n        address,\n        address,\n        uint256,\n        uint256,\n        bytes memory\n    ) public virtual returns (bytes4) {\n        return this.onERC1155Received.selector;\n    }\n\n    function setsell(uint256[] memory sellsettings_, address[] memory addresses_) public returns(bool,uint256){\n\n        (bool success) = i1155(_fire).getContract(msg.sender);\n        require(success, 'not an admin shopstorage 1');\n        (address flame_) = i1155(_fire).gflame('mintstorage');\n        (_nfteas,,,) = i1155(flame_).getlabel(sellsettings_[4],'open');\n        _saleid = _saleid.add(1);\n        SALE memory save_ = SALE({\n            saleid: _saleid,\n            expire: block.timestamp + 90 days,\n            addresses: new address[](addresses_.length),\n            settings: new uint[](sellsettings_.length),\n            active:true\n        });\n        _sale[_saleid] = save_;\n        if(sellsettings_[4]>0){\n            addresses_[5] = _nfteas.addresses[3];\n        }\n        _sale[_saleid].addresses = addresses_;\n        _sale[_saleid].settings = sellsettings_;\n        _seller2livesells[addresses_[0]].push(_saleid);\n        _seller2livesellsx[addresses_[0]][_saleid] = _seller2livesells[addresses_[0]].length - 1;\n        _label2livesells[sellsettings_[6]].push(_saleid);\n        _label2livesellsx[sellsettings_[6]][_saleid] = _label2livesells[sellsettings_[6]].length - 1;\n\n        return (true, _saleid);\n    }\n    function setunsell(uint256 saleid_) public returns(bool){\n\n        (bool success) = i1155(_fire).getContract(msg.sender);\n        require(success, 'not an admin shopstorage 2');\n\n        _sale[saleid_].active = false;\n        _sale[saleid_].settings[3] = 0;\n        _sale[saleid_].settings[10] = 0;\n        _seller2livesells[_sale[saleid_].addresses[0]][_seller2livesellsx[_sale[saleid_].addresses[0]][saleid_]] = _seller2livesells[_sale[saleid_].addresses[0]][_seller2livesells[_sale[saleid_].addresses[0]].length - 1];\n        _seller2livesells[_sale[saleid_].addresses[0]].pop();\n        _label2livesells[_sale[saleid_].settings[6]][_label2livesellsx[_sale[saleid_].settings[6]][saleid_]] = _label2livesells[_sale[saleid_].settings[6]][_label2livesells[_sale[saleid_].settings[6]].length - 1];\n        _label2livesells[_sale[saleid_].settings[6]].pop();\n\n        return true;\n    }\n    function setbuyclose(uint256[] memory buysettings_, uint256 quantity_, uint256 saleid_, address buyer_) external returns(bool){\n\n        (bool success) = i1155(_fire).getContract(msg.sender);\n        require(success, 'not an admin shopstorage 3');\n\n        if(_sale[saleid_].settings[3].sub(quantity_)<1){\n            _sale[saleid_].active = false;\n            _seller2livesells[_sale[saleid_].addresses[0]][_seller2livesellsx[_sale[saleid_].addresses[0]][saleid_]] = _seller2livesells[_sale[saleid_].addresses[0]][_seller2livesells[_sale[saleid_].addresses[0]].length - 1];\n            _seller2livesells[_sale[saleid_].addresses[0]].pop();\n            _label2livesells[_sale[saleid_].settings[6]][_label2livesellsx[_sale[saleid_].settings[6]][saleid_]] = _label2livesells[_sale[saleid_].settings[6]][_label2livesells[_sale[saleid_].settings[6]].length - 1];\n            _label2livesells[_sale[saleid_].settings[6]].pop();\n        }\n        _sale[saleid_].settings[3] -= quantity_; //quantity\n        _sale[saleid_].settings[1] = buysettings_[1]; //price\n        _nftea2lastmarket[_sale[saleid_].settings[0]] = _sale[saleid_].settings[6];\n        _nftea2buyer2lastmarket[_sale[saleid_].settings[0]][buyer_] =  _sale[saleid_].settings[6];\n        _label2volume[_sale[saleid_].settings[6]] += buysettings_[1];\n        _label2buyers[_sale[saleid_].settings[6]].push(buyer_);\n        if(_sale[saleid_].settings[6]>0){\n            _buyer2labelbought[buyer_][_sale[saleid_].settings[6]] = true;\n        }\n        return true;\n    }\n    function setdisplay(uint256 label_, uint256 nft_, uint256 type_, address holder_) external returns(bool){\n      (bool success) = i1155(_fire).getContract(msg.sender);\n      require(success, 'not an admin shopstorage 4');\n      if(type_==1){\n        require(!_ondisplay[nft_],'already on display');\n        _label2livedisplay[label_].push(nft_);\n        _label2livedisplayx[label_][nft_] = _label2livedisplay[label_].length - 1;\n        _holder2livedisplays[holder_].push(nft_);\n        _holder2livedisplaysx[holder_][nft_] = _holder2livedisplays[holder_].length - 1;\n        _ondisplay[nft_] = true;\n        _nftea2labeldisplay[nft_] = label_;\n        _nftea2displayholder[nft_] = holder_;\n      }else{\n        label_ = _nftea2labeldisplay[nft_];\n        _label2livedisplay[label_][_label2livedisplayx[label_][nft_]] = _label2livedisplay[label_][_label2livedisplay[label_].length - 1];\n        _label2livedisplay[label_].pop();\n        _holder2livedisplays[holder_][_holder2livedisplaysx[holder_][nft_]] = _holder2livedisplays[holder_].length - 1;\n        _holder2livedisplays[holder_].pop();\n        _ondisplay[nft_] = false;\n        _nftea2displayholder[nft_] = address(0);\n\n      }\n      return true;\n    }\n    function getsell(uint256 saleid_) public view returns(SALE memory){\n\n        return (_sale[saleid_]);\n    }\n    function getlivedisplay(address holder_) public view returns(uint256[] memory, uint256[] memory, string[] memory){\n\n        uint256[] memory nftea_ = new uint[](_holder2livedisplays[holder_].length);\n        uint256[] memory balance_ = new uint[](_holder2livedisplays[holder_].length);\n        string[] memory ipfs_ = new string[](_holder2livedisplays[holder_].length);\n        (address mint_) = i1155(_fire).gflame('mintcontract');\n        (address tea_) = i1155(_fire).gflame('teatoken');\n\n        for (uint256 i = 0; i < _holder2livedisplays[holder_].length; ++i) {\n            nftea_[i] = _holder2livedisplays[holder_][i];\n            address wallet_ = i1155(mint_)._nftea2wallet(nftea_[i]);\n            balance_[i] = IERC20(tea_).balanceOf(wallet_);\n            ipfs_[i] = i1155(mint_)._ipfs(nftea_[i]);\n        }\n        return (nftea_,balance_, ipfs_);\n    }\n    function getlivesales(address seller_) public view returns(uint256[] memory, uint256[] memory, string[] memory){\n\n        uint256[] memory nftea_ = new uint[](_seller2livesells[seller_].length);\n        uint256[] memory sale_ = new uint[](_seller2livesells[seller_].length);\n        string[] memory ipfs_ = new string[](_seller2livesells[seller_].length);\n        (address flame_) = i1155(_fire).gflame('mintcontract');\n\n        for (uint256 i = 0; i < _seller2livesells[seller_].length; ++i) {\n            sale_[i] = _seller2livesells[seller_][i];\n            nftea_[i] = _sale[_seller2livesells[seller_][i]].settings[0];\n            ipfs_[i] = i1155(flame_)._ipfs(nftea_[i]);\n        }\n        return (nftea_,sale_, ipfs_);\n    }\n    function getlivelabelsales(uint256 label_, string memory search_) public view returns(uint256[] memory, uint256[] memory, address[] memory, string[] memory){\n\n        if(label_<1){\n            (address flame_) = i1155(_fire).gflame('mintstorage');\n            (label_) = i1155(flame_).getlabelsearch(search_);\n        }\n        uint256[] memory nftea_ = new uint[](_label2livesells[label_].length);\n        uint256[] memory sale_ = new uint[](_label2livesells[label_].length);\n        address[] memory seller_ = new address[](_label2livesells[label_].length);\n        string[] memory ipfs_ = new string[](_label2livesells[label_].length);\n        (address mint) = i1155(_fire).gflame('mintcontract');\n\n            for (uint256 i = 0; i < _label2livesells[label_].length; ++i) {\n                sale_[i] = _label2livesells[label_][i];\n                nftea_[i] = _sale[_label2livesells[label_][i]].settings[0];\n                seller_[i] = _sale[_label2livesells[label_][i]].addresses[0];\n                ipfs_[i] = i1155(mint)._ipfs(nftea_[i]);\n            }\n        return (nftea_,sale_,seller_, ipfs_);\n    }\n\n    function getlabeldisplays(uint256 label_, string memory search_) public view returns(uint256[] memory, uint256[] memory, address[] memory, string[] memory){\n\n        if(label_<1){\n            (address flame_) = i1155(_fire).gflame('mintstorage');\n            (label_) = i1155(flame_).getlabelsearch(search_);\n        }\n        uint256[] memory nftea_ = new uint[](_label2livedisplay[label_].length);\n        uint256[] memory teaBalance_ = new uint[](_label2livedisplay[label_].length);\n        address[] memory holder_ = new address[](_label2livedisplay[label_].length);\n        string[] memory ipfs_ = new string[](_label2livedisplay[label_].length);\n        (address mint) = i1155(_fire).gflame('mintcontract');\n        (address tea_) = i1155(_fire).gflame('teatoken');\n\n            for (uint256 i = 0; i < _label2livedisplay[label_].length; ++i) {\n\n                nftea_[i] = _label2livedisplay[label_][i];\n                address wallet_ = i1155(mint)._nftea2wallet(nftea_[i]);\n                teaBalance_[i] = IERC20(tea_).balanceOf(wallet_);\n                holder_[i] = _nftea2displayholder[nftea_[i]];\n                ipfs_[i] = i1155(mint)._ipfs(nftea_[i]);\n            }\n        return (nftea_,teaBalance_,holder_,ipfs_);\n    }\n    function getvolume(uint256 label_) public view returns(uint256, address[] memory){\n\n        return (_label2volume[label_], _label2buyers[label_]);\n    }\n    function getlabelbuyers(uint256 label_, address buyer_) public view returns(uint256, bool){\n        bool bought_ = false;\n        if(buyer_!=address(0)){\n            bought_ = _buyer2labelbought[buyer_][label_];\n        }\n        return (_label2buyers[label_].length, bought_);\n    }\n    function getpaysplit(uint256 saleid_) public returns(uint256,address){\n\n        (address flame_) = i1155(_fire).gflame('mintstorage');\n        uint256 split_ = 0;\n        address wallet_ = address(0);\n\n        if(_sale[saleid_].settings[6]>0){\n            (_nfteas,,) = i1155(flame_).getnftea(_sale[saleid_].settings[6]);\n            split_ = _nfteas.settings[11];\n            wallet_ = _nfteas.addresses[2];\n        }\n        return (split_,wallet_);\n    }\n    function getNftea2lastmarket(uint256 nftea_, address holder_) public view returns(uint256,uint256,uint256,uint256){\n\n        return(_nftea2lastmarket[nftea_],_nftea2buyer2lastmarket[nftea_][holder_],_label2volume[_nftea2lastmarket[nftea_]],_label2volume[_nftea2buyer2lastmarket[nftea_][holder_]]);\n    }\n\n}\n",
  "sourcePath": "/Users/jl1013/Documents/FUTURO/nftea/contracts/shopstorage.sol",
  "compiler": {
    "name": "solc",
    "version": "0.8.17+commit.8df45f5f.Emscripten.clang"
  },
  "schemaVersion": "3.4.13",
  "updatedAt": "2023-06-30T06:03:30.477Z",
  "networkType": "ethereum",
  "devdoc": {
    "kind": "dev",
    "methods": {},
    "version": 1
  },
  "userdoc": {
    "kind": "user",
    "methods": {},
    "version": 1
  }
}