{
  "contractName": "shoplogic",
  "abi": [
    {
      "inputs": [
        {
          "internalType": "address",
          "name": "fire_",
          "type": "address"
        }
      ],
      "stateMutability": "nonpayable",
      "type": "constructor"
    },
    {
      "anonymous": false,
      "inputs": [
        {
          "indexed": false,
          "internalType": "uint256",
          "name": "sellid",
          "type": "uint256"
        },
        {
          "indexed": false,
          "internalType": "uint256",
          "name": "price",
          "type": "uint256"
        },
        {
          "indexed": false,
          "internalType": "uint256",
          "name": "quantity",
          "type": "uint256"
        },
        {
          "indexed": false,
          "internalType": "address",
          "name": "buyer",
          "type": "address"
        }
      ],
      "name": "buy",
      "type": "event"
    },
    {
      "anonymous": false,
      "inputs": [
        {
          "indexed": false,
          "internalType": "uint256",
          "name": "nftea",
          "type": "uint256"
        },
        {
          "indexed": false,
          "internalType": "address",
          "name": "holder",
          "type": "address"
        },
        {
          "indexed": false,
          "internalType": "bool",
          "name": "status",
          "type": "bool"
        }
      ],
      "name": "display",
      "type": "event"
    },
    {
      "anonymous": false,
      "inputs": [
        {
          "indexed": false,
          "internalType": "uint256",
          "name": "sellid",
          "type": "uint256"
        },
        {
          "indexed": false,
          "internalType": "uint256",
          "name": "amount",
          "type": "uint256"
        }
      ],
      "name": "fees",
      "type": "event"
    },
    {
      "anonymous": false,
      "inputs": [
        {
          "indexed": false,
          "internalType": "uint256",
          "name": "sellid",
          "type": "uint256"
        },
        {
          "indexed": false,
          "internalType": "uint256",
          "name": "amount",
          "type": "uint256"
        }
      ],
      "name": "labelBuyBonus",
      "type": "event"
    },
    {
      "anonymous": false,
      "inputs": [
        {
          "indexed": false,
          "internalType": "uint256",
          "name": "amount",
          "type": "uint256"
        },
        {
          "indexed": false,
          "internalType": "uint256",
          "name": "sellid",
          "type": "uint256"
        }
      ],
      "name": "royaltea",
      "type": "event"
    },
    {
      "anonymous": false,
      "inputs": [
        {
          "indexed": false,
          "internalType": "uint256",
          "name": "sellid",
          "type": "uint256"
        },
        {
          "indexed": false,
          "internalType": "uint256",
          "name": "nftea",
          "type": "uint256"
        },
        {
          "indexed": false,
          "internalType": "address",
          "name": "seller",
          "type": "address"
        },
        {
          "indexed": false,
          "internalType": "uint256",
          "name": "price",
          "type": "uint256"
        },
        {
          "indexed": false,
          "internalType": "uint256",
          "name": "pricetype",
          "type": "uint256"
        },
        {
          "indexed": false,
          "internalType": "uint256",
          "name": "label",
          "type": "uint256"
        }
      ],
      "name": "sale",
      "type": "event"
    },
    {
      "anonymous": false,
      "inputs": [
        {
          "indexed": false,
          "internalType": "uint256",
          "name": "sellid",
          "type": "uint256"
        }
      ],
      "name": "salecanceled",
      "type": "event"
    },
    {
      "anonymous": false,
      "inputs": [
        {
          "indexed": false,
          "internalType": "uint256",
          "name": "saleid",
          "type": "uint256"
        }
      ],
      "name": "saleclosed",
      "type": "event"
    },
    {
      "inputs": [],
      "name": "_burn",
      "outputs": [
        {
          "internalType": "address",
          "name": "",
          "type": "address"
        }
      ],
      "stateMutability": "view",
      "type": "function",
      "constant": true
    },
    {
      "inputs": [],
      "name": "_fire",
      "outputs": [
        {
          "internalType": "address",
          "name": "",
          "type": "address"
        }
      ],
      "stateMutability": "view",
      "type": "function",
      "constant": true
    },
    {
      "inputs": [
        {
          "internalType": "uint256",
          "name": "",
          "type": "uint256"
        }
      ],
      "name": "_sale2buycount",
      "outputs": [
        {
          "internalType": "uint256",
          "name": "",
          "type": "uint256"
        }
      ],
      "stateMutability": "view",
      "type": "function",
      "constant": true
    },
    {
      "inputs": [],
      "name": "_saleid",
      "outputs": [
        {
          "internalType": "uint256",
          "name": "",
          "type": "uint256"
        }
      ],
      "stateMutability": "view",
      "type": "function",
      "constant": true
    },
    {
      "inputs": [
        {
          "internalType": "uint256",
          "name": "",
          "type": "uint256"
        }
      ],
      "name": "_salekilled",
      "outputs": [
        {
          "internalType": "bool",
          "name": "",
          "type": "bool"
        }
      ],
      "stateMutability": "view",
      "type": "function",
      "constant": true
    },
    {
      "inputs": [
        {
          "internalType": "uint256",
          "name": "",
          "type": "uint256"
        },
        {
          "internalType": "address",
          "name": "",
          "type": "address"
        }
      ],
      "name": "license2buyer2expiredate",
      "outputs": [
        {
          "internalType": "uint256",
          "name": "",
          "type": "uint256"
        }
      ],
      "stateMutability": "view",
      "type": "function",
      "constant": true
    },
    {
      "inputs": [],
      "name": "name",
      "outputs": [
        {
          "internalType": "string",
          "name": "",
          "type": "string"
        }
      ],
      "stateMutability": "view",
      "type": "function",
      "constant": true
    },
    {
      "stateMutability": "payable",
      "type": "receive",
      "payable": true
    },
    {
      "inputs": [
        {
          "internalType": "address",
          "name": "",
          "type": "address"
        },
        {
          "internalType": "address",
          "name": "",
          "type": "address"
        },
        {
          "internalType": "uint256",
          "name": "",
          "type": "uint256"
        },
        {
          "internalType": "uint256",
          "name": "",
          "type": "uint256"
        },
        {
          "internalType": "bytes",
          "name": "",
          "type": "bytes"
        }
      ],
      "name": "onERC1155Received",
      "outputs": [
        {
          "internalType": "bytes4",
          "name": "",
          "type": "bytes4"
        }
      ],
      "stateMutability": "nonpayable",
      "type": "function"
    },
    {
      "inputs": [
        {
          "internalType": "uint256",
          "name": "mainlabel_",
          "type": "uint256"
        },
        {
          "internalType": "uint256",
          "name": "license_",
          "type": "uint256"
        }
      ],
      "name": "expirecheck",
      "outputs": [
        {
          "internalType": "bool",
          "name": "",
          "type": "bool"
        }
      ],
      "stateMutability": "view",
      "type": "function",
      "constant": true
    },
    {
      "inputs": [
        {
          "internalType": "uint256",
          "name": "marketplacelicense_",
          "type": "uint256"
        },
        {
          "internalType": "uint256",
          "name": "nftea_",
          "type": "uint256"
        }
      ],
      "name": "licensecheck",
      "outputs": [
        {
          "internalType": "uint256",
          "name": "",
          "type": "uint256"
        }
      ],
      "stateMutability": "nonpayable",
      "type": "function"
    },
    {
      "inputs": [
        {
          "internalType": "uint256",
          "name": "label_",
          "type": "uint256"
        }
      ],
      "name": "validateoperator",
      "outputs": [
        {
          "internalType": "uint256",
          "name": "",
          "type": "uint256"
        }
      ],
      "stateMutability": "view",
      "type": "function",
      "constant": true
    },
    {
      "inputs": [
        {
          "internalType": "uint256[]",
          "name": "sellsettings_",
          "type": "uint256[]"
        },
        {
          "internalType": "uint256",
          "name": "price_",
          "type": "uint256"
        },
        {
          "internalType": "address[]",
          "name": "selladdresses_",
          "type": "address[]"
        }
      ],
      "name": "sell",
      "outputs": [],
      "stateMutability": "nonpayable",
      "type": "function"
    },
    {
      "inputs": [
        {
          "internalType": "uint256[]",
          "name": "sellsettings_",
          "type": "uint256[]"
        },
        {
          "internalType": "address[]",
          "name": "selladdresses_",
          "type": "address[]"
        }
      ],
      "name": "sellcomplete",
      "outputs": [
        {
          "internalType": "bool",
          "name": "",
          "type": "bool"
        }
      ],
      "stateMutability": "nonpayable",
      "type": "function"
    },
    {
      "inputs": [
        {
          "internalType": "uint256",
          "name": "sellid_",
          "type": "uint256"
        }
      ],
      "name": "unsell",
      "outputs": [],
      "stateMutability": "nonpayable",
      "type": "function"
    },
    {
      "inputs": [
        {
          "internalType": "uint256",
          "name": "label_",
          "type": "uint256"
        },
        {
          "internalType": "uint256",
          "name": "nftea_",
          "type": "uint256"
        },
        {
          "internalType": "uint256",
          "name": "mplicense_",
          "type": "uint256"
        },
        {
          "internalType": "uint256",
          "name": "frontpage",
          "type": "uint256"
        }
      ],
      "name": "setdisplay",
      "outputs": [],
      "stateMutability": "nonpayable",
      "type": "function"
    },
    {
      "inputs": [
        {
          "internalType": "uint256",
          "name": "label_",
          "type": "uint256"
        },
        {
          "internalType": "uint256",
          "name": "nftea_",
          "type": "uint256"
        }
      ],
      "name": "setdisplayoff",
      "outputs": [],
      "stateMutability": "nonpayable",
      "type": "function"
    },
    {
      "inputs": [
        {
          "internalType": "uint256",
          "name": "saleid_",
          "type": "uint256"
        },
        {
          "internalType": "uint256",
          "name": "nftea_",
          "type": "uint256"
        },
        {
          "internalType": "uint256",
          "name": "quantity_",
          "type": "uint256"
        }
      ],
      "name": "setbuy",
      "outputs": [],
      "stateMutability": "nonpayable",
      "type": "function"
    },
    {
      "inputs": [
        {
          "internalType": "uint256[]",
          "name": "sellsettings_",
          "type": "uint256[]"
        },
        {
          "internalType": "address[]",
          "name": "addresses_",
          "type": "address[]"
        },
        {
          "internalType": "uint256",
          "name": "quantity_",
          "type": "uint256"
        },
        {
          "internalType": "uint256",
          "name": "saleid_",
          "type": "uint256"
        }
      ],
      "name": "buysettings",
      "outputs": [
        {
          "internalType": "bool",
          "name": "",
          "type": "bool"
        }
      ],
      "stateMutability": "nonpayable",
      "type": "function"
    }
  ],
  "bytecode": "0x60c0604052600d60809081526c53484f50204c4f47494320563160981b60a0526000906200002e90826200013e565b50600380546001600160a01b03191661dead1790553480156200005057600080fd5b506040516200588d3803806200588d83398101604081905262000073916200020a565b600280546001600160a01b0319166001600160a01b03929092169190911790556200023c565b634e487b7160e01b600052604160045260246000fd5b600181811c90821680620000c457607f821691505b602082108103620000e557634e487b7160e01b600052602260045260246000fd5b50919050565b601f8211156200013957600081815260208120601f850160051c81016020861015620001145750805b601f850160051c820191505b81811015620001355782815560010162000120565b5050505b505050565b81516001600160401b038111156200015a576200015a62000099565b62000172816200016b8454620000af565b84620000eb565b602080601f831160018114620001aa5760008415620001915750858301515b600019600386901b1c1916600185901b17855562000135565b600085815260208120601f198616915b82811015620001db57888601518255948401946001909101908401620001ba565b5085821015620001fa5787850151600019600388901b60f8161c191681555b5050505050600190811b01905550565b6000602082840312156200021d57600080fd5b81516001600160a01b03811681146200023557600080fd5b9392505050565b615641806200024c6000396000f3fe60806040526004361061010c5760003560e01c80636c1d97bb11610095578063d712387111610064578063d712387114610322578063e621590a14610342578063ee9c2cde14610362578063f23a6e6114610382578063f3ca9cae146103c757600080fd5b80636c1d97bb146102ac578063a15e0907146102cc578063b91e07cc146102ec578063d4b5e5481461030257600080fd5b806328b3d7f2116100dc57806328b3d7f2146101d75780633385fd7e1461021d57806344dc51a41461024a5780635ff3fcba1461026c578063628652781461028c57600080fd5b80622424bf14610118578063028d6df91461014d57806306fdde031461017d578063144f2f941461019f57600080fd5b3661011357005b600080fd5b34801561012457600080fd5b50610138610133366004614a98565b6103e7565b60405190151581526020015b60405180910390f35b34801561015957600080fd5b50610138610168366004614b0b565b60066020526000908152604090205460ff1681565b34801561018957600080fd5b50610192610b17565b6040516101449190614b48565b3480156101ab57600080fd5b506003546101bf906001600160a01b031681565b6040516001600160a01b039091168152602001610144565b3480156101e357600080fd5b5061020f6101f2366004614b7b565b600560209081526000928352604080842090915290825290205481565b604051908152602001610144565b34801561022957600080fd5b5061020f610238366004614b0b565b60046020526000908152604090205481565b34801561025657600080fd5b5061026a610265366004614bab565b610ba5565b005b34801561027857600080fd5b50610138610287366004614bcd565b610e5e565b34801561029857600080fd5b506101386102a7366004614bab565b611172565b3480156102b857600080fd5b5061026a6102c7366004614b0b565b6113fa565b3480156102d857600080fd5b5061026a6102e7366004614c30565b611a2e565b3480156102f857600080fd5b5061020f60015481565b34801561030e57600080fd5b5061026a61031d366004614c62565b612614565b34801561032e57600080fd5b5061026a61033d366004614cce565b6130fb565b34801561034e57600080fd5b5061020f61035d366004614bab565b6137a3565b34801561036e57600080fd5b5061020f61037d366004614b0b565b613ba7565b34801561038e57600080fd5b506103ae61039d366004614d21565b63f23a6e6160e01b95945050505050565b6040516001600160e01b03199091168152602001610144565b3480156103d357600080fd5b506002546101bf906001600160a01b031681565b60008181526004602052604081208054829182918291600191839061040d908490614dea565b925050819055508760028151811061042757610427614dfd565b6020026020010151600214801561044c57506000858152600460205260409020546001105b156104d65760008581526004602052604090205461046c90600690614e29565b6000036104d65760008860018151811061048857610488614dfd565b6020026020010151905060006104a8606483613f4390919063ffffffff16565b90506104b48282613f56565b8a6001815181106104c7576104c7614dfd565b60200260200101818152505050505b6000886001815181106104eb576104eb614dfd565b6020026020010151111561054157610526868960018151811061051057610510614dfd565b6020026020010151613f6290919063ffffffff16565b915061053e6064610538846003613f62565b90613f43565b90505b338760018151811061055557610555614dfd565b60200260200101906001600160a01b031690816001600160a01b0316815250506000806001600160a01b03168860038151811061059457610594614dfd565b60200260200101516001600160a01b0316146105cc57876003815181106105bd576105bd614dfd565b602002602001015190506105ea565b876000815181106105df576105df614dfd565b602002602001015190505b600254604051636881aedd60e01b81526000916001600160a01b031690636881aedd9061061990600401614e3d565b602060405180830381865afa158015610636573d6000803e3d6000fd5b505050506040513d601f19601f8201168201806040525081019061065a9190614e72565b604051631e13a65760e31b8152600481018990529091506000906001600160a01b0383169063f09d32b89060240160408051808303816000875af11580156106a6573d6000803e3d6000fd5b505050506040513d601f19601f820116820180604052508101906106ca9190614e8f565b50905080156109c3576106ec6064610538836106e68989613f6e565b90613f62565b600254604051636881aedd60e01b81526020600482015260066024820152656b6574746c6560d01b60448201529192506001600160a01b031690636881aedd90606401602060405180830381865afa15801561074c573d6000803e3d6000fd5b505050506040513d601f19601f820116820180604052508101906107709190614e72565b91508960028151811061078557610785614dfd565b60200260200101516001600160a01b03166323b872dd3384846040518463ffffffff1660e01b81526004016107bc93929190614eb4565b6020604051808303816000875af11580156107db573d6000803e3d6000fd5b505050506040513d601f19601f820116820180604052508101906107ff9190614ee8565b50610808613f7a565b6108595760405162461bcd60e51b815260206004820152601d60248201527f65726f7220706179696e6720726f79616c747920746f206b6574746c6500000060448201526064015b60405180910390fd5b816001600160a01b0316631ab728528c60068151811061087b5761087b614dfd565b60200260200101518c60028151811061089657610896614dfd565b60209081029190910101516040516001600160e01b031960e085901b16815260048101929092526001600160a01b03166024820152604481018490523360648201526084016020604051808303816000875af11580156108fa573d6000803e3d6000fd5b505050506040513d601f19601f8201168201806040525081019061091e9190614ee8565b9550856109665760405162461bcd60e51b81526020600482015260166024820152756572726f722073657474696e6720726f79616c74656160501b6044820152606401610850565b7f9a3d40727913fc6ecafcfa3cdf5b30ea2c4cfad1c913d8a07d16a918b4d653ab818c60068151811061099b5761099b614dfd565b60200260200101516040516109ba929190918252602082015260400190565b60405180910390a15b60006109d9826109d38888613f6e565b90613f6e565b90508015610ab8578a6002815181106109f4576109f4614dfd565b60200260200101516001600160a01b03166323b872dd3386846040518463ffffffff1660e01b8152600401610a2b93929190614eb4565b6020604051808303816000875af1158015610a4a573d6000803e3d6000fd5b505050506040513d601f19601f82011682018060405250810190610a6e9190614ee8565b50610a77613f7a565b610ab85760405162461bcd60e51b815260206004820152601260248201527132b937b9103830bcb4b7339039b2b63632b960711b6044820152606401610850565b610ac58c8c878d8d613fae565b965086610b055760405162461bcd60e51b815260206004820152600e60248201526d06572726f722062757920707265760941b6044820152606401610850565b5060019b9a5050505050505050505050565b60008054610b2490614f03565b80601f0160208091040260200160405190810160405280929190818152602001828054610b5090614f03565b8015610b9d5780601f10610b7257610100808354040283529160200191610b9d565b820191906000526020600020905b815481529060010190602001808311610b8057829003601f168201915b505050505081565b600254604051636881aedd60e01b81526000916001600160a01b031690636881aedd90610bd490600401614e3d565b602060405180830381865afa158015610bf1573d6000803e3d6000fd5b505050506040513d601f19601f82011682018060405250810190610c159190614e72565b6040516354419adf60e11b815260048101859052602481018490526000604482018190523360648301529192506001600160a01b0383169063a88335be906084016020604051808303816000875af1158015610c75573d6000803e3d6000fd5b505050506040513d601f19601f82011682018060405250810190610c999190614ee8565b905080610ce45760405162461bcd60e51b81526020600482015260196024820152786572726f722073657474696e67206f666620646973706c617960381b6044820152606401610850565b600254604051636881aedd60e01b81526001600160a01b0390911690636881aedd90610d1290600401614f3d565b602060405180830381865afa158015610d2f573d6000803e3d6000fd5b505050506040513d601f19601f82011682018060405250810190610d539190614e72565b604051636e1fa63160e01b815260048101859052600060248201523360448201529092506001600160a01b03831690636e1fa631906064016020604051808303816000875af1158015610daa573d6000803e3d6000fd5b505050506040513d601f19601f82011682018060405250810190610dce9190614ee8565b905080610e195760405162461bcd60e51b81526020600482015260196024820152786572726f722073657474696e67206f666620646973706c617960381b6044820152606401610850565b6040805184815233602082015260008183015290517f6daa6adf6afbc66c00391843d5fc54efcf00d0fd728b71456b983069685642a69181900360600190a150505050565b600254604051636881aedd60e01b815260009182916001600160a01b0390911690636881aedd90610e9190600401614e3d565b602060405180830381865afa158015610eae573d6000803e3d6000fd5b505050506040513d601f19601f82011682018060405250810190610ed29190614e72565b9050600080826001600160a01b031663eddfb8bc87876040518363ffffffff1660e01b8152600401610f05929190614f9e565b60408051808303816000875af1158015610f23573d6000803e3d6000fd5b505050506040513d601f19601f82011682018060405250810190610f479190614ffe565b9150915081610f8d5760405162461bcd60e51b8152602060048201526012602482015271195c9c9bdc881cd95d1d1a5b99c81cd95b1b60721b6044820152606401610850565b7fe85d84bd94286703be10d23f5607bd38ce4f32f5e6122644eef46227a0e7d8ba8187600081518110610fc257610fc2614dfd565b60200260200101513389600181518110610fde57610fde614dfd565b60200260200101518a600281518110610ff957610ff9614dfd565b60200260200101518b60068151811061101457611014614dfd565b602002602001015160405161105a9695949392919095865260208601949094526001600160a01b039290921660408501526060840152608083015260a082015260c00190565b60405180910390a1600254604051636881aedd60e01b81526001600160a01b0390911690636881aedd906110909060040161502a565b602060405180830381865afa1580156110ad573d6000803e3d6000fd5b505050506040513d601f19601f820116820180604052508101906110d19190614e72565b6040516301c5a32160e11b8152336004820152600260248201529093506001600160a01b0384169063038b4642906044016020604051808303816000875af1158015611121573d6000803e3d6000fd5b505050506040513d601f19601f820116820180604052508101906111459190614ee8565b9150816111645760405162461bcd60e51b81526004016108509061504a565b600193505050505b92915050565b600254604051636881aedd60e01b815260009182916001600160a01b0390911690636881aedd906111a590600401615081565b602060405180830381865afa1580156111c2573d6000803e3d6000fd5b505050506040513d601f19601f820116820180604052508101906111e69190614e72565b90508215611343576040516333a1f51d60e11b81526004810184905260009081906001600160a01b03841690636743ea3a906024016040805180830381865afa158015611237573d6000803e3d6000fd5b505050506040513d601f19601f8201168201806040525081019061125b91906150a6565b915091508042108061126b575080155b6112a95760405162461bcd60e51b815260206004820152600f60248201526e1b1a58d95b9cd948195e1c1a5c9959608a1b6044820152606401610850565b6040516333a1f51d60e11b8152600481018390526000906001600160a01b03851690636743ea3a906024016040805180830381865afa1580156112f0573d6000803e3d6000fd5b505050506040513d601f19601f8201168201806040525081019061131491906150a6565b91505080421080611323575080155b61133f5760405162461bcd60e51b8152600401610850906150ca565b5050505b6000841180156113535750600183105b156113f0576040516333a1f51d60e11b8152600481018590526000906001600160a01b03831690636743ea3a906024016040805180830381865afa15801561139f573d6000803e3d6000fd5b505050506040513d601f19601f820116820180604052508101906113c391906150a6565b915050804210806113d2575080155b6113ee5760405162461bcd60e51b8152600401610850906150ca565b505b5060019392505050565b60005a600254604051636881aedd60e01b81529192506000916001600160a01b0390911690636881aedd9061143190600401614e3d565b602060405180830381865afa15801561144e573d6000803e3d6000fd5b505050506040513d601f19601f820116820180604052508101906114729190614e72565b6040516362886d3160e11b8152600481018590529091506001600160a01b0382169063c510da62906024016000604051808303816000875af11580156114bc573d6000803e3d6000fd5b505050506040513d6000823e601f3d908101601f191682016040526114e491908101906151b0565b8051600790815560208083015160085560408301518051611509926009920190614827565b5060608201518051611525916003840191602090910190614872565b50608091909101516004909101805460ff1916911515919091179055600b5460ff166115855760405162461bcd60e51b815260206004820152600f60248201526e73616c65206e6f742061637469766560881b6044820152606401610850565b600a805433919060009061159b5761159b614dfd565b6000918252602090912001546001600160a01b031614806115bd575060085442115b806115f25750600a805433919060059081106115db576115db614dfd565b6000918252602090912001546001600160a01b0316145b61162c5760405162461bcd60e51b815260206004820152600b60248201526a1b9bdd08185b1b1bddd95960aa1b6044820152606401610850565b600254604051636881aedd60e01b81526001600160a01b0390911690636881aedd9061165a90600401614f3d565b602060405180830381865afa158015611677573d6000803e3d6000fd5b505050506040513d601f19601f8201168201806040525081019061169b9190614e72565b9050806001600160a01b031663f242432a3060076003016000815481106116c4576116c4614dfd565b6000918252602082200154600980546001600160a01b039092169290916116ed576116ed614dfd565b9060005260206000200154600760020160038154811061170f5761170f614dfd565b90600052602060002001546040518563ffffffff1660e01b81526004016117399493929190615265565b600060405180830381600087803b15801561175357600080fd5b505af1158015611767573d6000803e3d6000fd5b50505050611773613f7a565b6117af5760405162461bcd60e51b815260206004820152600d60248201526c1d5b9cd95b1b0819985a5b1959609a1b6044820152606401610850565b600254604051636881aedd60e01b81526001600160a01b0390911690636881aedd906117dd90600401614e3d565b602060405180830381865afa1580156117fa573d6000803e3d6000fd5b505050506040513d601f19601f8201168201806040525081019061181e9190614e72565b60405163027808ab60e51b8152600481018590529091506000906001600160a01b03831690634f011560906024016020604051808303816000875af115801561186b573d6000803e3d6000fd5b505050506040513d601f19601f8201168201806040525081019061188f9190614ee8565b9050806118d05760405162461bcd60e51b815260206004820152600f60248201526e6572726f7220756e73656c6c696e6760881b6044820152606401610850565b60005a905060006118e1828661529d565b905060006118ef3a836152b0565b600254604051636881aedd60e01b81529192506001600160a01b031690636881aedd9061191e9060040161502a565b602060405180830381865afa15801561193b573d6000803e3d6000fd5b505050506040513d601f19601f8201168201806040525081019061195f9190614e72565b6040516301c5a32160e11b8152336004820152602481018390529095506001600160a01b0386169063038b4642906044016020604051808303816000875af11580156119af573d6000803e3d6000fd5b505050506040513d601f19601f820116820180604052508101906119d39190614ee8565b9350836119f25760405162461bcd60e51b81526004016108509061504a565b6040518781527f4e7168b1e294b19a1efd7b7e3d00eeb8b42ab96b69300a591c54b8dd1c8ce81e9060200160405180910390a150505050505050565b60005a90506000851180611a425750600083115b611a8e5760405162461bcd60e51b815260206004820152601f60248201527f646973706c617920746f206c6162656c206f72206d61726b6574706c616365006044820152606401610850565b600254604051636881aedd60e01b8152600091829182916001600160a01b031690636881aedd90611ac190600401615081565b602060405180830381865afa158015611ade573d6000803e3d6000fd5b505050506040513d601f19601f82011682018060405250810190611b029190614e72565b60405163875ff21560e01b8152600481018990529091506001600160a01b0382169063875ff21590602401600060405180830381865afa158015611b4a573d6000803e3d6000fd5b505050506040513d6000823e601f3d908101601f19168201604052611b729190810190615393565b50508051600c9081556020808301518051849392611b9592600d92910190614872565b5060408201518051611bb1916002840191602090910190614827565b5050505060006001600160a01b0316600c600101600281548110611bd757611bd7614dfd565b6000918252602090912001546001600160a01b031603611c395760405162461bcd60e51b815260206004820152601860248201527f756e6971756573206f6e6c7920666f7220646973706c617900000000000000006044820152606401610850565b600e80546003908110611c4e57611c4e614dfd565b906000526020600020015460041480611c865750600e80546003908110611c7757611c77614dfd565b90600052602060002001546008145b80611cb05750600e80546003908110611ca157611ca1614dfd565b9060005260206000200154600b145b611cfc5760405162461bcd60e51b815260206004820152601760248201527f696e76616c6964207479706520746f20646973706c61790000000000000000006044820152606401610850565b8715611d7a57611d0d886000611172565b925082611d2c5760405162461bcd60e51b8152600401610850906150ca565b611d3588613ba7565b915060008211611d7a5760405162461bcd60e51b815260206004820152601060248201526f34b73b30b634b21037b832b930ba37b960811b6044820152606401610850565b8515611e2f57600e8054600090611d9357611d93614dfd565b90600052602060002001548603611dac57859750611e05565b611db7600087611172565b925082611df85760405162461bcd60e51b815260206004820152600f60248201526e1b1a58d95b9cd948195e1c1a5c9959608a1b6044820152606401610850565b611e0286886137a3565b97505b611e10886000611172565b925082611e2f5760405162461bcd60e51b8152600401610850906150ca565b600254604051636881aedd60e01b81526001600160a01b0390911690636881aedd90611e5d90600401614e3d565b602060405180830381865afa158015611e7a573d6000803e3d6000fd5b505050506040513d601f19601f82011682018060405250810190611e9e9190614e72565b6040516354419adf60e11b8152600481018a905260248101899052600160448201523360648201529091506001600160a01b0382169063a88335be906084016020604051808303816000875af1158015611efc573d6000803e3d6000fd5b505050506040513d601f19601f82011682018060405250810190611f209190614ee8565b925082611f675760405162461bcd60e51b81526020600482015260156024820152746572726f722073657474696e6720646973706c617960581b6044820152606401610850565b841561247c5760025460405163f84766cd60e01b8152602060048201526007602482015266646973706c617960c81b60448201526000916001600160a01b03169063f84766cd90606401602060405180830381865afa158015611fce573d6000803e3d6000fd5b505050506040513d601f19601f82011682018060405250810190611ff2919061546d565b600254604051636881aedd60e01b81526020600482015260096024820152686d61726b6574696e6760b81b60448201529192506000916001600160a01b0390911690636881aedd90606401602060405180830381865afa15801561205a573d6000803e3d6000fd5b505050506040513d601f19601f8201168201806040525081019061207e9190614e72565b600254604051636881aedd60e01b8152602060048201526006602482015265646f6e61746560d01b60448201529192506000916001600160a01b0390911690636881aedd90606401602060405180830381865afa1580156120e3573d6000803e3d6000fd5b505050506040513d601f19601f820116820180604052508101906121079190614e72565b600254604051636881aedd60e01b81526020600482015260086024820152673a32b0ba37b5b2b760c11b60448201529192506000916001600160a01b0390911690636881aedd90606401602060405180830381865afa15801561216e573d6000803e3d6000fd5b505050506040513d601f19601f820116820180604052508101906121929190614e72565b9050831561233e576001600160a01b0381166323b872dd33856121b6886002613f43565b6040518463ffffffff1660e01b81526004016121d493929190614eb4565b6020604051808303816000875af11580156121f3573d6000803e3d6000fd5b505050506040513d601f19601f820116820180604052508101906122179190614ee8565b50612220613f7a565b61226c5760405162461bcd60e51b815260206004820152601860248201527f6572726f7220706179696e6720646973706c61792066656500000000000000006044820152606401610850565b6001600160a01b0381166323b872dd3384612288886002613f43565b6040518463ffffffff1660e01b81526004016122a693929190614eb4565b6020604051808303816000875af11580156122c5573d6000803e3d6000fd5b505050506040513d601f19601f820116820180604052508101906122e99190614ee8565b506122f2613f7a565b61233e5760405162461bcd60e51b815260206004820152601960248201527f6572726f72206275726e696e672064697370616c7920666565000000000000006044820152606401610850565b600254604051636881aedd60e01b81526001600160a01b0390911690636881aedd9061236c90600401614f3d565b602060405180830381865afa158015612389573d6000803e3d6000fd5b505050506040513d601f19601f820116820180604052508101906123ad9190614e72565b604051636e1fa63160e01b8152600481018d9052600160248201523360448201529095506001600160a01b03861690636e1fa631906064016020604051808303816000875af1158015612404573d6000803e3d6000fd5b505050506040513d601f19601f820116820180604052508101906124289190614ee8565b9650866124775760405162461bcd60e51b815260206004820152601860248201527f6572726f722073657474696e67206f6e20646973706c617900000000000000006044820152606401610850565b505050505b6040805188815233602082015260018183015290517f6daa6adf6afbc66c00391843d5fc54efcf00d0fd728b71456b983069685642a69181900360600190a160005a905060006124cc828761529d565b905060006124da3a836152b0565b600254604051636881aedd60e01b81529192506001600160a01b031690636881aedd906125099060040161502a565b602060405180830381865afa158015612526573d6000803e3d6000fd5b505050506040513d601f19601f8201168201806040525081019061254a9190614e72565b6040516301c5a32160e11b8152336004820152602481018390529094506000906001600160a01b0386169063038b4642906044016020604051808303816000875af115801561259d573d6000803e3d6000fd5b505050506040513d601f19601f820116820180604052508101906125c19190614ee8565b9050806126065760405162461bcd60e51b81526020600482015260136024820152726572726f7220726566756e64696e672067617360681b6044820152606401610850565b505050505050505050505050565b60005a905060008460048151811061262e5761262e614dfd565b6020026020010151118061265c575060008460068151811061265257612652614dfd565b6020026020010151115b6126bc5760405162461bcd60e51b815260206004820152602b60248201527f6d75737420757365206d61726b6574206c6963656e7365206f72206f7065726160448201526a746f72206c6963656e736560a81b6064820152608401610850565b600254604051636881aedd60e01b8152600091829182916001600160a01b031690636881aedd906126ef90600401615081565b602060405180830381865afa15801561270c573d6000803e3d6000fd5b505050506040513d601f19601f820116820180604052508101906127309190614e72565b9050858760018151811061274657612746614dfd565b602002602001018181525050806001600160a01b031663875ff2158860008151811061277457612774614dfd565b60200260200101516040518263ffffffff1660e01b815260040161279a91815260200190565b600060405180830381865afa1580156127b7573d6000803e3d6000fd5b505050506040513d6000823e601f3d908101601f191682016040526127df9190810190615393565b50508051600c908155602080830151805184939261280292600d92910190614872565b506040820151805161281e916002840191602090910190614827565b50505050338560008151811061283657612836614dfd565b6001600160a01b0390921660209283029190910190910152600d8054600390811061286357612863614dfd565b9060005260206000200160009054906101000a90046001600160a01b03168560038151811061289457612894614dfd565b60200260200101906001600160a01b031690816001600160a01b03168152505060006001600160a01b0316856003815181106128d2576128d2614dfd565b60200260200101516001600160a01b0316036129215733856003815181106128fc576128fc614dfd565b60200260200101906001600160a01b031690816001600160a01b031681525050612988565b600d8054339190600190811061293957612939614dfd565b6000918252602090912001546001600160a01b03161461298857338560038151811061296757612967614dfd565b60200260200101906001600160a01b031690816001600160a01b0316815250505b8660028151811061299b5761299b614dfd565b6020026020010151600203612a1b576001600c6002016006815481106129c3576129c3614dfd565b906000526020600020015411612a1b5760405162461bcd60e51b815260206004820152601e60248201527f7175616e746974792073686f756c64206265206d6f7265207468616e203100006044820152606401610850565b600087600481518110612a3057612a30614dfd565b60200260200101511115612c195786600681518110612a5157612a51614dfd565b6020026020010151600c600201600081548110612a7057612a70614dfd565b906000526020600020015414612ac557612abe87600481518110612a9657612a96614dfd565b602002602001015188600081518110612ab157612ab1614dfd565b60200260200101516137a3565b9150612ae6565b600e8054600090612ad857612ad8614dfd565b906000526020600020015491505b60405163875ff21560e01b8152600481018390526001600160a01b0382169063875ff21590602401600060405180830381865afa158015612b2b573d6000803e3d6000fd5b505050506040513d6000823e601f3d908101601f19168201604052612b539190810190615393565b50508051600c9081556020808301518051849392612b7692600d92910190614872565b5060408201518051612b92916002840191602090910190614827565b50505050600c600201600b81548110612bad57612bad614dfd565b906000526020600020015487600581518110612bcb57612bcb614dfd565b6020026020010181815250508187600681518110612beb57612beb614dfd565b602002602001018181525050600087600781518110612c0c57612c0c614dfd565b6020026020010181815250505b600087600681518110612c2e57612c2e614dfd565b60200260200101511115612e0a57612c5f87600681518110612c5257612c52614dfd565b6020026020010151613ba7565b92508215612e0a57600254604051636881aedd60e01b81526001600160a01b0390911690636881aedd90612c9590600401615081565b602060405180830381865afa158015612cb2573d6000803e3d6000fd5b505050506040513d601f19601f82011682018060405250810190612cd69190614e72565b9050806001600160a01b031663875ff21588600681518110612cfa57612cfa614dfd565b60200260200101516040518263ffffffff1660e01b8152600401612d2091815260200190565b600060405180830381865afa158015612d3d573d6000803e3d6000fd5b505050506040513d6000823e601f3d908101601f19168201604052612d659190810190615393565b50508051600c9081556020808301518051849392612d8892600d92910190614872565b5060408201518051612da4916002840191602090910190614827565b50505050600c600201600b81548110612dbf57612dbf614dfd565b906000526020600020015487600581518110612ddd57612ddd614dfd565b6020026020010181815250508287600781518110612dfd57612dfd614dfd565b6020026020010181815250505b612e17426276a700614dea565b87600a81518110612e2a57612e2a614dfd565b6020908102919091010152600254604051636881aedd60e01b81526001600160a01b0390911690636881aedd90612e6390600401614f3d565b602060405180830381865afa158015612e80573d6000803e3d6000fd5b505050506040513d601f19601f82011682018060405250810190612ea49190614e72565b9050806001600160a01b031663f242432a33308a600081518110612eca57612eca614dfd565b60200260200101518b600381518110612ee557612ee5614dfd565b60200260200101516040518563ffffffff1660e01b8152600401612f0c9493929190615265565b600060405180830381600087803b158015612f2657600080fd5b505af1158015612f3a573d6000803e3d6000fd5b50505050612f46613f7a565b612f895760405162461bcd60e51b81526020600482015260146024820152731cd85b19481d1c985b9cd9995c8819985a5b195960621b6044820152606401610850565b6000612f958887610e5e565b905060005a90506000612fa8828861529d565b90506000612fb63a836152b0565b600254604051636881aedd60e01b81529192506001600160a01b031690636881aedd90612fe59060040161502a565b602060405180830381865afa158015613002573d6000803e3d6000fd5b505050506040513d601f19601f820116820180604052508101906130269190614e72565b6040516301c5a32160e11b8152336004820152602481018390529095506000906001600160a01b0387169063038b4642906044016020604051808303816000875af1158015613079573d6000803e3d6000fd5b505050506040513d601f19601f8201168201806040525081019061309d9190614ee8565b9050806130bc5760405162461bcd60e51b81526004016108509061504a565b846126065760405162461bcd60e51b815260206004820152600f60248201526e32b93937b91039b2b63634b733901960891b6044820152606401610850565b60005a60008581526006602052604090205490915060ff161561314e5760405162461bcd60e51b815260206004820152600b60248201526a1cd85b19481ada5b1b195960aa1b6044820152606401610850565b600254604051636881aedd60e01b81526000916001600160a01b031690636881aedd9061317d90600401614e3d565b602060405180830381865afa15801561319a573d6000803e3d6000fd5b505050506040513d601f19601f820116820180604052508101906131be9190614e72565b6040516362886d3160e11b8152600481018790529091506001600160a01b0382169063c510da62906024016000604051808303816000875af1158015613208573d6000803e3d6000fd5b505050506040513d6000823e601f3d908101601f1916820160405261323091908101906151b0565b8051600790815560208083015160085560408301518051613255926009920190614827565b5060608201518051613271916003840191602090910190614872565b50608091909101516004909101805460ff1916911515919091179055600b5460ff1680156132c05750600060076002016003815481106132b3576132b3614dfd565b9060005260206000200154115b80156132cd575060085442105b6133075760405162461bcd60e51b815260206004820152600b60248201526a1cd85b194818db1bdcd95960aa1b6044820152606401610850565b600a805460019133918390811061332057613320614dfd565b9060005260206000200160006101000a8154816001600160a01b0302191690836001600160a01b0316021790555061340560076002018054806020026020016040519081016040528092919081815260200182805480156133a057602002820191906000526020600020905b81548152602001906001019080831161338c575b5050600a805460408051602080840282018101909252828152955091935091508301828280156133f957602002820191906000526020600020905b81546001600160a01b031681526001909101906020018083116133db575b505050505086896103e7565b9050806134495760405162461bcd60e51b81526020600482015260126024820152716572726f72206275792073657474696e677360701b6044820152606401610850565b60098054600890811061345e5761345e614dfd565b906000526020600020015460010361360f57600254604051636881aedd60e01b81526001600160a01b0390911690636881aedd9061349e90600401615081565b602060405180830381865afa1580156134bb573d6000803e3d6000fd5b505050506040513d601f19601f820116820180604052508101906134df9190614e72565b60405163875ff21560e01b8152600481018790529092506001600160a01b0383169063875ff21590602401600060405180830381865afa158015613527573d6000803e3d6000fd5b505050506040513d6000823e601f3d908101601f1916820160405261354f9190810190615393565b50508051600c908155602080830151805184939261357292600d92910190614872565b506040820151805161358e916002840191602090910190614827565b505050506000600c6002016004815481106135ab576135ab614dfd565b9060005260206000200154111561360f57600e805460049081106135d1576135d1614dfd565b906000526020600020015462278d006135ea91906152b0565b6135f49042614dea565b60008681526005602090815260408083203384529091529020555b60005a90506000613620828661529d565b9050600061362e3a836152b0565b600254604051636881aedd60e01b81529192506001600160a01b031690636881aedd9061365d9060040161502a565b602060405180830381865afa15801561367a573d6000803e3d6000fd5b505050506040513d601f19601f8201168201806040525081019061369e9190614e72565b6040516301c5a32160e11b8152336004820152602481018390529095506001600160a01b0386169063038b4642906044016020604051808303816000875af11580156136ee573d6000803e3d6000fd5b505050506040513d601f19601f820116820180604052508101906137129190614ee8565b9350836137315760405162461bcd60e51b81526004016108509061504a565b7f0bb5eaf3bdc96b6fe75a89245b0d2a7bec5392fe6f2d08ed15b1daab49f2a4d189600760020160018154811061376a5761376a614dfd565b600091825260209182902001546040805193845291830152810189905233606082015260800160405180910390a1505050505050505050565b600254604051636881aedd60e01b81526000918291829182916001600160a01b0390911690636881aedd906137da90600401614e3d565b602060405180830381865afa1580156137f7573d6000803e3d6000fd5b505050506040513d601f19601f8201168201806040525081019061381b9190614e72565b604051631238f3c960e21b8152600481018790523360248201529091506000906001600160a01b038316906348e3cf2490604401608060405180830381865afa15801561386c573d6000803e3d6000fd5b505050506040513d601f19601f820116820180604052508101906138909190615486565b50509150506000871115613b5357600254604051636881aedd60e01b81526001600160a01b0390911690636881aedd906138cc90600401614f3d565b602060405180830381865afa1580156138e9573d6000803e3d6000fd5b505050506040513d601f19601f8201168201806040525081019061390d9190614e72565b604051627eeac760e11b8152336004820152602481018990529092506000906001600160a01b0384169062fdd58e90604401602060405180830381865afa15801561395c573d6000803e3d6000fd5b505050506040513d601f19601f82011682018060405250810190613980919061546d565b9050600081116139dd5760405162461bcd60e51b815260206004820152602260248201527f796f7520646f206e6f74206f776e206d61726b6574706c616365206c6963656e604482015261736560f01b6064820152608401610850565b6139e8856000611172565b935083613a075760405162461bcd60e51b8152600401610850906154bc565b600254604051636881aedd60e01b81526001600160a01b0390911690636881aedd90613a3590600401615081565b602060405180830381865afa158015613a52573d6000803e3d6000fd5b505050506040513d601f19601f82011682018060405250810190613a769190614e72565b60405163875ff21560e01b8152600481018a90529093506001600160a01b0384169063875ff21590602401600060405180830381865afa158015613abe573d6000803e3d6000fd5b505050506040513d6000823e601f3d908101601f19168201604052613ae69190810190615393565b50508051600c9081556020808301518051849392613b0992600d92910190614872565b5060408201518051613b25916002840191602090910190614827565b50505050600c600201600081548110613b4057613b40614dfd565b9060005260206000200154945050613b6c565b600187108015613b635750600081115b15613b6c578093505b8315613b9c57613b7d846000611172565b925082613b9c5760405162461bcd60e51b8152600401610850906154bc565b509195945050505050565b600254604051636881aedd60e01b8152600091829182916001600160a01b031690636881aedd90613bda90600401614f3d565b602060405180830381865afa158015613bf7573d6000803e3d6000fd5b505050506040513d601f19601f82011682018060405250810190613c1b9190614e72565b90508315613f3c57600354604051627eeac760e11b81526001600160a01b0391821660048201526024810186905282916001919083169062fdd58e90604401602060405180830381865afa158015613c77573d6000803e3d6000fd5b505050506040513d601f19601f82011682018060405250810190613c9b919061546d565b10613cd75760405162461bcd60e51b815260206004820152600c60248201526b1b1858995b08189d5c9b995960a21b6044820152606401610850565b6000613ce4866000611172565b905080613d035760405162461bcd60e51b8152600401610850906150ca565b600254604051636881aedd60e01b815260206004820152600f60248201526e6f70657261746f7273746f7261676560881b60448201526001600160a01b0390911690636881aedd90606401602060405180830381865afa158015613d6b573d6000803e3d6000fd5b505050506040513d601f19601f82011682018060405250810190613d8f9190614e72565b604051633658baa160e01b81523360048201526024810188905290935060009081906001600160a01b03861690633658baa190604401600060405180830381865afa158015613de2573d6000803e3d6000fd5b505050506040513d6000823e601f3d908101601f19168201604052613e0a91908101906154fe565b5050509350935050506000821115613f375781955080421080613e2b575080155b613e775760405162461bcd60e51b815260206004820152601a60248201527f6f70657261746f72206c6963656e7365206578706972656420310000000000006044820152606401610850565b6040516335d9e65d60e01b8152600481018790526000906001600160a01b038716906335d9e65d90602401602060405180830381865afa158015613ebf573d6000803e3d6000fd5b505050506040513d601f19601f82011682018060405250810190613ee3919061546d565b905080600114613f355760405162461bcd60e51b815260206004820152601d60248201527f796f7520617265206e6f742061207375706572206f6572706572746f720000006044820152606401610850565b505b505050505b5092915050565b6000613f4f82846155bf565b9392505050565b6000613f4f8284614dea565b6000613f4f82846152b0565b6000613f4f828461529d565b6000803d8015613f915760208114613f9a57613fa6565b60019150613fa6565b60206000803e60005191505b501515919050565b600254604051636881aedd60e01b8152600091829182916001600160a01b031690636881aedd90613fe190600401614f3d565b602060405180830381865afa158015613ffe573d6000803e3d6000fd5b505050506040513d601f19601f820116820180604052508101906140229190614e72565b90508760088151811061403757614037614dfd565b602002602001015160091461411957806001600160a01b031663f242432a30338b60008151811061406a5761406a614dfd565b6020026020010151896040518563ffffffff1660e01b81526004016140929493929190615265565b600060405180830381600087803b1580156140ac57600080fd5b505af11580156140c0573d6000803e3d6000fd5b505050506140cc613f7a565b6141145760405162461bcd60e51b8152602060048201526019602482015278189d5e481b999d1958481d1c985b9cd9995c8819985a5b1959603a1b6044820152606401610850565b6141fc565b806001600160a01b031663f242432a30600360009054906101000a90046001600160a01b03168b60008151811061415257614152614dfd565b6020026020010151896040518563ffffffff1660e01b815260040161417a9493929190615265565b600060405180830381600087803b15801561419457600080fd5b505af11580156141a8573d6000803e3d6000fd5b505050506141b4613f7a565b6141fc5760405162461bcd60e51b8152602060048201526019602482015278189d5e481b999d1958481d1c985b9cd9995c8819985a5b1959603a1b6044820152606401610850565b85156145635760008860068151811061421757614217614dfd565b602002602001015111156144fb57600254604051636881aedd60e01b81526001600160a01b0390911690636881aedd9061425390600401615081565b602060405180830381865afa158015614270573d6000803e3d6000fd5b505050506040513d601f19601f820116820180604052508101906142949190614e72565b9050806001600160a01b031663875ff215896006815181106142b8576142b8614dfd565b60200260200101516040518263ffffffff1660e01b81526004016142de91815260200190565b600060405180830381865afa1580156142fb573d6000803e3d6000fd5b505050506040513d6000823e601f3d908101601f191682016040526143239190810190615393565b50508051600c908155602080830151805184939261434692600d92910190614872565b5060408201518051614362916002840191602090910190614827565b5050505060006001600160a01b0316600c60010160028154811061438857614388614dfd565b6000918252602090912001546001600160a01b0316146144fb576143ad866002613f43565b9550866002815181106143c2576143c2614dfd565b60200260200101516001600160a01b03166323b872dd33600c6001016002815481106143f0576143f0614dfd565b6000918252602090912001546040516001600160e01b031960e085901b16815261442992916001600160a01b0316908b90600401614eb4565b6020604051808303816000875af1158015614448573d6000803e3d6000fd5b505050506040513d601f19601f8201168201806040525081019061446c9190614ee8565b50614475613f7a565b6144c15760405162461bcd60e51b815260206004820152601a60248201527f6c6162656c2062757920636f6d6d6973696f6e206661696c65640000000000006044820152606401610850565b60408051858152602081018890527f75ee7fc9b72af68717107729ea656cfb07c9656e03b8fc6826fa0d8f7550de7f910160405180910390a15b6145208760028151811061451157614511614dfd565b6020026020010151878661469b565b9150816145635760405162461bcd60e51b81526020600482015260116024820152706572726f7220706179696e67206665657360781b6044820152606401610850565b600254604051636881aedd60e01b81526001600160a01b0390911690636881aedd9061459190600401614e3d565b602060405180830381865afa1580156145ae573d6000803e3d6000fd5b505050506040513d601f19601f820116820180604052508101906145d29190614e72565b604051638a83482d60e01b81529091506001600160a01b03821690638a83482d90614607908b908990899033906004016155d3565b6020604051808303816000875af1158015614626573d6000803e3d6000fd5b505050506040513d601f19601f8201168201806040525081019061464a9190614ee8565b91508161468d5760405162461bcd60e51b81526020600482015260116024820152706572726f722073657474696e672062757960781b6044820152606401610850565b506001979650505050505050565b600254604051636881aedd60e01b81526020600482015260096024820152686d61726b6574696e6760b81b604482015260009182916001600160a01b0390911690636881aedd90606401602060405180830381865afa158015614702573d6000803e3d6000fd5b505050506040513d601f19601f820116820180604052508101906147269190614e72565b6040516323b872dd60e01b81529091506001600160a01b038616906323b872dd9061475990339085908990600401614eb4565b6020604051808303816000875af1158015614778573d6000803e3d6000fd5b505050506040513d601f19601f8201168201806040525081019061479c9190614ee8565b506147a5613f7a565b6147e35760405162461bcd60e51b815260206004820152600f60248201526e1c185e481999595cc819985a5b1959608a1b6044820152606401610850565b60408051848152602081018690527f6308f1cddc2253375a5956c46124f51ec65cbf25077b9a75a89dfe259c0d1133910160405180910390a1506001949350505050565b828054828255906000526020600020908101928215614862579160200282015b82811115614862578251825591602001919060010190614847565b5061486e9291506148c7565b5090565b828054828255906000526020600020908101928215614862579160200282015b8281111561486257825182546001600160a01b0319166001600160a01b03909116178255602090920191600190910190614892565b5b8082111561486e57600081556001016148c8565b634e487b7160e01b600052604160045260246000fd5b60405160a081016001600160401b0381118282101715614914576149146148dc565b60405290565b604051606081016001600160401b0381118282101715614914576149146148dc565b604051608081016001600160401b0381118282101715614914576149146148dc565b604051601f8201601f191681016001600160401b0381118282101715614986576149866148dc565b604052919050565b60006001600160401b038211156149a7576149a76148dc565b5060051b60200190565b600082601f8301126149c257600080fd5b813560206149d76149d28361498e565b61495e565b82815260059290921b840181019181810190868411156149f657600080fd5b8286015b84811015614a1157803583529183019183016149fa565b509695505050505050565b6001600160a01b0381168114614a3157600080fd5b50565b600082601f830112614a4557600080fd5b81356020614a556149d28361498e565b82815260059290921b84018101918181019086841115614a7457600080fd5b8286015b84811015614a11578035614a8b81614a1c565b8352918301918301614a78565b60008060008060808587031215614aae57600080fd5b84356001600160401b0380821115614ac557600080fd5b614ad1888389016149b1565b95506020870135915080821115614ae757600080fd5b50614af487828801614a34565b949794965050505060408301359260600135919050565b600060208284031215614b1d57600080fd5b5035919050565b60005b83811015614b3f578181015183820152602001614b27565b50506000910152565b6020815260008251806020840152614b67816040850160208701614b24565b601f01601f19169190910160400192915050565b60008060408385031215614b8e57600080fd5b823591506020830135614ba081614a1c565b809150509250929050565b60008060408385031215614bbe57600080fd5b50508035926020909101359150565b60008060408385031215614be057600080fd5b82356001600160401b0380821115614bf757600080fd5b614c03868387016149b1565b93506020850135915080821115614c1957600080fd5b50614c2685828601614a34565b9150509250929050565b60008060008060808587031215614c4657600080fd5b5050823594602084013594506040840135936060013592509050565b600080600060608486031215614c7757600080fd5b83356001600160401b0380821115614c8e57600080fd5b614c9a878388016149b1565b9450602086013593506040860135915080821115614cb757600080fd5b50614cc486828701614a34565b9150509250925092565b600080600060608486031215614ce357600080fd5b505081359360208301359350604090920135919050565b60006001600160401b03821115614d1357614d136148dc565b50601f01601f191660200190565b600080600080600060a08688031215614d3957600080fd5b8535614d4481614a1c565b94506020860135614d5481614a1c565b9350604086013592506060860135915060808601356001600160401b03811115614d7d57600080fd5b8601601f81018813614d8e57600080fd5b8035614d9c6149d282614cfa565b818152896020838501011115614db157600080fd5b816020840160208301376000602083830101528093505050509295509295909350565b634e487b7160e01b600052601160045260246000fd5b8082018082111561116c5761116c614dd4565b634e487b7160e01b600052603260045260246000fd5b634e487b7160e01b600052601260045260246000fd5b600082614e3857614e38614e13565b500690565b6020808252600b908201526a73686f7073746f7261676560a81b604082015260600190565b8051614e6d81614a1c565b919050565b600060208284031215614e8457600080fd5b8151613f4f81614a1c565b60008060408385031215614ea257600080fd5b825191506020830151614ba081614a1c565b6001600160a01b039384168152919092166020820152604081019190915260600190565b80518015158114614e6d57600080fd5b600060208284031215614efa57600080fd5b613f4f82614ed8565b600181811c90821680614f1757607f821691505b602082108103614f3757634e487b7160e01b600052602260045260246000fd5b50919050565b6020808252600c908201526b1b5a5b9d18dbdb9d1c9858dd60a21b604082015260600190565b600081518084526020808501945080840160005b83811015614f9357815187529582019590820190600101614f77565b509495945050505050565b604081526000614fb16040830185614f63565b82810360208481019190915284518083528582019282019060005b81811015614ff15784516001600160a01b031683529383019391830191600101614fcc565b5090979650505050505050565b6000806040838503121561501157600080fd5b61501a83614ed8565b9150602083015190509250929050565b6020808252600690820152651d19585c1bdd60d21b604082015260600190565b60208082526017908201527f6572726f7220736574746e672067617320726566756e64000000000000000000604082015260600190565b6020808252600b908201526a6d696e7473746f7261676560a81b604082015260600190565b600080604083850312156150b957600080fd5b505080516020909101519092909150565b6020808252600d908201526c1b1858995b08195e1c1a5c9959609a1b604082015260600190565b600082601f83011261510257600080fd5b815160206151126149d28361498e565b82815260059290921b8401810191818101908684111561513157600080fd5b8286015b84811015614a115780518352918301918301615135565b600082601f83011261515d57600080fd5b8151602061516d6149d28361498e565b82815260059290921b8401810191818101908684111561518c57600080fd5b8286015b84811015614a115780516151a381614a1c565b8352918301918301615190565b6000602082840312156151c257600080fd5b81516001600160401b03808211156151d957600080fd5b9083019060a082860312156151ed57600080fd5b6151f56148f2565b825181526020830151602082015260408301518281111561521557600080fd5b615221878286016150f1565b60408301525060608301518281111561523957600080fd5b6152458782860161514c565b60608301525061525760808401614ed8565b608082015295945050505050565b6001600160a01b0394851681529290931660208301526040820152606081019190915260a06080820181905260009082015260c00190565b8181038181111561116c5761116c614dd4565b808202811582820484141761116c5761116c614dd4565b600082601f8301126152d857600080fd5b81516152e66149d282614cfa565b8181528460208386010111156152fb57600080fd5b61530c826020830160208701614b24565b949350505050565b600082601f83011261532557600080fd5b815160206153356149d28361498e565b82815260059290921b8401810191818101908684111561535457600080fd5b8286015b84811015614a115780516001600160401b038111156153775760008081fd5b6153858986838b01016152c7565b845250918301918301615358565b6000806000606084860312156153a857600080fd5b83516001600160401b03808211156153bf57600080fd5b90850190606082880312156153d357600080fd5b6153db61491a565b825181526020830151828111156153f157600080fd5b6153fd8982860161514c565b60208301525060408301518281111561541557600080fd5b615421898286016150f1565b604083015250602087015190955091508082111561543e57600080fd5b61544a87838801615314565b9350604086015191508082111561546057600080fd5b50614cc4868287016152c7565b60006020828403121561547f57600080fd5b5051919050565b6000806000806080858703121561549c57600080fd5b505082516020840151604085015160609095015191969095509092509050565b60208082526022908201527f6d61726b6574706c616365206c6963656e73652c206c6162656c206578706972604082015261195960f21b606082015260800190565b6000806000806000806000610140888a03121561551a57600080fd5b88601f89011261552957600080fd5b61553161493c565b8060808a018b81111561554357600080fd5b8a5b8181101561555d578051845260209384019301615545565b505190985090506001600160401b0381111561557857600080fd5b6155848a828b016150f1565b96505060a0880151945060c0880151935060e0880151925061010088015191506155b16101208901614e62565b905092959891949750929550565b6000826155ce576155ce614e13565b500490565b6080815260006155e66080830187614f63565b60208301959095525060408101929092526001600160a01b031660609091015291905056fea26469706673582212207fe2fe1bea43e96301344effc0d86f0b3c16176acb08ca1859b24744494a30ac64736f6c63430008110033",
  "immutableReferences": {},
  "source": "// SPDX-License-Identifier: MIT\n\npragma solidity ^0.8.0;\n\ninterface IERC165 {\n    function supportsInterface(bytes4 interfaceId) external view returns (bool);\n}\n\npragma solidity ^0.8.0;\n\ninterface IERC1155 is IERC165 {\n    event TransferSingle(address indexed operator, address indexed from, address indexed to, uint256 id, uint256 value);\n\n    event TransferBatch(\n        address indexed operator,\n        address indexed from,\n        address indexed to,\n        uint256[] ids,\n        uint256[] values\n    );\n\n    event ApprovalForAll(address indexed account, address indexed operator, bool approved);\n\n    event URI(string value, uint256 indexed id);\n\n    function balanceOf(address account, uint256 id) external view returns (uint256);\n\n    function balanceOfBatch(address[] calldata accounts, uint256[] calldata ids)\n        external\n        view\n        returns (uint256[] memory);\n\n    function setApprovalForAll(address operator, bool approved) external;\n\n    function isApprovedForAll(address account, address operator) external view returns (bool);\n\n    function safeTransferFrom(\n        address from,\n        address to,\n        uint256 id,\n        uint256 amount,\n        bytes calldata data\n    ) external;\n\n    function safeBatchTransferFrom(\n        address from,\n        address to,\n        uint256[] calldata ids,\n        uint256[] calldata amounts,\n        bytes calldata data\n    ) external;\n}\n\npragma solidity ^0.8.0;\n\ninterface IERC1155Receiver is IERC165 {\n\n    function onERC1155Received(\n        address operator,\n        address from,\n        uint256 id,\n        uint256 value,\n        bytes calldata data\n    ) external returns (bytes4);\n\n    function onERC1155BatchReceived(\n        address operator,\n        address from,\n        uint256[] calldata ids,\n        uint256[] calldata values,\n        bytes calldata data\n    ) external returns (bytes4);\n}\n\npragma solidity ^0.8.0;\ninterface IERC20 {\n\n    event Transfer(address indexed from, address indexed to, uint256 value);\n\n    event Approval(address indexed owner, address indexed spender, uint256 value);\n\n    function totalSupply() external view returns (uint256);\n\n    function balanceOf(address account) external view returns (uint256);\n\n    function transfer(address to, uint256 amount) external returns (bool);\n\n    function allowance(address owner, address spender) external view returns (uint256);\n\n    function approve(address spender, uint256 amount) external returns (bool);\n\n    function transferFrom(\n        address from,\n        address to,\n        uint256 amount\n    ) external returns (bool);\n}\n\npragma solidity ^0.8.0;\n\nlibrary SafeMath {\n\n    function add(uint256 a, uint256 b) internal pure returns (uint256) {\n        return a + b;\n    }\n\n    function sub(uint256 a, uint256 b) internal pure returns (uint256) {\n        return a - b;\n    }\n\n    function mul(uint256 a, uint256 b) internal pure returns (uint256) {\n        return a * b;\n    }\n\n    function div(uint256 a, uint256 b) internal pure returns (uint256) {\n        return a / b;\n    }\n\n    function mod(uint256 a, uint256 b) internal pure returns (uint256) {\n        return a % b;\n    }\n\n    function sub(\n        uint256 a,\n        uint256 b,\n        string memory errorMessage\n    ) internal pure returns (uint256) {\n        unchecked {\n            require(b <= a, errorMessage);\n            return a - b;\n        }\n    }\n\n    function div(\n        uint256 a,\n        uint256 b,\n        string memory errorMessage\n    ) internal pure returns (uint256) {\n        unchecked {\n            require(b > 0, errorMessage);\n            return a / b;\n        }\n    }\n\n    function mod(\n        uint256 a,\n        uint256 b,\n        string memory errorMessage\n    ) internal pure returns (uint256) {\n        unchecked {\n            require(b > 0, errorMessage);\n            return a % b;\n        }\n    }\n}\n\n// File: contracts/shoplogic.sol\n\npragma solidity ^0.8.4;\n\ninterface i1155{\n    struct SALE{\n        uint256 saleid;\n        uint256 expire;\n        uint256[] settings;\n        address[] addresses;\n        bool active;\n    }\n    struct NFTEA {\n        uint256 nftea;\n        address[] addresses;\n        uint256[] settings;\n    }\n    function getsell(uint256 saleid_) external returns(SALE memory forsale);\n\n    function fire(address caller_) external pure returns(uint256[] memory,uint256[] memory,uint256,bool,bool,uint256);\n    function getContract(address contract_) external returns(bool);\n    function gflame(string memory flame_) external pure returns(address);\n    function gspark(string memory spark_) external pure returns(uint256);\n    function getnftea(uint256 nftea_) external pure returns(NFTEA memory _nfteas, string[] memory, string memory);\n    function setunsell(uint256 saleid_) external returns(bool);\n    function setsell(uint256[] memory, address[] memory addresses_) external returns(bool, uint256);\n    function setroyaltea(uint256 label_, address token_, uint256 amount_, address buyer_) external returns(bool);\n    function setbuyclose(uint256[] memory buysettings_,uint256 quantity_, uint256 saleid_,address buyer_) external returns(bool);\n    function getoperatorrole(uint256 opid_) external view returns(uint256);\n    function getoperator(address operator_, uint256 license_) external pure returns(uint256[4] memory,uint256[] memory,uint256,uint256,uint256,uint256,address);\n    function getpaysplit(uint256 saleid_) external returns(uint256,address);\n    function getnftea2label(uint256 nftea_) external pure returns(uint256,uint256);\n    function getNftea2lastmarket(uint256 nftea_, address buyer_) external pure returns(uint256,uint256,uint256,uint256);\n    function balanceOf(address holder, uint256 nftea_) external pure returns(uint256);\n    function setGasRefund(address holder_, uint256 gas_) external returns(bool);\n    function setdisplay(uint256 label_, uint256 nft_, uint256 type_, address holder_) external returns(bool);\n    function setOnDisplay(uint256 nftea_, bool value_, address holder_) external returns(bool);\n    function getfee(string memory fee_) external pure returns(uint256);\n    }\ncontract shoplogic{\n\n    event sale(\n        uint256 sellid,\n        uint256 nftea,\n        address seller,\n        uint256 price,\n        uint256 pricetype,\n        uint256 label\n    );\n    event display(\n      uint256 nftea,\n      address holder,\n      bool status\n    );\n    event labelBuyBonus(\n        uint256 sellid,\n        uint256 amount\n    );\n    event salecanceled(\n        uint256 sellid\n    );\n    event saleclosed(\n        uint256 saleid\n    );\n    event royaltea(\n        uint256 amount,\n        uint256 sellid\n    );\n    event fees(\n        uint256 sellid,\n        uint256 amount\n    );\n    event buy(\n    uint256 sellid,\n    uint256 price,\n    uint256 quantity,\n    address buyer\n\n    );\n    using SafeMath for uint256;\n    string public name = \"SHOP LOGIC V1\";\n    uint256 public _saleid;\n    address public _fire;\n    address public _burn = 0x000000000000000000000000000000000000dEaD;\n    mapping(uint256=>uint256) public _sale2buycount;\n    mapping(uint256=>mapping(address=>uint256)) public license2buyer2expiredate;\n    mapping(uint256=>bool) public _salekilled;\n    i1155.SALE forsale;\n    i1155.NFTEA _nfteas;\n\n    constructor(address fire_){\n        _fire = fire_;\n    }\n    //label_ = goose2\n    receive () external payable {}\n    function onERC1155Received(\n        address,\n        address,\n        uint256,\n        uint256,\n        bytes memory\n    ) public virtual returns (bytes4) {\n        return this.onERC1155Received.selector;\n    }\n    function expirecheck(uint256 mainlabel_, uint256 license_) public view returns(bool){\n      (address flame_) = i1155(_fire).gflame('mintstorage');\n      if(license_>0){\n        (uint256 label_, uint256 expire_) = i1155(flame_).getnftea2label(license_);\n        require(block.timestamp<expire_ || expire_ == 0, 'license expired');\n\n        (, uint256 expire2_) = i1155(flame_).getnftea2label(label_);\n        require(block.timestamp<expire2_ || expire2_ == 0, 'label expired');\n      }\n      if(mainlabel_>0 && license_<1){\n        (, uint256 expire_) = i1155(flame_).getnftea2label(mainlabel_);\n        require(block.timestamp<expire_ || expire_ == 0, 'label expired');\n      }\n      return true;\n    }\n    function licensecheck(uint256 marketplacelicense_,uint256 nftea_) public returns(uint256){\n      //check if this is the same market the buyer bought from\n      uint256 label_ = 0;\n      bool okay = false;\n      (address flame_) = i1155(_fire).gflame('shopstorage');\n      (,uint256 lastmarket_,,) = i1155(flame_).getNftea2lastmarket(nftea_,msg.sender);\n      if(marketplacelicense_>0){\n\n          //check seller has marketplace license\n          (flame_) = i1155(_fire).gflame('mintcontract');\n          uint256 balance = IERC1155(flame_).balanceOf(msg.sender,marketplacelicense_);\n          require(balance>0,'you do not own marketplace license');\n\n          //check if marketing license is expired..\n          (okay) = expirecheck(label_,0);\n          require(okay, 'marketplace license, label expired');\n\n          (flame_) = i1155(_fire).gflame('mintstorage');\n          (_nfteas,,) = i1155(flame_).getnftea(marketplacelicense_);\n          label_ = _nfteas.settings[0];\n\n      }else if(marketplacelicense_<1 && lastmarket_>0){\n          label_ = lastmarket_;\n      }\n\n      if(label_>0){\n        (okay) = expirecheck(label_,0);\n        require(okay, 'marketplace license, label expired');\n      }\n      return label_;\n    }\n    function validateoperator(uint256 label_) public view returns(uint256){\n\n        uint256 opid_ = 0;\n        (address flame_) = i1155(_fire).gflame('mintcontract');\n        if(label_>0){\n          //check if label is burned\n          IERC1155 nft = IERC1155(flame_);\n          require(nft.balanceOf(_burn, label_)<1,'label burned');\n          //check if label is expired\n          (bool okay) = expirecheck(label_,0);\n          require(okay, 'label expired');\n          //validate operator\n          (flame_) = i1155(_fire).gflame('operatorstorage');\n          (,,uint256 opidx_,uint256 expirex_,,,) = i1155(flame_).getoperator(msg.sender,label_);\n          if(opidx_>0){\n              opid_ = opidx_;\n              //seller has operator license for label\n              require(block.timestamp<expirex_ || expirex_==0,'operator license expired 1');\n              (uint256 rolex_)= i1155(flame_).getoperatorrole(opid_);\n              require(rolex_==1, 'you are not a super oerpertor');\n          }\n        }\n\n        return (opid_);\n    }\n    function sell(uint256[] memory sellsettings_, uint256 price_, address[] memory selladdresses_) public{\n        uint256 startGas = gasleft();\n        require(sellsettings_[4]>0 || sellsettings_[6]>0, 'must use market license or operator license');\n        uint256 opid_ = 0;\n        uint256 marketlabel_ = 0;\n        (address flame_) = i1155(_fire).gflame('mintstorage');\n        sellsettings_[1] = price_;\n        (_nfteas,,) = i1155(flame_).getnftea(sellsettings_[0]);\n        selladdresses_[0] = msg.sender; //seller\n        selladdresses_[3] = _nfteas.addresses[3]; //label wallet\n        if(selladdresses_[3]==address(0)){\n            selladdresses_[3] = msg.sender;\n        }else if(_nfteas.addresses[1]!=msg.sender){\n            //minter is not the seller, pay seller not label wallet\n            selladdresses_[3] = msg.sender;\n        }\n\n        if(sellsettings_[2]==2){\n            ///incremening price... quantity must be more than 1\n            require(_nfteas.settings[6]>1, 'quantity should be more than 1');\n        }\n        if(sellsettings_[4]>0){\n          ///marketing license used\n            if(_nfteas.settings[0]!=sellsettings_[6]){\n              (marketlabel_) = licensecheck(sellsettings_[4],sellsettings_[0]);\n            }else{\n              marketlabel_ = _nfteas.settings[0];\n            }\n            (_nfteas,,) = i1155(flame_).getnftea(marketlabel_);\n            sellsettings_[5] = _nfteas.settings[11]; //sets label royalty\n            sellsettings_[6] = marketlabel_;\n            sellsettings_[7] = 0;\n        }\n        if(sellsettings_[6]>0){\n          (opid_) = validateoperator(sellsettings_[6]);\n          if(opid_>0){\n\n              (flame_) = i1155(_fire).gflame('mintstorage');\n              (_nfteas,,) = i1155(flame_).getnftea(sellsettings_[6]);\n              sellsettings_[5] = _nfteas.settings[11];\n              sellsettings_[7] = opid_;\n          }\n        }\n        sellsettings_[10] = block.timestamp + 90 * 24 hours;\n        (flame_) = i1155(_fire).gflame('mintcontract');\n        IERC1155(flame_).safeTransferFrom(msg.sender,address(this),sellsettings_[0], sellsettings_[3],'');\n        require(checkSuccess(), 'sale transfer failed');\n        (bool worked) = sellcomplete(sellsettings_, selladdresses_);\n        uint256 endGas = gasleft();\n        uint256 gasUsed = startGas - endGas;\n        uint256 refundAmount = gasUsed * tx.gasprice;\n        (flame_) = i1155(_fire).gflame('teapot');\n        (bool success) = i1155(flame_).setGasRefund(msg.sender,refundAmount);\n        require(success, 'error settng gas refund');\n\n        require(worked, 'error selling 2');\n    }\n    function sellcomplete(uint256[] memory sellsettings_, address[] memory selladdresses_) public returns(bool){\n\n        (address flame_) = i1155(_fire).gflame('shopstorage');\n        (bool worked,uint256 sellid_) = i1155(flame_).setsell(sellsettings_,selladdresses_);\n        require(worked, 'error setting sell');\n        emit sale(sellid_, sellsettings_[0], msg.sender, sellsettings_[1], sellsettings_[2],sellsettings_[6]);\n        (flame_) = i1155(_fire).gflame('teapot');\n        (worked) = i1155(flame_).setGasRefund(msg.sender,2);\n        require(worked, 'error settng gas refund');\n        return true;\n\n    }\n    function unsell(uint256 sellid_) public{\n        uint256 startGas = gasleft();\n        (address flame_) = i1155(_fire).gflame('shopstorage');\n        (forsale) = i1155(flame_).getsell(sellid_);\n        require(forsale.active, 'sale not active');\n        require(forsale.addresses[0] == msg.sender || block.timestamp > forsale.expire || forsale.addresses[5] ==msg.sender, 'not allowed');\n        (flame_) = i1155(_fire).gflame('mintcontract');\n        IERC1155(flame_).safeTransferFrom(address(this),forsale.addresses[0],forsale.settings[0], forsale.settings[3],'');\n        require(checkSuccess(), 'unsell failed');\n        (flame_) = i1155(_fire).gflame('shopstorage');\n        (bool success) = i1155(flame_).setunsell(sellid_);\n        require(success, 'error unselling');\n        uint256 endGas = gasleft();\n        uint256 gasUsed = startGas - endGas;\n        uint256 refundAmount = gasUsed * tx.gasprice;\n        (flame_) = i1155(_fire).gflame('teapot');\n        (success) = i1155(flame_).setGasRefund(msg.sender,refundAmount);\n        require(success, 'error settng gas refund');\n        emit salecanceled(sellid_);\n    }\n\n    function setdisplay(uint256 label_, uint256 nftea_, uint256 mplicense_, uint256 frontpage) public{\n      uint256 startGas = gasleft();\n      require(label_>0 || mplicense_>0, 'display to label or marketplace');\n      bool okay = false;\n      uint256 opid_ = 0;\n      (address flame_) = i1155(_fire).gflame('mintstorage');\n      (_nfteas,,) = i1155(flame_).getnftea(nftea_);\n      require(_nfteas.addresses[2]!=address(0), 'uniques only for display');\n      require(_nfteas.settings[3]==4 || _nfteas.settings[3]==8 || _nfteas.settings[3]==11, 'invalid type to display');\n      if(label_>0){\n\n        (okay) = expirecheck(label_,0);\n        require(okay, 'label expired');\n        (opid_) = validateoperator(label_);\n        require(opid_>0, 'invalid operator');\n        //set display\n\n      }\n      if(mplicense_>0){\n        if(mplicense_==_nfteas.settings[0]){\n          label_ = mplicense_;\n\n        }else{\n          (okay) = expirecheck(0,mplicense_);\n          require(okay, 'license expired');\n          (label_) = licensecheck(mplicense_,nftea_);\n        }\n        (okay) = expirecheck(label_,0);\n        require(okay, 'label expired');\n        //set display\n      }\n      (flame_) = i1155(_fire).gflame('shopstorage');\n      (okay) = i1155(flame_).setdisplay(label_,nftea_,1,msg.sender);\n      require(okay, 'error setting display');\n      if(frontpage>0){\n\n        (uint256 price_) = i1155(_fire).getfee('display');\n        (address marketing_) =i1155(_fire).gflame(\"marketing\");\n        (address donate) =i1155(_fire).gflame(\"donate\");\n        (address paytoken_) =i1155(_fire).gflame(\"teatoken\");\n        if(price_>0){\n\n          IERC20(paytoken_).transferFrom(msg.sender,marketing_,price_.div(2));\n          require(checkSuccess(), 'error paying display fee');\n          IERC20(paytoken_).transferFrom(msg.sender,donate,price_.div(2));\n          require(checkSuccess(), 'error burning dispaly fee');\n\n        }\n        (flame_) = i1155(_fire).gflame('mintcontract');\n        (okay) = i1155(flame_).setOnDisplay(nftea_,true,msg.sender);\n        require(okay, 'error setting on display');\n\n      }\n      emit display(nftea_,msg.sender,true);\n      uint256 endGas = gasleft();\n      uint256 gasUsed = startGas - endGas;\n      uint256 refundAmount = gasUsed * tx.gasprice;\n\n      (flame_) = i1155(_fire).gflame('teapot');\n      (bool success) = i1155(flame_).setGasRefund(msg.sender,refundAmount);\n      require(success, 'error refunding gas');\n    }\n    function setdisplayoff(uint256 label_, uint256 nftea_) public {\n\n      (address flame_) = i1155(_fire).gflame('shopstorage');\n      (bool okay) = i1155(flame_).setdisplay(label_,nftea_,0,msg.sender);\n      require(okay, 'error setting off display');\n\n      (flame_) = i1155(_fire).gflame('mintcontract');\n      (okay) = i1155(flame_).setOnDisplay(nftea_,false,msg.sender);\n      require(okay, 'error setting off display');\n      emit display(nftea_,msg.sender,false);\n\n    }\n    function setbuy(uint256 saleid_, uint256 nftea_, uint256 quantity_) public{\n\n        uint256 startGas = gasleft();\n        require(!_salekilled[saleid_], 'sale killed');\n        (address flame_) = i1155(_fire).gflame('shopstorage');\n        (forsale) = i1155(flame_).getsell(saleid_);\n        require(forsale.active && forsale.settings[3]>0 && block.timestamp < forsale.expire, 'sale closed');\n        bool success = true;\n        forsale.addresses[1] = msg.sender;//buyer\n        (success) = buysettings(forsale.settings, forsale.addresses, quantity_, saleid_);\n        require(success, 'error buy settings');\n        //check if purchased nft is a marketing license\n        if(forsale.settings[8]==1){\n            (flame_) = i1155(_fire).gflame('mintstorage');\n            (_nfteas,,) = i1155(flame_).getnftea(nftea_);\n            if(_nfteas.settings[4]>0){\n                license2buyer2expiredate[nftea_][msg.sender] = block.timestamp + _nfteas.settings[4] * 30 days;\n            }\n        }\n        uint256 endGas = gasleft();\n        uint256 gasUsed = startGas - endGas;\n        uint256 refundAmount = gasUsed * tx.gasprice;\n\n        (flame_) = i1155(_fire).gflame('teapot');\n        (success) = i1155(flame_).setGasRefund(msg.sender,refundAmount);\n        require(success, 'error settng gas refund');\n\n        emit buy(saleid_,forsale.settings[1],quantity_,msg.sender);\n    }\n\n    function buysettings(uint256[] memory sellsettings_, address[] memory addresses_, uint256 quantity_, uint256 saleid_) public returns(bool){\n\n            bool success = false;\n            uint256 total_ = 0;\n            uint256 fees_ = 0;\n            _sale2buycount[saleid_]+=1;\n            if(sellsettings_[2]==2 && _sale2buycount[saleid_]>1){\n                ///price increments every 6 buys\n                if(_sale2buycount[saleid_]%6==0){\n                    uint256 price_ = sellsettings_[1];\n                    uint256 bumb_ = price_.div(100);\n                    sellsettings_[1] = price_.add(bumb_);\n                }\n            }\n            if(sellsettings_[1]>0){\n\n                //sale price is > 0\n                total_ = sellsettings_[1].mul(quantity_); ///total price\n                fees_ = total_.mul(3).div(100); // total fees\n\n            }\n            addresses_[1] = msg.sender; //set last buyer\n            address payto_ = address(0);\n                ///opid > 0 || operator license was used, pay to label wallet address\n                if(addresses_[3]!=address(0)){\n\n                    payto_ = addresses_[3];\n                }else{\n\n                    payto_ = addresses_[0];\n                }\n\n            //if seller used marketers license thats split with label\n            (address flame_) = i1155(_fire).gflame('shopstorage');\n            (uint256 labelroyaltea_,) = i1155(flame_).getpaysplit(saleid_);\n\n            if(labelroyaltea_>0){\n                labelroyaltea_ = total_.sub(fees_).mul(labelroyaltea_).div(100);\n                (flame_) = i1155(_fire).gflame('kettle');\n                IERC20(addresses_[2]).transferFrom(msg.sender,flame_,labelroyaltea_);\n                require(checkSuccess(), 'eror paying royalty to kettle');\n                (success) = i1155(flame_).setroyaltea(sellsettings_[6],addresses_[2],labelroyaltea_,msg.sender);\n                require(success, 'error setting royaltea');\n                emit royaltea(labelroyaltea_,sellsettings_[6]);\n            }\n            uint256 sellerpay_ = total_.sub(fees_).sub(labelroyaltea_);\n            if(sellerpay_>0){\n\n                IERC20(addresses_[2]).transferFrom(msg.sender,payto_,sellerpay_);\n                require(checkSuccess(), 'eror paying seller');\n            }\n\n            (success) = buyclose(sellsettings_, addresses_, fees_,quantity_,saleid_);\n            require(success, 'error buy prep');\n            return true;\n    }\n    function buyclose(uint256[] memory sellsettings_, address[] memory addresses_, uint256 fees_,uint256 quantity_,uint256 saleid_) internal returns (bool) {\n\n            bool success = false;\n            (address flame_) = i1155(_fire).gflame('mintcontract');\n            if(sellsettings_[8]!=9){\n                IERC1155(flame_).safeTransferFrom(address(this),msg.sender,sellsettings_[0], quantity_,'');\n                require(checkSuccess(), 'buy nftea transfer failed');\n            }else{\n                IERC1155(flame_).safeTransferFrom(address(this),_burn,sellsettings_[0], quantity_,'');\n                require(checkSuccess(), 'buy nftea transfer failed');\n            }\n            if(fees_>0){\n\n                //if market label, pay 50% of fees to label wallet\n                if(sellsettings_[6]>0){\n                  (flame_) = i1155(_fire).gflame('mintstorage');\n                  (_nfteas,,) = i1155(flame_).getnftea(sellsettings_[6]);\n                  if(_nfteas.addresses[2]!=address(0)){\n                    fees_ = fees_.div(2);\n                    IERC20(addresses_[2]).transferFrom(msg.sender,_nfteas.addresses[2],fees_);\n                    require(checkSuccess(), 'label buy commision failed');\n                    emit labelBuyBonus(saleid_,fees_);\n                  }\n                }\n                //pay service fee\n                (success) = payfees(addresses_[2],fees_,saleid_);\n                require(success,'error paying fees');\n\n            }\n\n            (flame_) = i1155(_fire).gflame('shopstorage');\n            (success) = i1155(flame_).setbuyclose(sellsettings_,quantity_,saleid_,msg.sender);\n            require(success,'error setting buy');\n            return true;\n    }\n\n    function payfees(address paytoken_,uint256 servicefee_, uint256 saleid_) internal returns(bool){\n\n        (address flame_) = i1155(_fire).gflame('marketing');\n        IERC20(paytoken_).transferFrom(msg.sender,flame_,servicefee_);\n        require(checkSuccess(), 'pay fees failed');\n        emit fees(saleid_,servicefee_);\n        return true;\n    }\n    function checkSuccess()\n    private pure\n    returns (bool)\n    {\n        uint256 returnValue = 0;\n\n        /* solium-disable-next-line security/no-inline-assembly */\n        assembly {\n        // check number of bytes returned from last function call\n            switch returndatasize()\n\n            // no bytes returned: assume success\n            case 0x0 {\n                returnValue := 1\n            }\n\n            // 32 bytes returned: check if non-zero\n            case 0x20 {\n            // copy 32 bytes into scratch space\n                returndatacopy(0x0, 0x0, 0x20)\n\n            // load those bytes into returnValue\n                returnValue := mload(0x0)\n            }\n\n            // not sure what was returned: dont mark as success\n            default { }\n\n        }\n\n        return returnValue != 0;\n    }\n}\n",
  "sourcePath": "/Users/jl1013/Documents/FUTURO/nftea/contracts/shoplogic.sol",
  "compiler": {
    "name": "solc",
    "version": "0.8.17+commit.8df45f5f.Emscripten.clang"
  },
  "schemaVersion": "3.4.13",
  "updatedAt": "2023-06-30T06:03:30.446Z",
  "networkType": "ethereum",
  "devdoc": {
    "kind": "dev",
    "methods": {},
    "version": 1
  },
  "userdoc": {
    "kind": "user",
    "methods": {},
    "version": 1
  }
}