{
  "contractName": "teapot",
  "abi": [
    {
      "inputs": [
        {
          "internalType": "address",
          "name": "fire_",
          "type": "address"
        }
      ],
      "stateMutability": "nonpayable",
      "type": "constructor"
    },
    {
      "anonymous": false,
      "inputs": [
        {
          "indexed": false,
          "internalType": "uint256",
          "name": "loan",
          "type": "uint256"
        },
        {
          "indexed": false,
          "internalType": "uint256",
          "name": "nftea",
          "type": "uint256"
        },
        {
          "indexed": false,
          "internalType": "uint256",
          "name": "purchaseAmount",
          "type": "uint256"
        }
      ],
      "name": "AssetBought",
      "type": "event"
    },
    {
      "anonymous": false,
      "inputs": [
        {
          "indexed": false,
          "internalType": "address",
          "name": "holder",
          "type": "address"
        },
        {
          "indexed": false,
          "internalType": "uint256",
          "name": "value",
          "type": "uint256"
        }
      ],
      "name": "GasRefund",
      "type": "event"
    },
    {
      "anonymous": false,
      "inputs": [
        {
          "indexed": false,
          "internalType": "address",
          "name": "holder",
          "type": "address"
        },
        {
          "indexed": false,
          "internalType": "uint256",
          "name": "value",
          "type": "uint256"
        }
      ],
      "name": "GasRefunded",
      "type": "event"
    },
    {
      "anonymous": false,
      "inputs": [
        {
          "indexed": false,
          "internalType": "uint256",
          "name": "nftea",
          "type": "uint256"
        },
        {
          "indexed": false,
          "internalType": "uint256",
          "name": "loanAmount",
          "type": "uint256"
        },
        {
          "indexed": false,
          "internalType": "address",
          "name": "member",
          "type": "address"
        },
        {
          "indexed": false,
          "internalType": "uint256",
          "name": "brewdate",
          "type": "uint256"
        }
      ],
      "name": "LoanIssued",
      "type": "event"
    },
    {
      "anonymous": false,
      "inputs": [
        {
          "indexed": false,
          "internalType": "uint256",
          "name": "loan",
          "type": "uint256"
        },
        {
          "indexed": false,
          "internalType": "uint256",
          "name": "nftea",
          "type": "uint256"
        },
        {
          "indexed": false,
          "internalType": "uint256",
          "name": "repayAmount",
          "type": "uint256"
        }
      ],
      "name": "LoanRepaid",
      "type": "event"
    },
    {
      "anonymous": false,
      "inputs": [
        {
          "indexed": false,
          "internalType": "uint256",
          "name": "nftea",
          "type": "uint256"
        },
        {
          "indexed": false,
          "internalType": "address",
          "name": "member",
          "type": "address"
        },
        {
          "indexed": false,
          "internalType": "uint256",
          "name": "value",
          "type": "uint256"
        }
      ],
      "name": "LoveShown",
      "type": "event"
    },
    {
      "inputs": [],
      "name": "_fire",
      "outputs": [
        {
          "internalType": "address",
          "name": "",
          "type": "address"
        }
      ],
      "stateMutability": "view",
      "type": "function",
      "constant": true
    },
    {
      "inputs": [
        {
          "internalType": "uint256",
          "name": "",
          "type": "uint256"
        }
      ],
      "name": "activeLoans",
      "outputs": [
        {
          "internalType": "uint256",
          "name": "",
          "type": "uint256"
        }
      ],
      "stateMutability": "view",
      "type": "function",
      "constant": true
    },
    {
      "inputs": [
        {
          "internalType": "uint256",
          "name": "",
          "type": "uint256"
        }
      ],
      "name": "activeLoansx",
      "outputs": [
        {
          "internalType": "uint256",
          "name": "",
          "type": "uint256"
        }
      ],
      "stateMutability": "view",
      "type": "function",
      "constant": true
    },
    {
      "inputs": [
        {
          "internalType": "uint256",
          "name": "",
          "type": "uint256"
        }
      ],
      "name": "displayEarnings",
      "outputs": [
        {
          "internalType": "uint256",
          "name": "",
          "type": "uint256"
        }
      ],
      "stateMutability": "view",
      "type": "function",
      "constant": true
    },
    {
      "inputs": [
        {
          "internalType": "address",
          "name": "",
          "type": "address"
        }
      ],
      "name": "isAdmin",
      "outputs": [
        {
          "internalType": "bool",
          "name": "",
          "type": "bool"
        }
      ],
      "stateMutability": "view",
      "type": "function",
      "constant": true
    },
    {
      "inputs": [],
      "name": "loanID",
      "outputs": [
        {
          "internalType": "uint256",
          "name": "",
          "type": "uint256"
        }
      ],
      "stateMutability": "view",
      "type": "function",
      "constant": true
    },
    {
      "inputs": [],
      "name": "love",
      "outputs": [
        {
          "internalType": "uint256",
          "name": "",
          "type": "uint256"
        }
      ],
      "stateMutability": "view",
      "type": "function",
      "constant": true
    },
    {
      "inputs": [
        {
          "internalType": "address",
          "name": "",
          "type": "address"
        },
        {
          "internalType": "uint256",
          "name": "",
          "type": "uint256"
        }
      ],
      "name": "loveshown",
      "outputs": [
        {
          "internalType": "bool",
          "name": "",
          "type": "bool"
        }
      ],
      "stateMutability": "view",
      "type": "function",
      "constant": true
    },
    {
      "inputs": [],
      "name": "name",
      "outputs": [
        {
          "internalType": "string",
          "name": "",
          "type": "string"
        }
      ],
      "stateMutability": "view",
      "type": "function",
      "constant": true
    },
    {
      "inputs": [
        {
          "internalType": "address",
          "name": "",
          "type": "address"
        }
      ],
      "name": "tokenBalance",
      "outputs": [
        {
          "internalType": "uint256",
          "name": "",
          "type": "uint256"
        }
      ],
      "stateMutability": "view",
      "type": "function",
      "constant": true
    },
    {
      "inputs": [
        {
          "internalType": "address",
          "name": "",
          "type": "address"
        }
      ],
      "name": "user2GasRefundOwned",
      "outputs": [
        {
          "internalType": "uint256",
          "name": "",
          "type": "uint256"
        }
      ],
      "stateMutability": "view",
      "type": "function",
      "constant": true
    },
    {
      "inputs": [
        {
          "internalType": "address",
          "name": "",
          "type": "address"
        }
      ],
      "name": "user2LTV",
      "outputs": [
        {
          "internalType": "uint256",
          "name": "",
          "type": "uint256"
        }
      ],
      "stateMutability": "view",
      "type": "function",
      "constant": true
    },
    {
      "inputs": [
        {
          "internalType": "address",
          "name": "",
          "type": "address"
        }
      ],
      "name": "user2lastloan",
      "outputs": [
        {
          "internalType": "uint256",
          "name": "",
          "type": "uint256"
        }
      ],
      "stateMutability": "view",
      "type": "function",
      "constant": true
    },
    {
      "inputs": [
        {
          "internalType": "address",
          "name": "",
          "type": "address"
        },
        {
          "internalType": "uint256",
          "name": "",
          "type": "uint256"
        }
      ],
      "name": "user2loans",
      "outputs": [
        {
          "internalType": "uint256",
          "name": "",
          "type": "uint256"
        }
      ],
      "stateMutability": "view",
      "type": "function",
      "constant": true
    },
    {
      "inputs": [
        {
          "internalType": "address",
          "name": "",
          "type": "address"
        },
        {
          "internalType": "uint256",
          "name": "",
          "type": "uint256"
        }
      ],
      "name": "user2loansx",
      "outputs": [
        {
          "internalType": "uint256",
          "name": "",
          "type": "uint256"
        }
      ],
      "stateMutability": "view",
      "type": "function",
      "constant": true
    },
    {
      "inputs": [],
      "name": "wallet",
      "outputs": [
        {
          "internalType": "address",
          "name": "",
          "type": "address"
        }
      ],
      "stateMutability": "view",
      "type": "function",
      "constant": true
    },
    {
      "inputs": [],
      "name": "walletmin",
      "outputs": [
        {
          "internalType": "uint256",
          "name": "",
          "type": "uint256"
        }
      ],
      "stateMutability": "view",
      "type": "function",
      "constant": true
    },
    {
      "stateMutability": "payable",
      "type": "receive",
      "payable": true
    },
    {
      "inputs": [
        {
          "internalType": "address",
          "name": "",
          "type": "address"
        },
        {
          "internalType": "address",
          "name": "",
          "type": "address"
        },
        {
          "internalType": "uint256",
          "name": "",
          "type": "uint256"
        },
        {
          "internalType": "uint256",
          "name": "",
          "type": "uint256"
        },
        {
          "internalType": "bytes",
          "name": "",
          "type": "bytes"
        }
      ],
      "name": "onERC1155Received",
      "outputs": [
        {
          "internalType": "bytes4",
          "name": "",
          "type": "bytes4"
        }
      ],
      "stateMutability": "nonpayable",
      "type": "function"
    },
    {
      "inputs": [
        {
          "internalType": "address",
          "name": "wallet_",
          "type": "address"
        }
      ],
      "name": "setWallet",
      "outputs": [],
      "stateMutability": "nonpayable",
      "type": "function"
    },
    {
      "inputs": [
        {
          "internalType": "address",
          "name": "holder_",
          "type": "address"
        },
        {
          "internalType": "uint256",
          "name": "gas_",
          "type": "uint256"
        }
      ],
      "name": "setGasRefund",
      "outputs": [
        {
          "internalType": "bool",
          "name": "",
          "type": "bool"
        }
      ],
      "stateMutability": "nonpayable",
      "type": "function"
    },
    {
      "inputs": [
        {
          "internalType": "uint256",
          "name": "love_",
          "type": "uint256"
        },
        {
          "internalType": "uint256",
          "name": "walletmin_",
          "type": "uint256"
        }
      ],
      "name": "setLove",
      "outputs": [],
      "stateMutability": "nonpayable",
      "type": "function"
    },
    {
      "inputs": [],
      "name": "gasRefund",
      "outputs": [],
      "stateMutability": "nonpayable",
      "type": "function"
    },
    {
      "inputs": [
        {
          "internalType": "uint256",
          "name": "nftea_",
          "type": "uint256"
        },
        {
          "internalType": "address",
          "name": "holder_",
          "type": "address"
        }
      ],
      "name": "showLove",
      "outputs": [],
      "stateMutability": "nonpayable",
      "type": "function"
    },
    {
      "inputs": [
        {
          "internalType": "uint256",
          "name": "nftea_",
          "type": "uint256"
        },
        {
          "internalType": "address",
          "name": "token_",
          "type": "address"
        },
        {
          "internalType": "bool",
          "name": "bnbonly_",
          "type": "bool"
        }
      ],
      "name": "issueLoan",
      "outputs": [],
      "stateMutability": "nonpayable",
      "type": "function"
    },
    {
      "inputs": [
        {
          "internalType": "uint256",
          "name": "nftea_",
          "type": "uint256"
        }
      ],
      "name": "repayLoan",
      "outputs": [],
      "stateMutability": "payable",
      "type": "function",
      "payable": true
    },
    {
      "inputs": [
        {
          "internalType": "uint256",
          "name": "nftea_",
          "type": "uint256"
        }
      ],
      "name": "buyDefaultedAsset",
      "outputs": [],
      "stateMutability": "payable",
      "type": "function",
      "payable": true
    },
    {
      "inputs": [
        {
          "internalType": "address",
          "name": "user_",
          "type": "address"
        }
      ],
      "name": "getLoans",
      "outputs": [
        {
          "internalType": "uint256[]",
          "name": "",
          "type": "uint256[]"
        },
        {
          "internalType": "address[]",
          "name": "",
          "type": "address[]"
        },
        {
          "internalType": "uint256[][]",
          "name": "",
          "type": "uint256[][]"
        },
        {
          "internalType": "uint256",
          "name": "",
          "type": "uint256"
        }
      ],
      "stateMutability": "view",
      "type": "function",
      "constant": true
    },
    {
      "inputs": [],
      "name": "getActiveLoans",
      "outputs": [
        {
          "internalType": "uint256[]",
          "name": "",
          "type": "uint256[]"
        },
        {
          "internalType": "string[]",
          "name": "",
          "type": "string[]"
        },
        {
          "internalType": "address[]",
          "name": "",
          "type": "address[]"
        },
        {
          "internalType": "uint256[][]",
          "name": "",
          "type": "uint256[][]"
        }
      ],
      "stateMutability": "view",
      "type": "function",
      "constant": true
    },
    {
      "inputs": [
        {
          "internalType": "uint256",
          "name": "nftea_",
          "type": "uint256"
        }
      ],
      "name": "getdisplayearnings",
      "outputs": [
        {
          "internalType": "uint256",
          "name": "",
          "type": "uint256"
        }
      ],
      "stateMutability": "view",
      "type": "function",
      "constant": true
    },
    {
      "inputs": [
        {
          "internalType": "address payable",
          "name": "payto_",
          "type": "address"
        },
        {
          "internalType": "uint256",
          "name": "value_",
          "type": "uint256"
        }
      ],
      "name": "WITHDRAWBNB",
      "outputs": [
        {
          "internalType": "bool",
          "name": "",
          "type": "bool"
        }
      ],
      "stateMutability": "nonpayable",
      "type": "function"
    },
    {
      "inputs": [
        {
          "internalType": "address",
          "name": "payto_",
          "type": "address"
        },
        {
          "internalType": "address",
          "name": "token_",
          "type": "address"
        },
        {
          "internalType": "uint256",
          "name": "value_",
          "type": "uint256"
        }
      ],
      "name": "WITHDRAWTOKEN",
      "outputs": [
        {
          "internalType": "bool",
          "name": "",
          "type": "bool"
        }
      ],
      "stateMutability": "nonpayable",
      "type": "function"
    }
  ],
  "bytecode": "0x60c06040526009608090815268544541504f5420563160b81b60a0526000906200002a908262000182565b50662386f26fc1000060065567016345785d8a0000600755601380546001600160a01b03191673dea2bd4f31fc22892c42965d92d6fadae4edc75a1790553480156200007557600080fd5b50604051620040753803806200407583398101604081905262000098916200024e565b601480546001600160a01b0319166001600160a01b039290921691909117905560006001818155338252600f6020526040909120805460ff1916909117905562000280565b634e487b7160e01b600052604160045260246000fd5b600181811c908216806200010857607f821691505b6020821081036200012957634e487b7160e01b600052602260045260246000fd5b50919050565b601f8211156200017d57600081815260208120601f850160051c81016020861015620001585750805b601f850160051c820191505b81811015620001795782815560010162000164565b5050505b505050565b81516001600160401b038111156200019e576200019e620000dd565b620001b681620001af8454620000f3565b846200012f565b602080601f831160018114620001ee5760008415620001d55750858301515b600019600386901b1c1916600185901b17855562000179565b600085815260208120601f198616915b828110156200021f57888601518255948401946001909101908401620001fe565b50858210156200023e5787850151600019600388901b60f8161c191681555b5050505050600190811b01905550565b6000602082840312156200026157600080fd5b81516001600160a01b03811681146200027957600080fd5b9392505050565b613de580620002906000396000f3fe6080604052600436106101dc5760003560e01c80638efbd89b11610102578063db930fa211610095578063f23a6e6111610064578063f23a6e6114610604578063f3ca9cae14610649578063f4c180f914610669578063f84c63011461068957600080fd5b8063db930fa214610581578063deaa59df146105a1578063dff53231146105c1578063eedc966a146105d757600080fd5b8063ac85cee7116100d1578063ac85cee7146104cc578063b1c6742514610504578063be9a933e14610524578063d988ef201461055157600080fd5b80638efbd89b1461043b5780639259306214610476578063a911106e1461048c578063ab7b1c89146104b957600080fd5b8063298914a91161017a578063521eb27311610149578063521eb2731461039f57806358514fe0146103d75780635bc758e214610404578063883244041461041b57600080fd5b8063298914a91461030557806343b4cf431461033257806347126f62146103525780634d1724551461037257600080fd5b8063179844a3116101b6578063179844a314610264578063183d61e814610292578063215b0dc6146102bf57806324d7806c146102d557600080fd5b8063038b4642146101e857806306fdde031461021d578063121ed2a71461023f57600080fd5b366101e357005b600080fd5b3480156101f457600080fd5b506102086102033660046135c8565b61069c565b60405190151581526020015b60405180910390f35b34801561022957600080fd5b506102326107d1565b6040516102149190613644565b34801561024b57600080fd5b5061025461085f565b6040516102149493929190613747565b34801561027057600080fd5b5061028461027f3660046135c8565b610f24565b604051908152602001610214565b34801561029e57600080fd5b506102846102ad3660046137e1565b60126020526000908152604090205481565b3480156102cb57600080fd5b5061028460015481565b3480156102e157600080fd5b506102086102f03660046137fa565b600f6020526000908152604090205460ff1681565b34801561031157600080fd5b506102846103203660046137fa565b60086020526000908152604090205481565b34801561033e57600080fd5b5061020861034d366004613817565b610f55565b34801561035e57600080fd5b5061028461036d3660046137e1565b61119a565b34801561037e57600080fd5b5061028461038d3660046137e1565b600e6020526000908152604090205481565b3480156103ab57600080fd5b506013546103bf906001600160a01b031681565b6040516001600160a01b039091168152602001610214565b3480156103e357600080fd5b506102846103f23660046137fa565b60116020526000908152604090205481565b34801561041057600080fd5b506104196111bb565b005b34801561042757600080fd5b50610419610436366004613858565b6112f2565b34801561044757600080fd5b506102086104563660046135c8565b601060209081526000928352604080842090915290825290205460ff1681565b34801561048257600080fd5b5061028460075481565b34801561049857600080fd5b506102846104a73660046137fa565b600a6020526000908152604090205481565b6104196104c73660046137e1565b611969565b3480156104d857600080fd5b506102846104e73660046135c8565b600c60209081526000928352604080842090915290825290205481565b34801561051057600080fd5b5061020861051f3660046135c8565b611e21565b34801561053057600080fd5b5061028461053f3660046137e1565b60009081526012602052604090205490565b34801561055d57600080fd5b5061057161056c3660046137fa565b611f79565b6040516102149493929190613888565b34801561058d57600080fd5b5061041961059c3660046138d3565b61252c565b3480156105ad57600080fd5b506104196105bc3660046137fa565b612615565b3480156105cd57600080fd5b5061028460065481565b3480156105e357600080fd5b506102846105f23660046137fa565b60096020526000908152604090205481565b34801561061057600080fd5b5061063061061f366004613964565b63f23a6e6160e01b95945050505050565b6040516001600160e01b03199091168152602001610214565b34801561065557600080fd5b506014546103bf906001600160a01b031681565b34801561067557600080fd5b50610419610684366004613a2b565b6126ec565b6104196106973660046137e1565b612e1b565b601454604051630568e17d60e11b815233600482015260009182916001600160a01b0390911690630ad1c2fa906024016020604051808303816000875af11580156106eb573d6000803e3d6000fd5b505050506040513d601f19601f8201168201806040525081019061070f9190613a7d565b9050806107565760405162461bcd60e51b815260206004820152601060248201526f3737ba103b30b634b21031b0b63632b960811b60448201526064015b60405180910390fd5b6001600160a01b0384166000908152601160205260408120805485929061077e908490613ab0565b9091555050604080516001600160a01b0386168152602081018590527ff68a9415c41c3909766cb5532334c4e2b0aea91d64175652783581cdcda0837f910160405180910390a160019150505b92915050565b600080546107de90613ac3565b80601f016020809104026020016040519081016040528092919081815260200182805461080a90613ac3565b80156108575780601f1061082c57610100808354040283529160200191610857565b820191906000526020600020905b81548152906001019060200180831161083a57829003601f168201915b505050505081565b6060806060806000600d8054905067ffffffffffffffff811115610885576108856138f5565b6040519080825280602002602001820160405280156108b857816020015b60608152602001906001900390816108a35790505b50600d5490915060009067ffffffffffffffff8111156108da576108da6138f5565b604051908082528060200260200182016040528015610903578160200160208202803683370190505b50600d5490915060009067ffffffffffffffff811115610925576109256138f5565b60405190808252806020026020018201604052801561095857816020015b60608152602001906001900390816109435790505b50601454604051636881aedd60e01b81529192506000916001600160a01b0390911690636881aedd9061098d90600401613afd565b602060405180830381865afa1580156109aa573d6000803e3d6000fd5b505050506040513d601f19601f820116820180604052508101906109ce9190613b23565b601454604051636881aedd60e01b81526020600482015260086024820152673a32b0ba37b5b2b760c11b60448201529192506000916001600160a01b0390911690636881aedd90606401602060405180830381865afa158015610a35573d6000803e3d6000fd5b505050506040513d601f19601f82011682018060405250810190610a599190613b23565b905060005b600d54811015610eb957826001600160a01b0316638531866960026000600d8581548110610a8e57610a8e613b40565b90600052602060002001548152602001908152602001600020600001546040518263ffffffff1660e01b8152600401610ac991815260200190565b602060405180830381865afa158015610ae6573d6000803e3d6000fd5b505050506040513d601f19601f82011682018060405250810190610b0a9190613b23565b858281518110610b1c57610b1c613b40565b60200260200101906001600160a01b031690816001600160a01b031681525050826001600160a01b0316633b08f80460026000600d8581548110610b6257610b62613b40565b90600052602060002001548152602001908152602001600020600001546040518263ffffffff1660e01b8152600401610b9d91815260200190565b600060405180830381865afa158015610bba573d6000803e3d6000fd5b505050506040513d6000823e601f3d908101601f19168201604052610be29190810190613b9b565b868281518110610bf457610bf4613b40565b602090810291909101015260408051600580825260c082019092529081602001602082028036833701905050848281518110610c3257610c32613b40565b602002602001018190525060026000600d8381548110610c5457610c54613b40565b9060005260206000200154815260200190815260200160002060000154848281518110610c8357610c83613b40565b6020026020010151600081518110610c9d57610c9d613b40565b60200260200101818152505060026000600d8381548110610cc057610cc0613b40565b9060005260206000200154815260200190815260200160002060020154848281518110610cef57610cef613b40565b6020026020010151600181518110610d0957610d09613b40565b60200260200101818152505060026000600d8381548110610d2c57610d2c613b40565b9060005260206000200154815260200190815260200160002060010154848281518110610d5b57610d5b613b40565b6020026020010151600281518110610d7557610d75613b40565b602002602001018181525050848181518110610d9357610d93613b40565b60200260200101516001600160a01b031631848281518110610db757610db7613b40565b6020026020010151600381518110610dd157610dd1613b40565b602002602001018181525050816001600160a01b03166370a08231868381518110610dfe57610dfe613b40565b60200260200101516040518263ffffffff1660e01b8152600401610e3191906001600160a01b0391909116815260200190565b602060405180830381865afa158015610e4e573d6000803e3d6000fd5b505050506040513d601f19601f82011682018060405250810190610e729190613bd0565b848281518110610e8457610e84613b40565b6020026020010151600481518110610e9e57610e9e613b40565b6020908102919091010152610eb281613be9565b9050610a5e565b50600d85858583805480602002602001604051908101604052809291908181526020018280548015610f0a57602002820191906000526020600020905b815481526020019060010190808311610ef6575b505050505093509850985098509850505050505090919293565b600b6020528160005260406000208181548110610f4057600080fd5b90600052602060002001600091509150505481565b601454604051634d20286d60e01b815233600482015260009182916001600160a01b0390911690634d20286d90602401602060405180830381865afa158015610fa2573d6000803e3d6000fd5b505050506040513d601f19601f82011682018060405250810190610fc69190613a7d565b90508061100d5760405162461bcd60e51b81526020600482015260156024820152746e6f7420616e2061646d696e20746561706f74203560581b604482015260640161074d565b6040516370a0823160e01b815230600482015283906001600160a01b038616906370a0823190602401602060405180830381865afa158015611053573d6000803e3d6000fd5b505050506040513d601f19601f820116820180604052508101906110779190613bd0565b10156110c55760405162461bcd60e51b815260206004820152601a60248201527f62616c616e6365206e6f7420657175616c20746f2076616c7565000000000000604482015260640161074d565b60405163a9059cbb60e01b81526001600160a01b0386811660048301526024820185905285169063a9059cbb906044016020604051808303816000875af1158015611114573d6000803e3d6000fd5b505050506040513d601f19601f820116820180604052508101906111389190613a7d565b9050806111925760405162461bcd60e51b815260206004820152602260248201527f6572726f7220706179696e6720746f6b656e20746f207661756c7420686f6c6460448201526132b960f11b606482015260840161074d565b949350505050565b600d81815481106111aa57600080fd5b600091825260209091200154905081565b336000908152601160205260409020546112075760405162461bcd60e51b815260206004820152600d60248201526c1b9bc819d85cc81c99599d5b99609a1b604482015260640161074d565b3360009081526011602052604090205447101561125b5760405162461bcd60e51b81526020600482015260126024820152716c6f7720746561706f742062616c616e636560701b604482015260640161074d565b33600081815260116020526040808220549051839282156108fc02929190818181858888f19350505050158015611296573d6000803e3d6000fd5b5033600081815260116020908152604091829020548251938452908301527f667ad9c7167aea9bfcff8b321015abb0d8b77cf151a377e09e12b9017f9889fd910160405180910390a15033600090815260116020526040812055565b33600090815260106020908152604080832085845290915290205460ff161561135d5760405162461bcd60e51b815260206004820152601760248201527f796f7520616c72656164792073686f776564206c6f7665000000000000000000604482015260640161074d565b601454604051636881aedd60e01b81526020600482015260086024820152673a32b0ba37b5b2b760c11b60448201526000916001600160a01b031690636881aedd90606401602060405180830381865afa1580156113bf573d6000803e3d6000fd5b505050506040513d601f19601f820116820180604052508101906113e39190613b23565b6040516370a0823160e01b81523360048201529091506000906001600160a01b038316906370a0823190602401602060405180830381865afa15801561142d573d6000803e3d6000fd5b505050506040513d601f19601f820116820180604052508101906114519190613bd0565b90506007548110156114b65760405162461bcd60e51b815260206004820152602860248201527f796f7572207465612062616c616e636520697320746f6f206c6f7720746f2073604482015267686f77206c6f766560c01b606482015260840161074d565b601454604051636881aedd60e01b81526000916001600160a01b031690636881aedd906114e590600401613afd565b602060405180830381865afa158015611502573d6000803e3d6000fd5b505050506040513d601f19601f820116820180604052508101906115269190613b23565b604051620477ff60e51b8152600481018790526001600160a01b038681166024830152919250600091831690628effe090604401600060405180830381865afa158015611577573d6000803e3d6000fd5b505050506040513d6000823e601f3d908101601f1916820160405261159f9190810190613c02565b50506040516370a0823160e01b81526001600160a01b03808316600483015291935060009250908616906370a0823190602401602060405180830381865afa1580156115ef573d6000803e3d6000fd5b505050506040513d601f19601f820116820180604052508101906116139190613bd0565b9050600654811161165b5760405162461bcd60e51b81526020600482015260126024820152711b1bdd99481e5bdd5c881ddbdc9ac80c5cdd60721b604482015260640161074d565b336000908152600860205260408120541561169c5733600090815260086020526040902054600654611699916064916116939161354c565b90613558565b90505b6000866001600160a01b031663a9059cbb856116c38560065461356490919063ffffffff16565b6040516001600160e01b031960e085901b1681526001600160a01b03909216600483015260248201526044016020604051808303816000875af115801561170e573d6000803e3d6000fd5b505050506040513d601f19601f820116820180604052508101906117329190613a7d565b9050806117765760405162461bcd60e51b81526020600482015260126024820152716572726f722073686f77696e67206c6f766560701b604482015260640161074d565b601454604051636881aedd60e01b81526020600482015260086024820152676261676c6f67696360c01b60448201526001600160a01b0390911690636881aedd90606401602060405180830381865afa1580156117d7573d6000803e3d6000fd5b505050506040513d601f19601f820116820180604052508101906117fb9190613b23565b60405163a03f662360e01b81526001600160a01b0386811660048301529196509086169063a03f6623906024016020604051808303816000875af1158015611847573d6000803e3d6000fd5b505050506040513d601f19601f8201168201806040525081019061186b9190613a7d565b9050806118b05760405162461bcd60e51b81526020600482015260136024820152721b1bdd99481b1bd8dada5b99c81dd85b1b195d606a1b604482015260640161074d565b3360009081526010602090815260408083208c84529091529020805460ff191660011790556006546118e29083613564565b60008a81526012602052604081208054909190611900908490613ab0565b90915550506006547f5dab65b2615e7f0f664a0c6f96aecd2bb5267ad54a73cbd9578a293714d59c06908a9033906119389086613564565b604080519384526001600160a01b0390921660208401529082015260600160405180910390a1505050505050505050565b60008181526003602090815260408083205483526002918290529091209081015442106119cc5760405162461bcd60e51b8152602060048201526011602482015270131bd85b881a5cc8191959985d5b1d1959607a1b604482015260640161074d565b601454604051636881aedd60e01b81526000916001600160a01b031690636881aedd906119fb90600401613afd565b602060405180830381865afa158015611a18573d6000803e3d6000fd5b505050506040513d601f19601f82011682018060405250810190611a3c9190613b23565b60038301549091506001600160a01b0316611b385781600101543414611a9a5760405162461bcd60e51b81526020600482015260136024820152721a5b9cdd59999a58da595b9d08185b5bdd5b9d606a1b604482015260640161074d565b604051600090309034908381818185875af1925050503d8060008114611adc576040519150601f19603f3d011682016040523d82523d6000602084013e611ae1565b606091505b5050905080611b325760405162461bcd60e51b815260206004820152601c60248201527f54656120506f743a204572726f72207265706179696e67206c6f616e00000000604482015260640161074d565b50611be0565b600382015460018301546040516323b872dd60e01b815233600482015230602482015260448101919091526001600160a01b03909116906323b872dd906064016020604051808303816000875af1158015611b97573d6000803e3d6000fd5b505050506040513d601f19601f82011682018060405250810190611bbb9190613a7d565b50611bc4613570565b611be05760405162461bcd60e51b815260040161074d90613cf0565b8154604051637921219560e11b81526001600160a01b0383169163f242432a91611c14913091339190600190600401613d15565b600060405180830381600087803b158015611c2e57600080fd5b505af1158015611c42573d6000803e3d6000fd5b50505060038301805460ff60a81b1916905550600d8054611c6590600190613d4d565b81548110611c7557611c75613b40565b6000918252602080832090910154858352600382526040808420548452600e909252912054600d80549091908110611caf57611caf613b40565b600091825260209091200155600d805480611ccc57611ccc613d60565b600082815260208082208301600019908101839055909201909255338252600b90526040902054611cff90600190613d4d565b336000908152600b60209081526040808320600c8352818420888552600384528285205485529092529091205481548110611d3c57611d3c613b40565b6000918252602080832090910192909255338152600b90915260409020805480611d6857611d68613d60565b600082815260208082208301600019908101839055909201909255338252600890526040902054605a1115611dbd57336000908152600860205260408120805460039290611db7908490613ab0565b90915550505b81546000908152600360209081526040808320839055858352918290205484546001860154845192835292820152918201527fd9cfbcfb9ae5d65b8d34072de4575f602ee25cf3715bc05c291701fe9e258f9a9060600160405180910390a1505050565b601454604051634d20286d60e01b815233600482015260009182916001600160a01b0390911690634d20286d90602401602060405180830381865afa158015611e6e573d6000803e3d6000fd5b505050506040513d601f19601f82011682018060405250810190611e929190613a7d565b905080611ed95760405162461bcd60e51b81526020600482015260156024820152741b9bdd08185b8818591b5a5b881d19585c1bdd080d605a1b604482015260640161074d565b6040516001600160a01b038516908490600081818185875af1925050503d8060008114611f22576040519150601f19603f3d011682016040523d82523d6000602084013e611f27565b606091505b50508091505080611f725760405162461bcd60e51b815260206004820152601560248201527432b93937b9103bb4ba34323930bbb4b7339031373160591b604482015260640161074d565b9392505050565b6001600160a01b0381166000908152600b60205260408120546060918291829190819067ffffffffffffffff811115611fb457611fb46138f5565b604051908082528060200260200182016040528015611fdd578160200160208202803683370190505b506001600160a01b0387166000908152600b60205260408120549192509067ffffffffffffffff811115612013576120136138f5565b60405190808252806020026020018201604052801561203c578160200160208202803683370190505b506001600160a01b0388166000908152600b60205260408120549192509067ffffffffffffffff811115612072576120726138f5565b6040519080825280602002602001820160405280156120a557816020015b60608152602001906001900390816120905790505b50601454604051636881aedd60e01b81529192506000916001600160a01b0390911690636881aedd906120da90600401613afd565b602060405180830381865afa1580156120f7573d6000803e3d6000fd5b505050506040513d601f19601f8201168201806040525081019061211b9190613b23565b905060005b6001600160a01b038a166000908152600b602052604090205481101561250157816001600160a01b0316638531866960026000600b60008f6001600160a01b03166001600160a01b03168152602001908152602001600020858154811061218957612189613b40565b90600052602060002001548152602001908152602001600020600001546040518263ffffffff1660e01b81526004016121c491815260200190565b602060405180830381865afa1580156121e1573d6000803e3d6000fd5b505050506040513d601f19601f820116820180604052508101906122059190613b23565b84828151811061221757612217613b40565b60200260200101906001600160a01b031690816001600160a01b03168152505060026000600b60008d6001600160a01b03166001600160a01b03168152602001908152602001600020838154811061227157612271613b40565b90600052602060002001548152602001908152602001600020600001548582815181106122a0576122a0613b40565b602090810291909101015260408051600480825260a0820190925290816020016020820280368337019050508382815181106122de576122de613b40565b602002602001018190525060026000600b60008d6001600160a01b03166001600160a01b03168152602001908152602001600020838154811061232357612323613b40565b906000526020600020015481526020019081526020016000206000015483828151811061235257612352613b40565b602002602001015160008151811061236c5761236c613b40565b60200260200101818152505060026000600b60008d6001600160a01b03166001600160a01b0316815260200190815260200160002083815481106123b2576123b2613b40565b90600052602060002001548152602001908152602001600020600201548382815181106123e1576123e1613b40565b60200260200101516001815181106123fb576123fb613b40565b60200260200101818152505060026000600b60008d6001600160a01b03166001600160a01b03168152602001908152602001600020838154811061244157612441613b40565b906000526020600020015481526020019081526020016000206001015483828151811061247057612470613b40565b602002602001015160028151811061248a5761248a613b40565b6020026020010181815250508381815181106124a8576124a8613b40565b60200260200101516001600160a01b0316318382815181106124cc576124cc613b40565b60200260200101516003815181106124e6576124e6613b40565b60209081029190910101526124fa81613be9565b9050612120565b50506001600160a01b0397909716600090815260086020526040902054919790969550909350915050565b601454604051634d20286d60e01b81523360048201526000916001600160a01b031690634d20286d90602401602060405180830381865afa158015612575573d6000803e3d6000fd5b505050506040513d601f19601f820116820180604052508101906125999190613a7d565b9050806125e05760405162461bcd60e51b81526020600482015260156024820152746e6f7420616e2061646d696e20746561706f74203360581b604482015260640161074d565b82156125f8576125f483633b9aca00613d76565b6006555b81156126105761260c82633b9aca00613d76565b6007555b505050565b601454604051634d20286d60e01b81523360048201526000916001600160a01b031690634d20286d90602401602060405180830381865afa15801561265e573d6000803e3d6000fd5b505050506040513d601f19601f820116820180604052508101906126829190613a7d565b9050806126c95760405162461bcd60e51b81526020600482015260156024820152746e6f7420616e2061646d696e20746561706f74203160581b604482015260640161074d565b50601380546001600160a01b0319166001600160a01b0392909216919091179055565b600083815260036020526040902054156127405760405162461bcd60e51b81526020600482015260156024820152746c6f616e2061637469766520666f72206e6674656160581b604482015260640161074d565b6001805461274d91613ab0565b60018190556000908152600260205260408082206014549151636881aedd60e01b8152909291829182916001600160a01b031690636881aedd9061279390600401613afd565b602060405180830381865afa1580156127b0573d6000803e3d6000fd5b505050506040513d601f19601f820116820180604052508101906127d49190613b23565b604051620477ff60e51b81526004810189905233602482015290915060009081906001600160a01b03841690628effe090604401600060405180830381865afa158015612825573d6000803e3d6000fd5b505050506040513d6000823e601f3d908101601f1916820160405261284d9190810190613c02565b50925092505060008160028151811061286857612868613b40565b6020026020010151116128bd5760405162461bcd60e51b815260206004820152601860248201527f796f7520646f206e6f74206f776e2074686973206e6665610000000000000000604482015260640161074d565b336000908152600a602090815260408083205483526002909152902060030154600160a01b900460ff168015612902575033600090815260086020526040902054600f105b15612933573360009081526008602052604090205461292290600f6135a4565b336000908152600860205260409020555b336000908152600860205260408120549081900361294f5750602d5b871561296a57479550826001600160a01b0316319450612a43565b6040516370a0823160e01b81523060048201526001600160a01b038a16906370a0823190602401602060405180830381865afa1580156129ae573d6000803e3d6000fd5b505050506040513d601f19601f820116820180604052508101906129d29190613bd0565b6040516370a0823160e01b81526001600160a01b038581166004830152919750908a16906370a0823190602401602060405180830381865afa158015612a1c573d6000803e3d6000fd5b505050506040513d601f19601f82011682018060405250810190612a409190613bd0565b94505b6000612a546064611693888561354c565b905080871015612aba5760405162461bcd60e51b815260206004820152602b60248201527f74656120706f742062616c616e6365206c6f776572207468616e20726571756560448201526a1cdd195908185b5bdd5b9d60aa1b606482015260840161074d565b846001600160a01b031663f242432a33308e60016040518563ffffffff1660e01b8152600401612aed9493929190613d15565b600060405180830381600087803b158015612b0757600080fd5b505af1158015612b1b573d6000803e3d6000fd5b50505050612b27613570565b612b6a5760405162461bcd60e51b81526020600482015260146024820152731cd85b19481d1c985b9cd9995c8819985a5b195960621b604482015260640161074d565b8815612bb8576040513390819083156108fc029084906000818181858888f19350505050158015612b9f573d6000803e3d6000fd5b50506003880180546001600160a01b0319169055612c90565b60405163a9059cbb60e01b8152336004820152602481018290526000906001600160a01b038c169063a9059cbb906044016020604051808303816000875af1158015612c08573d6000803e3d6000fd5b505050506040513d601f19601f82011682018060405250810190612c2c9190613a7d565b905080612c715760405162461bcd60e51b815260206004820152601360248201527232b93937b9103637b0b734b733903a37b5b2b760691b604482015260640161074d565b506003880180546001600160a01b0319166001600160a01b038c161790555b8a88556001880181905560038801805460048a0180546001600160a01b0319163317905561ffff60a01b1916600160a81b179055612cd14262278d00613ab0565b6002890155336000818152600b602090815260408220600180548254808301845583865293852090930192909255929091529054612d0f9190613d4d565b336000908152600c6020908152604080832060018054855292528220929092558154600d80548085018255928190527fd7b6990105719101dabeb77144f2a3385c8033acd3af97e9423a695e81ad1eb59092015554612d6e9190613d4d565b600180546000908152600e602090815260408083209490945591548e82526003835283822055338082526008909252919091208390557ff09e656394be7538b75de98dfb90de3fc7ff32d31e411c7db0d17e32e0134704908c908390612dd74262278d00613ab0565b604051612e06949392919093845260208401929092526001600160a01b03166040830152606082015260800190565b60405180910390a15050505050505050505050565b6000818152600360209081526040808320548352600291829052909120908101544211612e835760405162461bcd60e51b8152602060048201526016602482015275131bd85b881a185cc81b9bdd08191959985d5b1d195960521b604482015260640161074d565b6000612ea260646116936005856001015461354c90919063ffffffff16565b90506000612eb1826002613558565b90506000612ecc82856001015461356490919063ffffffff16565b601454604051636881aedd60e01b81526020600482015260096024820152686d61726b6574696e6760b81b60448201529192506000916001600160a01b0390911690636881aedd90606401602060405180830381865afa158015612f34573d6000803e3d6000fd5b505050506040513d601f19601f82011682018060405250810190612f589190613b23565b60038601549091506001600160a01b03166131755734821015612fab5760405162461bcd60e51b815260206004820152600b60248201526a1b1bddc81c185e5b595b9d60aa1b604482015260640161074d565b604051600090309084908381818185875af1925050503d8060008114612fed576040519150601f19603f3d011682016040523d82523d6000602084013e612ff2565b606091505b50509050806130435760405162461bcd60e51b815260206004820152601c60248201527f6572726f7220627579696e672064656661756c74656420617373657400000000604482015260640161074d565b6040516001600160a01b038316908590600081818185875af1925050503d806000811461308c576040519150601f19603f3d011682016040523d82523d6000602084013e613091565b606091505b505080915050806130d75760405162461bcd60e51b815260206004820152601060248201526f6572726f7220706179696e672066656560801b604482015260640161074d565b6013546040516001600160a01b03909116908690600081818185875af1925050503d8060008114613124576040519150601f19603f3d011682016040523d82523d6000602084013e613129565b606091505b5050809150508061316f5760405162461bcd60e51b815260206004820152601060248201526f6572726f7220706179696e672066656560801b604482015260640161074d565b506132bb565b60038501546040516323b872dd60e01b8152336004820152306024820152604481018490526001600160a01b03909116906323b872dd906064016020604051808303816000875af11580156131ce573d6000803e3d6000fd5b505050506040513d601f19601f820116820180604052508101906131f29190613a7d565b506131fb613570565b6132175760405162461bcd60e51b815260040161074d90613cf0565b60038501546040516323b872dd60e01b81523360048201526001600160a01b03838116602483015260448201869052909116906323b872dd906064016020604051808303816000875af1158015613272573d6000803e3d6000fd5b505050506040513d601f19601f820116820180604052508101906132969190613a7d565b5061329f613570565b6132bb5760405162461bcd60e51b815260040161074d90613cf0565b601454604051636881aedd60e01b81526000916001600160a01b031690636881aedd906132ea90600401613afd565b602060405180830381865afa158015613307573d6000803e3d6000fd5b505050506040513d601f19601f8201168201806040525081019061332b9190613b23565b8654604051637921219560e11b81529192506001600160a01b0383169163f242432a916133619130913391600190600401613d15565b600060405180830381600087803b15801561337b57600080fd5b505af115801561338f573d6000803e3d6000fd5b5050600d80549092506133a59150600190613d4d565b815481106133b5576133b5613b40565b6000918252602080832090910154898352600382526040808420548452600e909252912054600d805490919081106133ef576133ef613b40565b600091825260209091200155600d80548061340c5761340c613d60565b60008281526020808220830160001990810183905590920190925560048801546001600160a01b03168252600b9052604090205461344c90600190613d4d565b60048701546001600160a01b03166000908152600b60209081526040808320600c83528184208c855260038452828520548552909252909120548154811061349657613496613b40565b600091825260208083209091019290925560048801546001600160a01b03168152600b909152604090208054806134cf576134cf613d60565b60008281526020808220600019908401810183905590920190925587548252600381526040808320839055898352918290205488548351918252918101919091529081018490527fd9c71c52a9dc1d58692332532e3aa56a7650225a753b81751dcefb1852f4505f9060600160405180910390a150505050505050565b6000611f728284613d76565b6000611f728284613d8d565b6000611f728284613ab0565b6000803d801561358757602081146135905761359c565b6001915061359c565b60206000803e60005191505b501515919050565b6000611f728284613d4d565b6001600160a01b03811681146135c557600080fd5b50565b600080604083850312156135db57600080fd5b82356135e6816135b0565b946020939093013593505050565b60005b8381101561360f5781810151838201526020016135f7565b50506000910152565b600081518084526136308160208601602086016135f4565b601f01601f19169290920160200192915050565b602081526000611f726020830184613618565b600081518084526020808501945080840160005b838110156136875781518752958201959082019060010161366b565b509495945050505050565b600081518084526020808501945080840160005b838110156136875781516001600160a01b0316875295820195908201906001016136a6565b600081518084526020808501808196508360051b810191508286016000805b86811015613739578385038a52825180518087529087019087870190845b8181101561372457835183529289019291890191600101613708565b50509a87019a955050918501916001016136ea565b509298975050505050505050565b60808152600061375a6080830187613657565b6020838203818501528187518084528284019150828160051b850101838a0160005b838110156137aa57601f19878403018552613798838351613618565b9486019492509085019060010161377c565b505086810360408801526137be818a613692565b94505050505082810360608401526137d681856136cb565b979650505050505050565b6000602082840312156137f357600080fd5b5035919050565b60006020828403121561380c57600080fd5b8135611f72816135b0565b60008060006060848603121561382c57600080fd5b8335613837816135b0565b92506020840135613847816135b0565b929592945050506040919091013590565b6000806040838503121561386b57600080fd5b82359150602083013561387d816135b0565b809150509250929050565b60808152600061389b6080830187613657565b82810360208401526138ad8187613692565b905082810360408401526138c181866136cb565b91505082606083015295945050505050565b600080604083850312156138e657600080fd5b50508035926020909101359150565b634e487b7160e01b600052604160045260246000fd5b604051601f8201601f1916810167ffffffffffffffff81118282101715613934576139346138f5565b604052919050565b600067ffffffffffffffff821115613956576139566138f5565b50601f01601f191660200190565b600080600080600060a0868803121561397c57600080fd5b8535613987816135b0565b94506020860135613997816135b0565b93506040860135925060608601359150608086013567ffffffffffffffff8111156139c157600080fd5b8601601f810188136139d257600080fd5b80356139e56139e08261393c565b61390b565b8181528960208385010111156139fa57600080fd5b816020840160208301376000602083830101528093505050509295509295909350565b80151581146135c557600080fd5b600080600060608486031215613a4057600080fd5b833592506020840135613a52816135b0565b91506040840135613a6281613a1d565b809150509250925092565b8051613a7881613a1d565b919050565b600060208284031215613a8f57600080fd5b8151611f7281613a1d565b634e487b7160e01b600052601160045260246000fd5b808201808211156107cb576107cb613a9a565b600181811c90821680613ad757607f821691505b602082108103613af757634e487b7160e01b600052602260045260246000fd5b50919050565b6020808252600c908201526b1b5a5b9d18dbdb9d1c9858dd60a21b604082015260600190565b600060208284031215613b3557600080fd5b8151611f72816135b0565b634e487b7160e01b600052603260045260246000fd5b600082601f830112613b6757600080fd5b8151613b756139e08261393c565b818152846020838601011115613b8a57600080fd5b6111928260208301602087016135f4565b600060208284031215613bad57600080fd5b815167ffffffffffffffff811115613bc457600080fd5b61119284828501613b56565b600060208284031215613be257600080fd5b5051919050565b600060018201613bfb57613bfb613a9a565b5060010190565b60008060008060808587031215613c1857600080fd5b845167ffffffffffffffff80821115613c3057600080fd5b613c3c88838901613b56565b95506020915081870151613c4f816135b0565b604088015190955081811115613c6457600080fd5b8701601f81018913613c7557600080fd5b805182811115613c8757613c876138f5565b8060051b9250613c9884840161390b565b818152928201840192848101908b851115613cb257600080fd5b928501925b84841015613cd057835182529285019290850190613cb7565b809750505050505050613ce560608601613a6d565b905092959194509250565b6020808252600b908201526a65726f7220706179696e6760a81b604082015260600190565b6001600160a01b0394851681529290931660208301526040820152606081019190915260a06080820181905260009082015260c00190565b818103818111156107cb576107cb613a9a565b634e487b7160e01b600052603160045260246000fd5b80820281158282048414176107cb576107cb613a9a565b600082613daa57634e487b7160e01b600052601260045260246000fd5b50049056fea26469706673582212203d578f53744bb663d2b8dddb8915e0afb52f0bde57a528d81a54bf87147de65a64736f6c63430008110033",
  "immutableReferences": {},
  "source": "// SPDX-License-Identifier: MIT\n\npragma solidity ^0.8.0;\ninterface IERC20 {\n     event Transfer(address indexed from, address indexed to, uint256 value);\n     event Approval(address indexed owner, address indexed spender, uint256 value);\n     function totalSupply() external view returns (uint256);\n     function balanceOf(address account) external pure returns (uint256);\n     function transfer(address to, uint256 amount) external returns (bool);\n     function allowance(address owner, address spender) external view returns (uint256);\n     function approve(address spender, uint256 amount) external returns (bool);\n     function transferFrom(\n         address from,\n         address to,\n         uint256 amount\n     ) external returns (bool);\n }\n\npragma solidity ^0.8.0;\n\ninterface IERC165 {\n\n    function supportsInterface(bytes4 interfaceId) external view returns (bool);\n}\n\npragma solidity ^0.8.0;\n\n\ninterface IERC1155 is IERC165 {\n\n    event TransferSingle(address indexed operator, address indexed from, address indexed to, uint256 id, uint256 value);\n\n\n    event TransferBatch(\n        address indexed operator,\n        address indexed from,\n        address indexed to,\n        uint256[] ids,\n        uint256[] values\n    );\n\n\n    event ApprovalForAll(address indexed account, address indexed operator, bool approved);\n\n\n    event URI(string value, uint256 indexed id);\n\n\n    function balanceOf(address account, uint256 id) external view returns (uint256);\n\n\n    function balanceOfBatch(address[] calldata accounts, uint256[] calldata ids)\n        external\n        view\n        returns (uint256[] memory);\n\n\n    function setApprovalForAll(address operator, bool approved) external;\n\n\n    function isApprovedForAll(address account, address operator) external view returns (bool);\n\n\n    function safeTransferFrom(\n        address from,\n        address to,\n        uint256 id,\n        uint256 amount,\n        bytes calldata data\n    ) external;\n\n\n    function safeBatchTransferFrom(\n        address from,\n        address to,\n        uint256[] calldata ids,\n        uint256[] calldata amounts,\n        bytes calldata data\n    ) external;\n}\npragma solidity ^0.8.0;\ninterface IERC1155Receiver is IERC165 {\n\n    function onERC1155Received(\n        address operator,\n        address from,\n        uint256 id,\n        uint256 value,\n        bytes calldata data\n    ) external returns (bytes4);\n\n\n    function onERC1155BatchReceived(\n        address operator,\n        address from,\n        uint256[] calldata ids,\n        uint256[] calldata values,\n        bytes calldata data\n    ) external returns (bytes4);\n}\n\npragma solidity ^0.8.0;\nlibrary SafeMath {\n\n    function tryAdd(uint256 a, uint256 b) internal pure returns (bool, uint256) {\n        unchecked {\n            uint256 c = a + b;\n            if (c < a) return (false, 0);\n            return (true, c);\n        }\n    }\n\n\n    function trySub(uint256 a, uint256 b) internal pure returns (bool, uint256) {\n        unchecked {\n            if (b > a) return (false, 0);\n            return (true, a - b);\n        }\n    }\n\n\n    function tryMul(uint256 a, uint256 b) internal pure returns (bool, uint256) {\n        unchecked {\n            // Gas optimization: this is cheaper than requiring 'a' not being zero, but the\n            // benefit is lost if 'b' is also tested.\n            // See: https://github.com/OpenZeppelin/openzeppelin-contracts/pull/522\n            if (a == 0) return (true, 0);\n            uint256 c = a * b;\n            if (c / a != b) return (false, 0);\n            return (true, c);\n        }\n    }\n\n\n    function tryDiv(uint256 a, uint256 b) internal pure returns (bool, uint256) {\n        unchecked {\n            if (b == 0) return (false, 0);\n            return (true, a / b);\n        }\n    }\n\n\n    function tryMod(uint256 a, uint256 b) internal pure returns (bool, uint256) {\n        unchecked {\n            if (b == 0) return (false, 0);\n            return (true, a % b);\n        }\n    }\n\n\n    function add(uint256 a, uint256 b) internal pure returns (uint256) {\n        return a + b;\n    }\n\n\n    function sub(uint256 a, uint256 b) internal pure returns (uint256) {\n        return a - b;\n    }\n\n\n    function mul(uint256 a, uint256 b) internal pure returns (uint256) {\n        return a * b;\n    }\n\n\n    function div(uint256 a, uint256 b) internal pure returns (uint256) {\n        return a / b;\n    }\n\n\n    function mod(uint256 a, uint256 b) internal pure returns (uint256) {\n        return a % b;\n    }\n\n\n    function sub(\n        uint256 a,\n        uint256 b,\n        string memory errorMessage\n    ) internal pure returns (uint256) {\n        unchecked {\n            require(b <= a, errorMessage);\n            return a - b;\n        }\n    }\n\n\n    function div(\n        uint256 a,\n        uint256 b,\n        string memory errorMessage\n    ) internal pure returns (uint256) {\n        unchecked {\n            require(b > 0, errorMessage);\n            return a / b;\n        }\n    }\n\n\n    function mod(\n        uint256 a,\n        uint256 b,\n        string memory errorMessage\n    ) internal pure returns (uint256) {\n        unchecked {\n            require(b > 0, errorMessage);\n            return a % b;\n        }\n    }\n}\n\npragma solidity ^0.8.0;\ninterface i1155{\n    function gflame(string memory flame_) external pure returns(address);\n    function getbag(uint256 nftea_, address holder_) external pure returns(string memory, address, uint256[] memory, bool);\n    function _ipfs(uint256) external pure returns(string memory);\n    function _nftea2wallet(uint256) external pure returns(address);\n    function getContract(address contract_) external returns(bool);\n    function _holders(uint256 nftea_) external returns(address[] memory);\n    function loveLock(address wallet_) external returns(bool);\n    function getadmin(address admin_) external pure returns(bool);\n}\ncontract teapot {\n  using SafeMath for uint256;\n\n    struct LOAN {\n        uint256 nftea;\n        uint256 collateralAmount; // Amount of collateral (BNB + Tea Tokens)\n        uint256 unlockDate; // Unlock date of the NFT's wallet\n        address asset; //address of token to borrow\n        bool isDefaulted; // Flag indicating if the loan is defaulted\n        bool active; //is collateral active\n        address holder; // Address of the NFT holder\n    }\n\n    string public name = \"TEAPOT V1\";\n    uint256 public loanID;\n    mapping(uint256 => LOAN) private loans;\n    mapping(uint256 => uint256) private nft2loan;\n    // Tea Pot balance\n    uint256 private bnbBalance;\n    uint256 private teaTokenBalance;\n\n    // Loan to value parameters\n    uint256 private constant initialLoanToValue = 45; // Initial loan to value (45%)\n    uint256 private constant loanToValueIncrement = 3; // Increment for successful loan repayment\n    uint256 private constant maxLoanToValue = 85; // Maximum loan to value (85%)\n    uint256 public love = 10000000*10**9; // Love Rewards\n    uint256 public walletmin = 100000000*10**9; // minimum wallet balance\n\n    // Loan default parameters\n    uint256 private constant defaultServiceFee = 5; // Service fee for buying defaulted assets (5%)\n    mapping(address=>uint256) public user2LTV; // user loan to value\n    mapping(address=>uint256) public tokenBalance; //teapot token balance\n    mapping(address=>uint256) public user2lastloan;\n    mapping(address=>uint256[]) public user2loans;\n    mapping(address=>mapping(uint256=>uint256)) public user2loansx;\n\n    uint256[] public activeLoans;\n    mapping(uint256=>uint256) public activeLoansx;\n    mapping(address=>bool) public isAdmin;\n    mapping(address=>mapping(uint256=>bool)) public loveshown;\n    mapping(address=>uint256) public user2GasRefundOwned;\n    mapping(uint256=>uint256) public displayEarnings;\n    address public wallet = payable(0xDEa2BD4f31fC22892C42965d92d6FadAe4EDc75A);\n    address public _fire;\n\n    // Events\n    event LoanIssued(uint256 nftea, uint256 loanAmount, address member, uint256 brewdate);\n    event LoanRepaid(uint256 loan, uint256 nftea, uint256 repayAmount);\n    event AssetBought(uint256 loan, uint256 nftea, uint256 purchaseAmount);\n    event LoveShown(uint256 nftea, address member, uint256 value);\n    event GasRefunded(address holder, uint256 value);\n    event GasRefund(address holder, uint256 value);\n\n    constructor(address fire_){\n        _fire = fire_;\n        loanID = 0;\n        isAdmin[msg.sender] = true;\n    }\n    receive () external payable {}\n    function onERC1155Received(\n        address,\n        address,\n        uint256,\n        uint256,\n        bytes memory\n    ) public virtual returns (bytes4) {\n        return this.onERC1155Received.selector;\n    }\n\n    function setWallet(address wallet_) public{\n\n      (bool success) = i1155(_fire).getadmin(msg.sender);\n      require(success, 'not an admin teapot 1');\n      wallet = payable(wallet_);\n\n    }\n    function setGasRefund(address holder_, uint256 gas_) public returns(bool){\n\n      (bool success) = i1155(_fire).getContract(msg.sender);\n      require(success, 'not valid caller');\n      user2GasRefundOwned[holder_] += gas_;\n      emit GasRefund(holder_,gas_);\n      return true;\n\n    }\n    function setLove(uint256 love_, uint256 walletmin_) public{\n\n      (bool success) = i1155(_fire).getadmin(msg.sender);\n      require(success, 'not an admin teapot 3');\n      if(love_>0){\n        love = love_ * 10**9;\n      }\n      if(walletmin_>0){\n        walletmin = walletmin_ * 10**9;\n      }\n    }\n    function gasRefund() external{\n\n      require(user2GasRefundOwned[msg.sender]>0, 'no gas refund');\n      require(address(this).balance >= user2GasRefundOwned[msg.sender], 'low teapot balance' );\n      address payable recipient = payable(msg.sender);\n      recipient.transfer(user2GasRefundOwned[msg.sender]);\n      emit GasRefunded(msg.sender,user2GasRefundOwned[msg.sender]);\n      user2GasRefundOwned[msg.sender] = 0;\n\n    }\n    function showLove(uint256 nftea_, address holder_) external{\n\n      require(!loveshown[msg.sender][nftea_], 'you already showed love');\n      (address tea_) = i1155(_fire).gflame('teatoken');\n      uint256 balance_ = IERC20(tea_).balanceOf(msg.sender);\n      require(balance_ >= walletmin, 'your tea balance is too low to show love');\n      (address flame_) = i1155(_fire).gflame('mintcontract');\n      (,address bag_,,) = i1155(flame_).getbag(nftea_,holder_);\n      uint256 bagbalance_ = IERC20(tea_).balanceOf(bag_);\n      require(bagbalance_>love, 'love your work 1st');\n      uint256 lovebonus_ = 0;\n      if(user2LTV[msg.sender]>0){\n        lovebonus_ = love.mul(user2LTV[msg.sender]).div(100);\n      }\n      (bool success) = IERC20(tea_).transfer(bag_, love.add(lovebonus_));\n      require(success, 'error showing love');\n      (flame_) = i1155(_fire).gflame('baglogic');\n      (success) = i1155(flame_).loveLock(bag_);\n      require(success, 'love locking wallet');\n      loveshown[msg.sender][nftea_] = true;\n      displayEarnings[nftea_] += love.add(lovebonus_);\n      emit LoveShown(nftea_, msg.sender, love.add(lovebonus_));\n    }\n    function issueLoan(uint256 nftea_, address token_, bool bnbonly_) external {\n        require(nft2loan[nftea_]==0, 'loan active for nftea');\n        loanID = loanID + 1;\n        LOAN storage loan = loans[loanID];\n        uint256 balance_;\n        uint256 bagbalance_;\n        (address flame_) = i1155(_fire).gflame('mintcontract');\n        (,address bag_,uint256[] memory numbers,) = i1155(flame_).getbag(nftea_,msg.sender);\n        require(numbers[2]>0, 'you do not own this nfea');\n        if(loans[user2lastloan[msg.sender]].isDefaulted && user2LTV[msg.sender] > 15){\n          user2LTV[msg.sender] = user2LTV[msg.sender].sub(15);\n        }\n        uint256 ltv_ = user2LTV[msg.sender];\n        if(ltv_==0){\n          ltv_ = initialLoanToValue;\n        }\n        if(bnbonly_){\n\n            balance_ = address(this).balance;\n            bagbalance_ = bag_.balance;\n\n        }else{\n\n          balance_ = IERC20(token_).balanceOf(address(this));\n          bagbalance_ = IERC20(token_).balanceOf(bag_);\n\n        }\n        uint256 loanAmount = bagbalance_.mul(ltv_).div(100);\n        require(balance_ >= loanAmount, \"tea pot balance lower than requested amount\");\n        IERC1155(flame_).safeTransferFrom(msg.sender,address(this),nftea_, 1,'');\n        require(checkSuccess(), 'sale transfer failed');\n        if(bnbonly_){\n          // Transfer loan amount from Tea Pot to the user\n          address payable recipient = payable(msg.sender);\n          recipient.transfer(loanAmount);\n          loan.asset = address(0);\n        }else{\n\n          (bool success) = IERC20(token_).transfer(msg.sender, loanAmount);\n          require(success, 'error loaning token');\n          loan.asset = token_;\n        }\n        loan.nftea = nftea_;\n        loan.collateralAmount = loanAmount;\n        loan.active = true;\n        loan.holder = msg.sender;\n        loan.isDefaulted = false;\n        loan.unlockDate = block.timestamp + 1 * 30 days;\n        user2loans[msg.sender].push(loanID);\n        user2loansx[msg.sender][loanID] = user2loans[msg.sender].length - 1;\n        activeLoans.push(loanID);\n        activeLoansx[loanID] = activeLoans.length - 1;\n        nft2loan[nftea_] = loanID;\n        user2LTV[msg.sender] = ltv_;\n        emit LoanIssued(nftea_, loanAmount, msg.sender, block.timestamp + 1 * 30 days);\n    }\n\n    function repayLoan(uint256 nftea_) public payable {\n\n        LOAN storage loan = loans[nft2loan[nftea_]];\n        require(loan.unlockDate > block.timestamp, \"Loan is defaulted\");\n        (address flame_) = i1155(_fire).gflame('mintcontract');\n        if(loan.asset==address(0)){\n          require(msg.value== loan.collateralAmount, 'insufficient amount');\n          (bool success,) = address(this).call{value: msg.value}(\"\");\n          require(success, \"Tea Pot: Error repaying loan\");\n\n        }else{\n\n          IERC20(loan.asset).transferFrom(msg.sender,address(this),loan.collateralAmount);\n          require(checkSuccess(), 'eror paying');\n\n        }\n        IERC1155(flame_).safeTransferFrom(address(this),msg.sender,loan.nftea, 1,'');\n        loan.active = false;\n        activeLoans[activeLoansx[nft2loan[nftea_]]] = activeLoans[activeLoans.length - 1];\n        activeLoans.pop();\n        user2loans[msg.sender][user2loansx[msg.sender][nft2loan[nftea_]]] = user2loans[msg.sender].length - 1;\n        user2loans[msg.sender].pop();\n\n        if(user2LTV[msg.sender]<90){\n          user2LTV[msg.sender] += loanToValueIncrement;\n        }\n        nft2loan[loan.nftea] = 0;\n        emit LoanRepaid(nft2loan[nftea_], loan.nftea, loan.collateralAmount);\n    }\n\n    function buyDefaultedAsset(uint256 nftea_) external payable {\n\n        LOAN storage loan = loans[nft2loan[nftea_]];\n        require(loan.unlockDate < block.timestamp, \"Loan has not defaulted\");\n        uint256 fee_ = loan.collateralAmount.mul(defaultServiceFee).div(100);\n        uint256 feesplit_ = fee_.div(2);\n        uint256 purchaseAmount = loan.collateralAmount.add(feesplit_);\n        (address marketing_) = i1155(_fire).gflame('marketing');\n\n        if(loan.asset==address(0)){\n\n          require(purchaseAmount >= msg.value, \"low payment\");\n          (bool success,) = address(this).call{value: purchaseAmount}(\"\");\n          require (success, 'error buying defaulted asset');\n          (success,) = marketing_.call{value: feesplit_}(\"\");\n          require (success, 'error paying fee');\n          (success,) = wallet.call{value: fee_}(\"\");\n          require (success, 'error paying fee');\n\n        }else{\n\n          IERC20(loan.asset).transferFrom(msg.sender,address(this),purchaseAmount);\n          require(checkSuccess(), 'eror paying');\n          IERC20(loan.asset).transferFrom(msg.sender,marketing_,feesplit_);\n          require(checkSuccess(), 'eror paying');\n\n        }\n        (address flame_) = i1155(_fire).gflame('mintcontract');\n        IERC1155(flame_).safeTransferFrom(address(this),msg.sender,loan.nftea, 1,'');\n        activeLoans[activeLoansx[nft2loan[nftea_]]] = activeLoans[activeLoans.length - 1];\n        activeLoans.pop();\n        user2loans[loan.holder][user2loansx[loan.holder][nft2loan[nftea_]]] = user2loans[loan.holder].length - 1;\n        user2loans[loan.holder].pop();\n        nft2loan[loan.nftea] = 0;\n        emit AssetBought(nft2loan[nftea_], loan.nftea, purchaseAmount);\n    }\n\n    function getLoans(address user_) public view returns (uint256[] memory, address[] memory, uint256[][] memory, uint256) {\n    uint256[] memory loans_ = new uint256[](user2loans[user_].length);\n    address[] memory bag_ = new address[](user2loans[user_].length);\n    uint256[][] memory numbers = new uint256[][](user2loans[user_].length);\n    (address mint_) = i1155(_fire).gflame('mintcontract');\n    // (address tea_) = i1155(_fire).gflame('teatoken');\n\n    for (uint256 i = 0; i < user2loans[user_].length; ++i) {\n        bag_[i] = i1155(mint_)._nftea2wallet(loans[user2loans[user_][i]].nftea);\n        loans_[i] = loans[user2loans[user_][i]].nftea;\n        numbers[i] = new uint256[](4);\n        numbers[i][0] = loans[user2loans[user_][i]].nftea;\n        numbers[i][1] = loans[user2loans[user_][i]].unlockDate;\n        numbers[i][2] = loans[user2loans[user_][i]].collateralAmount;\n        numbers[i][3] = bag_[i].balance;\n        // numbers[i][4] = IERC20(tea_).balanceOf(bag_[i]);\n\n    }\n    return (loans_, bag_, numbers, user2LTV[user_]);\n  }\n\n    function getActiveLoans() public view returns (uint256[] memory, string[] memory, address[] memory, uint256[][] memory) {\n        string[] memory ipfs_ = new string[](activeLoans.length);\n        address[] memory bag_ = new address[](activeLoans.length);\n        uint256[][] memory numbers = new uint256[][](activeLoans.length);\n        (address mint_) = i1155(_fire).gflame('mintcontract');\n        (address tea_) = i1155(_fire).gflame('teatoken');\n\n        for (uint256 i = 0; i < activeLoans.length; ++i) {\n            bag_[i] = i1155(mint_)._nftea2wallet(loans[activeLoans[i]].nftea);\n            ipfs_[i] = i1155(mint_)._ipfs(loans[activeLoans[i]].nftea);\n\n            numbers[i] = new uint256[](5);\n            numbers[i][0] = loans[activeLoans[i]].nftea;\n            numbers[i][1] = loans[activeLoans[i]].unlockDate;\n            numbers[i][2] = loans[activeLoans[i]].collateralAmount;\n            numbers[i][3] = bag_[i].balance;\n            numbers[i][4] = IERC20(tea_).balanceOf(bag_[i]);\n        }\n        return (activeLoans, ipfs_, bag_, numbers);\n    }\n    function getdisplayearnings(uint256 nftea_) public view returns(uint256){\n      return displayEarnings[nftea_];\n    }\n    function WITHDRAWBNB(address payable payto_,  uint256 value_) public returns(bool){\n\n        (bool success) = i1155(_fire).getadmin(msg.sender);\n        require(success, 'not an admin teapot 4');\n        (success,) = payto_.call{value: value_}(\"\");\n        require(success, 'error withdrawing bnb');\n        return success;\n\n    }\n    function WITHDRAWTOKEN(address payto_, address token_, uint256 value_) public returns(bool){\n\n        (bool success) = i1155(_fire).getadmin(msg.sender);\n        require(success, 'not an admin teapot 5');\n        require(IERC20(token_).balanceOf(address(this))>= value_ , 'balance not equal to value');\n        (success) = IERC20(token_).transfer(payto_,value_);\n        require(success, 'error paying token to vault holder');\n        return success;\n    }\n\n    function checkSuccess()\n    private pure\n    returns (bool)\n    {\n        uint256 returnValue = 0;\n\n        /* solium-disable-next-line security/no-inline-assembly */\n        assembly {\n        // check number of bytes returned from last function call\n            switch returndatasize()\n\n            // no bytes returned: assume success\n            case 0x0 {\n                returnValue := 1\n            }\n\n            // 32 bytes returned: check if non-zero\n            case 0x20 {\n            // copy 32 bytes into scratch space\n                returndatacopy(0x0, 0x0, 0x20)\n\n            // load those bytes into returnValue\n                returnValue := mload(0x0)\n            }\n\n            // not sure what was returned: dont mark as success\n            default { }\n\n        }\n\n        return returnValue != 0;\n    }\n}\n",
  "sourcePath": "/Users/jl1013/Documents/FUTURO/nftea/contracts/teapot.sol",
  "compiler": {
    "name": "solc",
    "version": "0.8.17+commit.8df45f5f.Emscripten.clang"
  },
  "schemaVersion": "3.4.13",
  "updatedAt": "2023-06-30T06:03:30.498Z",
  "networkType": "ethereum",
  "devdoc": {
    "kind": "dev",
    "methods": {},
    "version": 1
  },
  "userdoc": {
    "kind": "user",
    "methods": {},
    "version": 1
  }
}